{
  "abi": [
    {
      "inputs": [
        {
          "internalType": "address",
          "name": "creator_",
          "type": "address"
        },
        {
          "internalType": "address",
          "name": "navMod_",
          "type": "address"
        }
      ],
      "stateMutability": "nonpayable",
      "type": "constructor"
    },
    {
      "inputs": [],
      "name": "createSet",
      "outputs": [],
      "stateMutability": "nonpayable",
      "type": "function"
    },
    {
      "inputs": [],
      "name": "setToken",
      "outputs": [
        {
          "internalType": "address",
          "name": "",
          "type": "address"
        }
      ],
      "stateMutability": "view",
      "type": "function"
    }
  ],
  "bytecode": {
    "object": "0x6080604052600280546001600160a01b031990811673c02aaa39b223fe8d0a0e5c4f27ead9083c756cc217909155600380548216732260fac5e5542a773aa44fbcfedf7c193bc2c5991790556004805490911673a0b86991c6218b36c1d19d4a2e9eb0ce3606eb4817905534801561007657600080fd5b506040516106c73803806106c7833981016040819052610095916100e2565b600080546001600160a01b039384166001600160a01b03199182161790915560018054929093169116179055610115565b80516001600160a01b03811681146100dd57600080fd5b919050565b600080604083850312156100f557600080fd5b6100fe836100c6565b915061010c602084016100c6565b90509250929050565b6105a3806101246000396000f3fe608060405234801561001057600080fd5b50600436106100365760003560e01c80639aaf93751461003b578063ed9cf58c14610045575b600080fd5b610043610074565b005b600554610058906001600160a01b031681565b6040516001600160a01b03909116815260200160405180910390f35b60408051600280825260608201835260009260208301908036833750506040805160028082526060820183529394506000939092509060208301908036833750506040805160018082528183019092529293506000929150602080830190803683375050604080516002808252606082018352939450600093909250906020830190803683370190505090506101086103a1565b60025485516001600160a01b0390911690869060009061012a5761012a6103bf565b6001600160a01b03928316602091820292909201015260035486519116908690600190811061015b5761015b6103bf565b60200260200101906001600160a01b031690816001600160a01b031681525050671bc16d674ec8000084600081518110610197576101976103bf565b602002602001018181525050671bc16d674ec80000846001815181106101bf576101bf6103bf565b602090810291909101015260015483516001600160a01b039091169084906000906101ec576101ec6103bf565b6001600160a01b0392831660209182029290920101526002548351911690839060009061021b5761021b6103bf565b6001600160a01b03928316602091820292909201015260045483519116908390600190811061024c5761024c6103bf565b6001600160a01b03928316602091820292909201810191909152662386f26fc1000080845290830152600080546040516354a4ee1f60e11b81529192169063a949dc3e906102a4908990899089903390600401610419565b6020604051808303816000875af11580156102c3573d6000803e3d6000fd5b505050506040513d601f19601f820116820180604052508101906102e791906104dd565b905061031060405180604001604052806005815260200164039b2ba1d160dd1b81525082610337565b600580546001600160a01b0319166001600160a01b03929092169190911790555050505050565b61037c828260405160240161034d92919061050d565b60408051601f198184030181529190526020810180516001600160e01b031663319af33360e01b179052610380565b5050565b80516a636f6e736f6c652e6c6f67602083016000808483855afa5050505050565b60405180604001604052806002906020820280368337509192915050565b634e487b7160e01b600052603260045260246000fd5b600081518084526020808501945080840160005b8381101561040e5781516001600160a01b0316875295820195908201906001016103e9565b509495945050505050565b60c08152600061042c60c08301876103d5565b82810360208481019190915286518083528782019282019060005b8181101561046357845183529383019391830191600101610447565b5050848103604086015261047781886103d5565b9250505061049060608401856001600160a01b03169052565b8281036080840152600a81526908adccae4cef2408aa8960b31b60208201526040810183810360a085015260048152630ca8aa8960e31b6020820152905060408101979650505050505050565b6000602082840312156104ef57600080fd5b81516001600160a01b038116811461050657600080fd5b9392505050565b604081526000835180604084015260005b8181101561053b576020818701810151606086840101520161051e565b50600060608285018101919091526001600160a01b03949094166020840152601f01601f19169091019091019291505056fea264697066735822122070d8fab2791a44d9b4bbe8b237a3f620d966b1c77969304877794b7b00dc17b064736f6c63430008130033",
    "linkReferences": {}
  },
  "methodIdentifiers": {
    "createSet()": "9aaf9375",
    "setToken()": "ed9cf58c"
  },
  "id": 0
}