{
  "abi": [
    {
      "inputs": [
        {
          "internalType": "uint80",
          "name": "roundId_",
          "type": "uint80"
        }
      ],
      "name": "getRoundData",
      "outputs": [
        {
          "internalType": "int256",
          "name": "",
          "type": "int256"
        },
        {
          "internalType": "int256",
          "name": "",
          "type": "int256"
        },
        {
          "internalType": "int256",
          "name": "",
          "type": "int256"
        },
        {
          "internalType": "int256",
          "name": "",
          "type": "int256"
        },
        {
          "internalType": "int256",
          "name": "",
          "type": "int256"
        }
      ],
      "stateMutability": "view",
      "type": "function"
    },
    {
      "inputs": [],
      "name": "latestRoundData",
      "outputs": [
        {
          "internalType": "int256",
          "name": "",
          "type": "int256"
        },
        {
          "internalType": "int256",
          "name": "",
          "type": "int256"
        },
        {
          "internalType": "int256",
          "name": "",
          "type": "int256"
        },
        {
          "internalType": "int256",
          "name": "",
          "type": "int256"
        },
        {
          "internalType": "int256",
          "name": "",
          "type": "int256"
        }
      ],
      "stateMutability": "view",
      "type": "function"
    }
  ],
  "bytecode": {
    "object": "0x608060405234801561001057600080fd5b50610316806100206000396000f3fe608060405234801561001057600080fd5b50600436106100365760003560e01c80639a6fc8f51461003b578063feaf968c1461007a575b600080fd5b61004e610049366004610286565b610082565b604080519586526020860194909452928401919091526060830152608082015260a00160405180910390f35b61004e610190565b60008080808043816100a069ffffffffffffffffffff8916806102b9565b905081630420bcff811461011657630420bd00811461011657630420bd01811461011657630420c213811461012357630420d59b8114610130576304215a6b811461013d576304215e53811461014a576304216623811461015757630422aa5b8114610164576304234a8381146101715761017a565b6424d20b9cf9915061017a565b6425028ceca0915061017a565b6425a52bc63e915061017a565b6425a588dcc0915061017a565b64259e233750915061017a565b64257076f8f4915061017a565b6424ed060f60915061017a565b642404daa2a091505b5060009890975088965086955085945092505050565b600080808080438181630420bcff811461020c57630420bd00811461020c57630420bd01811461020c57630420c213811461021957630420d59b8114610226576304215a6b8114610233576304215e538114610240576304216623811461024d57630422aa5b811461025a576304234a83811461026757610270565b642404daa2a09150610270565b6424d20b9cf99150610270565b6425028ceca09150610270565b6425a52bc63e9150610270565b6425a588dcc09150610270565b64259e2337509150610270565b64257076f8f49150610270565b6424ed060f6091505b5060019790965060009550859450849350915050565b60006020828403121561029857600080fd5b813569ffffffffffffffffffff811681146102b257600080fd5b9392505050565b818103818111156102da57634e487b7160e01b600052601160045260246000fd5b9291505056fea2646970667358221220fef8bf4a4ca179d56713121506c84148466c186a20c6fd9585cd436739bb879a64736f6c63430008130033",
    "linkReferences": {}
  },
  "methodIdentifiers": {
    "getRoundData(uint80)": "9a6fc8f5",
    "latestRoundData()": "feaf968c"
  },
  "id": 4
}