{
  "abi": [
    {
      "inputs": [
        {
          "internalType": "uint80",
          "name": "roundId_",
          "type": "uint80"
        }
      ],
      "name": "getRoundData",
      "outputs": [
        {
          "internalType": "int256",
          "name": "",
          "type": "int256"
        },
        {
          "internalType": "int256",
          "name": "",
          "type": "int256"
        },
        {
          "internalType": "int256",
          "name": "",
          "type": "int256"
        },
        {
          "internalType": "int256",
          "name": "",
          "type": "int256"
        },
        {
          "internalType": "int256",
          "name": "",
          "type": "int256"
        }
      ],
      "stateMutability": "view",
      "type": "function"
    },
    {
      "inputs": [],
      "name": "latestRoundData",
      "outputs": [
        {
          "internalType": "int256",
          "name": "",
          "type": "int256"
        },
        {
          "internalType": "int256",
          "name": "",
          "type": "int256"
        },
        {
          "internalType": "int256",
          "name": "",
          "type": "int256"
        },
        {
          "internalType": "int256",
          "name": "",
          "type": "int256"
        },
        {
          "internalType": "int256",
          "name": "",
          "type": "int256"
        }
      ],
      "stateMutability": "view",
      "type": "function"
    }
  ],
  "bytecode": {
    "object": "0x608060405234801561001057600080fd5b506103a6806100206000396000f3fe608060405234801561001057600080fd5b50600436106100365760003560e01c80639a6fc8f51461003b578063feaf968c1461007a575b600080fd5b61004e610049366004610316565b610082565b604080519586526020860194909452928401919091526060830152608082015260a00160405180910390f35b61004e61018c565b60008080808043816100a069ffffffffffffffffffff891680610349565b905081630420bcfa811461010057630420c20e811461010d57630420d596811461011a576304215a668114610127576304215e4e811461013457630421661e811461014157630422aa56811461014e576304234a7e811461015b57610164565b6424d20b9cf99150610164565b6425028ceca09150610164565b6425a52bc63e9150610164565b6425a588dcc09150610164565b64259e2337509150610164565b64257076f8f49150610164565b6424ed060f609150610164565b642404daa2a091505b5061016e8261026c565b610177816102b4565b60009890975088965086955085945092505050565b600080808080438181630420bcfa81146101f257630420c20e81146101ff57630420d596811461020c576304215a668114610219576304215e4e811461022657630421661e811461023357630422aa568114610240576304234a7e811461024d57610256565b642404daa2a09150610256565b6424d20b9cf99150610256565b6425028ceca09150610256565b6425a52bc63e9150610256565b6425a588dcc09150610256565b64259e2337509150610256565b64257076f8f49150610256565b6424ed060f6091505b5060019790965060009550859450849350915050565b6102b18160405160240161028291815260200190565b60408051601f198184030181529190526020810180516001600160e01b031663f5b1bba960e01b1790526102f5565b50565b6102b1816040516024016102ca91815260200190565b60408051601f198184030181529190526020810180516001600160e01b0316634e0c1d1d60e01b1790525b80516a636f6e736f6c652e6c6f67602083016000808483855afa5050505050565b60006020828403121561032857600080fd5b813569ffffffffffffffffffff8116811461034257600080fd5b9392505050565b8181038181111561036a57634e487b7160e01b600052601160045260246000fd5b9291505056fea2646970667358221220762b337f636ebea0072e5c6537906e12948d15e5c5c6afd6b99150d85f6ac08664736f6c63430008130033",
    "linkReferences": {}
  },
  "methodIdentifiers": {
    "getRoundData(uint80)": "9a6fc8f5",
    "latestRoundData()": "feaf968c"
  },
  "id": 1
}