{
  "abi": [
    {
      "inputs": [],
      "stateMutability": "nonpayable",
      "type": "constructor"
    },
    {
      "inputs": [],
      "name": "Cant_be_zero",
      "type": "error"
    },
    {
      "inputs": [
        {
          "internalType": "uint256",
          "name": "amount",
          "type": "uint256"
        }
      ],
      "name": "Cant_transfer",
      "type": "error"
    },
    {
      "inputs": [
        {
          "internalType": "uint256",
          "name": "buyerBalance",
          "type": "uint256"
        }
      ],
      "name": "Not_enough_funds",
      "type": "error"
    },
    {
      "anonymous": false,
      "inputs": [
        {
          "indexed": true,
          "internalType": "address",
          "name": "owner",
          "type": "address"
        },
        {
          "indexed": true,
          "internalType": "address",
          "name": "spender",
          "type": "address"
        },
        {
          "indexed": false,
          "internalType": "uint256",
          "name": "value",
          "type": "uint256"
        }
      ],
      "name": "Approval",
      "type": "event"
    },
    {
      "anonymous": false,
      "inputs": [
        {
          "indexed": true,
          "internalType": "address",
          "name": "from",
          "type": "address"
        },
        {
          "indexed": true,
          "internalType": "address",
          "name": "to",
          "type": "address"
        },
        {
          "indexed": false,
          "internalType": "uint256",
          "name": "value",
          "type": "uint256"
        }
      ],
      "name": "Transfer",
      "type": "event"
    },
    {
      "inputs": [
        {
          "internalType": "address",
          "name": "owner",
          "type": "address"
        },
        {
          "internalType": "address",
          "name": "spender",
          "type": "address"
        }
      ],
      "name": "allowance",
      "outputs": [
        {
          "internalType": "uint256",
          "name": "",
          "type": "uint256"
        }
      ],
      "stateMutability": "view",
      "type": "function"
    },
    {
      "inputs": [
        {
          "internalType": "address",
          "name": "spender",
          "type": "address"
        },
        {
          "internalType": "uint256",
          "name": "amount",
          "type": "uint256"
        }
      ],
      "name": "approve",
      "outputs": [
        {
          "internalType": "bool",
          "name": "",
          "type": "bool"
        }
      ],
      "stateMutability": "nonpayable",
      "type": "function"
    },
    {
      "inputs": [
        {
          "internalType": "address",
          "name": "account",
          "type": "address"
        }
      ],
      "name": "balanceOf",
      "outputs": [
        {
          "internalType": "uint256",
          "name": "",
          "type": "uint256"
        }
      ],
      "stateMutability": "view",
      "type": "function"
    },
    {
      "inputs": [],
      "name": "decimals",
      "outputs": [
        {
          "internalType": "uint8",
          "name": "",
          "type": "uint8"
        }
      ],
      "stateMutability": "view",
      "type": "function"
    },
    {
      "inputs": [
        {
          "internalType": "address",
          "name": "spender",
          "type": "address"
        },
        {
          "internalType": "uint256",
          "name": "subtractedValue",
          "type": "uint256"
        }
      ],
      "name": "decreaseAllowance",
      "outputs": [
        {
          "internalType": "bool",
          "name": "",
          "type": "bool"
        }
      ],
      "stateMutability": "nonpayable",
      "type": "function"
    },
    {
      "inputs": [],
      "name": "getPrice",
      "outputs": [
        {
          "internalType": "uint256",
          "name": "",
          "type": "uint256"
        }
      ],
      "stateMutability": "view",
      "type": "function"
    },
    {
      "inputs": [
        {
          "internalType": "address",
          "name": "spender",
          "type": "address"
        },
        {
          "internalType": "uint256",
          "name": "addedValue",
          "type": "uint256"
        }
      ],
      "name": "increaseAllowance",
      "outputs": [
        {
          "internalType": "bool",
          "name": "",
          "type": "bool"
        }
      ],
      "stateMutability": "nonpayable",
      "type": "function"
    },
    {
      "inputs": [
        {
          "internalType": "address",
          "name": "user_",
          "type": "address"
        },
        {
          "internalType": "uint256",
          "name": "amount_",
          "type": "uint256"
        }
      ],
      "name": "issue",
      "outputs": [],
      "stateMutability": "nonpayable",
      "type": "function"
    },
    {
      "inputs": [],
      "name": "name",
      "outputs": [
        {
          "internalType": "string",
          "name": "",
          "type": "string"
        }
      ],
      "stateMutability": "view",
      "type": "function"
    },
    {
      "inputs": [],
      "name": "symbol",
      "outputs": [
        {
          "internalType": "string",
          "name": "",
          "type": "string"
        }
      ],
      "stateMutability": "view",
      "type": "function"
    },
    {
      "inputs": [],
      "name": "totalSupply",
      "outputs": [
        {
          "internalType": "uint256",
          "name": "",
          "type": "uint256"
        }
      ],
      "stateMutability": "view",
      "type": "function"
    },
    {
      "inputs": [
        {
          "internalType": "address",
          "name": "to",
          "type": "address"
        },
        {
          "internalType": "uint256",
          "name": "amount",
          "type": "uint256"
        }
      ],
      "name": "transfer",
      "outputs": [
        {
          "internalType": "bool",
          "name": "",
          "type": "bool"
        }
      ],
      "stateMutability": "nonpayable",
      "type": "function"
    },
    {
      "inputs": [
        {
          "internalType": "address",
          "name": "from",
          "type": "address"
        },
        {
          "internalType": "address",
          "name": "to",
          "type": "address"
        },
        {
          "internalType": "uint256",
          "name": "amount",
          "type": "uint256"
        }
      ],
      "name": "transferFrom",
      "outputs": [
        {
          "internalType": "bool",
          "name": "",
          "type": "bool"
        }
      ],
      "stateMutability": "nonpayable",
      "type": "function"
    }
  ],
  "bytecode": {
    "object": "0x60a0604052600580546001600160a01b031990811673ff970a61a04b1ca14834a43f5de4533ebddb5cc8179091557382af49447d8a07e3bd95bd0d56f35241523fbab160805260068054909116737d1f13dd05e6b0673dc3d0bfa14d40a74cfa3ef21790553480156200007157600080fd5b506040518060400160405280600a81526020016908adccae4cef2408aa8960b31b815250604051806040016040528060048152602001630ca8aa8960e31b8152508160039081620000c3919062000180565b506004620000d2828262000180565b5050506200024c565b634e487b7160e01b600052604160045260246000fd5b600181811c908216806200010657607f821691505b6020821081036200012757634e487b7160e01b600052602260045260246000fd5b50919050565b601f8211156200017b57600081815260208120601f850160051c81016020861015620001565750805b601f850160051c820191505b81811015620001775782815560010162000162565b5050505b505050565b81516001600160401b038111156200019c576200019c620000db565b620001b481620001ad8454620000f1565b846200012d565b602080601f831160018114620001ec5760008415620001d35750858301515b600019600386901b1c1916600185901b17855562000177565b600085815260208120601f198616915b828110156200021d57888601518255948401946001909101908401620001fc565b50858210156200023c5787850151600019600388901b60f8161c191681555b5050505050600190811b01905550565b608051610f836200026560003960005050610f836000f3fe608060405234801561001057600080fd5b50600436106100cf5760003560e01c806370a082311161008c57806398d5fdca1161006657806398d5fdca146101a2578063a457c2d7146101aa578063a9059cbb146101bd578063dd62ed3e146101d057600080fd5b806370a082311461015c578063867904b41461018557806395d89b411461019a57600080fd5b806306fdde03146100d4578063095ea7b3146100f257806318160ddd1461011557806323b872dd14610127578063313ce5671461013a5780633950935114610149575b600080fd5b6100dc6101e3565b6040516100e99190610d1c565b60405180910390f35b610105610100366004610d52565b610275565b60405190151581526020016100e9565b6002545b6040519081526020016100e9565b610105610135366004610d7c565b6102b7565b604051601281526020016100e9565b610105610157366004610d52565b6102db565b61011961016a366004610db8565b6001600160a01b031660009081526020819052604090205490565b610198610193366004610d52565b6102fd565b005b6100dc610657565b610119610666565b6101056101b8366004610d52565b6106d9565b6101056101cb366004610d52565b610754565b6101196101de366004610dd3565b610762565b6060600380546101f290610e06565b80601f016020809104026020016040519081016040528092919081815260200182805461021e90610e06565b801561026b5780601f106102405761010080835404028352916020019161026b565b820191906000526020600020905b81548152906001019060200180831161024e57829003601f168201915b5050505050905090565b600061029f6040518060400160405280600781526020016668656c6c6f6f6f60c81b81525061078d565b336102ab8185856107d3565b60019150505b92915050565b6000336102c5858285610983565b6102d08585856109fd565b506001949350505050565b6000336102ab8185856102ee8383610762565b6102f89190610e56565b6107d3565b8060000361031e57604051634bf29fe960e01b815260040160405180910390fd5b61034e604051806040016040528060078152602001660383934b1b29d160cd1b815250610349610666565b610ba1565b600064e8d4a5100061035e610666565b6103689084610e69565b6103729190610e80565b905061037e6003610bea565b6005546040516370a0823160e01b81523360048201526000916001600160a01b0316906370a0823190602401602060405180830381865afa1580156103c7573d6000803e3d6000fd5b505050506040513d601f19601f820116820180604052508101906103eb9190610ea2565b905061041860405180604001604052806009815260200168030b6b7bab73a2f9d160bd1b81525084610ba1565b6104486040518060400160405280600e81526020016d0313abcb2b92130b630b731b29d160951b81525082610ba1565b61047160405180604001604052806007815260200166038bab7ba329d160cd1b81525083610ba1565b6104b26040518060400160405280601e81526020017f627579657242616c616e6365203c2071756f7465202d2066616c73653a200000815250838310610c2f565b6104e960405180604001604052806015815260200174036b9b39739b2b73232b91034b71034b9b9bab29d1605d1b81525033610c74565b8181101561051257604051633dcd925d60e11b8152600481018290526024015b60405180910390fd5b600554604051636eb1769f60e11b81523360048201523060248201526000916001600160a01b03169063dd62ed3e90604401602060405180830381865afa158015610561573d6000803e3d6000fd5b505050506040513d601f19601f820116820180604052508101906105859190610ea2565b90506105b060405180604001604052806007815260200166030b63637bb9d160cd1b81525082610ba1565b6005546040516323b872dd60e01b8152336004820152306024820152604481018590526000916001600160a01b0316906323b872dd906064016020604051808303816000875af1158015610608573d6000803e3d6000fd5b505050506040513d601f19601f8201168201806040525081019061062c9190610ebb565b90508061064f576040516304598f4160e31b815260048101859052602401610509565b505050505050565b6060600480546101f290610e06565b6006546040805163cab0f33560e01b815290516000926001600160a01b03169163cab0f3359160048083019260209291908290030181865afa1580156106b0573d6000803e3d6000fd5b505050506040513d601f19601f820116820180604052508101906106d49190610ea2565b905090565b600033816106e78286610762565b9050838110156107475760405162461bcd60e51b815260206004820152602560248201527f45524332303a2064656372656173656420616c6c6f77616e63652062656c6f77604482015264207a65726f60d81b6064820152608401610509565b6102d082868684036107d3565b6000336102ab8185856109fd565b6001600160a01b03918216600090815260016020908152604080832093909416825291909152205490565b6107d0816040516024016107a19190610d1c565b60408051601f198184030181529190526020810180516001600160e01b031663104c13eb60e21b179052610cb5565b50565b6001600160a01b0383166108355760405162461bcd60e51b8152602060048201526024808201527f45524332303a20617070726f76652066726f6d20746865207a65726f206164646044820152637265737360e01b6064820152608401610509565b6001600160a01b0382166108965760405162461bcd60e51b815260206004820152602260248201527f45524332303a20617070726f766520746f20746865207a65726f206164647265604482015261737360f01b6064820152608401610509565b6108c66040518060400160405280600e81526020016d037bbb732b91034b71032b9319d160951b81525084610c74565b6108f86040518060400160405280601081526020016f039b832b73232b91034b71032b9319d160851b81525083610c74565b61092260405180604001604052806008815260200167030b6b7bab73a1d160c51b81525082610ba1565b6001600160a01b0383811660008181526001602090815260408083209487168084529482529182902085905590518481527f8c5be1e5ebec7d5bd14f71427d1e84f3dd0314c0f7b2291e5b200ac8c7c3b925910160405180910390a3505050565b600061098f8484610762565b905060001981146109f757818110156109ea5760405162461bcd60e51b815260206004820152601d60248201527f45524332303a20696e73756666696369656e7420616c6c6f77616e63650000006044820152606401610509565b6109f784848484036107d3565b50505050565b6001600160a01b038316610a615760405162461bcd60e51b815260206004820152602560248201527f45524332303a207472616e736665722066726f6d20746865207a65726f206164604482015264647265737360d81b6064820152608401610509565b6001600160a01b038216610ac35760405162461bcd60e51b815260206004820152602360248201527f45524332303a207472616e7366657220746f20746865207a65726f206164647260448201526265737360e81b6064820152608401610509565b6001600160a01b03831660009081526020819052604090205481811015610b3b5760405162461bcd60e51b815260206004820152602660248201527f45524332303a207472616e7366657220616d6f756e7420657863656564732062604482015265616c616e636560d01b6064820152608401610509565b6001600160a01b03848116600081815260208181526040808320878703905593871680835291849020805487019055925185815290927fddf252ad1be2c89b69c2b068fc378daa952ba7f163c4a11628f55a4df523b3ef910160405180910390a36109f7565b610be68282604051602401610bb7929190610edd565b60408051601f198184030181529190526020810180516001600160e01b03166309710a9d60e41b179052610cb5565b5050565b6107d081604051602401610c0091815260200190565b60408051601f198184030181529190526020810180516001600160e01b031663f5b1bba960e01b179052610cb5565b610be68282604051602401610c45929190610eff565b60408051601f198184030181529190526020810180516001600160e01b031663c3b5563560e01b179052610cb5565b610be68282604051602401610c8a929190610f23565b60408051601f198184030181529190526020810180516001600160e01b031663319af33360e01b1790525b80516a636f6e736f6c652e6c6f67602083016000808483855afa5050505050565b6000815180845260005b81811015610cfc57602081850181015186830182015201610ce0565b506000602082860101526020601f19601f83011685010191505092915050565b602081526000610d2f6020830184610cd6565b9392505050565b80356001600160a01b0381168114610d4d57600080fd5b919050565b60008060408385031215610d6557600080fd5b610d6e83610d36565b946020939093013593505050565b600080600060608486031215610d9157600080fd5b610d9a84610d36565b9250610da860208501610d36565b9150604084013590509250925092565b600060208284031215610dca57600080fd5b610d2f82610d36565b60008060408385031215610de657600080fd5b610def83610d36565b9150610dfd60208401610d36565b90509250929050565b600181811c90821680610e1a57607f821691505b602082108103610e3a57634e487b7160e01b600052602260045260246000fd5b50919050565b634e487b7160e01b600052601160045260246000fd5b808201808211156102b1576102b1610e40565b80820281158282048414176102b1576102b1610e40565b600082610e9d57634e487b7160e01b600052601260045260246000fd5b500490565b600060208284031215610eb457600080fd5b5051919050565b600060208284031215610ecd57600080fd5b81518015158114610d2f57600080fd5b604081526000610ef06040830185610cd6565b90508260208301529392505050565b604081526000610f126040830185610cd6565b905082151560208301529392505050565b604081526000610f366040830185610cd6565b905060018060a01b0383166020830152939250505056fea2646970667358221220cec3bd96ced7a3a657888c9a4b87e7c9d79390ef498e62e1c274daf1dbe9698664736f6c63430008130033",
    "linkReferences": {}
  },
  "methodIdentifiers": {
    "allowance(address,address)": "dd62ed3e",
    "approve(address,uint256)": "095ea7b3",
    "balanceOf(address)": "70a08231",
    "decimals()": "313ce567",
    "decreaseAllowance(address,uint256)": "a457c2d7",
    "getPrice()": "98d5fdca",
    "increaseAllowance(address,uint256)": "39509351",
    "issue(address,uint256)": "867904b4",
    "name()": "06fdde03",
    "symbol()": "95d89b41",
    "totalSupply()": "18160ddd",
    "transfer(address,uint256)": "a9059cbb",
    "transferFrom(address,address,uint256)": "23b872dd"
  },
  "id": 2
}