{
  "abi": [
    {
      "inputs": [],
      "stateMutability": "nonpayable",
      "type": "constructor"
    },
    {
      "inputs": [],
      "name": "Cant_be_zero",
      "type": "error"
    },
    {
      "inputs": [
        {
          "internalType": "uint256",
          "name": "amount",
          "type": "uint256"
        }
      ],
      "name": "Cant_transfer",
      "type": "error"
    },
    {
      "inputs": [
        {
          "internalType": "uint256",
          "name": "buyerBalance",
          "type": "uint256"
        }
      ],
      "name": "Not_enough_funds",
      "type": "error"
    },
    {
      "anonymous": false,
      "inputs": [
        {
          "indexed": true,
          "internalType": "address",
          "name": "owner",
          "type": "address"
        },
        {
          "indexed": true,
          "internalType": "address",
          "name": "spender",
          "type": "address"
        },
        {
          "indexed": false,
          "internalType": "uint256",
          "name": "value",
          "type": "uint256"
        }
      ],
      "name": "Approval",
      "type": "event"
    },
    {
      "anonymous": false,
      "inputs": [
        {
          "indexed": true,
          "internalType": "address",
          "name": "from",
          "type": "address"
        },
        {
          "indexed": true,
          "internalType": "address",
          "name": "to",
          "type": "address"
        },
        {
          "indexed": false,
          "internalType": "uint256",
          "name": "value",
          "type": "uint256"
        }
      ],
      "name": "Transfer",
      "type": "event"
    },
    {
      "inputs": [
        {
          "internalType": "address",
          "name": "owner",
          "type": "address"
        },
        {
          "internalType": "address",
          "name": "spender",
          "type": "address"
        }
      ],
      "name": "allowance",
      "outputs": [
        {
          "internalType": "uint256",
          "name": "",
          "type": "uint256"
        }
      ],
      "stateMutability": "view",
      "type": "function"
    },
    {
      "inputs": [
        {
          "internalType": "address",
          "name": "spender",
          "type": "address"
        },
        {
          "internalType": "uint256",
          "name": "amount",
          "type": "uint256"
        }
      ],
      "name": "approve",
      "outputs": [
        {
          "internalType": "bool",
          "name": "",
          "type": "bool"
        }
      ],
      "stateMutability": "nonpayable",
      "type": "function"
    },
    {
      "inputs": [
        {
          "internalType": "address",
          "name": "account",
          "type": "address"
        }
      ],
      "name": "balanceOf",
      "outputs": [
        {
          "internalType": "uint256",
          "name": "",
          "type": "uint256"
        }
      ],
      "stateMutability": "view",
      "type": "function"
    },
    {
      "inputs": [],
      "name": "decimals",
      "outputs": [
        {
          "internalType": "uint8",
          "name": "",
          "type": "uint8"
        }
      ],
      "stateMutability": "view",
      "type": "function"
    },
    {
      "inputs": [
        {
          "internalType": "address",
          "name": "spender",
          "type": "address"
        },
        {
          "internalType": "uint256",
          "name": "subtractedValue",
          "type": "uint256"
        }
      ],
      "name": "decreaseAllowance",
      "outputs": [
        {
          "internalType": "bool",
          "name": "",
          "type": "bool"
        }
      ],
      "stateMutability": "nonpayable",
      "type": "function"
    },
    {
      "inputs": [],
      "name": "getPrice",
      "outputs": [
        {
          "internalType": "uint256",
          "name": "",
          "type": "uint256"
        }
      ],
      "stateMutability": "view",
      "type": "function"
    },
    {
      "inputs": [
        {
          "internalType": "address",
          "name": "spender",
          "type": "address"
        },
        {
          "internalType": "uint256",
          "name": "addedValue",
          "type": "uint256"
        }
      ],
      "name": "increaseAllowance",
      "outputs": [
        {
          "internalType": "bool",
          "name": "",
          "type": "bool"
        }
      ],
      "stateMutability": "nonpayable",
      "type": "function"
    },
    {
      "inputs": [
        {
          "internalType": "address",
          "name": "user_",
          "type": "address"
        },
        {
          "internalType": "uint256",
          "name": "amount_",
          "type": "uint256"
        }
      ],
      "name": "issue",
      "outputs": [],
      "stateMutability": "nonpayable",
      "type": "function"
    },
    {
      "inputs": [],
      "name": "name",
      "outputs": [
        {
          "internalType": "string",
          "name": "",
          "type": "string"
        }
      ],
      "stateMutability": "view",
      "type": "function"
    },
    {
      "inputs": [],
      "name": "symbol",
      "outputs": [
        {
          "internalType": "string",
          "name": "",
          "type": "string"
        }
      ],
      "stateMutability": "view",
      "type": "function"
    },
    {
      "inputs": [],
      "name": "totalSupply",
      "outputs": [
        {
          "internalType": "uint256",
          "name": "",
          "type": "uint256"
        }
      ],
      "stateMutability": "view",
      "type": "function"
    },
    {
      "inputs": [
        {
          "internalType": "address",
          "name": "to",
          "type": "address"
        },
        {
          "internalType": "uint256",
          "name": "amount",
          "type": "uint256"
        }
      ],
      "name": "transfer",
      "outputs": [
        {
          "internalType": "bool",
          "name": "",
          "type": "bool"
        }
      ],
      "stateMutability": "nonpayable",
      "type": "function"
    },
    {
      "inputs": [
        {
          "internalType": "address",
          "name": "from",
          "type": "address"
        },
        {
          "internalType": "address",
          "name": "to",
          "type": "address"
        },
        {
          "internalType": "uint256",
          "name": "amount",
          "type": "uint256"
        }
      ],
      "name": "transferFrom",
      "outputs": [
        {
          "internalType": "bool",
          "name": "",
          "type": "bool"
        }
      ],
      "stateMutability": "nonpayable",
      "type": "function"
    }
  ],
  "bytecode": {
    "object": "0x60a0604052600580546001600160a01b031990811673ff970a61a04b1ca14834a43f5de4533ebddb5cc8179091557382af49447d8a07e3bd95bd0d56f35241523fbab160805260068054909116737d1f13dd05e6b0673dc3d0bfa14d40a74cfa3ef21790553480156200007157600080fd5b506040518060400160405280600a81526020016908adccae4cef2408aa8960b31b815250604051806040016040528060048152602001630ca8aa8960e31b8152508160039081620000c3919062000180565b506004620000d2828262000180565b5050506200024c565b634e487b7160e01b600052604160045260246000fd5b600181811c908216806200010657607f821691505b6020821081036200012757634e487b7160e01b600052602260045260246000fd5b50919050565b601f8211156200017b57600081815260208120601f850160051c81016020861015620001565750805b601f850160051c820191505b81811015620001775782815560010162000162565b5050505b505050565b81516001600160401b038111156200019c576200019c620000db565b620001b481620001ad8454620000f1565b846200012d565b602080601f831160018114620001ec5760008415620001d35750858301515b600019600386901b1c1916600185901b17855562000177565b600085815260208120601f198616915b828110156200021d57888601518255948401946001909101908401620001fc565b50858210156200023c5787850151600019600388901b60f8161c191681555b5050505050600190811b01905550565b608051610d076200026560003960005050610d076000f3fe608060405234801561001057600080fd5b50600436106100cf5760003560e01c806370a082311161008c57806398d5fdca1161006657806398d5fdca146101a2578063a457c2d7146101aa578063a9059cbb146101bd578063dd62ed3e146101d057600080fd5b806370a082311461015c578063867904b41461018557806395d89b411461019a57600080fd5b806306fdde03146100d4578063095ea7b3146100f257806318160ddd1461011557806323b872dd14610127578063313ce5671461013a5780633950935114610149575b600080fd5b6100dc6101e3565b6040516100e99190610ac4565b60405180910390f35b610105610100366004610afa565b610275565b60405190151581526020016100e9565b6002545b6040519081526020016100e9565b610105610135366004610b24565b6102b7565b604051601281526020016100e9565b610105610157366004610afa565b6102db565b61011961016a366004610b60565b6001600160a01b031660009081526020819052604090205490565b610198610193366004610afa565b6102fd565b005b6100dc610485565b610119610494565b6101056101b8366004610afa565b610507565b6101056101cb366004610afa565b610582565b6101196101de366004610b7b565b610590565b6060600380546101f290610bae565b80601f016020809104026020016040519081016040528092919081815260200182805461021e90610bae565b801561026b5780601f106102405761010080835404028352916020019161026b565b820191906000526020600020905b81548152906001019060200180831161024e57829003601f168201915b5050505050905090565b600061029f6040518060400160405280600781526020016668656c6c6f6f6f60c81b8152506105bb565b336102ab818585610601565b60019150505b92915050565b6000336102c58582856107b1565b6102d085858561082b565b506001949350505050565b6000336102ab8185856102ee8383610590565b6102f89190610bfe565b610601565b8060000361031e57604051634bf29fe960e01b815260040160405180910390fd5b600064e8d4a5100061032e610494565b6103389084610c11565b6103429190610c28565b6005546040516370a0823160e01b81523360048201529192506000916001600160a01b03909116906370a0823190602401602060405180830381865afa158015610390573d6000803e3d6000fd5b505050506040513d601f19601f820116820180604052508101906103b49190610c4a565b9050818110156103df57604051633dcd925d60e11b8152600481018290526024015b60405180910390fd5b6005546040516323b872dd60e01b8152336004820152306024820152604481018490526000916001600160a01b0316906323b872dd906064016020604051808303816000875af1158015610437573d6000803e3d6000fd5b505050506040513d601f19601f8201168201806040525081019061045b9190610c63565b90508061047e576040516304598f4160e31b8152600481018490526024016103d6565b5050505050565b6060600480546101f290610bae565b6006546040805163cab0f33560e01b815290516000926001600160a01b03169163cab0f3359160048083019260209291908290030181865afa1580156104de573d6000803e3d6000fd5b505050506040513d601f19601f820116820180604052508101906105029190610c4a565b905090565b600033816105158286610590565b9050838110156105755760405162461bcd60e51b815260206004820152602560248201527f45524332303a2064656372656173656420616c6c6f77616e63652062656c6f77604482015264207a65726f60d81b60648201526084016103d6565b6102d08286868403610601565b6000336102ab81858561082b565b6001600160a01b03918216600090815260016020908152604080832093909416825291909152205490565b6105fe816040516024016105cf9190610ac4565b60408051601f198184030181529190526020810180516001600160e01b031663104c13eb60e21b1790526109cf565b50565b6001600160a01b0383166106635760405162461bcd60e51b8152602060048201526024808201527f45524332303a20617070726f76652066726f6d20746865207a65726f206164646044820152637265737360e01b60648201526084016103d6565b6001600160a01b0382166106c45760405162461bcd60e51b815260206004820152602260248201527f45524332303a20617070726f766520746f20746865207a65726f206164647265604482015261737360f01b60648201526084016103d6565b6106f46040518060400160405280600e81526020016d037bbb732b91034b71032b9319d160951b815250846109f0565b6107266040518060400160405280601081526020016f039b832b73232b91034b71032b9319d160851b815250836109f0565b61075060405180604001604052806008815260200167030b6b7bab73a1d160c51b81525082610a39565b6001600160a01b0383811660008181526001602090815260408083209487168084529482529182902085905590518481527f8c5be1e5ebec7d5bd14f71427d1e84f3dd0314c0f7b2291e5b200ac8c7c3b925910160405180910390a3505050565b60006107bd8484610590565b9050600019811461082557818110156108185760405162461bcd60e51b815260206004820152601d60248201527f45524332303a20696e73756666696369656e7420616c6c6f77616e636500000060448201526064016103d6565b6108258484848403610601565b50505050565b6001600160a01b03831661088f5760405162461bcd60e51b815260206004820152602560248201527f45524332303a207472616e736665722066726f6d20746865207a65726f206164604482015264647265737360d81b60648201526084016103d6565b6001600160a01b0382166108f15760405162461bcd60e51b815260206004820152602360248201527f45524332303a207472616e7366657220746f20746865207a65726f206164647260448201526265737360e81b60648201526084016103d6565b6001600160a01b038316600090815260208190526040902054818110156109695760405162461bcd60e51b815260206004820152602660248201527f45524332303a207472616e7366657220616d6f756e7420657863656564732062604482015265616c616e636560d01b60648201526084016103d6565b6001600160a01b03848116600081815260208181526040808320878703905593871680835291849020805487019055925185815290927fddf252ad1be2c89b69c2b068fc378daa952ba7f163c4a11628f55a4df523b3ef910160405180910390a3610825565b80516a636f6e736f6c652e6c6f67602083016000808483855afa5050505050565b610a358282604051602401610a06929190610c85565b60408051601f198184030181529190526020810180516001600160e01b031663319af33360e01b1790526109cf565b5050565b610a358282604051602401610a4f929190610caf565b60408051601f198184030181529190526020810180516001600160e01b03166309710a9d60e41b1790526109cf565b6000815180845260005b81811015610aa457602081850181015186830182015201610a88565b506000602082860101526020601f19601f83011685010191505092915050565b602081526000610ad76020830184610a7e565b9392505050565b80356001600160a01b0381168114610af557600080fd5b919050565b60008060408385031215610b0d57600080fd5b610b1683610ade565b946020939093013593505050565b600080600060608486031215610b3957600080fd5b610b4284610ade565b9250610b5060208501610ade565b9150604084013590509250925092565b600060208284031215610b7257600080fd5b610ad782610ade565b60008060408385031215610b8e57600080fd5b610b9783610ade565b9150610ba560208401610ade565b90509250929050565b600181811c90821680610bc257607f821691505b602082108103610be257634e487b7160e01b600052602260045260246000fd5b50919050565b634e487b7160e01b600052601160045260246000fd5b808201808211156102b1576102b1610be8565b80820281158282048414176102b1576102b1610be8565b600082610c4557634e487b7160e01b600052601260045260246000fd5b500490565b600060208284031215610c5c57600080fd5b5051919050565b600060208284031215610c7557600080fd5b81518015158114610ad757600080fd5b604081526000610c986040830185610a7e565b905060018060a01b03831660208301529392505050565b604081526000610cc26040830185610a7e565b9050826020830152939250505056fea2646970667358221220dadc54bdb3382318b2ed3e7c2dd710f157e8aab5a16b28ad0feabb2e8e6623f264736f6c63430008130033",
    "linkReferences": {}
  },
  "methodIdentifiers": {
    "allowance(address,address)": "dd62ed3e",
    "approve(address,uint256)": "095ea7b3",
    "balanceOf(address)": "70a08231",
    "decimals()": "313ce567",
    "decreaseAllowance(address,uint256)": "a457c2d7",
    "getPrice()": "98d5fdca",
    "increaseAllowance(address,uint256)": "39509351",
    "issue(address,uint256)": "867904b4",
    "name()": "06fdde03",
    "symbol()": "95d89b41",
    "totalSupply()": "18160ddd",
    "transfer(address,uint256)": "a9059cbb",
    "transferFrom(address,address,uint256)": "23b872dd"
  },
  "id": 2
}