{
  "abi": [
    {
      "inputs": [
        {
          "internalType": "address",
          "name": "wtiFeed_",
          "type": "address"
        },
        {
          "internalType": "address",
          "name": "volatilityFeed_",
          "type": "address"
        },
        {
          "internalType": "address",
          "name": "ethUsdFeed_",
          "type": "address"
        }
      ],
      "stateMutability": "nonpayable",
      "type": "constructor"
    },
    {
      "anonymous": false,
      "inputs": [
        {
          "indexed": true,
          "internalType": "address",
          "name": "owner",
          "type": "address"
        },
        {
          "indexed": true,
          "internalType": "address",
          "name": "spender",
          "type": "address"
        },
        {
          "indexed": false,
          "internalType": "uint256",
          "name": "value",
          "type": "uint256"
        }
      ],
      "name": "Approval",
      "type": "event"
    },
    {
      "anonymous": false,
      "inputs": [
        {
          "indexed": true,
          "internalType": "address",
          "name": "from",
          "type": "address"
        },
        {
          "indexed": true,
          "internalType": "address",
          "name": "to",
          "type": "address"
        },
        {
          "indexed": false,
          "internalType": "uint256",
          "name": "value",
          "type": "uint256"
        }
      ],
      "name": "Transfer",
      "type": "event"
    },
    {
      "inputs": [
        {
          "internalType": "address",
          "name": "owner",
          "type": "address"
        },
        {
          "internalType": "address",
          "name": "spender",
          "type": "address"
        }
      ],
      "name": "allowance",
      "outputs": [
        {
          "internalType": "uint256",
          "name": "",
          "type": "uint256"
        }
      ],
      "stateMutability": "view",
      "type": "function"
    },
    {
      "inputs": [
        {
          "internalType": "address",
          "name": "spender",
          "type": "address"
        },
        {
          "internalType": "uint256",
          "name": "amount",
          "type": "uint256"
        }
      ],
      "name": "approve",
      "outputs": [
        {
          "internalType": "bool",
          "name": "",
          "type": "bool"
        }
      ],
      "stateMutability": "nonpayable",
      "type": "function"
    },
    {
      "inputs": [
        {
          "internalType": "address",
          "name": "account",
          "type": "address"
        }
      ],
      "name": "balanceOf",
      "outputs": [
        {
          "internalType": "uint256",
          "name": "",
          "type": "uint256"
        }
      ],
      "stateMutability": "view",
      "type": "function"
    },
    {
      "inputs": [],
      "name": "decimals",
      "outputs": [
        {
          "internalType": "uint8",
          "name": "",
          "type": "uint8"
        }
      ],
      "stateMutability": "view",
      "type": "function"
    },
    {
      "inputs": [
        {
          "internalType": "address",
          "name": "spender",
          "type": "address"
        },
        {
          "internalType": "uint256",
          "name": "subtractedValue",
          "type": "uint256"
        }
      ],
      "name": "decreaseAllowance",
      "outputs": [
        {
          "internalType": "bool",
          "name": "",
          "type": "bool"
        }
      ],
      "stateMutability": "nonpayable",
      "type": "function"
    },
    {
      "inputs": [],
      "name": "getLastPrice",
      "outputs": [
        {
          "internalType": "uint256",
          "name": "",
          "type": "uint256"
        }
      ],
      "stateMutability": "view",
      "type": "function"
    },
    {
      "inputs": [
        {
          "internalType": "address",
          "name": "spender",
          "type": "address"
        },
        {
          "internalType": "uint256",
          "name": "addedValue",
          "type": "uint256"
        }
      ],
      "name": "increaseAllowance",
      "outputs": [
        {
          "internalType": "bool",
          "name": "",
          "type": "bool"
        }
      ],
      "stateMutability": "nonpayable",
      "type": "function"
    },
    {
      "inputs": [],
      "name": "name",
      "outputs": [
        {
          "internalType": "string",
          "name": "",
          "type": "string"
        }
      ],
      "stateMutability": "view",
      "type": "function"
    },
    {
      "inputs": [],
      "name": "symbol",
      "outputs": [
        {
          "internalType": "string",
          "name": "",
          "type": "string"
        }
      ],
      "stateMutability": "view",
      "type": "function"
    },
    {
      "inputs": [],
      "name": "totalSupply",
      "outputs": [
        {
          "internalType": "uint256",
          "name": "",
          "type": "uint256"
        }
      ],
      "stateMutability": "view",
      "type": "function"
    },
    {
      "inputs": [
        {
          "internalType": "address",
          "name": "to",
          "type": "address"
        },
        {
          "internalType": "uint256",
          "name": "amount",
          "type": "uint256"
        }
      ],
      "name": "transfer",
      "outputs": [
        {
          "internalType": "bool",
          "name": "",
          "type": "bool"
        }
      ],
      "stateMutability": "nonpayable",
      "type": "function"
    },
    {
      "inputs": [
        {
          "internalType": "address",
          "name": "from",
          "type": "address"
        },
        {
          "internalType": "address",
          "name": "to",
          "type": "address"
        },
        {
          "internalType": "uint256",
          "name": "amount",
          "type": "uint256"
        }
      ],
      "name": "transferFrom",
      "outputs": [
        {
          "internalType": "bool",
          "name": "",
          "type": "bool"
        }
      ],
      "stateMutability": "nonpayable",
      "type": "function"
    }
  ],
  "bytecode": {
    "object": "0x60806040526305f5e1006008819055678ac7230489e8000060095562000028906103e862000117565b600a553480156200003857600080fd5b5060405162001107380380620011078339810160408190526200005b9162000170565b6040518060400160405280600a81526020016908adccae4cef2408aa8960b31b815250604051806040016040528060048152602001630ca8aa8960e31b8152508160039081620000ac91906200025f565b506004620000bb82826200025f565b5050600580546001600160a01b039586166001600160a01b031991821617909155600680549486169482169490941790935550600780549190931691161790556200032b565b634e487b7160e01b600052601160045260246000fd5b80820260008212600160ff1b8414161562000136576200013662000101565b81810583148215176200014d576200014d62000101565b92915050565b80516001600160a01b03811681146200016b57600080fd5b919050565b6000806000606084860312156200018657600080fd5b620001918462000153565b9250620001a16020850162000153565b9150620001b16040850162000153565b90509250925092565b634e487b7160e01b600052604160045260246000fd5b600181811c90821680620001e557607f821691505b6020821081036200020657634e487b7160e01b600052602260045260246000fd5b50919050565b601f8211156200025a57600081815260208120601f850160051c81016020861015620002355750805b601f850160051c820191505b81811015620002565782815560010162000241565b5050505b505050565b81516001600160401b038111156200027b576200027b620001ba565b62000293816200028c8454620001d0565b846200020c565b602080601f831160018114620002cb5760008415620002b25750858301515b600019600386901b1c1916600185901b17855562000256565b600085815260208120601f198616915b82811015620002fc57888601518255948401946001909101908401620002db565b50858210156200031b5787850151600019600388901b60f8161c191681555b5050505050600190811b01905550565b610dcc806200033b6000396000f3fe608060405234801561001057600080fd5b50600436106100b45760003560e01c806370a082311161007157806370a082311461014157806395d89b411461016a578063a457c2d714610172578063a9059cbb14610185578063d8cf24fd14610198578063dd62ed3e146101a057600080fd5b806306fdde03146100b9578063095ea7b3146100d757806318160ddd146100fa57806323b872dd1461010c578063313ce5671461011f578063395093511461012e575b600080fd5b6100c16101b3565b6040516100ce9190610ac6565b60405180910390f35b6100ea6100e5366004610b30565b610245565b60405190151581526020016100ce565b6002545b6040519081526020016100ce565b6100ea61011a366004610b5a565b61025f565b604051601281526020016100ce565b6100ea61013c366004610b30565b610283565b6100fe61014f366004610b96565b6001600160a01b031660009081526020819052604090205490565b6100c16102a5565b6100ea610180366004610b30565b6102b4565b6100ea610193366004610b30565b610334565b6100fe610342565b6100fe6101ae366004610bb8565b6103e3565b6060600380546101c290610beb565b80601f01602080910402602001604051908101604052809291908181526020018280546101ee90610beb565b801561023b5780601f106102105761010080835404028352916020019161023b565b820191906000526020600020905b81548152906001019060200180831161021e57829003601f168201915b5050505050905090565b60003361025381858561040e565b60019150505b92915050565b60003361026d858285610532565b6102788585856105ac565b506001949350505050565b60003361025381858561029683836103e3565b6102a09190610c3b565b61040e565b6060600480546101c290610beb565b600033816102c282866103e3565b9050838110156103275760405162461bcd60e51b815260206004820152602560248201527f45524332303a2064656372656173656420616c6c6f77616e63652062656c6f77604482015264207a65726f60d81b60648201526084015b60405180910390fd5b610278828686840361040e565b6000336102538185856105ac565b60008061034d610750565b6020808201518251909101516005549293506000926103769291906001600160a01b0316610973565b604083015160075491925060009161039791906001600160a01b03166109dc565b905060006103a58284610c4e565b905060085460646103b69190610c76565b600a546103c39083610c76565b6103cd9190610ca6565b600a546103da9190610c4e565b94505050505090565b6001600160a01b03918216600090815260016020908152604080832093909416825291909152205490565b6001600160a01b0383166104705760405162461bcd60e51b8152602060048201526024808201527f45524332303a20617070726f76652066726f6d20746865207a65726f206164646044820152637265737360e01b606482015260840161031e565b6001600160a01b0382166104d15760405162461bcd60e51b815260206004820152602260248201527f45524332303a20617070726f766520746f20746865207a65726f206164647265604482015261737360f01b606482015260840161031e565b6001600160a01b0383811660008181526001602090815260408083209487168084529482529182902085905590518481527f8c5be1e5ebec7d5bd14f71427d1e84f3dd0314c0f7b2291e5b200ac8c7c3b925910160405180910390a3505050565b600061053e84846103e3565b905060001981146105a657818110156105995760405162461bcd60e51b815260206004820152601d60248201527f45524332303a20696e73756666696369656e7420616c6c6f77616e6365000000604482015260640161031e565b6105a6848484840361040e565b50505050565b6001600160a01b0383166106105760405162461bcd60e51b815260206004820152602560248201527f45524332303a207472616e736665722066726f6d20746865207a65726f206164604482015264647265737360d81b606482015260840161031e565b6001600160a01b0382166106725760405162461bcd60e51b815260206004820152602360248201527f45524332303a207472616e7366657220746f20746865207a65726f206164647260448201526265737360e81b606482015260840161031e565b6001600160a01b038316600090815260208190526040902054818110156106ea5760405162461bcd60e51b815260206004820152602660248201527f45524332303a207472616e7366657220616d6f756e7420657863656564732062604482015265616c616e636560d01b606482015260840161031e565b6001600160a01b03848116600081815260208181526040808320878703905593871680835291849020805487019055925185815290927fddf252ad1be2c89b69c2b068fc378daa952ba7f163c4a11628f55a4df523b3ef910160405180910390a36105a6565b6107a16040805160a081018252600060608201818152608083018290528252825180840184528181526020808201839052808401919091528351808501855282815290810191909152909182015290565b60065460408051633fabe5a360e21b815290516000926001600160a01b03169163feaf968c9160048083019260a09291908290030181865afa1580156107eb573d6000803e3d6000fd5b505050506040513d601f19601f8201168201806040525081019061080f9190610cfc565b505050915050600080600560009054906101000a90046001600160a01b03166001600160a01b031663feaf968c6040518163ffffffff1660e01b815260040160a060405180830381865afa15801561086b573d6000803e3d6000fd5b505050506040513d601f19601f8201168201806040525081019061088f9190610cfc565b50505091509150600080600760009054906101000a90046001600160a01b03166001600160a01b031663feaf968c6040518163ffffffff1660e01b815260040160a060405180830381865afa1580156108ec573d6000803e3d6000fd5b505050506040513d601f19601f820116820180604052508101906109109190610cfc565b50506040805160a081018252600060608201908152608082019a909a529889528051808201825269ffffffffffffffffffff9889168152602081810198909852878a01528051808201825297909316875250938501939093525050820152919050565b6020830151835160009190829061098a9085610a31565b6109949083610d4c565b9050600954856109a49190610ca6565b60085483906109b4846064610c76565b6109be9190610c76565b6109c89190610ca6565b6109d29190610c76565b9695505050505050565b6000806109ed846000015184610a31565b90506000818560200151610a019190610d4c565b905081600854826064610a149190610c76565b610a1e9190610c76565b610a289190610ca6565b95945050505050565b6000806001600160a01b038316639a6fc8f5610a4e600187610d73565b6040516001600160e01b031960e084901b16815269ffffffffffffffffffff909116600482015260240160a060405180830381865afa158015610a95573d6000803e3d6000fd5b505050506040513d601f19601f82011682018060405250810190610ab99190610cfc565b5091979650505050505050565b600060208083528351808285015260005b81811015610af357858101830151858201604001528201610ad7565b506000604082860101526040601f19601f8301168501019250505092915050565b80356001600160a01b0381168114610b2b57600080fd5b919050565b60008060408385031215610b4357600080fd5b610b4c83610b14565b946020939093013593505050565b600080600060608486031215610b6f57600080fd5b610b7884610b14565b9250610b8660208501610b14565b9150604084013590509250925092565b600060208284031215610ba857600080fd5b610bb182610b14565b9392505050565b60008060408385031215610bcb57600080fd5b610bd483610b14565b9150610be260208401610b14565b90509250929050565b600181811c90821680610bff57607f821691505b602082108103610c1f57634e487b7160e01b600052602260045260246000fd5b50919050565b634e487b7160e01b600052601160045260246000fd5b8082018082111561025957610259610c25565b8082018281126000831280158216821582161715610c6e57610c6e610c25565b505092915050565b80820260008212600160ff1b84141615610c9257610c92610c25565b818105831482151761025957610259610c25565b600082610cc357634e487b7160e01b600052601260045260246000fd5b600160ff1b821460001984141615610cdd57610cdd610c25565b500590565b805169ffffffffffffffffffff81168114610b2b57600080fd5b600080600080600060a08688031215610d1457600080fd5b610d1d86610ce2565b9450602086015193506040860151925060608601519150610d4060808701610ce2565b90509295509295909350565b8181036000831280158383131683831282161715610d6c57610d6c610c25565b5092915050565b69ffffffffffffffffffff828116828216039080821115610d6c57610d6c610c2556fea26469706673582212202f6a01fb6783bad9a18fc927a55283b533a3e604b7298f3fc9ad657d3817316364736f6c63430008130033",
    "linkReferences": {}
  },
  "methodIdentifiers": {
    "allowance(address,address)": "dd62ed3e",
    "approve(address,uint256)": "095ea7b3",
    "balanceOf(address)": "70a08231",
    "decimals()": "313ce567",
    "decreaseAllowance(address,uint256)": "a457c2d7",
    "getLastPrice()": "d8cf24fd",
    "increaseAllowance(address,uint256)": "39509351",
    "name()": "06fdde03",
    "symbol()": "95d89b41",
    "totalSupply()": "18160ddd",
    "transfer(address,uint256)": "a9059cbb",
    "transferFrom(address,address,uint256)": "23b872dd"
  },
  "id": 0
}