{
  "abi": [
    {
      "inputs": [
        {
          "internalType": "address",
          "name": "wtiFeed_",
          "type": "address"
        },
        {
          "internalType": "address",
          "name": "volatilityFeed_",
          "type": "address"
        },
        {
          "internalType": "address",
          "name": "ethUsdFeed_",
          "type": "address"
        },
        {
          "internalType": "address",
          "name": "goldFeed_",
          "type": "address"
        }
      ],
      "stateMutability": "nonpayable",
      "type": "constructor"
    },
    {
      "anonymous": false,
      "inputs": [
        {
          "indexed": true,
          "internalType": "address",
          "name": "owner",
          "type": "address"
        },
        {
          "indexed": true,
          "internalType": "address",
          "name": "spender",
          "type": "address"
        },
        {
          "indexed": false,
          "internalType": "uint256",
          "name": "value",
          "type": "uint256"
        }
      ],
      "name": "Approval",
      "type": "event"
    },
    {
      "anonymous": false,
      "inputs": [
        {
          "indexed": true,
          "internalType": "address",
          "name": "from",
          "type": "address"
        },
        {
          "indexed": true,
          "internalType": "address",
          "name": "to",
          "type": "address"
        },
        {
          "indexed": false,
          "internalType": "uint256",
          "name": "value",
          "type": "uint256"
        }
      ],
      "name": "Transfer",
      "type": "event"
    },
    {
      "inputs": [
        {
          "internalType": "address",
          "name": "owner",
          "type": "address"
        },
        {
          "internalType": "address",
          "name": "spender",
          "type": "address"
        }
      ],
      "name": "allowance",
      "outputs": [
        {
          "internalType": "uint256",
          "name": "",
          "type": "uint256"
        }
      ],
      "stateMutability": "view",
      "type": "function"
    },
    {
      "inputs": [
        {
          "internalType": "address",
          "name": "spender",
          "type": "address"
        },
        {
          "internalType": "uint256",
          "name": "amount",
          "type": "uint256"
        }
      ],
      "name": "approve",
      "outputs": [
        {
          "internalType": "bool",
          "name": "",
          "type": "bool"
        }
      ],
      "stateMutability": "nonpayable",
      "type": "function"
    },
    {
      "inputs": [
        {
          "internalType": "address",
          "name": "account",
          "type": "address"
        }
      ],
      "name": "balanceOf",
      "outputs": [
        {
          "internalType": "uint256",
          "name": "",
          "type": "uint256"
        }
      ],
      "stateMutability": "view",
      "type": "function"
    },
    {
      "inputs": [],
      "name": "decimals",
      "outputs": [
        {
          "internalType": "uint8",
          "name": "",
          "type": "uint8"
        }
      ],
      "stateMutability": "view",
      "type": "function"
    },
    {
      "inputs": [
        {
          "internalType": "address",
          "name": "spender",
          "type": "address"
        },
        {
          "internalType": "uint256",
          "name": "subtractedValue",
          "type": "uint256"
        }
      ],
      "name": "decreaseAllowance",
      "outputs": [
        {
          "internalType": "bool",
          "name": "",
          "type": "bool"
        }
      ],
      "stateMutability": "nonpayable",
      "type": "function"
    },
    {
      "inputs": [],
      "name": "getLastPrice",
      "outputs": [
        {
          "internalType": "uint256",
          "name": "",
          "type": "uint256"
        }
      ],
      "stateMutability": "view",
      "type": "function"
    },
    {
      "inputs": [
        {
          "internalType": "address",
          "name": "spender",
          "type": "address"
        },
        {
          "internalType": "uint256",
          "name": "addedValue",
          "type": "uint256"
        }
      ],
      "name": "increaseAllowance",
      "outputs": [
        {
          "internalType": "bool",
          "name": "",
          "type": "bool"
        }
      ],
      "stateMutability": "nonpayable",
      "type": "function"
    },
    {
      "inputs": [],
      "name": "name",
      "outputs": [
        {
          "internalType": "string",
          "name": "",
          "type": "string"
        }
      ],
      "stateMutability": "view",
      "type": "function"
    },
    {
      "inputs": [],
      "name": "symbol",
      "outputs": [
        {
          "internalType": "string",
          "name": "",
          "type": "string"
        }
      ],
      "stateMutability": "view",
      "type": "function"
    },
    {
      "inputs": [],
      "name": "totalSupply",
      "outputs": [
        {
          "internalType": "uint256",
          "name": "",
          "type": "uint256"
        }
      ],
      "stateMutability": "view",
      "type": "function"
    },
    {
      "inputs": [
        {
          "internalType": "address",
          "name": "to",
          "type": "address"
        },
        {
          "internalType": "uint256",
          "name": "amount",
          "type": "uint256"
        }
      ],
      "name": "transfer",
      "outputs": [
        {
          "internalType": "bool",
          "name": "",
          "type": "bool"
        }
      ],
      "stateMutability": "nonpayable",
      "type": "function"
    },
    {
      "inputs": [
        {
          "internalType": "address",
          "name": "from",
          "type": "address"
        },
        {
          "internalType": "address",
          "name": "to",
          "type": "address"
        },
        {
          "internalType": "uint256",
          "name": "amount",
          "type": "uint256"
        }
      ],
      "name": "transferFrom",
      "outputs": [
        {
          "internalType": "bool",
          "name": "",
          "type": "bool"
        }
      ],
      "stateMutability": "nonpayable",
      "type": "function"
    }
  ],
  "bytecode": {
    "object": "0x60806040526305f5e1006009819055678ac7230489e80000600a5562000028906103e862000128565b600b553480156200003857600080fd5b5060405162001209380380620012098339810160408190526200005b9162000181565b6040518060400160405280600a81526020016908adccae4cef2408aa8960b31b815250604051806040016040528060048152602001630ca8aa8960e31b8152508160039081620000ac919062000283565b506004620000bb828262000283565b5050600580546001600160a01b039687166001600160a01b0319918216179091556006805495871695821695909517909455506007805492851692841692909217909155600880549190931691161790556200034f565b634e487b7160e01b600052601160045260246000fd5b80820260008212600160ff1b8414161562000147576200014762000112565b81810583148215176200015e576200015e62000112565b92915050565b80516001600160a01b03811681146200017c57600080fd5b919050565b600080600080608085870312156200019857600080fd5b620001a38562000164565b9350620001b36020860162000164565b9250620001c36040860162000164565b9150620001d36060860162000164565b905092959194509250565b634e487b7160e01b600052604160045260246000fd5b600181811c908216806200020957607f821691505b6020821081036200022a57634e487b7160e01b600052602260045260246000fd5b50919050565b601f8211156200027e57600081815260208120601f850160051c81016020861015620002595750805b601f850160051c820191505b818110156200027a5782815560010162000265565b5050505b505050565b81516001600160401b038111156200029f576200029f620001de565b620002b781620002b08454620001f4565b8462000230565b602080601f831160018114620002ef5760008415620002d65750858301515b600019600386901b1c1916600185901b1785556200027a565b600085815260208120601f198616915b828110156200032057888601518255948401946001909101908401620002ff565b50858210156200033f5787850151600019600388901b60f8161c191681555b5050505050600190811b01905550565b610eaa806200035f6000396000f3fe608060405234801561001057600080fd5b50600436106100b45760003560e01c806370a082311161007157806370a082311461014157806395d89b411461016a578063a457c2d714610172578063a9059cbb14610185578063d8cf24fd14610198578063dd62ed3e146101a057600080fd5b806306fdde03146100b9578063095ea7b3146100d757806318160ddd146100fa57806323b872dd1461010c578063313ce5671461011f578063395093511461012e575b600080fd5b6100c16101b3565b6040516100ce9190610ba4565b60405180910390f35b6100ea6100e5366004610c0e565b610245565b60405190151581526020016100ce565b6002545b6040519081526020016100ce565b6100ea61011a366004610c38565b61025f565b604051601281526020016100ce565b6100ea61013c366004610c0e565b610283565b6100fe61014f366004610c74565b6001600160a01b031660009081526020819052604090205490565b6100c16102a5565b6100ea610180366004610c0e565b6102b4565b6100ea610193366004610c0e565b610334565b6100fe610342565b6100fe6101ae366004610c96565b610415565b6060600380546101c290610cc9565b80601f01602080910402602001604051908101604052809291908181526020018280546101ee90610cc9565b801561023b5780601f106102105761010080835404028352916020019161023b565b820191906000526020600020905b81548152906001019060200180831161021e57829003601f168201915b5050505050905090565b600033610253818585610440565b60019150505b92915050565b60003361026d858285610564565b6102788585856105de565b506001949350505050565b6000336102538185856102968383610415565b6102a09190610d19565b610440565b6060600480546101c290610cc9565b600033816102c28286610415565b9050838110156103275760405162461bcd60e51b815260206004820152602560248201527f45524332303a2064656372656173656420616c6c6f77616e63652062656c6f77604482015264207a65726f60d81b60648201526084015b60405180910390fd5b6102788286868403610440565b6000336102538185856105de565b60008061034d610782565b80516020908101519082015160055492935090916000916103789184906001600160a01b0316610a51565b606084015160085491925060009161039b919085906001600160a01b0316610a51565b60408501516007549192506000916103bc91906001600160a01b0316610aba565b90506000826103cb8386610d2c565b6103d59190610d2c565b905060095460646103e69190610d54565b600b546103f39083610d54565b6103fd9190610d84565b600b5461040a9190610d2c565b965050505050505090565b6001600160a01b03918216600090815260016020908152604080832093909416825291909152205490565b6001600160a01b0383166104a25760405162461bcd60e51b8152602060048201526024808201527f45524332303a20617070726f76652066726f6d20746865207a65726f206164646044820152637265737360e01b606482015260840161031e565b6001600160a01b0382166105035760405162461bcd60e51b815260206004820152602260248201527f45524332303a20617070726f766520746f20746865207a65726f206164647265604482015261737360f01b606482015260840161031e565b6001600160a01b0383811660008181526001602090815260408083209487168084529482529182902085905590518481527f8c5be1e5ebec7d5bd14f71427d1e84f3dd0314c0f7b2291e5b200ac8c7c3b925910160405180910390a3505050565b60006105708484610415565b905060001981146105d857818110156105cb5760405162461bcd60e51b815260206004820152601d60248201527f45524332303a20696e73756666696369656e7420616c6c6f77616e6365000000604482015260640161031e565b6105d88484848403610440565b50505050565b6001600160a01b0383166106425760405162461bcd60e51b815260206004820152602560248201527f45524332303a207472616e736665722066726f6d20746865207a65726f206164604482015264647265737360d81b606482015260840161031e565b6001600160a01b0382166106a45760405162461bcd60e51b815260206004820152602360248201527f45524332303a207472616e7366657220746f20746865207a65726f206164647260448201526265737360e81b606482015260840161031e565b6001600160a01b0383166000908152602081905260409020548181101561071c5760405162461bcd60e51b815260206004820152602660248201527f45524332303a207472616e7366657220616d6f756e7420657863656564732062604482015265616c616e636560d01b606482015260840161031e565b6001600160a01b03848116600081815260208181526040808320878703905593871680835291849020805487019055925185815290927fddf252ad1be2c89b69c2b068fc378daa952ba7f163c4a11628f55a4df523b3ef910160405180910390a36105d8565b6107e56040805160c08101825260006080820181815260a083018290528252825180840184528181526020808201839052808401919091528351808501855282815280820183905283850152835180850190945281845283015290606082015290565b60065460408051633fabe5a360e21b815290516000926001600160a01b03169163feaf968c9160048083019260a09291908290030181865afa15801561082f573d6000803e3d6000fd5b505050506040513d601f19601f820116820180604052508101906108539190610dda565b505050915050600080600560009054906101000a90046001600160a01b03166001600160a01b031663feaf968c6040518163ffffffff1660e01b815260040160a060405180830381865afa1580156108af573d6000803e3d6000fd5b505050506040513d601f19601f820116820180604052508101906108d39190610dda565b50505091509150600080600760009054906101000a90046001600160a01b03166001600160a01b031663feaf968c6040518163ffffffff1660e01b815260040160a060405180830381865afa158015610930573d6000803e3d6000fd5b505050506040513d601f19601f820116820180604052508101906109549190610dda565b50505091509150600080600860009054906101000a90046001600160a01b03166001600160a01b031663feaf968c6040518163ffffffff1660e01b815260040160a060405180830381865afa1580156109b1573d6000803e3d6000fd5b505050506040513d601f19601f820116820180604052508101906109d59190610dda565b50506040805160c08101825260006080820190815260a082019c909c529a8b528051808201825269ffffffffffffffffffff9a8b16815260208082019a909a52898c015280518082018252978a168852878901969096525088850195909552835180850190945290951682525091820152606083015250919050565b60208301518351600091908290610a689085610b0f565b610a729083610e2a565b9050600a5485610a829190610d84565b6009548390610a92846064610d54565b610a9c9190610d54565b610aa69190610d84565b610ab09190610d54565b9695505050505050565b600080610acb846000015184610b0f565b90506000818560200151610adf9190610e2a565b905081600954826064610af29190610d54565b610afc9190610d54565b610b069190610d84565b95945050505050565b6000806001600160a01b038316639a6fc8f5610b2c600187610e51565b6040516001600160e01b031960e084901b16815269ffffffffffffffffffff909116600482015260240160a060405180830381865afa158015610b73573d6000803e3d6000fd5b505050506040513d601f19601f82011682018060405250810190610b979190610dda565b5091979650505050505050565b600060208083528351808285015260005b81811015610bd157858101830151858201604001528201610bb5565b506000604082860101526040601f19601f8301168501019250505092915050565b80356001600160a01b0381168114610c0957600080fd5b919050565b60008060408385031215610c2157600080fd5b610c2a83610bf2565b946020939093013593505050565b600080600060608486031215610c4d57600080fd5b610c5684610bf2565b9250610c6460208501610bf2565b9150604084013590509250925092565b600060208284031215610c8657600080fd5b610c8f82610bf2565b9392505050565b60008060408385031215610ca957600080fd5b610cb283610bf2565b9150610cc060208401610bf2565b90509250929050565b600181811c90821680610cdd57607f821691505b602082108103610cfd57634e487b7160e01b600052602260045260246000fd5b50919050565b634e487b7160e01b600052601160045260246000fd5b8082018082111561025957610259610d03565b8082018281126000831280158216821582161715610d4c57610d4c610d03565b505092915050565b80820260008212600160ff1b84141615610d7057610d70610d03565b818105831482151761025957610259610d03565b600082610da157634e487b7160e01b600052601260045260246000fd5b600160ff1b821460001984141615610dbb57610dbb610d03565b500590565b805169ffffffffffffffffffff81168114610c0957600080fd5b600080600080600060a08688031215610df257600080fd5b610dfb86610dc0565b9450602086015193506040860151925060608601519150610e1e60808701610dc0565b90509295509295909350565b8181036000831280158383131683831282161715610e4a57610e4a610d03565b5092915050565b69ffffffffffffffffffff828116828216039080821115610e4a57610e4a610d0356fea264697066735822122026e085a8ed3c48c57847b471517f97f0441d901096e1a098aa5f7c9aef39582a64736f6c63430008130033",
    "linkReferences": {}
  },
  "methodIdentifiers": {
    "allowance(address,address)": "dd62ed3e",
    "approve(address,uint256)": "095ea7b3",
    "balanceOf(address)": "70a08231",
    "decimals()": "313ce567",
    "decreaseAllowance(address,uint256)": "a457c2d7",
    "getLastPrice()": "d8cf24fd",
    "increaseAllowance(address,uint256)": "39509351",
    "name()": "06fdde03",
    "symbol()": "95d89b41",
    "totalSupply()": "18160ddd",
    "transfer(address,uint256)": "a9059cbb",
    "transferFrom(address,address,uint256)": "23b872dd"
  },
  "id": 0
}