{"abi":[{"type":"function","name":"_PERMIT_BATCH_TRANSFER_FROM_TYPEHASH","inputs":[],"outputs":[{"name":"","type":"bytes32","internalType":"bytes32"}],"stateMutability":"view"},{"type":"function","name":"_PERMIT_BATCH_TYPEHASH","inputs":[],"outputs":[{"name":"","type":"bytes32","internalType":"bytes32"}],"stateMutability":"view"},{"type":"function","name":"_PERMIT_BATCH_WITNESS_TRANSFER_FROM_TYPEHASH_STUB","inputs":[],"outputs":[{"name":"","type":"string","internalType":"string"}],"stateMutability":"view"},{"type":"function","name":"_PERMIT_DETAILS_TYPEHASH","inputs":[],"outputs":[{"name":"","type":"bytes32","internalType":"bytes32"}],"stateMutability":"view"},{"type":"function","name":"_PERMIT_SINGLE_TYPEHASH","inputs":[],"outputs":[{"name":"","type":"bytes32","internalType":"bytes32"}],"stateMutability":"view"},{"type":"function","name":"_PERMIT_TRANSFER_FROM_TYPEHASH","inputs":[],"outputs":[{"name":"","type":"bytes32","internalType":"bytes32"}],"stateMutability":"view"},{"type":"function","name":"_PERMIT_TRANSFER_FROM_WITNESS_TYPEHASH_STUB","inputs":[],"outputs":[{"name":"","type":"string","internalType":"string"}],"stateMutability":"view"},{"type":"function","name":"_TOKEN_PERMISSIONS_TYPEHASH","inputs":[],"outputs":[{"name":"","type":"bytes32","internalType":"bytes32"}],"stateMutability":"view"},{"type":"function","name":"_TOKEN_PERMISSIONS_TYPESTRING","inputs":[],"outputs":[{"name":"","type":"string","internalType":"string"}],"stateMutability":"view"}],"bytecode":{"object":"0x61039961003a600b82828239805160001a60731461002d57634e487b7160e01b600052600060045260246000fd5b30600052607381538281f3fe730000000000000000000000000000000000000000301460806040526004361061009d5760003560e01c806378f168301161007057806378f168301461015157806384b8efbb1461017857806390bbf2f31461018d578063c0c7fa7e14610195578063c5df4f031461019d57600080fd5b80633eb8b8fd146100a2578063415e982d146100dc5780636302c3cf146101035780636e4f27751461012a575b600080fd5b6100c97ffcf35f5ac6a2c28868dc44c302166470266239195f02b0ee408334829333b76681565b6040519081526020015b60405180910390f35b6100c97f618358ac3db8dc274f0cd8829da7e234bd48cd73c4a740aede1adec9846d06a181565b6100c97faf1b0d30d2cab0380e68f0689007e3254993c596f2fdd0aaa7f4d04f7944086381565b6100c97f65626cad6cb96493bf6f5ebea28756c966f023ab9e8a83a7101849d5573b367881565b6100c97f939c21a48a8dbe3a9a2404a1d46691e4d39f6583d6ec6b35714604c986d8010681565b6101806101c4565b6040516100d39190610218565b6101806101e0565b6101806101fc565b6100c97ff3841cd1ff0085026a6327b620b67997ce40f282c88a8e905a7a5626e310f3d081565b6040518060a00160405280606481526020016103006064913981565b6040518060a00160405280606b8152602001610267606b913981565b6040518060600160405280602e81526020016102d2602e913981565b600060208083528351808285015260005b8181101561024557858101830151858201604001528201610229565b506000604082860101526040601f19601f830116850101925050509291505056fe5065726d697442617463685769746e6573735472616e7366657246726f6d28546f6b656e5065726d697373696f6e735b5d207065726d69747465642c61646472657373207370656e6465722c75696e74323536206e6f6e63652c75696e7432353620646561646c696e652c546f6b656e5065726d697373696f6e73286164647265737320746f6b656e2c75696e7432353620616d6f756e74295065726d69745769746e6573735472616e7366657246726f6d28546f6b656e5065726d697373696f6e73207065726d69747465642c61646472657373207370656e6465722c75696e74323536206e6f6e63652c75696e7432353620646561646c696e652ca2646970667358221220730aeeb6d0d173ec0fb2bcb3cac5443597bb6d7c73fd87c1ac4b75b076c5c8a964736f6c63430008130033","linkReferences":{}},"methodIdentifiers":{"_PERMIT_BATCH_TRANSFER_FROM_TYPEHASH()":"3eb8b8fd","_PERMIT_BATCH_TYPEHASH()":"6302c3cf","_PERMIT_BATCH_WITNESS_TRANSFER_FROM_TYPEHASH_STUB()":"90bbf2f3","_PERMIT_DETAILS_TYPEHASH()":"6e4f2775","_PERMIT_SINGLE_TYPEHASH()":"c5df4f03","_PERMIT_TRANSFER_FROM_TYPEHASH()":"78f16830","_PERMIT_TRANSFER_FROM_WITNESS_TYPEHASH_STUB()":"84b8efbb","_TOKEN_PERMISSIONS_TYPEHASH()":"415e982d","_TOKEN_PERMISSIONS_TYPESTRING()":"c0c7fa7e"},"id":42}