{"abi":[{"type":"function","name":"addFeed","inputs":[{"name":"newFeed_","type":"address","internalType":"contract AggregatorV3Interface"}],"outputs":[],"stateMutability":"nonpayable"},{"type":"function","name":"changeUniPool","inputs":[{"name":"newPool_","type":"address","internalType":"address"}],"outputs":[],"stateMutability":"nonpayable"},{"type":"function","name":"changeVolatilityIndex","inputs":[{"name":"newFeed_","type":"address","internalType":"contract AggregatorV3Interface"}],"outputs":[],"stateMutability":"nonpayable"},{"type":"function","name":"getEnergyPrice","inputs":[],"outputs":[{"name":"","type":"uint256","internalType":"uint256"}],"stateMutability":"view"},{"type":"function","name":"getPriceFeeds","inputs":[],"outputs":[{"name":"feeds","type":"address[]","internalType":"address[]"}],"stateMutability":"view"},{"type":"function","name":"getTwapEth","inputs":[],"outputs":[{"name":"","type":"int256","internalType":"int256"}],"stateMutability":"view"},{"type":"function","name":"getUniPool","inputs":[],"outputs":[{"name":"","type":"address","internalType":"address"}],"stateMutability":"view"},{"type":"function","name":"getVolatilityIndex","inputs":[],"outputs":[{"name":"","type":"int256","internalType":"int256"}],"stateMutability":"view"},{"type":"function","name":"getVolatilityIndex2","inputs":[],"outputs":[{"name":"","type":"uint256","internalType":"uint256"}],"stateMutability":"view"},{"type":"function","name":"removeFeed","inputs":[{"name":"toRemove_","type":"address","internalType":"contract AggregatorV3Interface"}],"outputs":[],"stateMutability":"nonpayable"},{"type":"error","name":"AlreadyFeed","inputs":[{"name":"feed","type":"address","internalType":"address"}]},{"type":"error","name":"NotFeed","inputs":[{"name":"feed","type":"address","internalType":"address"}]}],"bytecode":{"object":"0x608060405234801561001057600080fd5b50612006806100206000396000f3fe608060405234801561001057600080fd5b506004361061009e5760003560e01c806393f086341161006657806393f0863414610107578063b04aba311461010f578063bc7c402314610122578063cab0f33514610135578063d19e5b491461013d57600080fd5b806339b47c25146100a35780634b90fd69146100ba578063672eea71146100cf5780636ca42ae3146100ea57806383cf65d4146100ff575b600080fd5b6048545b6040519081526020015b60405180910390f35b6100cd6100c83660046119a6565b610150565b005b6045546040516001600160a01b0390911681526020016100b1565b6100f2610204565b6040516100b191906119c3565b6100a76102c8565b6100a7610350565b6100cd61011d3660046119a6565b6103b3565b6100cd6101303660046119a6565b6104a7565b6100a76104d1565b6100cd61014b3660046119a6565b610736565b610158610760565b60448054604080516020808402820181019092528281526000936101c49386938301828280156101b157602002820191906000526020600020905b81546001600160a01b03168152600190910190602001808311610193575b50505050506107e990919063ffffffff16565b905080196101f55760405163730a683f60e11b81526001600160a01b03831660048201526024015b60405180910390fd5b610200604483610850565b5050565b6044546060908067ffffffffffffffff81111561022357610223611a10565b60405190808252806020026020018201604052801561024c578160200160208202803683370190505b50915060005b808211156102c357604480548291908290811061027157610271611a26565b9060005260206000200160009054906101000a90046001600160a01b03168482815181106102a1576102a1611a26565b6001600160a01b03929092166020928302919091019091015250600101610252565b505090565b6000806000603f0160009054906101000a90046001600160a01b03166001600160a01b031663feaf968c6040518163ffffffff1660e01b815260040160a060405180830381865afa158015610321573d6000803e3d6000fd5b505050506040513d601f19601f820116820180604052508101906103459190611a58565b509195945050505050565b604554600090819061036c906001600160a01b0316600a6109aa565b50600b5460095491925060009161039b918491670de0b6b3a7640000916001600160a01b039081169116610bf0565b90506103ac8164e8d4a51000611abe565b9250505090565b6103bb610760565b60448054604080516020808402820181019092528281526000936104259386938301828280156101b1576020028201919060005260206000209081546001600160a01b031681526001909101906020018083116101935750505050506107e990919063ffffffff16565b90508060001914610454576040516341497abd60e01b81526001600160a01b03831660048201526024016101ec565b50604480546001810182556000919091527f9b22d3d61959b4d3528b1d8ba932c96fbe302b36a1aad1d95cab54f9e0a135ea0180546001600160a01b0319166001600160a01b0392909216919091179055565b6104af610760565b603f80546001600160a01b0319166001600160a01b0392909216919091179055565b6000806000806104df610cfe565b9250925092506000808451905060005b8082111561056457600086828151811061050b5761050b611a26565b6020908102919091010151604080549082015191925061054f9183916001600160a01b03918216911614610546576105416102c8565b610549565b60005b87610edf565b6105599085611ad5565b9350506001016104ef565b5061057d6040518060200160405280600081525061111c565b6105bb6040518060400160405280601981526020017f2d2d2d20696e20676574456e657267795072696365202d2d2d0000000000000081525061111c565b6105e86040518060400160405280600b81526020016a03130b9b2a83934b1b29d160ad1b81525085611162565b61062160405180604001604052806016815260200175034b73337a332b2b239973632b733ba34101690199d160551b8152508651611162565b6106666040518060400160405280600581526020016402c20aa9d160dd1b8152508660028151811061065557610655611a26565b602002602001015160200151611162565b6106a560405180604001604052806016815260200175037b632103b37b630ba34b634ba3c9034b73232bc1d160551b8152506106a06102c8565b611162565b6106e76040518060400160405280601c81526020017f4741524348206c61737420636f6e646974696f6e616c20766f6c3a20000000008152506106a060485490565b6106ff6040518060200160405280600081525061111c565b61070e6305f5e1006064611afd565b6107188584611afd565b6107229190611b43565b61072c9085611ad5565b9550505050505090565b61073e610760565b604580546001600160a01b0319166001600160a01b0392909216919091179055565b7fc8fcad8db84d3cc18b4c41d551ea0ee66dd599cde068d998e57d5e09332c131c600401546001600160a01b031633146107e75760405162461bcd60e51b815260206004820152602260248201527f4c69624469616d6f6e643a204d75737420626520636f6e7472616374206f776e60448201526132b960f11b60648201526084016101ec565b565b8151600090815b80821115610842576000819050846001600160a01b031686828151811061081957610819611a26565b60200260200101516001600160a01b03160361083957925061084a915050565b506001016107f0565b506000199150505b92915050565b6000805b83548110156108a357826001600160a01b031684828154811061087957610879611a26565b6000918252602090912001546001600160a01b03160361089b578091506108a3565b600101610854565b50805b83546108b490600190611b71565b81101561093857836108c7826001611b84565b815481106108d7576108d7611a26565b9060005260206000200160009054906101000a90046001600160a01b031684828154811061090757610907611a26565b600091825260209091200180546001600160a01b0319166001600160a01b03929092169190911790556001016108a6565b508254839061094990600190611b71565b8154811061095957610959611a26565b600091825260209091200180546001600160a01b0319169055825483908061098357610983611b97565b600082815260209020810160001990810180546001600160a01b0319169055019055505050565b6000808263ffffffff166000036109e85760405162461bcd60e51b8152602060048201526002602482015261042560f41b60448201526064016101ec565b6040805160028082526060820183526000926020830190803683370190505090508381600081518110610a1d57610a1d611a26565b602002602001019063ffffffff16908163ffffffff1681525050600081600181518110610a4c57610a4c611a26565b602002602001019063ffffffff16908163ffffffff1681525050600080866001600160a01b031663883bdbfd846040518263ffffffff1660e01b8152600401610a959190611bad565b600060405180830381865afa158015610ab2573d6000803e3d6000fd5b505050506040513d6000823e601f3d908101601f19168201604052610ada9190810190611cb4565b91509150600082600081518110610af357610af3611a26565b602002602001015183600181518110610b0e57610b0e611a26565b6020026020010151610b209190611d80565b9050600082600081518110610b3757610b37611a26565b602002602001015183600181518110610b5257610b52611a26565b6020026020010151610b649190611dad565b9050610b74600389900b83611dd4565b965060008260060b128015610b985750610b92600389900b83611e12565b60060b15155b15610bab5786610ba781611e34565b9750505b6000610bc46001600160a01b0363ffffffff8b16611e57565b9050610be1640100000000600160c01b03602084901b1682611e89565b96505050505050509250929050565b600080610bfc866111a7565b90506001600160801b036001600160a01b03821611610c82576000610c2a6001600160a01b03831680611abe565b9050836001600160a01b0316856001600160a01b031610610c6257610c5d600160c01b876001600160801b0316836115c7565b610c7a565b610c7a81876001600160801b0316600160c01b6115c7565b925050610cf5565b6000610ca16001600160a01b03831680680100000000000000006115c7565b9050836001600160a01b0316856001600160a01b031610610cd957610cd4600160801b876001600160801b0316836115c7565b610cf1565b610cf181876001600160801b0316600160801b6115c7565b9250505b50949350505050565b6044546060906000908190818167ffffffffffffffff811115610d2357610d23611a10565b604051908082528060200260200182016040528015610d6e57816020015b6040805160608101825260008082526020808301829052928201528252600019909201910181610d415790505b50905060005b80831115610ea857600081905060008060006044018381548110610d9a57610d9a611a26565b9060005260206000200160009054906101000a90046001600160a01b03166001600160a01b031663feaf968c6040518163ffffffff1660e01b815260040160a060405180830381865afa158015610df5573d6000803e3d6000fd5b505050506040513d601f19601f82011682018060405250810190610e199190611a58565b5050509150915060006040518060600160405280846001600160501b0316815260200183815260200160006044018681548110610e5857610e58611a26565b6000918252602090912001546001600160a01b0316905286519091508190879086908110610e8857610e88611a26565b602002602001018190525050505050610ea18160010190565b9050610d74565b50600080610ecf83600181518110610ec257610ec2611a26565b602002602001015161173d565b9398909750929550919350505050565b60408054908401516000916001600160a01b039182169116146110d857602084015160408501518551600091610f1e916001600160501b0316906117c1565b610f289083611eaf565b9050610f426040518060200160405280600081525061111c565b610f77604051806040016040528060148152602001732d2d2d20696e205f7365745072696365202d2d2d60601b81525061111c565b610f8081611853565b610fac6040518060400160405280600b81526020016a3732ba2234b333102f2f2f60a91b81525061111c565b610fd96040518060400160405280600b81526020016a031bab939283934b1b29d160ad1b81525083611162565b6110066040518060400160405280600b81526020016a03b37b624b73232bc2f9d160ad1b81525086611162565b61104f61101b678ac7230489e8000087611b43565b836305f5e10061102c856064611afd565b6110369190611afd565b6110409190611b43565b61104a9190611afd565b611853565b6110766040518060400160405280600681526020016534b9902f2f2f60d11b81525061111c565b61108e6040518060200160405280600081525061111c565b6110a0678ac7230489e8000086611b43565b826305f5e1006110b1846064611afd565b6110bb9190611afd565b6110c59190611b43565b6110cf9190611afd565b92505050611115565b60008285602001516110ea9190611eaf565b9050826305f5e1006110fd836064611afd565b6111079190611afd565b6111119190611b43565b9150505b9392505050565b61115f816040516024016111309190611f15565b60408051601f198184030181529190526020810180516001600160e01b031663104c13eb60e21b179052611894565b50565b6102008282604051602401611178929190611f28565b60408051601f198184030181529190526020810180516001600160e01b03166309710a9d60e41b179052611894565b60008060008360020b126111be578260020b6111cb565b8260020b6111cb90611f4a565b90506111da620d89e719611f66565b60020b8111156112105760405162461bcd60e51b81526020600482015260016024820152601560fa1b60448201526064016101ec565b60008160011660000361122757600160801b611239565b6ffffcb933bd6fad37aa2d162d1a5940015b70ffffffffffffffffffffffffffffffffff1690506002821615611278576080611273826ffff97272373d413259a46990580e213a611abe565b901c90505b60048216156112a257608061129d826ffff2e50f5f656932ef12357cf3c7fdcc611abe565b901c90505b60088216156112cc5760806112c7826fffe5caca7e10e4e61c3624eaa0941cd0611abe565b901c90505b60108216156112f65760806112f1826fffcb9843d60f6159c9db58835c926644611abe565b901c90505b602082161561132057608061131b826fff973b41fa98c081472e6896dfb254c0611abe565b901c90505b604082161561134a576080611345826fff2ea16466c96a3843ec78b326b52861611abe565b901c90505b608082161561137457608061136f826ffe5dee046a99a2a811c461f1969c3053611abe565b901c90505b61010082161561139f57608061139a826ffcbe86c7900a88aedcffc83b479aa3a4611abe565b901c90505b6102008216156113ca5760806113c5826ff987a7253ac413176f2b074cf7815e54611abe565b901c90505b6104008216156113f55760806113f0826ff3392b0822b70005940c7a398e4b70f3611abe565b901c90505b61080082161561142057608061141b826fe7159475a2c29b7443b29c7fa6e889d9611abe565b901c90505b61100082161561144b576080611446826fd097f3bdfd2022b8845ad8f792aa5825611abe565b901c90505b612000821615611476576080611471826fa9f746462d870fdf8a65dc1f90e061e5611abe565b901c90505b6140008216156114a157608061149c826f70d869a156d2a1b890bb3df62baf32f7611abe565b901c90505b6180008216156114cc5760806114c7826f31be135f97d08fd981231505542fcfa6611abe565b901c90505b620100008216156114f85760806114f3826f09aa508b5b7a84e1c677de54f3e99bc9611abe565b901c90505b6202000082161561152357608061151e826e5d6af8dedb81196699c329225ee604611abe565b901c90505b6204000082161561154d576080611548826d2216e584f5fa1ea926041bedfe98611abe565b901c90505b62080000821615611575576080611570826b048a170391f7dc42444e8fa2611abe565b901c90505b60008460020b13156115905761158d81600019611f88565b90505b61159f64010000000082611f9c565b156115ab5760016115ae565b60005b6115bf9060ff16602083901c611b84565b949350505050565b600080806000198587098587029250828110838203039150508060000361160057600084116115f557600080fd5b508290049050611115565b80841161160c57600080fd5b60008486880980840393811190920391905060008561162a81611f4a565b1695869004959384900493600081900304600101905061164a8184611abe565b90931792600061165b876003611abe565b600218905061166a8188611abe565b611675906002611b71565b61167f9082611abe565b905061168b8188611abe565b611696906002611b71565b6116a09082611abe565b90506116ac8188611abe565b6116b7906002611b71565b6116c19082611abe565b90506116cd8188611abe565b6116d8906002611b71565b6116e29082611abe565b90506116ee8188611abe565b6116f9906002611b71565b6117039082611abe565b905061170f8188611abe565b61171a906002611b71565b6117249082611abe565b90506117308186611abe565b9998505050505050505050565b6000806000611766846040015185600001516001600160501b03166117c190919063ffffffff16565b9050600061177785602001516118b5565b90506000611783610350565b90506117a082611798856402540be400611afd565b8391906118f6565b6117b2576117ac610350565b836117b5565b81835b94509450505050915091565b6000806001600160a01b038316639a6fc8f56117de600187611fb0565b6040516001600160e01b031960e084901b1681526001600160501b03909116600482015260240160a060405180830381865afa158015611822573d6000803e3d6000fd5b505050506040513d601f19601f820116820180604052508101906118469190611a58565b5091979650505050505050565b61115f8160405160240161186991815260200190565b60408051601f198184030181529190526020810180516001600160e01b0316634e0c1d1d60e01b1790525b80516a636f6e736f6c652e6c6f67602083016000808483855afa5050505050565b6000629896806305f5e100600a846118ce836064611afd565b6118d89190611afd565b6118e29190611b43565b6118ec9190611afd565b61084a9190611b43565b6000806119038386611eaf565b905060006119118587611eaf565b9050600560008761192185611975565b61192c906064611afd565b6119369190611b43565b905060008861194485611975565b61194f906064611afd565b6119599190611b43565b9050828113611969576000611730565b50139695505050505050565b60008082121561198d5761198882611f4a565b61084a565b5090565b6001600160a01b038116811461115f57600080fd5b6000602082840312156119b857600080fd5b813561111581611991565b6020808252825182820181905260009190848201906040850190845b81811015611a045783516001600160a01b0316835292840192918401916001016119df565b50909695505050505050565b634e487b7160e01b600052604160045260246000fd5b634e487b7160e01b600052603260045260246000fd5b80516001600160501b0381168114611a5357600080fd5b919050565b600080600080600060a08688031215611a7057600080fd5b611a7986611a3c565b9450602086015193506040860151925060608601519150611a9c60808701611a3c565b90509295509295909350565b634e487b7160e01b600052601160045260246000fd5b808202811582820484141761084a5761084a611aa8565b8082018281126000831280158216821582161715611af557611af5611aa8565b505092915050565b80820260008212600160ff1b84141615611b1957611b19611aa8565b818105831482151761084a5761084a611aa8565b634e487b7160e01b600052601260045260246000fd5b600082611b5257611b52611b2d565b600160ff1b821460001984141615611b6c57611b6c611aa8565b500590565b8181038181111561084a5761084a611aa8565b8082018082111561084a5761084a611aa8565b634e487b7160e01b600052603160045260246000fd5b6020808252825182820181905260009190848201906040850190845b81811015611a0457835163ffffffff1683529284019291840191600101611bc9565b604051601f8201601f1916810167ffffffffffffffff81118282101715611c1457611c14611a10565b604052919050565b600067ffffffffffffffff821115611c3657611c36611a10565b5060051b60200190565b600082601f830112611c5157600080fd5b81516020611c66611c6183611c1c565b611beb565b82815260059290921b84018101918181019086841115611c8557600080fd5b8286015b84811015611ca9578051611c9c81611991565b8352918301918301611c89565b509695505050505050565b60008060408385031215611cc757600080fd5b825167ffffffffffffffff80821115611cdf57600080fd5b818501915085601f830112611cf357600080fd5b81516020611d03611c6183611c1c565b82815260059290921b84018101918181019089841115611d2257600080fd5b948201945b83861015611d505785518060060b8114611d415760008081fd5b82529482019490820190611d27565b91880151919650909350505080821115611d6957600080fd5b50611d7685828601611c40565b9150509250929050565b600682810b9082900b03667fffffffffffff198112667fffffffffffff8213171561084a5761084a611aa8565b6001600160a01b03828116828216039080821115611dcd57611dcd611aa8565b5092915050565b60008160060b8360060b80611deb57611deb611b2d565b667fffffffffffff19821460001982141615611e0957611e09611aa8565b90059392505050565b60008260060b80611e2557611e25611b2d565b808360060b0791505092915050565b60008160020b627fffff198103611e4d57611e4d611aa8565b6000190192915050565b6001600160c01b03828116828216818102831692918115828504821417611e8057611e80611aa8565b50505092915050565b60006001600160c01b0383811680611ea357611ea3611b2d565b92169190910492915050565b8181036000831280158383131683831282161715611dcd57611dcd611aa8565b6000815180845260005b81811015611ef557602081850181015186830182015201611ed9565b506000602082860101526020601f19601f83011685010191505092915050565b6020815260006111156020830184611ecf565b604081526000611f3b6040830185611ecf565b90508260208301529392505050565b6000600160ff1b8201611f5f57611f5f611aa8565b5060000390565b60008160020b627fffff198103611f7f57611f7f611aa8565b60000392915050565b600082611f9757611f97611b2d565b500490565b600082611fab57611fab611b2d565b500690565b6001600160501b03828116828216039080821115611dcd57611dcd611aa856fea26469706673582212208300b838420aa11f714c33c4f9b37c8ae244c0601d3d952604b0e9042a6fafa164736f6c63430008130033","linkReferences":{}},"methodIdentifiers":{"addFeed(address)":"b04aba31","changeUniPool(address)":"d19e5b49","changeVolatilityIndex(address)":"bc7c4023","getEnergyPrice()":"cab0f335","getPriceFeeds()":"6ca42ae3","getTwapEth()":"93f08634","getUniPool()":"672eea71","getVolatilityIndex()":"83cf65d4","getVolatilityIndex2()":"39b47c25","removeFeed(address)":"4b90fd69"},"id":7}