{
  "abi": [
    {
      "inputs": [],
      "name": "getEnergyPrice",
      "outputs": [
        {
          "internalType": "uint256",
          "name": "",
          "type": "uint256"
        }
      ],
      "stateMutability": "view",
      "type": "function"
    }
  ],
  "bytecode": {
    "object": "0x608060405234801561001057600080fd5b5061075f806100206000396000f3fe608060405234801561001057600080fd5b506004361061002b5760003560e01c8063cab0f33514610030575b600080fd5b61003861004a565b60405190815260200160405180910390f35b600080600061005761011e565b815160209081015190830151603e54939550919350916000916100849184906001600160a01b0316610416565b60608501516041549192506000916100a7919085906001600160a01b0316610416565b60408087015190549192506000916100ca919083906001600160a01b0316610416565b90506000826100d983866105dc565b6100e391906105dc565b90506100f46305f5e1006064610604565b6100fe8783610604565b6101089190610634565b61011290876105dc565b97505050505050505090565b6101816040805160c08101825260006080820181815260a083018290528252825180840184528181526020808201839052808401919091528351808501855282815280820183905283850152835180850190945281845283015290606082015290565b6000806000603f0160009054906101000a90046001600160a01b03166001600160a01b031663feaf968c6040518163ffffffff1660e01b815260040160a060405180830381865afa1580156101da573d6000803e3d6000fd5b505050506040513d601f19601f820116820180604052508101906101fe919061068f565b5050509150506000806000603e0160009054906101000a90046001600160a01b03166001600160a01b031663feaf968c6040518163ffffffff1660e01b815260040160a060405180830381865afa15801561025d573d6000803e3d6000fd5b505050506040513d601f19601f82011682018060405250810190610281919061068f565b50505091509150600080600060400160009054906101000a90046001600160a01b03166001600160a01b031663feaf968c6040518163ffffffff1660e01b815260040160a060405180830381865afa1580156102e1573d6000803e3d6000fd5b505050506040513d601f19601f82011682018060405250810190610305919061068f565b50505091509150600080600060410160009054906101000a90046001600160a01b03166001600160a01b031663feaf968c6040518163ffffffff1660e01b815260040160a060405180830381865afa158015610365573d6000803e3d6000fd5b505050506040513d601f19601f82011682018060405250810190610389919061068f565b50505091509150610399836104ea565b6040805160c08101825260006080820190815260a082019a909a529889528051808201825269ffffffffffffffffffff9889168152602081810198909852878a0152805180820182529588168652858701949094528784019490945282518084019093529416815291820192909252606083015290939092509050565b6040546000906001600160a01b0383811691161461049857602084015184516000906104429085610531565b61044c90836106df565b9050610460678ac7230489e8000086610634565b826305f5e100610471846064610604565b61047b9190610604565b6104859190610634565b61048f9190610604565b925050506104e3565b60006104a8856000015184610531565b905060008186602001516104bc91906106df565b9050816305f5e1006104cf836064610604565b6104d99190610604565b61048f9190610634565b9392505050565b6000629896806305f5e100600a84610503836064610604565b61050d9190610604565b6105179190610634565b6105219190610604565b61052b9190610634565b92915050565b6000806001600160a01b038316639a6fc8f561054e600187610706565b6040516001600160e01b031960e084901b16815269ffffffffffffffffffff909116600482015260240160a060405180830381865afa158015610595573d6000803e3d6000fd5b505050506040513d601f19601f820116820180604052508101906105b9919061068f565b5091979650505050505050565b634e487b7160e01b600052601160045260246000fd5b80820182811260008312801582168215821617156105fc576105fc6105c6565b505092915050565b80820260008212600160ff1b84141615610620576106206105c6565b818105831482151761052b5761052b6105c6565b60008261065157634e487b7160e01b600052601260045260246000fd5b600160ff1b82146000198414161561066b5761066b6105c6565b500590565b805169ffffffffffffffffffff8116811461068a57600080fd5b919050565b600080600080600060a086880312156106a757600080fd5b6106b086610670565b94506020860151935060408601519250606086015191506106d360808701610670565b90509295509295909350565b81810360008312801583831316838312821617156106ff576106ff6105c6565b5092915050565b69ffffffffffffffffffff8281168282160390808211156106ff576106ff6105c656fea2646970667358221220cca22abfcb42e84765685ab269096540c14bdc42b5d76afaf94c17f01a57a8aa64736f6c63430008130033",
    "linkReferences": {}
  },
  "methodIdentifiers": {
    "getEnergyPrice()": "cab0f335"
  },
  "id": 5
}