{
  "abi": [
    {
      "inputs": [
        {
          "internalType": "address",
          "name": "feed",
          "type": "address"
        }
      ],
      "name": "AlreadyFeed",
      "type": "error"
    },
    {
      "inputs": [
        {
          "internalType": "address",
          "name": "feed",
          "type": "address"
        }
      ],
      "name": "NotFeed",
      "type": "error"
    },
    {
      "inputs": [
        {
          "internalType": "contract AggregatorV3Interface",
          "name": "newFeed_",
          "type": "address"
        }
      ],
      "name": "addFeed",
      "outputs": [],
      "stateMutability": "nonpayable",
      "type": "function"
    },
    {
      "inputs": [
        {
          "internalType": "address",
          "name": "newPool_",
          "type": "address"
        }
      ],
      "name": "changeUniPool",
      "outputs": [],
      "stateMutability": "nonpayable",
      "type": "function"
    },
    {
      "inputs": [
        {
          "internalType": "contract AggregatorV3Interface",
          "name": "newFeed_",
          "type": "address"
        }
      ],
      "name": "changeVolatilityIndex",
      "outputs": [],
      "stateMutability": "nonpayable",
      "type": "function"
    },
    {
      "inputs": [],
      "name": "getEnergyPrice",
      "outputs": [
        {
          "internalType": "uint256",
          "name": "",
          "type": "uint256"
        }
      ],
      "stateMutability": "view",
      "type": "function"
    },
    {
      "inputs": [],
      "name": "getPriceFeeds",
      "outputs": [
        {
          "internalType": "address[]",
          "name": "feeds",
          "type": "address[]"
        }
      ],
      "stateMutability": "view",
      "type": "function"
    },
    {
      "inputs": [],
      "name": "getTwapEth",
      "outputs": [
        {
          "internalType": "int256",
          "name": "",
          "type": "int256"
        }
      ],
      "stateMutability": "view",
      "type": "function"
    },
    {
      "inputs": [],
      "name": "getUniPool",
      "outputs": [
        {
          "internalType": "address",
          "name": "",
          "type": "address"
        }
      ],
      "stateMutability": "view",
      "type": "function"
    },
    {
      "inputs": [],
      "name": "getVolatilityIndex",
      "outputs": [
        {
          "internalType": "int256",
          "name": "",
          "type": "int256"
        }
      ],
      "stateMutability": "view",
      "type": "function"
    },
    {
      "inputs": [
        {
          "internalType": "contract AggregatorV3Interface",
          "name": "toRemove_",
          "type": "address"
        }
      ],
      "name": "removeFeed",
      "outputs": [],
      "stateMutability": "nonpayable",
      "type": "function"
    }
  ],
  "bytecode": {
    "object": "0x608060405234801561001057600080fd5b50611e50806100206000396000f3fe608060405234801561001057600080fd5b50600436106100935760003560e01c806393f086341161006657806393f08634146100f8578063b04aba3114610100578063bc7c402314610113578063cab0f33514610126578063d19e5b491461012e57600080fd5b80634b90fd6914610098578063672eea71146100ad5780636ca42ae3146100cd57806383cf65d4146100e2575b600080fd5b6100ab6100a63660046117d9565b610141565b005b6045546040516001600160a01b0390911681526020015b60405180910390f35b6100d56101f5565b6040516100c491906117f6565b6100ea6102b9565b6040519081526020016100c4565b6100ea610341565b6100ab61010e3660046117d9565b6103a4565b6100ab6101213660046117d9565b610498565b6100ea6104c2565b6100ab61013c3660046117d9565b61059d565b6101496105c7565b60448054604080516020808402820181019092528281526000936101b59386938301828280156101a257602002820191906000526020600020905b81546001600160a01b03168152600190910190602001808311610184575b505050505061065090919063ffffffff16565b905080196101e65760405163730a683f60e11b81526001600160a01b03831660048201526024015b60405180910390fd5b6101f16044836106b7565b5050565b6044546060908067ffffffffffffffff81111561021457610214611843565b60405190808252806020026020018201604052801561023d578160200160208202803683370190505b50915060005b808211156102b457604480548291908290811061026257610262611859565b9060005260206000200160009054906101000a90046001600160a01b031684828151811061029257610292611859565b6001600160a01b03929092166020928302919091019091015250600101610243565b505090565b6000806000603f0160009054906101000a90046001600160a01b03166001600160a01b031663feaf968c6040518163ffffffff1660e01b815260040160a060405180830381865afa158015610312573d6000803e3d6000fd5b505050506040513d601f19601f82011682018060405250810190610336919061188b565b509195945050505050565b604554600090819061035d906001600160a01b0316600a610811565b50600b5460095491925060009161038c918491670de0b6b3a7640000916001600160a01b039081169116610a57565b905061039d8164e8d4a510006118f1565b9250505090565b6103ac6105c7565b60448054604080516020808402820181019092528281526000936104169386938301828280156101a2576020028201919060005260206000209081546001600160a01b0316815260019091019060200180831161018457505050505061065090919063ffffffff16565b90508060001914610445576040516341497abd60e01b81526001600160a01b03831660048201526024016101dd565b50604480546001810182556000919091527f9b22d3d61959b4d3528b1d8ba932c96fbe302b36a1aad1d95cab54f9e0a135ea0180546001600160a01b0319166001600160a01b0392909216919091179055565b6104a06105c7565b603f80546001600160a01b0319166001600160a01b0392909216919091179055565b6000806000806104d0610b65565b9250925092506000808451905060005b808211156105655760008682815181106104fc576104fc611859565b60200260200101519050610510600b610df5565b60408054908201516105469183916001600160a01b0390811691161461053d576105386102b9565b610540565b60005b87610e3d565b6105509085611908565b935061055c600c610df5565b506001016104e0565b506105756305f5e1006064611930565b61057f8584611930565b6105899190611976565b6105939085611908565b9550505050505090565b6105a56105c7565b604580546001600160a01b0319166001600160a01b0392909216919091179055565b7fc8fcad8db84d3cc18b4c41d551ea0ee66dd599cde068d998e57d5e09332c131c600401546001600160a01b0316331461064e5760405162461bcd60e51b815260206004820152602260248201527f4c69624469616d6f6e643a204d75737420626520636f6e7472616374206f776e60448201526132b960f11b60648201526084016101dd565b565b8151600090815b808211156106a9576000819050846001600160a01b031686828151811061068057610680611859565b60200260200101516001600160a01b0316036106a05792506106b1915050565b50600101610657565b506000199150505b92915050565b6000805b835481101561070a57826001600160a01b03168482815481106106e0576106e0611859565b6000918252602090912001546001600160a01b0316036107025780915061070a565b6001016106bb565b50805b835461071b906001906119a4565b81101561079f578361072e8260016119b7565b8154811061073e5761073e611859565b9060005260206000200160009054906101000a90046001600160a01b031684828154811061076e5761076e611859565b600091825260209091200180546001600160a01b0319166001600160a01b039290921691909117905560010161070d565b50825483906107b0906001906119a4565b815481106107c0576107c0611859565b600091825260209091200180546001600160a01b031916905582548390806107ea576107ea6119ca565b600082815260209020810160001990810180546001600160a01b0319169055019055505050565b6000808263ffffffff1660000361084f5760405162461bcd60e51b8152602060048201526002602482015261042560f41b60448201526064016101dd565b604080516002808252606082018352600092602083019080368337019050509050838160008151811061088457610884611859565b602002602001019063ffffffff16908163ffffffff16815250506000816001815181106108b3576108b3611859565b602002602001019063ffffffff16908163ffffffff1681525050600080866001600160a01b031663883bdbfd846040518263ffffffff1660e01b81526004016108fc91906119e0565b600060405180830381865afa158015610919573d6000803e3d6000fd5b505050506040513d6000823e601f3d908101601f191682016040526109419190810190611ae7565b9150915060008260008151811061095a5761095a611859565b60200260200101518360018151811061097557610975611859565b60200260200101516109879190611bb3565b905060008260008151811061099e5761099e611859565b6020026020010151836001815181106109b9576109b9611859565b60200260200101516109cb9190611be0565b90506109db600389900b83611c07565b965060008260060b1280156109ff57506109f9600389900b83611c45565b60060b15155b15610a125786610a0e81611c67565b9750505b6000610a2b6001600160a01b0363ffffffff8b16611c8a565b9050610a48640100000000600160c01b03602084901b1682611cbc565b96505050505050509250929050565b600080610a6386610f91565b90506001600160801b036001600160a01b03821611610ae9576000610a916001600160a01b038316806118f1565b9050836001600160a01b0316856001600160a01b031610610ac957610ac4600160c01b876001600160801b0316836113b1565b610ae1565b610ae181876001600160801b0316600160c01b6113b1565b925050610b5c565b6000610b086001600160a01b03831680680100000000000000006113b1565b9050836001600160a01b0316856001600160a01b031610610b4057610b3b600160801b876001600160801b0316836113b1565b610b58565b610b5881876001600160801b0316600160801b6113b1565b9250505b50949350505050565b6044546060906000908190818167ffffffffffffffff811115610b8a57610b8a611843565b604051908082528060200260200182016040528015610bd557816020015b6040805160608101825260008082526020808301829052928201528252600019909201910181610ba85790505b5060408051808201909152600881526703632b733ba341d160c51b6020820152604454919250610c0491611527565b610c576040518060400160405280600681526020016503332b2b21d160d51b8152506000604401600081548110610c3d57610c3d611859565b6000918252602090912001546001600160a01b031661156c565b60005b80831115610dbe57600081905060008060006044018381548110610c8057610c80611859565b9060005260206000200160009054906101000a90046001600160a01b03166001600160a01b031663feaf968c6040518163ffffffff1660e01b815260040160a060405180830381865afa158015610cdb573d6000803e3d6000fd5b505050506040513d601f19601f82011682018060405250810190610cff919061188b565b50505091509150610d366040518060400160405280600e81526020016d03b30b61034b7102fb230ba309d160951b81525082611527565b60006040518060600160405280846001600160501b0316815260200183815260200160006044018681548110610d6e57610d6e611859565b6000918252602090912001546001600160a01b0316905286519091508190879086908110610d9e57610d9e611859565b602002602001018190525050505050610db78160010190565b9050610c5a565b50600080610de583600181518110610dd857610dd8611859565b60200260200101516115b1565b9398909750929550919350505050565b610e3a81604051602401610e0b91815260200190565b60408051601f198184030181529190526020810180516001600160e01b031663f5b1bba960e01b179052611635565b50565b6000610e496004610df5565b60408054908501516001600160a01b03908116911614610edb57602084015160408501518551600091610e85916001600160501b031690611656565b610e8f9083611ce2565b9050610ea3678ac7230489e8000086611976565b826305f5e100610eb4846064611930565b610ebe9190611930565b610ec89190611976565b610ed29190611930565b92505050610f8a565b6000828560200151610eed9190611ce2565b9050610ef96006610df5565b610f306040518060400160405280601181526020017003332b2b224b73337af973b30b63ab29d9607d1b8152508660200151611527565b610f616040518060400160405280600f81526020016e0383932bb22ba34283934b1b2af9d1608d1b81525084611527565b826305f5e100610f72836064611930565b610f7c9190611930565b610f869190611976565b9150505b9392505050565b60008060008360020b12610fa8578260020b610fb5565b8260020b610fb590611d02565b9050610fc4620d89e719611d1e565b60020b811115610ffa5760405162461bcd60e51b81526020600482015260016024820152601560fa1b60448201526064016101dd565b60008160011660000361101157600160801b611023565b6ffffcb933bd6fad37aa2d162d1a5940015b70ffffffffffffffffffffffffffffffffff169050600282161561106257608061105d826ffff97272373d413259a46990580e213a6118f1565b901c90505b600482161561108c576080611087826ffff2e50f5f656932ef12357cf3c7fdcc6118f1565b901c90505b60088216156110b65760806110b1826fffe5caca7e10e4e61c3624eaa0941cd06118f1565b901c90505b60108216156110e05760806110db826fffcb9843d60f6159c9db58835c9266446118f1565b901c90505b602082161561110a576080611105826fff973b41fa98c081472e6896dfb254c06118f1565b901c90505b604082161561113457608061112f826fff2ea16466c96a3843ec78b326b528616118f1565b901c90505b608082161561115e576080611159826ffe5dee046a99a2a811c461f1969c30536118f1565b901c90505b610100821615611189576080611184826ffcbe86c7900a88aedcffc83b479aa3a46118f1565b901c90505b6102008216156111b45760806111af826ff987a7253ac413176f2b074cf7815e546118f1565b901c90505b6104008216156111df5760806111da826ff3392b0822b70005940c7a398e4b70f36118f1565b901c90505b61080082161561120a576080611205826fe7159475a2c29b7443b29c7fa6e889d96118f1565b901c90505b611000821615611235576080611230826fd097f3bdfd2022b8845ad8f792aa58256118f1565b901c90505b61200082161561126057608061125b826fa9f746462d870fdf8a65dc1f90e061e56118f1565b901c90505b61400082161561128b576080611286826f70d869a156d2a1b890bb3df62baf32f76118f1565b901c90505b6180008216156112b65760806112b1826f31be135f97d08fd981231505542fcfa66118f1565b901c90505b620100008216156112e25760806112dd826f09aa508b5b7a84e1c677de54f3e99bc96118f1565b901c90505b6202000082161561130d576080611308826e5d6af8dedb81196699c329225ee6046118f1565b901c90505b62040000821615611337576080611332826d2216e584f5fa1ea926041bedfe986118f1565b901c90505b6208000082161561135f57608061135a826b048a170391f7dc42444e8fa26118f1565b901c90505b60008460020b131561137a5761137781600019611d40565b90505b61138964010000000082611d54565b15611395576001611398565b60005b6113a99060ff16602083901c6119b7565b949350505050565b60008080600019858709858702925082811083820303915050806000036113ea57600084116113df57600080fd5b508290049050610f8a565b8084116113f657600080fd5b60008486880980840393811190920391905060008561141481611d02565b1695869004959384900493600081900304600101905061143481846118f1565b9093179260006114458760036118f1565b600218905061145481886118f1565b61145f9060026119a4565b61146990826118f1565b905061147581886118f1565b6114809060026119a4565b61148a90826118f1565b905061149681886118f1565b6114a19060026119a4565b6114ab90826118f1565b90506114b781886118f1565b6114c29060026119a4565b6114cc90826118f1565b90506114d881886118f1565b6114e39060026119a4565b6114ed90826118f1565b90506114f981886118f1565b6115049060026119a4565b61150e90826118f1565b905061151a81866118f1565b9998505050505050505050565b6101f1828260405160240161153d929190611dae565b60408051601f198184030181529190526020810180516001600160e01b03166309710a9d60e41b179052611635565b6101f18282604051602401611582929190611dd0565b60408051601f198184030181529190526020810180516001600160e01b031663319af33360e01b179052611635565b60008060006115da846040015185600001516001600160501b031661165690919063ffffffff16565b905060006115eb85602001516116e8565b905060006115f7610341565b90506116148261160c856402540be400611930565b839190611729565b61162657611620610341565b83611629565b81835b94509450505050915091565b80516a636f6e736f6c652e6c6f67602083016000808483855afa5050505050565b6000806001600160a01b038316639a6fc8f5611673600187611dfa565b6040516001600160e01b031960e084901b1681526001600160501b03909116600482015260240160a060405180830381865afa1580156116b7573d6000803e3d6000fd5b505050506040513d601f19601f820116820180604052508101906116db919061188b565b5091979650505050505050565b6000629896806305f5e100600a84611701836064611930565b61170b9190611930565b6117159190611976565b61171f9190611930565b6106b19190611976565b6000806117368386611ce2565b905060006117448587611ce2565b90506005600087611754856117a8565b61175f906064611930565b6117699190611976565b9050600088611777856117a8565b611782906064611930565b61178c9190611976565b905082811361179c57600061151a565b50139695505050505050565b6000808212156117c0576117bb82611d02565b6106b1565b5090565b6001600160a01b0381168114610e3a57600080fd5b6000602082840312156117eb57600080fd5b8135610f8a816117c4565b6020808252825182820181905260009190848201906040850190845b818110156118375783516001600160a01b031683529284019291840191600101611812565b50909695505050505050565b634e487b7160e01b600052604160045260246000fd5b634e487b7160e01b600052603260045260246000fd5b80516001600160501b038116811461188657600080fd5b919050565b600080600080600060a086880312156118a357600080fd5b6118ac8661186f565b94506020860151935060408601519250606086015191506118cf6080870161186f565b90509295509295909350565b634e487b7160e01b600052601160045260246000fd5b80820281158282048414176106b1576106b16118db565b8082018281126000831280158216821582161715611928576119286118db565b505092915050565b80820260008212600160ff1b8414161561194c5761194c6118db565b81810583148215176106b1576106b16118db565b634e487b7160e01b600052601260045260246000fd5b60008261198557611985611960565b600160ff1b82146000198414161561199f5761199f6118db565b500590565b818103818111156106b1576106b16118db565b808201808211156106b1576106b16118db565b634e487b7160e01b600052603160045260246000fd5b6020808252825182820181905260009190848201906040850190845b8181101561183757835163ffffffff16835292840192918401916001016119fc565b604051601f8201601f1916810167ffffffffffffffff81118282101715611a4757611a47611843565b604052919050565b600067ffffffffffffffff821115611a6957611a69611843565b5060051b60200190565b600082601f830112611a8457600080fd5b81516020611a99611a9483611a4f565b611a1e565b82815260059290921b84018101918181019086841115611ab857600080fd5b8286015b84811015611adc578051611acf816117c4565b8352918301918301611abc565b509695505050505050565b60008060408385031215611afa57600080fd5b825167ffffffffffffffff80821115611b1257600080fd5b818501915085601f830112611b2657600080fd5b81516020611b36611a9483611a4f565b82815260059290921b84018101918181019089841115611b5557600080fd5b948201945b83861015611b835785518060060b8114611b745760008081fd5b82529482019490820190611b5a565b91880151919650909350505080821115611b9c57600080fd5b50611ba985828601611a73565b9150509250929050565b600682810b9082900b03667fffffffffffff198112667fffffffffffff821317156106b1576106b16118db565b6001600160a01b03828116828216039080821115611c0057611c006118db565b5092915050565b60008160060b8360060b80611c1e57611c1e611960565b667fffffffffffff19821460001982141615611c3c57611c3c6118db565b90059392505050565b60008260060b80611c5857611c58611960565b808360060b0791505092915050565b60008160020b627fffff198103611c8057611c806118db565b6000190192915050565b6001600160c01b03828116828216818102831692918115828504821417611cb357611cb36118db565b50505092915050565b60006001600160c01b0383811680611cd657611cd6611960565b92169190910492915050565b8181036000831280158383131683831282161715611c0057611c006118db565b6000600160ff1b8201611d1757611d176118db565b5060000390565b60008160020b627fffff198103611d3757611d376118db565b60000392915050565b600082611d4f57611d4f611960565b500490565b600082611d6357611d63611960565b500690565b6000815180845260005b81811015611d8e57602081850181015186830182015201611d72565b506000602082860101526020601f19601f83011685010191505092915050565b604081526000611dc16040830185611d68565b90508260208301529392505050565b604081526000611de36040830185611d68565b905060018060a01b03831660208301529392505050565b6001600160501b03828116828216039080821115611c0057611c006118db56fea2646970667358221220c6e0150a19752f3bf644d656cd6728c01016972fd8d39beaef354383153605fe64736f6c63430008130033",
    "linkReferences": {}
  },
  "methodIdentifiers": {
    "addFeed(address)": "b04aba31",
    "changeUniPool(address)": "d19e5b49",
    "changeVolatilityIndex(address)": "bc7c4023",
    "getEnergyPrice()": "cab0f335",
    "getPriceFeeds()": "6ca42ae3",
    "getTwapEth()": "93f08634",
    "getUniPool()": "672eea71",
    "getVolatilityIndex()": "83cf65d4",
    "removeFeed(address)": "4b90fd69"
  },
  "id": 7
}