{
  "abi": [
    {
      "inputs": [
        {
          "internalType": "contract AggregatorV3Interface",
          "name": "newFeed_",
          "type": "address"
        }
      ],
      "name": "changeVolatilityIndex",
      "outputs": [],
      "stateMutability": "nonpayable",
      "type": "function"
    },
    {
      "inputs": [],
      "name": "getEnergyPrice",
      "outputs": [
        {
          "internalType": "uint256",
          "name": "",
          "type": "uint256"
        }
      ],
      "stateMutability": "view",
      "type": "function"
    },
    {
      "inputs": [],
      "name": "getVolatilityIndex",
      "outputs": [
        {
          "internalType": "int256",
          "name": "",
          "type": "int256"
        }
      ],
      "stateMutability": "view",
      "type": "function"
    }
  ],
  "bytecode": {
    "object": "0x608060405234801561001057600080fd5b50610835806100206000396000f3fe608060405234801561001057600080fd5b50600436106100415760003560e01c806383cf65d414610046578063bc7c402314610060578063cab0f33514610075575b600080fd5b61004e61007d565b60405190815260200160405180910390f35b61007361006e36600461062d565b610105565b005b61004e61012f565b6000806000603f0160009054906101000a90046001600160a01b03166001600160a01b031663feaf968c6040518163ffffffff1660e01b815260040160a060405180830381865afa1580156100d6573d6000803e3d6000fd5b505050506040513d601f19601f820116820180604052508101906100fa9190610679565b509195945050505050565b61010d6101ff565b603f80546001600160a01b0319166001600160a01b0392909216919091179055565b600080600061013c61028c565b91509150600061014a61007d565b90506000805b84518110156101c857600085828151811061016d5761016d6106c9565b602090810291909101015160408054908201519192506101a89183916001600160a01b039182169116146101a15785610467565b6000610467565b6101b290846106f5565b92505080806101c09061071d565b915050610150565b506101d86305f5e1006064610736565b6101e28483610736565b6101ec9190610766565b6101f690846106f5565b94505050505090565b7fc8fcad8db84d3cc18b4c41d551ea0ee66dd599cde068d998e57d5e09332c131c600401546001600160a01b0316331461028a5760405162461bcd60e51b815260206004820152602260248201527f4c69624469616d6f6e643a204d75737420626520636f6e7472616374206f776e60448201526132b960f11b606482015260840160405180910390fd5b565b604454606090600090819067ffffffffffffffff8111156102af576102af6107a2565b6040519080825280602002602001820160405280156102fa57816020015b60408051606081018252600080825260208083018290529282015282526000199092019101816102cd5790505b50905060005b6044548110156104325760008060006044018381548110610323576103236106c9565b9060005260206000200160009054906101000a90046001600160a01b03166001600160a01b031663feaf968c6040518163ffffffff1660e01b815260040160a060405180830381865afa15801561037e573d6000803e3d6000fd5b505050506040513d601f19601f820116820180604052508101906103a29190610679565b5050509150915060006040518060600160405280846001600160501b03168152602001838152602001600060440186815481106103e1576103e16106c9565b6000918252602090912001546001600160a01b0316905285519091508190869086908110610411576104116106c9565b6020026020010181905250505050808061042a9061071d565b915050610300565b50600061045c8260018151811061044b5761044b6106c9565b60200260200101516020015161055a565b919491935090915050565b60408054908301516000916001600160a01b039182169116146104fc576020830151604084015184516000916104a6916001600160501b03169061059b565b6104b090836107b8565b90506104c4678ac7230489e8000085610766565b826305f5e1006104d5846064610736565b6104df9190610736565b6104e99190610766565b6104f39190610736565b92505050610554565b60408301518351600091610519916001600160501b03169061059b565b9050600081856020015161052d91906107b8565b9050816305f5e100610540836064610736565b61054a9190610736565b6104f39190610766565b92915050565b6000629896806305f5e100600a84610573836064610736565b61057d9190610736565b6105879190610766565b6105919190610736565b6105549190610766565b6000806001600160a01b038316639a6fc8f56105b86001876107df565b6040516001600160e01b031960e084901b1681526001600160501b03909116600482015260240160a060405180830381865afa1580156105fc573d6000803e3d6000fd5b505050506040513d601f19601f820116820180604052508101906106209190610679565b5091979650505050505050565b60006020828403121561063f57600080fd5b81356001600160a01b038116811461065657600080fd5b9392505050565b80516001600160501b038116811461067457600080fd5b919050565b600080600080600060a0868803121561069157600080fd5b61069a8661065d565b94506020860151935060408601519250606086015191506106bd6080870161065d565b90509295509295909350565b634e487b7160e01b600052603260045260246000fd5b634e487b7160e01b600052601160045260246000fd5b8082018281126000831280158216821582161715610715576107156106df565b505092915050565b60006001820161072f5761072f6106df565b5060010190565b80820260008212600160ff1b84141615610752576107526106df565b8181058314821517610554576105546106df565b60008261078357634e487b7160e01b600052601260045260246000fd5b600160ff1b82146000198414161561079d5761079d6106df565b500590565b634e487b7160e01b600052604160045260246000fd5b81810360008312801583831316838312821617156107d8576107d86106df565b5092915050565b6001600160501b038281168282160390808211156107d8576107d86106df56fea2646970667358221220e26f178fcccfd6005a4476a19969e6b6616e6e58f25350f5857edac78106342b64736f6c63430008130033",
    "linkReferences": {}
  },
  "methodIdentifiers": {
    "changeVolatilityIndex(address)": "bc7c4023",
    "getEnergyPrice()": "cab0f335",
    "getVolatilityIndex()": "83cf65d4"
  },
  "id": 6
}