{
  "abi": [
    {
      "inputs": [],
      "name": "getEnergyPrice",
      "outputs": [
        {
          "internalType": "uint256",
          "name": "",
          "type": "uint256"
        }
      ],
      "stateMutability": "view",
      "type": "function"
    }
  ],
  "bytecode": {
    "object": "0x608060405234801561001057600080fd5b50610764806100206000396000f3fe608060405234801561001057600080fd5b506004361061002b5760003560e01c8063cab0f33514610030575b600080fd5b61003861004a565b60405190815260200160405180910390f35b600080600061005761011e565b815160209081015190830151603e54939550919350916000916100849184906001600160a01b0316610413565b60608501516041549192506000916100a7919085906001600160a01b0316610413565b60408087015190549192506000916100ca919083906001600160a01b0316610413565b90506000826100d983866105e7565b6100e391906105e7565b90506100f46305f5e100606461060f565b6100fe878361060f565b610108919061063f565b61011290876105e7565b97505050505050505090565b6101816040805160c08101825260006080820181815260a083018290528252825180840184528181526020808201839052808401919091528351808501855282815280820183905283850152835180850190945281845283015290606082015290565b6000806000603f0160009054906101000a90046001600160a01b03166001600160a01b031663feaf968c6040518163ffffffff1660e01b815260040160a060405180830381865afa1580156101da573d6000803e3d6000fd5b505050506040513d601f19601f820116820180604052508101906101fe9190610697565b5050509150506000806000603e0160009054906101000a90046001600160a01b03166001600160a01b031663feaf968c6040518163ffffffff1660e01b815260040160a060405180830381865afa15801561025d573d6000803e3d6000fd5b505050506040513d601f19601f820116820180604052508101906102819190610697565b50505091509150600080600060400160009054906101000a90046001600160a01b03166001600160a01b031663feaf968c6040518163ffffffff1660e01b815260040160a060405180830381865afa1580156102e1573d6000803e3d6000fd5b505050506040513d601f19601f820116820180604052508101906103059190610697565b50505091509150600080600060410160009054906101000a90046001600160a01b03166001600160a01b031663feaf968c6040518163ffffffff1660e01b815260040160a060405180830381865afa158015610365573d6000803e3d6000fd5b505050506040513d601f19601f820116820180604052508101906103899190610697565b50505091509150610399836104f8565b6040805160c08101825260006080820190815260a082019a909a52988952805180820182526001600160501b039889168152602081810198909852878a0152805180820182529588168652858701949094528784019490945282518084019093529416815291820192909252606083015290939092509050565b6040546000906001600160a01b0383811691161461049e5760208401518451600090610448906001600160501b03168561053f565b61045290836106e7565b9050610466678ac7230489e800008661063f565b826305f5e10061047784606461060f565b610481919061060f565b61048b919061063f565b610495919061060f565b925050506104f1565b83516000906104b6906001600160501b03168461053f565b905060008186602001516104ca91906106e7565b9050816305f5e1006104dd83606461060f565b6104e7919061060f565b610495919061063f565b9392505050565b6000629896806305f5e100600a8461051183606461060f565b61051b919061060f565b610525919061063f565b61052f919061060f565b610539919061063f565b92915050565b6000806001600160a01b038316639a6fc8f561055c60018761070e565b6040516001600160e01b031960e084901b1681526001600160501b03909116600482015260240160a060405180830381865afa1580156105a0573d6000803e3d6000fd5b505050506040513d601f19601f820116820180604052508101906105c49190610697565b5091979650505050505050565b634e487b7160e01b600052601160045260246000fd5b8082018281126000831280158216821582161715610607576106076105d1565b505092915050565b80820260008212600160ff1b8414161561062b5761062b6105d1565b8181058314821517610539576105396105d1565b60008261065c57634e487b7160e01b600052601260045260246000fd5b600160ff1b821460001984141615610676576106766105d1565b500590565b80516001600160501b038116811461069257600080fd5b919050565b600080600080600060a086880312156106af57600080fd5b6106b88661067b565b94506020860151935060408601519250606086015191506106db6080870161067b565b90509295509295909350565b8181036000831280158383131683831282161715610707576107076105d1565b5092915050565b6001600160501b03828116828216039080821115610707576107076105d156fea2646970667358221220cf25d2ac36ddcd36ec07bdfceec45048a8d489bc76a206cd1e2ea042c656249a64736f6c63430008130033",
    "linkReferences": {}
  },
  "methodIdentifiers": {
    "getEnergyPrice()": "cab0f335"
  },
  "id": 6
}