{
  "abi": [
    {
      "inputs": [
        {
          "internalType": "address",
          "name": "feed",
          "type": "address"
        }
      ],
      "name": "AlreadyFeed",
      "type": "error"
    },
    {
      "inputs": [
        {
          "internalType": "address",
          "name": "feed",
          "type": "address"
        }
      ],
      "name": "NotFeed",
      "type": "error"
    },
    {
      "inputs": [
        {
          "internalType": "contract AggregatorV3Interface",
          "name": "newFeed_",
          "type": "address"
        }
      ],
      "name": "addFeed",
      "outputs": [],
      "stateMutability": "nonpayable",
      "type": "function"
    },
    {
      "inputs": [
        {
          "internalType": "contract AggregatorV3Interface",
          "name": "newFeed_",
          "type": "address"
        }
      ],
      "name": "changeVolatilityIndex",
      "outputs": [],
      "stateMutability": "nonpayable",
      "type": "function"
    },
    {
      "inputs": [],
      "name": "getEnergyPrice",
      "outputs": [
        {
          "internalType": "uint256",
          "name": "",
          "type": "uint256"
        }
      ],
      "stateMutability": "view",
      "type": "function"
    },
    {
      "inputs": [],
      "name": "getPriceFeeds",
      "outputs": [
        {
          "internalType": "address[]",
          "name": "feeds",
          "type": "address[]"
        }
      ],
      "stateMutability": "view",
      "type": "function"
    },
    {
      "inputs": [
        {
          "internalType": "uint160",
          "name": "sqrtPriceX96",
          "type": "uint160"
        }
      ],
      "name": "getPriceX96FromSqrtPriceX96",
      "outputs": [
        {
          "internalType": "uint256",
          "name": "priceX96",
          "type": "uint256"
        }
      ],
      "stateMutability": "pure",
      "type": "function"
    },
    {
      "inputs": [],
      "name": "getUni",
      "outputs": [
        {
          "internalType": "uint256",
          "name": "",
          "type": "uint256"
        }
      ],
      "stateMutability": "view",
      "type": "function"
    },
    {
      "inputs": [],
      "name": "getVolatilityIndex",
      "outputs": [
        {
          "internalType": "int256",
          "name": "",
          "type": "int256"
        }
      ],
      "stateMutability": "view",
      "type": "function"
    },
    {
      "inputs": [
        {
          "internalType": "contract AggregatorV3Interface",
          "name": "toRemove_",
          "type": "address"
        }
      ],
      "name": "removeFeed",
      "outputs": [],
      "stateMutability": "nonpayable",
      "type": "function"
    }
  ],
  "bytecode": {
    "object": "0x608060405234801561001057600080fd5b50611c59806100206000396000f3fe608060405234801561001057600080fd5b50600436106100885760003560e01c8063b04aba311161005b578063b04aba31146100e5578063bc7c4023146100f8578063c8e1b0621461010b578063cab0f3351461011357600080fd5b80634b90fd691461008d5780634e09a610146100a25780636ca42ae3146100c857806383cf65d4146100dd575b600080fd5b6100a061009b3660046115f9565b61011b565b005b6100b56100b03660046115f9565b6101cf565b6040519081526020015b60405180910390f35b6100d06101ef565b6040516100bf9190611616565b6100b56102b3565b6100a06100f33660046115f9565b61033b565b6100a06101063660046115f9565b61042f565b6100b5610459565b6100b561052d565b6101236105f6565b604480546040805160208084028201810190925282815260009361018f93869383018282801561017c57602002820191906000526020600020905b81546001600160a01b0316815260019091019060200180831161015e575b505050505061067f90919063ffffffff16565b905080196101c05760405163730a683f60e11b81526001600160a01b03831660048201526024015b60405180910390fd5b6101cb6044836106e4565b5050565b60006101e96001600160a01b03831680600160601b61083e565b92915050565b6044546060908067ffffffffffffffff81111561020e5761020e611663565b604051908082528060200260200182016040528015610237578160200160208202803683370190505b50915060005b808211156102ae57604480548291908290811061025c5761025c611679565b9060005260206000200160009054906101000a90046001600160a01b031684828151811061028c5761028c611679565b6001600160a01b0392909216602092830291909101909101525060010161023d565b505090565b6000806000603f0160009054906101000a90046001600160a01b03166001600160a01b031663feaf968c6040518163ffffffff1660e01b815260040160a060405180830381865afa15801561030c573d6000803e3d6000fd5b505050506040513d601f19601f8201168201806040525081019061033091906116ab565b509195945050505050565b6103436105f6565b60448054604080516020808402820181019092528281526000936103ad93869383018282801561017c576020028201919060005260206000209081546001600160a01b0316815260019091019060200180831161015e57505050505061067f90919063ffffffff16565b905080600019146103dc576040516341497abd60e01b81526001600160a01b03831660048201526024016101b7565b50604480546001810182556000919091527f9b22d3d61959b4d3528b1d8ba932c96fbe302b36a1aad1d95cab54f9e0a135ea0180546001600160a01b0319166001600160a01b0392909216919091179055565b6104376105f6565b603f80546001600160a01b0319166001600160a01b0392909216919091179055565b600073c31e54c7a869b9fcbecc14363cf510d1c41fa4437382af49447d8a07e3bd95bd0d56f35241523fbab173ff970a61a04b1ca14834a43f5de4533ebddb5cc882846104a782600a6109b6565b5090506104b68160020b610bfc565b6104de604051806040016040528060078152602001663a34b1b5902f2f60c91b815250610c44565b60006104f482670de0b6b3a76400008787610c87565b90506105236040518060400160405280600b81526020016a030b6b7bab73a27baba1d160ad1b81525082610dc0565b9695505050505050565b600080600061053a610e05565b9150915060006105486102b3565b8351909150600090815b808211156105be57600086828151811061056e5761056e611679565b602090810291909101015160408054908201519192506105a99183916001600160a01b039182169116146105a25786610fe3565b6000610fe3565b6105b39085611711565b935050600101610552565b506105ce6305f5e1006064611739565b6105d88584611739565b6105e2919061177f565b6105ec9085611711565b9550505050505090565b7fc8fcad8db84d3cc18b4c41d551ea0ee66dd599cde068d998e57d5e09332c131c600401546001600160a01b0316331461067d5760405162461bcd60e51b815260206004820152602260248201527f4c69624469616d6f6e643a204d75737420626520636f6e7472616374206f776e60448201526132b960f11b60648201526084016101b7565b565b8151600090815b808211156106d8576000819050846001600160a01b03168682815181106106af576106af611679565b60200260200101516001600160a01b0316036106cf5792506101e9915050565b50600101610686565b50600019949350505050565b6000805b835481101561073757826001600160a01b031684828154811061070d5761070d611679565b6000918252602090912001546001600160a01b03160361072f57809150610737565b6001016106e8565b50805b8354610748906001906117ad565b8110156107cc578361075b8260016117c0565b8154811061076b5761076b611679565b9060005260206000200160009054906101000a90046001600160a01b031684828154811061079b5761079b611679565b600091825260209091200180546001600160a01b0319166001600160a01b039290921691909117905560010161073a565b50825483906107dd906001906117ad565b815481106107ed576107ed611679565b600091825260209091200180546001600160a01b03191690558254839080610817576108176117d3565b600082815260209020810160001990810180546001600160a01b0319169055019055505050565b6000808060001985870985870292508281108382030391505080600003610877576000841161086c57600080fd5b5082900490506109af565b80841161088357600080fd5b6000848688098084039381119092039190506000856108a1816117e9565b169586900495938490049360008190030460010190506108c18184611805565b9093179260006108d2876003611805565b60021890506108e18188611805565b6108ec9060026117ad565b6108f69082611805565b90506109028188611805565b61090d9060026117ad565b6109179082611805565b90506109238188611805565b61092e9060026117ad565b6109389082611805565b90506109448188611805565b61094f9060026117ad565b6109599082611805565b90506109658188611805565b6109709060026117ad565b61097a9082611805565b90506109868188611805565b6109919060026117ad565b61099b9082611805565b90506109a78186611805565b955050505050505b9392505050565b6000808263ffffffff166000036109f45760405162461bcd60e51b8152602060048201526002602482015261042560f41b60448201526064016101b7565b6040805160028082526060820183526000926020830190803683370190505090508381600081518110610a2957610a29611679565b602002602001019063ffffffff16908163ffffffff1681525050600081600181518110610a5857610a58611679565b602002602001019063ffffffff16908163ffffffff1681525050600080866001600160a01b031663883bdbfd846040518263ffffffff1660e01b8152600401610aa1919061181c565b600060405180830381865afa158015610abe573d6000803e3d6000fd5b505050506040513d6000823e601f3d908101601f19168201604052610ae69190810190611923565b91509150600082600081518110610aff57610aff611679565b602002602001015183600181518110610b1a57610b1a611679565b6020026020010151610b2c91906119ef565b9050600082600081518110610b4357610b43611679565b602002602001015183600181518110610b5e57610b5e611679565b6020026020010151610b709190611a1c565b9050610b80600389900b83611a43565b965060008260060b128015610ba45750610b9e600389900b83611a81565b60060b15155b15610bb75786610bb381611aa3565b9750505b6000610bd06001600160a01b0363ffffffff8b16611ac6565b9050610bed640100000000600160c01b03602084901b1682611af8565b96505050505050509250929050565b610c4181604051602401610c1291815260200190565b60408051601f198184030181529190526020810180516001600160e01b0316634e0c1d1d60e01b1790526110d0565b50565b610c4181604051602401610c589190611b64565b60408051601f198184030181529190526020810180516001600160e01b031663104c13eb60e21b1790526110d0565b600080610c93866110f1565b90506001600160801b036001600160a01b03821611610d44576000610cc16001600160a01b03831680611805565b9050836001600160a01b0316856001600160a01b031610610cf957610cf4600160c01b876001600160801b03168361083e565b610d11565b610d1181876001600160801b0316600160c01b61083e565b9250610d3e60405180604001604052806009815260200168038bab7ba3290189d160bd1b81525084610dc0565b50610db7565b6000610d636001600160a01b038316806801000000000000000061083e565b9050836001600160a01b0316856001600160a01b031610610d9b57610d96600160801b876001600160801b03168361083e565b610db3565b610db381876001600160801b0316600160801b61083e565b9250505b50949350505050565b6101cb8282604051602401610dd6929190611b77565b60408051601f198184030181529190526020810180516001600160e01b03166309710a9d60e41b1790526110d0565b604454606090600090818167ffffffffffffffff811115610e2857610e28611663565b604051908082528060200260200182016040528015610e7357816020015b6040805160608101825260008082526020808301829052928201528252600019909201910181610e465790505b50905060005b80831115610fad57600081905060008060006044018381548110610e9f57610e9f611679565b9060005260206000200160009054906101000a90046001600160a01b03166001600160a01b031663feaf968c6040518163ffffffff1660e01b815260040160a060405180830381865afa158015610efa573d6000803e3d6000fd5b505050506040513d601f19601f82011682018060405250810190610f1e91906116ab565b5050509150915060006040518060600160405280846001600160501b0316815260200183815260200160006044018681548110610f5d57610f5d611679565b6000918252602090912001546001600160a01b0316905286519091508190879086908110610f8d57610f8d611679565b602002602001018190525050505050610fa68160010190565b9050610e79565b506000610fd782600181518110610fc657610fc6611679565b602002602001015160200151611511565b91959194509092505050565b60408054908301516000916001600160a01b0391821691161461107857602083015160408401518451600091611022916001600160501b031690611552565b61102c9083611b99565b9050611040678ac7230489e800008561177f565b826305f5e100611051846064611739565b61105b9190611739565b611065919061177f565b61106f9190611739565b925050506101e9565b60408301518351600091611095916001600160501b031690611552565b905060008185602001516110a99190611b99565b9050816305f5e1006110bc836064611739565b6110c69190611739565b61106f919061177f565b80516a636f6e736f6c652e6c6f67602083016000808483855afa5050505050565b60008060008360020b12611108578260020b611115565b8260020b611115906117e9565b9050611124620d89e719611bb9565b60020b81111561115a5760405162461bcd60e51b81526020600482015260016024820152601560fa1b60448201526064016101b7565b60008160011660000361117157600160801b611183565b6ffffcb933bd6fad37aa2d162d1a5940015b70ffffffffffffffffffffffffffffffffff16905060028216156111c25760806111bd826ffff97272373d413259a46990580e213a611805565b901c90505b60048216156111ec5760806111e7826ffff2e50f5f656932ef12357cf3c7fdcc611805565b901c90505b6008821615611216576080611211826fffe5caca7e10e4e61c3624eaa0941cd0611805565b901c90505b601082161561124057608061123b826fffcb9843d60f6159c9db58835c926644611805565b901c90505b602082161561126a576080611265826fff973b41fa98c081472e6896dfb254c0611805565b901c90505b604082161561129457608061128f826fff2ea16466c96a3843ec78b326b52861611805565b901c90505b60808216156112be5760806112b9826ffe5dee046a99a2a811c461f1969c3053611805565b901c90505b6101008216156112e95760806112e4826ffcbe86c7900a88aedcffc83b479aa3a4611805565b901c90505b61020082161561131457608061130f826ff987a7253ac413176f2b074cf7815e54611805565b901c90505b61040082161561133f57608061133a826ff3392b0822b70005940c7a398e4b70f3611805565b901c90505b61080082161561136a576080611365826fe7159475a2c29b7443b29c7fa6e889d9611805565b901c90505b611000821615611395576080611390826fd097f3bdfd2022b8845ad8f792aa5825611805565b901c90505b6120008216156113c05760806113bb826fa9f746462d870fdf8a65dc1f90e061e5611805565b901c90505b6140008216156113eb5760806113e6826f70d869a156d2a1b890bb3df62baf32f7611805565b901c90505b618000821615611416576080611411826f31be135f97d08fd981231505542fcfa6611805565b901c90505b6201000082161561144257608061143d826f09aa508b5b7a84e1c677de54f3e99bc9611805565b901c90505b6202000082161561146d576080611468826e5d6af8dedb81196699c329225ee604611805565b901c90505b62040000821615611497576080611492826d2216e584f5fa1ea926041bedfe98611805565b901c90505b620800008216156114bf5760806114ba826b048a170391f7dc42444e8fa2611805565b901c90505b60008460020b13156114da576114d781600019611bdb565b90505b6114e964010000000082611bef565b156114f55760016114f8565b60005b6115099060ff16602083901c6117c0565b949350505050565b6000629896806305f5e100600a8461152a836064611739565b6115349190611739565b61153e919061177f565b6115489190611739565b6101e9919061177f565b6000806001600160a01b038316639a6fc8f561156f600187611c03565b6040516001600160e01b031960e084901b1681526001600160501b03909116600482015260240160a060405180830381865afa1580156115b3573d6000803e3d6000fd5b505050506040513d601f19601f820116820180604052508101906115d791906116ab565b5091979650505050505050565b6001600160a01b0381168114610c4157600080fd5b60006020828403121561160b57600080fd5b81356109af816115e4565b6020808252825182820181905260009190848201906040850190845b818110156116575783516001600160a01b031683529284019291840191600101611632565b50909695505050505050565b634e487b7160e01b600052604160045260246000fd5b634e487b7160e01b600052603260045260246000fd5b80516001600160501b03811681146116a657600080fd5b919050565b600080600080600060a086880312156116c357600080fd5b6116cc8661168f565b94506020860151935060408601519250606086015191506116ef6080870161168f565b90509295509295909350565b634e487b7160e01b600052601160045260246000fd5b8082018281126000831280158216821582161715611731576117316116fb565b505092915050565b80820260008212600160ff1b84141615611755576117556116fb565b81810583148215176101e9576101e96116fb565b634e487b7160e01b600052601260045260246000fd5b60008261178e5761178e611769565b600160ff1b8214600019841416156117a8576117a86116fb565b500590565b818103818111156101e9576101e96116fb565b808201808211156101e9576101e96116fb565b634e487b7160e01b600052603160045260246000fd5b6000600160ff1b82016117fe576117fe6116fb565b5060000390565b80820281158282048414176101e9576101e96116fb565b6020808252825182820181905260009190848201906040850190845b8181101561165757835163ffffffff1683529284019291840191600101611838565b604051601f8201601f1916810167ffffffffffffffff8111828210171561188357611883611663565b604052919050565b600067ffffffffffffffff8211156118a5576118a5611663565b5060051b60200190565b600082601f8301126118c057600080fd5b815160206118d56118d08361188b565b61185a565b82815260059290921b840181019181810190868411156118f457600080fd5b8286015b8481101561191857805161190b816115e4565b83529183019183016118f8565b509695505050505050565b6000806040838503121561193657600080fd5b825167ffffffffffffffff8082111561194e57600080fd5b818501915085601f83011261196257600080fd5b815160206119726118d08361188b565b82815260059290921b8401810191818101908984111561199157600080fd5b948201945b838610156119bf5785518060060b81146119b05760008081fd5b82529482019490820190611996565b918801519196509093505050808211156119d857600080fd5b506119e5858286016118af565b9150509250929050565b600682810b9082900b03667fffffffffffff198112667fffffffffffff821317156101e9576101e96116fb565b6001600160a01b03828116828216039080821115611a3c57611a3c6116fb565b5092915050565b60008160060b8360060b80611a5a57611a5a611769565b667fffffffffffff19821460001982141615611a7857611a786116fb565b90059392505050565b60008260060b80611a9457611a94611769565b808360060b0791505092915050565b60008160020b627fffff198103611abc57611abc6116fb565b6000190192915050565b6001600160c01b03828116828216818102831692918115828504821417611aef57611aef6116fb565b50505092915050565b60006001600160c01b0383811680611b1257611b12611769565b92169190910492915050565b6000815180845260005b81811015611b4457602081850181015186830182015201611b28565b506000602082860101526020601f19601f83011685010191505092915050565b6020815260006109af6020830184611b1e565b604081526000611b8a6040830185611b1e565b90508260208301529392505050565b8181036000831280158383131683831282161715611a3c57611a3c6116fb565b60008160020b627fffff198103611bd257611bd26116fb565b60000392915050565b600082611bea57611bea611769565b500490565b600082611bfe57611bfe611769565b500690565b6001600160501b03828116828216039080821115611a3c57611a3c6116fb56fea264697066735822122010fd47e2855a38e6fad2f36f0dc50890ae498289ebeedba0b5435a5d425524ed64736f6c63430008130033",
    "linkReferences": {}
  },
  "methodIdentifiers": {
    "addFeed(address)": "b04aba31",
    "changeVolatilityIndex(address)": "bc7c4023",
    "getEnergyPrice()": "cab0f335",
    "getPriceFeeds()": "6ca42ae3",
    "getPriceX96FromSqrtPriceX96(uint160)": "4e09a610",
    "getUni()": "c8e1b062",
    "getVolatilityIndex()": "83cf65d4",
    "removeFeed(address)": "4b90fd69"
  },
  "id": 7
}