{
  "abi": [
    {
      "inputs": [
        {
          "internalType": "contract AggregatorV3Interface",
          "name": "newFeed_",
          "type": "address"
        }
      ],
      "name": "addFeed",
      "outputs": [],
      "stateMutability": "nonpayable",
      "type": "function"
    },
    {
      "inputs": [
        {
          "internalType": "contract AggregatorV3Interface",
          "name": "newFeed_",
          "type": "address"
        }
      ],
      "name": "changeVolatilityIndex",
      "outputs": [],
      "stateMutability": "nonpayable",
      "type": "function"
    },
    {
      "inputs": [],
      "name": "getEnergyPrice",
      "outputs": [
        {
          "internalType": "uint256",
          "name": "",
          "type": "uint256"
        }
      ],
      "stateMutability": "view",
      "type": "function"
    },
    {
      "inputs": [],
      "name": "getVolatilityIndex",
      "outputs": [
        {
          "internalType": "int256",
          "name": "",
          "type": "int256"
        }
      ],
      "stateMutability": "view",
      "type": "function"
    },
    {
      "inputs": [
        {
          "internalType": "contract AggregatorV3Interface",
          "name": "toRemove_",
          "type": "address"
        }
      ],
      "name": "removeFeed",
      "outputs": [],
      "stateMutability": "nonpayable",
      "type": "function"
    }
  ],
  "bytecode": {
    "object": "0x608060405234801561001057600080fd5b50610a77806100206000396000f3fe608060405234801561001057600080fd5b50600436106100575760003560e01c80634b90fd691461005c57806383cf65d414610071578063b04aba311461008b578063bc7c40231461009e578063cab0f335146100b1575b600080fd5b61006f61006a366004610833565b6100b9565b005b6100796100cf565b60405190815260200160405180910390f35b61006f610099366004610833565b610157565b61006f6100ac366004610833565b6101b1565b6100796101db565b6100c16102ab565b6100cc604482610338565b50565b6000806000603f0160009054906101000a90046001600160a01b03166001600160a01b031663feaf968c6040518163ffffffff1660e01b815260040160a060405180830381865afa158015610128573d6000803e3d6000fd5b505050506040513d601f19601f8201168201806040525081019061014c919061087f565b509195945050505050565b61015f6102ab565b604480546001810182556000919091527f9b22d3d61959b4d3528b1d8ba932c96fbe302b36a1aad1d95cab54f9e0a135ea0180546001600160a01b0319166001600160a01b0392909216919091179055565b6101b96102ab565b603f80546001600160a01b0319166001600160a01b0392909216919091179055565b60008060006101e8610492565b9150915060006101f66100cf565b90506000805b8451811015610274576000858281518110610219576102196108cf565b602090810291909101015160408054908201519192506102549183916001600160a01b0391821691161461024d578561066d565b600061066d565b61025e90846108fb565b925050808061026c90610923565b9150506101fc565b506102846305f5e100606461093c565b61028e848361093c565b610298919061096c565b6102a290846108fb565b94505050505090565b7fc8fcad8db84d3cc18b4c41d551ea0ee66dd599cde068d998e57d5e09332c131c600401546001600160a01b031633146103365760405162461bcd60e51b815260206004820152602260248201527f4c69624469616d6f6e643a204d75737420626520636f6e7472616374206f776e60448201526132b960f11b606482015260840160405180910390fd5b565b6000805b835481101561038b57826001600160a01b0316848281548110610361576103616108cf565b6000918252602090912001546001600160a01b0316036103835780915061038b565b60010161033c565b50805b835461039c906001906109a8565b81101561042057836103af8260016109bb565b815481106103bf576103bf6108cf565b9060005260206000200160009054906101000a90046001600160a01b03168482815481106103ef576103ef6108cf565b600091825260209091200180546001600160a01b0319166001600160a01b039290921691909117905560010161038e565b5082548390610431906001906109a8565b81548110610441576104416108cf565b600091825260209091200180546001600160a01b0319169055825483908061046b5761046b6109ce565b600082815260209020810160001990810180546001600160a01b0319169055019055505050565b604454606090600090819067ffffffffffffffff8111156104b5576104b56109e4565b60405190808252806020026020018201604052801561050057816020015b60408051606081018252600080825260208083018290529282015282526000199092019101816104d35790505b50905060005b6044548110156106385760008060006044018381548110610529576105296108cf565b9060005260206000200160009054906101000a90046001600160a01b03166001600160a01b031663feaf968c6040518163ffffffff1660e01b815260040160a060405180830381865afa158015610584573d6000803e3d6000fd5b505050506040513d601f19601f820116820180604052508101906105a8919061087f565b5050509150915060006040518060600160405280846001600160501b03168152602001838152602001600060440186815481106105e7576105e76108cf565b6000918252602090912001546001600160a01b0316905285519091508190869086908110610617576106176108cf565b6020026020010181905250505050808061063090610923565b915050610506565b50600061066282600181518110610651576106516108cf565b602002602001015160200151610760565b919491935090915050565b60408054908301516000916001600160a01b03918216911614610702576020830151604084015184516000916106ac916001600160501b0316906107a1565b6106b690836109fa565b90506106ca678ac7230489e800008561096c565b826305f5e1006106db84606461093c565b6106e5919061093c565b6106ef919061096c565b6106f9919061093c565b9250505061075a565b6040830151835160009161071f916001600160501b0316906107a1565b9050600081856020015161073391906109fa565b9050816305f5e10061074683606461093c565b610750919061093c565b6106f9919061096c565b92915050565b6000629896806305f5e100600a8461077983606461093c565b610783919061093c565b61078d919061096c565b610797919061093c565b61075a919061096c565b6000806001600160a01b038316639a6fc8f56107be600187610a21565b6040516001600160e01b031960e084901b1681526001600160501b03909116600482015260240160a060405180830381865afa158015610802573d6000803e3d6000fd5b505050506040513d601f19601f82011682018060405250810190610826919061087f565b5091979650505050505050565b60006020828403121561084557600080fd5b81356001600160a01b038116811461085c57600080fd5b9392505050565b80516001600160501b038116811461087a57600080fd5b919050565b600080600080600060a0868803121561089757600080fd5b6108a086610863565b94506020860151935060408601519250606086015191506108c360808701610863565b90509295509295909350565b634e487b7160e01b600052603260045260246000fd5b634e487b7160e01b600052601160045260246000fd5b808201828112600083128015821682158216171561091b5761091b6108e5565b505092915050565b600060018201610935576109356108e5565b5060010190565b80820260008212600160ff1b84141615610958576109586108e5565b818105831482151761075a5761075a6108e5565b60008261098957634e487b7160e01b600052601260045260246000fd5b600160ff1b8214600019841416156109a3576109a36108e5565b500590565b8181038181111561075a5761075a6108e5565b8082018082111561075a5761075a6108e5565b634e487b7160e01b600052603160045260246000fd5b634e487b7160e01b600052604160045260246000fd5b8181036000831280158383131683831282161715610a1a57610a1a6108e5565b5092915050565b6001600160501b03828116828216039080821115610a1a57610a1a6108e556fea264697066735822122017e8ee2212ad423dd236d05351bc991717bf8755838eadebf703ed0ae02e622b64736f6c63430008130033",
    "linkReferences": {}
  },
  "methodIdentifiers": {
    "addFeed(address)": "b04aba31",
    "changeVolatilityIndex(address)": "bc7c4023",
    "getEnergyPrice()": "cab0f335",
    "getVolatilityIndex()": "83cf65d4",
    "removeFeed(address)": "4b90fd69"
  },
  "id": 6
}