{
  "abi": [
    {
      "inputs": [
        {
          "internalType": "address",
          "name": "feed",
          "type": "address"
        }
      ],
      "name": "AlreadyFeed",
      "type": "error"
    },
    {
      "inputs": [
        {
          "internalType": "address",
          "name": "feed",
          "type": "address"
        }
      ],
      "name": "NotFeed",
      "type": "error"
    },
    {
      "inputs": [
        {
          "internalType": "contract AggregatorV3Interface",
          "name": "newFeed_",
          "type": "address"
        }
      ],
      "name": "addFeed",
      "outputs": [],
      "stateMutability": "nonpayable",
      "type": "function"
    },
    {
      "inputs": [
        {
          "internalType": "contract AggregatorV3Interface",
          "name": "newFeed_",
          "type": "address"
        }
      ],
      "name": "changeVolatilityIndex",
      "outputs": [],
      "stateMutability": "nonpayable",
      "type": "function"
    },
    {
      "inputs": [],
      "name": "getEnergyPrice",
      "outputs": [
        {
          "internalType": "uint256",
          "name": "",
          "type": "uint256"
        }
      ],
      "stateMutability": "view",
      "type": "function"
    },
    {
      "inputs": [],
      "name": "getPriceFeeds",
      "outputs": [
        {
          "internalType": "address[]",
          "name": "feeds",
          "type": "address[]"
        }
      ],
      "stateMutability": "view",
      "type": "function"
    },
    {
      "inputs": [],
      "name": "getTwapEth",
      "outputs": [
        {
          "internalType": "int256",
          "name": "",
          "type": "int256"
        }
      ],
      "stateMutability": "view",
      "type": "function"
    },
    {
      "inputs": [],
      "name": "getVolatilityIndex",
      "outputs": [
        {
          "internalType": "int256",
          "name": "",
          "type": "int256"
        }
      ],
      "stateMutability": "view",
      "type": "function"
    },
    {
      "inputs": [
        {
          "internalType": "contract AggregatorV3Interface",
          "name": "toRemove_",
          "type": "address"
        }
      ],
      "name": "removeFeed",
      "outputs": [],
      "stateMutability": "nonpayable",
      "type": "function"
    }
  ],
  "bytecode": {
    "object": "0x608060405234801561001057600080fd5b50611ed2806100206000396000f3fe608060405234801561001057600080fd5b506004361061007d5760003560e01c806393f086341161005b57806393f08634146100cb578063b04aba31146100d3578063bc7c4023146100e6578063cab0f335146100f957600080fd5b80634b90fd69146100825780636ca42ae31461009757806383cf65d4146100b5575b600080fd5b610095610090366004611834565b610101565b005b61009f6101b5565b6040516100ac9190611851565b60405180910390f35b6100bd610279565b6040519081526020016100ac565b6100bd610301565b6100956100e1366004611834565b610382565b6100956100f4366004611834565b610476565b6100bd6104a0565b61010961056f565b604480546040805160208084028201810190925282815260009361017593869383018282801561016257602002820191906000526020600020905b81546001600160a01b03168152600190910190602001808311610144575b50505050506105f890919063ffffffff16565b905080196101a65760405163730a683f60e11b81526001600160a01b03831660048201526024015b60405180910390fd5b6101b160448361065f565b5050565b6044546060908067ffffffffffffffff8111156101d4576101d461189e565b6040519080825280602002602001820160405280156101fd578160200160208202803683370190505b50915060005b80821115610274576044805482919082908110610222576102226118b4565b9060005260206000200160009054906101000a90046001600160a01b0316848281518110610252576102526118b4565b6001600160a01b03929092166020928302919091019091015250600101610203565b505090565b6000806000603f0160009054906101000a90046001600160a01b03166001600160a01b031663feaf968c6040518163ffffffff1660e01b815260040160a060405180830381865afa1580156102d2573d6000803e3d6000fd5b505050506040513d601f19601f820116820180604052508101906102f691906118e6565b509195945050505050565b600073c31e54c7a869b9fcbecc14363cf510d1c41fa4437382af49447d8a07e3bd95bd0d56f35241523fbab173ff970a61a04b1ca14834a43f5de4533ebddb5cc88361034e84600a6107b9565b509050600061036782670de0b6b3a76400008686610b83565b90506103788164e8d4a5100061194c565b9550505050505090565b61038a61056f565b60448054604080516020808402820181019092528281526000936103f4938693830182828015610162576020028201919060005260206000209081546001600160a01b031681526001909101906020018083116101445750505050506105f890919063ffffffff16565b90508060001914610423576040516341497abd60e01b81526001600160a01b038316600482015260240161019d565b50604480546001810182556000919091527f9b22d3d61959b4d3528b1d8ba932c96fbe302b36a1aad1d95cab54f9e0a135ea0180546001600160a01b0319166001600160a01b0392909216919091179055565b61047e61056f565b603f80546001600160a01b0319166001600160a01b0392909216919091179055565b6000806000806104ae610c91565b92509250925060006104be610279565b8451909150600090815b808211156105365760008782815181106104e4576104e46118b4565b602090810291909101015160408054908201519192506105219183916001600160a01b03918216911614610518578661051b565b60005b88610e72565b61052b9085611963565b9350506001016104c8565b506105466305f5e100606461198b565b610550868461198b565b61055a91906119d1565b6105649086611963565b965050505050505090565b7fc8fcad8db84d3cc18b4c41d551ea0ee66dd599cde068d998e57d5e09332c131c600401546001600160a01b031633146105f65760405162461bcd60e51b815260206004820152602260248201527f4c69624469616d6f6e643a204d75737420626520636f6e7472616374206f776e60448201526132b960f11b606482015260840161019d565b565b8151600090815b80821115610651576000819050846001600160a01b0316868281518110610628576106286118b4565b60200260200101516001600160a01b031603610648579250610659915050565b506001016105ff565b506000199150505b92915050565b6000805b83548110156106b257826001600160a01b0316848281548110610688576106886118b4565b6000918252602090912001546001600160a01b0316036106aa578091506106b2565b600101610663565b50805b83546106c3906001906119ff565b81101561074757836106d6826001611a12565b815481106106e6576106e66118b4565b9060005260206000200160009054906101000a90046001600160a01b0316848281548110610716576107166118b4565b600091825260209091200180546001600160a01b0319166001600160a01b03929092169190911790556001016106b5565b5082548390610758906001906119ff565b81548110610768576107686118b4565b600091825260209091200180546001600160a01b0319169055825483908061079257610792611a25565b600082815260209020810160001990810180546001600160a01b0319169055019055505050565b6000808263ffffffff166000036107f75760405162461bcd60e51b8152602060048201526002602482015261042560f41b604482015260640161019d565b604080516002808252606082018352600092602083019080368337019050509050838160008151811061082c5761082c6118b4565b602002602001019063ffffffff16908163ffffffff168152505060008160018151811061085b5761085b6118b4565b602002602001019063ffffffff16908163ffffffff1681525050600080866001600160a01b031663883bdbfd846040518263ffffffff1660e01b81526004016108a49190611a3b565b600060405180830381865afa1580156108c1573d6000803e3d6000fd5b505050506040513d6000823e601f3d908101601f191682016040526108e99190810190611b42565b915091506109466040518060400160405280601481526020017303a34b1b5a1bab6bab630ba34bb32b9ad982e9d160651b81525083600081518110610930576109306118b4565b602002602001015166ffffffffffffff16610f4b565b6109896040518060400160405280601481526020017303a34b1b5a1bab6bab630ba34bb32b9ad98ae9d160651b81525083600181518110610930576109306118b4565b6103e88260008151811061099f5761099f6118b4565b60200260200101516109b19190611c0e565b826000815181106109c4576109c46118b4565b60200260200101516109d69190611c4c565b826000815181106109e9576109e96118b4565b602002602001019060060b908160060b815250506103e882600181518110610a1357610a136118b4565b6020026020010151610a259190611c0e565b82600181518110610a3857610a386118b4565b6020026020010151610a4a9190611c4c565b82600181518110610a5d57610a5d6118b4565b602002602001019060060b908160060b81525050600082600081518110610a8657610a866118b4565b602002602001015183600181518110610aa157610aa16118b4565b6020026020010151610ab39190611c79565b9050600082600081518110610aca57610aca6118b4565b602002602001015183600181518110610ae557610ae56118b4565b6020026020010151610af79190611ca6565b9050610b07600389900b83611c0e565b965060008260060b128015610b2b5750610b25600389900b83611ccd565b60060b15155b15610b3e5786610b3a81611cef565b9750505b6000610b576001600160a01b0363ffffffff8b16611d12565b9050610b74640100000000600160c01b03602084901b1682611d44565b96505050505050509250929050565b600080610b8f86610f90565b90506001600160801b036001600160a01b03821611610c15576000610bbd6001600160a01b0383168061194c565b9050836001600160a01b0316856001600160a01b031610610bf557610bf0600160c01b876001600160801b0316836113b0565b610c0d565b610c0d81876001600160801b0316600160c01b6113b0565b925050610c88565b6000610c346001600160a01b03831680680100000000000000006113b0565b9050836001600160a01b0316856001600160a01b031610610c6c57610c67600160801b876001600160801b0316836113b0565b610c84565b610c8481876001600160801b0316600160801b6113b0565b9250505b50949350505050565b6044546060906000908190818167ffffffffffffffff811115610cb657610cb661189e565b604051908082528060200260200182016040528015610d0157816020015b6040805160608101825260008082526020808301829052928201528252600019909201910181610cd45790505b50905060005b80831115610e3b57600081905060008060006044018381548110610d2d57610d2d6118b4565b9060005260206000200160009054906101000a90046001600160a01b03166001600160a01b031663feaf968c6040518163ffffffff1660e01b815260040160a060405180830381865afa158015610d88573d6000803e3d6000fd5b505050506040513d601f19601f82011682018060405250810190610dac91906118e6565b5050509150915060006040518060600160405280846001600160501b0316815260200183815260200160006044018681548110610deb57610deb6118b4565b6000918252602090912001546001600160a01b0316905286519091508190879086908110610e1b57610e1b6118b4565b602002602001018190525050505050610e348160010190565b9050610d07565b50600080610e6283600181518110610e5557610e556118b4565b6020026020010151611526565b9398909750929550919350505050565b60408054908401516000916001600160a01b03918216911614610f0757602084015160408501518551600091610eb1916001600160501b0316906115ee565b610ebb9083611d6a565b9050610ecf678ac7230489e80000866119d1565b826305f5e100610ee084606461198b565b610eea919061198b565b610ef491906119d1565b610efe919061198b565b92505050610f44565b6000828560200151610f199190611d6a565b9050826305f5e100610f2c83606461198b565b610f36919061198b565b610f4091906119d1565b9150505b9392505050565b6101b18282604051602401610f61929190611dd0565b60408051601f198184030181529190526020810180516001600160e01b03166309710a9d60e41b179052611680565b60008060008360020b12610fa7578260020b610fb4565b8260020b610fb490611df2565b9050610fc3620d89e719611e0e565b60020b811115610ff95760405162461bcd60e51b81526020600482015260016024820152601560fa1b604482015260640161019d565b60008160011660000361101057600160801b611022565b6ffffcb933bd6fad37aa2d162d1a5940015b70ffffffffffffffffffffffffffffffffff169050600282161561106157608061105c826ffff97272373d413259a46990580e213a61194c565b901c90505b600482161561108b576080611086826ffff2e50f5f656932ef12357cf3c7fdcc61194c565b901c90505b60088216156110b55760806110b0826fffe5caca7e10e4e61c3624eaa0941cd061194c565b901c90505b60108216156110df5760806110da826fffcb9843d60f6159c9db58835c92664461194c565b901c90505b6020821615611109576080611104826fff973b41fa98c081472e6896dfb254c061194c565b901c90505b604082161561113357608061112e826fff2ea16466c96a3843ec78b326b5286161194c565b901c90505b608082161561115d576080611158826ffe5dee046a99a2a811c461f1969c305361194c565b901c90505b610100821615611188576080611183826ffcbe86c7900a88aedcffc83b479aa3a461194c565b901c90505b6102008216156111b35760806111ae826ff987a7253ac413176f2b074cf7815e5461194c565b901c90505b6104008216156111de5760806111d9826ff3392b0822b70005940c7a398e4b70f361194c565b901c90505b610800821615611209576080611204826fe7159475a2c29b7443b29c7fa6e889d961194c565b901c90505b61100082161561123457608061122f826fd097f3bdfd2022b8845ad8f792aa582561194c565b901c90505b61200082161561125f57608061125a826fa9f746462d870fdf8a65dc1f90e061e561194c565b901c90505b61400082161561128a576080611285826f70d869a156d2a1b890bb3df62baf32f761194c565b901c90505b6180008216156112b55760806112b0826f31be135f97d08fd981231505542fcfa661194c565b901c90505b620100008216156112e15760806112dc826f09aa508b5b7a84e1c677de54f3e99bc961194c565b901c90505b6202000082161561130c576080611307826e5d6af8dedb81196699c329225ee60461194c565b901c90505b62040000821615611336576080611331826d2216e584f5fa1ea926041bedfe9861194c565b901c90505b6208000082161561135e576080611359826b048a170391f7dc42444e8fa261194c565b901c90505b60008460020b13156113795761137681600019611e30565b90505b61138864010000000082611e44565b15611394576001611397565b60005b6113a89060ff16602083901c611a12565b949350505050565b60008080600019858709858702925082811083820303915050806000036113e957600084116113de57600080fd5b508290049050610f44565b8084116113f557600080fd5b60008486880980840393811190920391905060008561141381611df2565b16958690049593849004936000819003046001019050611433818461194c565b90931792600061144487600361194c565b6002189050611453818861194c565b61145e9060026119ff565b611468908261194c565b9050611474818861194c565b61147f9060026119ff565b611489908261194c565b9050611495818861194c565b6114a09060026119ff565b6114aa908261194c565b90506114b6818861194c565b6114c19060026119ff565b6114cb908261194c565b90506114d7818861194c565b6114e29060026119ff565b6114ec908261194c565b90506114f8818861194c565b6115039060026119ff565b61150d908261194c565b9050611519818661194c565b9998505050505050505050565b600080600061154f846040015185600001516001600160501b03166115ee90919063ffffffff16565b9050600061155b610301565b9050600061156c86602001516116a1565b90506115b96040518060400160405280600d81526020016c034b99031b432b1b5a2ba341d1609d1b8152506115b483866402540be4006115ac919061198b565b8691906116e2565b6117bb565b6115d4816115cc856402540be40061198b565b8491906116e2565b6115df5781836115e2565b80835b94509450505050915091565b6000806001600160a01b038316639a6fc8f561160b600187611e58565b6040516001600160e01b031960e084901b1681526001600160501b03909116600482015260240160a060405180830381865afa15801561164f573d6000803e3d6000fd5b505050506040513d601f19601f8201168201806040525081019061167391906118e6565b5091979650505050505050565b80516a636f6e736f6c652e6c6f67602083016000808483855afa5050505050565b6000629896806305f5e100600a846116ba83606461198b565b6116c4919061198b565b6116ce91906119d1565b6116d8919061198b565b61065991906119d1565b6000806116ef8386611d6a565b905060006116fd8587611d6a565b9050600560008761170d85611800565b61171890606461198b565b61172291906119d1565b905060008861173085611800565b61173b90606461198b565b61174591906119d1565b90506117766040518060400160405280600d81526020016c0383932bb2832b92234b3331d1609d1b81525083610f4b565b6117a16040518060400160405280600981526020016803832b92234b3331d160bd1b81525082610f4b565b8281136117af576000611519565b50139695505050505050565b6101b182826040516024016117d1929190611e78565b60408051601f198184030181529190526020810180516001600160e01b031663c3b5563560e01b179052611680565b6000808212156118185761181382611df2565b610659565b5090565b6001600160a01b038116811461183157600080fd5b50565b60006020828403121561184657600080fd5b8135610f448161181c565b6020808252825182820181905260009190848201906040850190845b818110156118925783516001600160a01b03168352928401929184019160010161186d565b50909695505050505050565b634e487b7160e01b600052604160045260246000fd5b634e487b7160e01b600052603260045260246000fd5b80516001600160501b03811681146118e157600080fd5b919050565b600080600080600060a086880312156118fe57600080fd5b611907866118ca565b945060208601519350604086015192506060860151915061192a608087016118ca565b90509295509295909350565b634e487b7160e01b600052601160045260246000fd5b808202811582820484141761065957610659611936565b808201828112600083128015821682158216171561198357611983611936565b505092915050565b80820260008212600160ff1b841416156119a7576119a7611936565b818105831482151761065957610659611936565b634e487b7160e01b600052601260045260246000fd5b6000826119e0576119e06119bb565b600160ff1b8214600019841416156119fa576119fa611936565b500590565b8181038181111561065957610659611936565b8082018082111561065957610659611936565b634e487b7160e01b600052603160045260246000fd5b6020808252825182820181905260009190848201906040850190845b8181101561189257835163ffffffff1683529284019291840191600101611a57565b604051601f8201601f1916810167ffffffffffffffff81118282101715611aa257611aa261189e565b604052919050565b600067ffffffffffffffff821115611ac457611ac461189e565b5060051b60200190565b600082601f830112611adf57600080fd5b81516020611af4611aef83611aaa565b611a79565b82815260059290921b84018101918181019086841115611b1357600080fd5b8286015b84811015611b37578051611b2a8161181c565b8352918301918301611b17565b509695505050505050565b60008060408385031215611b5557600080fd5b825167ffffffffffffffff80821115611b6d57600080fd5b818501915085601f830112611b8157600080fd5b81516020611b91611aef83611aaa565b82815260059290921b84018101918181019089841115611bb057600080fd5b948201945b83861015611bde5785518060060b8114611bcf5760008081fd5b82529482019490820190611bb5565b91880151919650909350505080821115611bf757600080fd5b50611c0485828601611ace565b9150509250929050565b60008160060b8360060b80611c2557611c256119bb565b667fffffffffffff19821460001982141615611c4357611c43611936565b90059392505050565b600681810b9083900b01667fffffffffffff8113667fffffffffffff198212171561065957610659611936565b600682810b9082900b03667fffffffffffff198112667fffffffffffff8213171561065957610659611936565b6001600160a01b03828116828216039080821115611cc657611cc6611936565b5092915050565b60008260060b80611ce057611ce06119bb565b808360060b0791505092915050565b60008160020b627fffff198103611d0857611d08611936565b6000190192915050565b6001600160c01b03828116828216818102831692918115828504821417611d3b57611d3b611936565b50505092915050565b60006001600160c01b0383811680611d5e57611d5e6119bb565b92169190910492915050565b8181036000831280158383131683831282161715611cc657611cc6611936565b6000815180845260005b81811015611db057602081850181015186830182015201611d94565b506000602082860101526020601f19601f83011685010191505092915050565b604081526000611de36040830185611d8a565b90508260208301529392505050565b6000600160ff1b8201611e0757611e07611936565b5060000390565b60008160020b627fffff198103611e2757611e27611936565b60000392915050565b600082611e3f57611e3f6119bb565b500490565b600082611e5357611e536119bb565b500690565b6001600160501b03828116828216039080821115611cc657611cc6611936565b604081526000611e8b6040830185611d8a565b90508215156020830152939250505056fea2646970667358221220be161855783f0c2b447af915d19277f8d62314d63f104a6f65a8c839ef77c76564736f6c63430008130033",
    "linkReferences": {}
  },
  "methodIdentifiers": {
    "addFeed(address)": "b04aba31",
    "changeVolatilityIndex(address)": "bc7c4023",
    "getEnergyPrice()": "cab0f335",
    "getPriceFeeds()": "6ca42ae3",
    "getTwapEth()": "93f08634",
    "getVolatilityIndex()": "83cf65d4",
    "removeFeed(address)": "4b90fd69"
  },
  "id": 7
}