{
  "abi": [
    {
      "inputs": [],
      "name": "getLastPrice",
      "outputs": [
        {
          "internalType": "uint256",
          "name": "",
          "type": "uint256"
        }
      ],
      "stateMutability": "view",
      "type": "function"
    },
    {
      "inputs": [],
      "name": "getNum",
      "outputs": [
        {
          "internalType": "uint256",
          "name": "",
          "type": "uint256"
        }
      ],
      "stateMutability": "pure",
      "type": "function"
    }
  ],
  "bytecode": {
    "object": "0x608060405234801561001057600080fd5b50610767806100206000396000f3fe608060405234801561001057600080fd5b50600436106100365760003560e01c806367e0badb1461003b578063d8cf24fd14610050575b600080fd5b60035b60405190815260200160405180910390f35b61003e6000806000610060610127565b81516020908101519083015160008054949650929450909261008d919084906001600160a01b031661041e565b60608501516003549192506000916100b0919085906001600160a01b031661041e565b60408601516002549192506000916100d3919083906001600160a01b031661041e565b90506000826100e283866105e4565b6100ec91906105e4565b90506100fd6305f5e100606461060c565b610107878361060c565b610111919061063c565b61011b90876105e4565b97505050505050505090565b61018a6040805160c08101825260006080820181815260a083018290528252825180840184528181526020808201839052808401919091528351808501855282815280820183905283850152835180850190945281845283015290606082015290565b600080600060010160009054906101000a90046001600160a01b03166001600160a01b031663feaf968c6040518163ffffffff1660e01b815260040160a060405180830381865afa1580156101e3573d6000803e3d6000fd5b505050506040513d601f19601f820116820180604052508101906102079190610697565b5050509150506000806000800160009054906101000a90046001600160a01b03166001600160a01b031663feaf968c6040518163ffffffff1660e01b815260040160a060405180830381865afa158015610265573d6000803e3d6000fd5b505050506040513d601f19601f820116820180604052508101906102899190610697565b50505091509150600080600060020160009054906101000a90046001600160a01b03166001600160a01b031663feaf968c6040518163ffffffff1660e01b815260040160a060405180830381865afa1580156102e9573d6000803e3d6000fd5b505050506040513d601f19601f8201168201806040525081019061030d9190610697565b50505091509150600080600060030160009054906101000a90046001600160a01b03166001600160a01b031663feaf968c6040518163ffffffff1660e01b815260040160a060405180830381865afa15801561036d573d6000803e3d6000fd5b505050506040513d601f19601f820116820180604052508101906103919190610697565b505050915091506103a1836104f2565b6040805160c08101825260006080820190815260a082019a909a529889528051808201825269ffffffffffffffffffff9889168152602081810198909852878a0152805180820182529588168652858701949094528784019490945282518084019093529416815291820192909252606083015290939092509050565b6002546000906001600160a01b038381169116146104a0576020840151845160009061044a9085610539565b61045490836106e7565b9050610468678ac7230489e800008661063c565b826305f5e10061047984606461060c565b610483919061060c565b61048d919061063c565b610497919061060c565b925050506104eb565b60006104b0856000015184610539565b905060008186602001516104c491906106e7565b9050816305f5e1006104d783606461060c565b6104e1919061060c565b610497919061063c565b9392505050565b6000629896806305f5e100600a8461050b83606461060c565b610515919061060c565b61051f919061063c565b610529919061060c565b610533919061063c565b92915050565b6000806001600160a01b038316639a6fc8f561055660018761070e565b6040516001600160e01b031960e084901b16815269ffffffffffffffffffff909116600482015260240160a060405180830381865afa15801561059d573d6000803e3d6000fd5b505050506040513d601f19601f820116820180604052508101906105c19190610697565b5091979650505050505050565b634e487b7160e01b600052601160045260246000fd5b8082018281126000831280158216821582161715610604576106046105ce565b505092915050565b80820260008212600160ff1b84141615610628576106286105ce565b8181058314821517610533576105336105ce565b60008261065957634e487b7160e01b600052601260045260246000fd5b600160ff1b821460001984141615610673576106736105ce565b500590565b805169ffffffffffffffffffff8116811461069257600080fd5b919050565b600080600080600060a086880312156106af57600080fd5b6106b886610678565b94506020860151935060408601519250606086015191506106db60808701610678565b90509295509295909350565b8181036000831280158383131683831282161715610707576107076105ce565b5092915050565b69ffffffffffffffffffff828116828216039080821115610707576107076105ce56fea26469706673582212202bca61e264873b178ca8e674d3ab2ea7d6ea95558daef8e219d801113d57fa8e64736f6c63430008130033",
    "linkReferences": {}
  },
  "methodIdentifiers": {
    "getLastPrice()": "d8cf24fd",
    "getNum()": "67e0badb"
  },
  "id": 3
}