{
  "abi": [
    {
      "inputs": [
        {
          "internalType": "address",
          "name": "feed",
          "type": "address"
        }
      ],
      "name": "AlreadyFeed",
      "type": "error"
    },
    {
      "inputs": [
        {
          "internalType": "address",
          "name": "feed",
          "type": "address"
        }
      ],
      "name": "NotFeed",
      "type": "error"
    },
    {
      "inputs": [
        {
          "internalType": "contract AggregatorV3Interface",
          "name": "newFeed_",
          "type": "address"
        }
      ],
      "name": "addFeed",
      "outputs": [],
      "stateMutability": "nonpayable",
      "type": "function"
    },
    {
      "inputs": [
        {
          "internalType": "contract AggregatorV3Interface",
          "name": "newFeed_",
          "type": "address"
        }
      ],
      "name": "changeVolatilityIndex",
      "outputs": [],
      "stateMutability": "nonpayable",
      "type": "function"
    },
    {
      "inputs": [],
      "name": "getEnergyPrice",
      "outputs": [
        {
          "internalType": "uint256",
          "name": "",
          "type": "uint256"
        }
      ],
      "stateMutability": "view",
      "type": "function"
    },
    {
      "inputs": [],
      "name": "getPriceFeeds",
      "outputs": [
        {
          "internalType": "address[]",
          "name": "feeds",
          "type": "address[]"
        }
      ],
      "stateMutability": "view",
      "type": "function"
    },
    {
      "inputs": [],
      "name": "getTwapEth",
      "outputs": [
        {
          "internalType": "int256",
          "name": "",
          "type": "int256"
        }
      ],
      "stateMutability": "view",
      "type": "function"
    },
    {
      "inputs": [],
      "name": "getVolatilityIndex",
      "outputs": [
        {
          "internalType": "int256",
          "name": "",
          "type": "int256"
        }
      ],
      "stateMutability": "view",
      "type": "function"
    },
    {
      "inputs": [
        {
          "internalType": "contract AggregatorV3Interface",
          "name": "toRemove_",
          "type": "address"
        }
      ],
      "name": "removeFeed",
      "outputs": [],
      "stateMutability": "nonpayable",
      "type": "function"
    }
  ],
  "bytecode": {
    "object": "0x608060405234801561001057600080fd5b50611b27806100206000396000f3fe608060405234801561001057600080fd5b506004361061007d5760003560e01c806393f086341161005b57806393f08634146100cb578063b04aba31146100d3578063bc7c4023146100e6578063cab0f335146100f957600080fd5b80634b90fd69146100825780636ca42ae31461009757806383cf65d4146100b5575b600080fd5b610095610090366004611542565b610101565b005b61009f6101b5565b6040516100ac919061155f565b60405180910390f35b6100bd610279565b6040519081526020016100ac565b6100bd610301565b6100956100e1366004611542565b610364565b6100956100f4366004611542565b610458565b6100bd610482565b610109610551565b604480546040805160208084028201810190925282815260009361017593869383018282801561016257602002820191906000526020600020905b81546001600160a01b03168152600190910190602001808311610144575b50505050506105da90919063ffffffff16565b905080196101a65760405163730a683f60e11b81526001600160a01b03831660048201526024015b60405180910390fd5b6101b1604483610641565b5050565b6044546060908067ffffffffffffffff8111156101d4576101d46115ac565b6040519080825280602002602001820160405280156101fd578160200160208202803683370190505b50915060005b80821115610274576044805482919082908110610222576102226115c2565b9060005260206000200160009054906101000a90046001600160a01b0316848281518110610252576102526115c2565b6001600160a01b03929092166020928302919091019091015250600101610203565b505090565b6000806000603f0160009054906101000a90046001600160a01b03166001600160a01b031663feaf968c6040518163ffffffff1660e01b815260040160a060405180830381865afa1580156102d2573d6000803e3d6000fd5b505050506040513d601f19601f820116820180604052508101906102f691906115f4565b509195945050505050565b604554600090819061031d906001600160a01b0316600a61079b565b50600b5460095491925060009161034c918491670de0b6b3a7640000916001600160a01b0390811691166109e1565b905061035d8164e8d4a5100061165a565b9250505090565b61036c610551565b60448054604080516020808402820181019092528281526000936103d6938693830182828015610162576020028201919060005260206000209081546001600160a01b031681526001909101906020018083116101445750505050506105da90919063ffffffff16565b90508060001914610405576040516341497abd60e01b81526001600160a01b038316600482015260240161019d565b50604480546001810182556000919091527f9b22d3d61959b4d3528b1d8ba932c96fbe302b36a1aad1d95cab54f9e0a135ea0180546001600160a01b0319166001600160a01b0392909216919091179055565b610460610551565b603f80546001600160a01b0319166001600160a01b0392909216919091179055565b600080600080610490610aef565b92509250925060006104a0610279565b8451909150600090815b808211156105185760008782815181106104c6576104c66115c2565b602090810291909101015160408054908201519192506105039183916001600160a01b039182169116146104fa57866104fd565b60005b88610cd0565b61050d9085611671565b9350506001016104aa565b506105286305f5e1006064611699565b6105328684611699565b61053c91906116df565b6105469086611671565b965050505050505090565b7fc8fcad8db84d3cc18b4c41d551ea0ee66dd599cde068d998e57d5e09332c131c600401546001600160a01b031633146105d85760405162461bcd60e51b815260206004820152602260248201527f4c69624469616d6f6e643a204d75737420626520636f6e7472616374206f776e60448201526132b960f11b606482015260840161019d565b565b8151600090815b80821115610633576000819050846001600160a01b031686828151811061060a5761060a6115c2565b60200260200101516001600160a01b03160361062a57925061063b915050565b506001016105e1565b506000199150505b92915050565b6000805b835481101561069457826001600160a01b031684828154811061066a5761066a6115c2565b6000918252602090912001546001600160a01b03160361068c57809150610694565b600101610645565b50805b83546106a59060019061170d565b81101561072957836106b8826001611720565b815481106106c8576106c86115c2565b9060005260206000200160009054906101000a90046001600160a01b03168482815481106106f8576106f86115c2565b600091825260209091200180546001600160a01b0319166001600160a01b0392909216919091179055600101610697565b508254839061073a9060019061170d565b8154811061074a5761074a6115c2565b600091825260209091200180546001600160a01b0319169055825483908061077457610774611733565b600082815260209020810160001990810180546001600160a01b0319169055019055505050565b6000808263ffffffff166000036107d95760405162461bcd60e51b8152602060048201526002602482015261042560f41b604482015260640161019d565b604080516002808252606082018352600092602083019080368337019050509050838160008151811061080e5761080e6115c2565b602002602001019063ffffffff16908163ffffffff168152505060008160018151811061083d5761083d6115c2565b602002602001019063ffffffff16908163ffffffff1681525050600080866001600160a01b031663883bdbfd846040518263ffffffff1660e01b81526004016108869190611749565b600060405180830381865afa1580156108a3573d6000803e3d6000fd5b505050506040513d6000823e601f3d908101601f191682016040526108cb9190810190611850565b915091506000826000815181106108e4576108e46115c2565b6020026020010151836001815181106108ff576108ff6115c2565b6020026020010151610911919061191c565b9050600082600081518110610928576109286115c2565b602002602001015183600181518110610943576109436115c2565b60200260200101516109559190611949565b9050610965600389900b83611970565b965060008260060b1280156109895750610983600389900b836119ae565b60060b15155b1561099c5786610998816119d0565b9750505b60006109b56001600160a01b0363ffffffff8b166119f3565b90506109d2640100000000600160c01b03602084901b1682611a25565b96505050505050509250929050565b6000806109ed86610da9565b90506001600160801b036001600160a01b03821611610a73576000610a1b6001600160a01b0383168061165a565b9050836001600160a01b0316856001600160a01b031610610a5357610a4e600160c01b876001600160801b0316836111c9565b610a6b565b610a6b81876001600160801b0316600160c01b6111c9565b925050610ae6565b6000610a926001600160a01b03831680680100000000000000006111c9565b9050836001600160a01b0316856001600160a01b031610610aca57610ac5600160801b876001600160801b0316836111c9565b610ae2565b610ae281876001600160801b0316600160801b6111c9565b9250505b50949350505050565b6044546060906000908190818167ffffffffffffffff811115610b1457610b146115ac565b604051908082528060200260200182016040528015610b5f57816020015b6040805160608101825260008082526020808301829052928201528252600019909201910181610b325790505b50905060005b80831115610c9957600081905060008060006044018381548110610b8b57610b8b6115c2565b9060005260206000200160009054906101000a90046001600160a01b03166001600160a01b031663feaf968c6040518163ffffffff1660e01b815260040160a060405180830381865afa158015610be6573d6000803e3d6000fd5b505050506040513d601f19601f82011682018060405250810190610c0a91906115f4565b5050509150915060006040518060600160405280846001600160501b0316815260200183815260200160006044018681548110610c4957610c496115c2565b6000918252602090912001546001600160a01b0316905286519091508190879086908110610c7957610c796115c2565b602002602001018190525050505050610c928160010190565b9050610b65565b50600080610cc083600181518110610cb357610cb36115c2565b602002602001015161133f565b9398909750929550919350505050565b60408054908401516000916001600160a01b03918216911614610d6557602084015160408501518551600091610d0f916001600160501b0316906113bc565b610d199083611a4b565b9050610d2d678ac7230489e80000866116df565b826305f5e100610d3e846064611699565b610d489190611699565b610d5291906116df565b610d5c9190611699565b92505050610da2565b6000828560200151610d779190611a4b565b9050826305f5e100610d8a836064611699565b610d949190611699565b610d9e91906116df565b9150505b9392505050565b60008060008360020b12610dc0578260020b610dcd565b8260020b610dcd90611a6b565b9050610ddc620d89e719611a87565b60020b811115610e125760405162461bcd60e51b81526020600482015260016024820152601560fa1b604482015260640161019d565b600081600116600003610e2957600160801b610e3b565b6ffffcb933bd6fad37aa2d162d1a5940015b70ffffffffffffffffffffffffffffffffff1690506002821615610e7a576080610e75826ffff97272373d413259a46990580e213a61165a565b901c90505b6004821615610ea4576080610e9f826ffff2e50f5f656932ef12357cf3c7fdcc61165a565b901c90505b6008821615610ece576080610ec9826fffe5caca7e10e4e61c3624eaa0941cd061165a565b901c90505b6010821615610ef8576080610ef3826fffcb9843d60f6159c9db58835c92664461165a565b901c90505b6020821615610f22576080610f1d826fff973b41fa98c081472e6896dfb254c061165a565b901c90505b6040821615610f4c576080610f47826fff2ea16466c96a3843ec78b326b5286161165a565b901c90505b6080821615610f76576080610f71826ffe5dee046a99a2a811c461f1969c305361165a565b901c90505b610100821615610fa1576080610f9c826ffcbe86c7900a88aedcffc83b479aa3a461165a565b901c90505b610200821615610fcc576080610fc7826ff987a7253ac413176f2b074cf7815e5461165a565b901c90505b610400821615610ff7576080610ff2826ff3392b0822b70005940c7a398e4b70f361165a565b901c90505b61080082161561102257608061101d826fe7159475a2c29b7443b29c7fa6e889d961165a565b901c90505b61100082161561104d576080611048826fd097f3bdfd2022b8845ad8f792aa582561165a565b901c90505b612000821615611078576080611073826fa9f746462d870fdf8a65dc1f90e061e561165a565b901c90505b6140008216156110a357608061109e826f70d869a156d2a1b890bb3df62baf32f761165a565b901c90505b6180008216156110ce5760806110c9826f31be135f97d08fd981231505542fcfa661165a565b901c90505b620100008216156110fa5760806110f5826f09aa508b5b7a84e1c677de54f3e99bc961165a565b901c90505b62020000821615611125576080611120826e5d6af8dedb81196699c329225ee60461165a565b901c90505b6204000082161561114f57608061114a826d2216e584f5fa1ea926041bedfe9861165a565b901c90505b62080000821615611177576080611172826b048a170391f7dc42444e8fa261165a565b901c90505b60008460020b13156111925761118f81600019611aa9565b90505b6111a164010000000082611abd565b156111ad5760016111b0565b60005b6111c19060ff16602083901c611720565b949350505050565b600080806000198587098587029250828110838203039150508060000361120257600084116111f757600080fd5b508290049050610da2565b80841161120e57600080fd5b60008486880980840393811190920391905060008561122c81611a6b565b1695869004959384900493600081900304600101905061124c818461165a565b90931792600061125d87600361165a565b600218905061126c818861165a565b61127790600261170d565b611281908261165a565b905061128d818861165a565b61129890600261170d565b6112a2908261165a565b90506112ae818861165a565b6112b990600261170d565b6112c3908261165a565b90506112cf818861165a565b6112da90600261170d565b6112e4908261165a565b90506112f0818861165a565b6112fb90600261170d565b611305908261165a565b9050611311818861165a565b61131c90600261170d565b611326908261165a565b9050611332818661165a565b9998505050505050505050565b6000806000611368846040015185600001516001600160501b03166113bc90919063ffffffff16565b90506000611374610301565b90506000611385866020015161144e565b90506113a28161139a856402540be400611699565b84919061148f565b6113ad5781836113b0565b80835b94509450505050915091565b6000806001600160a01b038316639a6fc8f56113d9600187611ad1565b6040516001600160e01b031960e084901b1681526001600160501b03909116600482015260240160a060405180830381865afa15801561141d573d6000803e3d6000fd5b505050506040513d601f19601f8201168201806040525081019061144191906115f4565b5091979650505050505050565b6000629896806305f5e100600a84611467836064611699565b6114719190611699565b61147b91906116df565b6114859190611699565b61063b91906116df565b60008061149c8386611a4b565b905060006114aa8587611a4b565b905060056000876114ba8561150e565b6114c5906064611699565b6114cf91906116df565b90506000886114dd8561150e565b6114e8906064611699565b6114f291906116df565b9050828113611502576000611332565b50139695505050505050565b6000808212156115265761152182611a6b565b61063b565b5090565b6001600160a01b038116811461153f57600080fd5b50565b60006020828403121561155457600080fd5b8135610da28161152a565b6020808252825182820181905260009190848201906040850190845b818110156115a05783516001600160a01b03168352928401929184019160010161157b565b50909695505050505050565b634e487b7160e01b600052604160045260246000fd5b634e487b7160e01b600052603260045260246000fd5b80516001600160501b03811681146115ef57600080fd5b919050565b600080600080600060a0868803121561160c57600080fd5b611615866115d8565b9450602086015193506040860151925060608601519150611638608087016115d8565b90509295509295909350565b634e487b7160e01b600052601160045260246000fd5b808202811582820484141761063b5761063b611644565b808201828112600083128015821682158216171561169157611691611644565b505092915050565b80820260008212600160ff1b841416156116b5576116b5611644565b818105831482151761063b5761063b611644565b634e487b7160e01b600052601260045260246000fd5b6000826116ee576116ee6116c9565b600160ff1b82146000198414161561170857611708611644565b500590565b8181038181111561063b5761063b611644565b8082018082111561063b5761063b611644565b634e487b7160e01b600052603160045260246000fd5b6020808252825182820181905260009190848201906040850190845b818110156115a057835163ffffffff1683529284019291840191600101611765565b604051601f8201601f1916810167ffffffffffffffff811182821017156117b0576117b06115ac565b604052919050565b600067ffffffffffffffff8211156117d2576117d26115ac565b5060051b60200190565b600082601f8301126117ed57600080fd5b815160206118026117fd836117b8565b611787565b82815260059290921b8401810191818101908684111561182157600080fd5b8286015b848110156118455780516118388161152a565b8352918301918301611825565b509695505050505050565b6000806040838503121561186357600080fd5b825167ffffffffffffffff8082111561187b57600080fd5b818501915085601f83011261188f57600080fd5b8151602061189f6117fd836117b8565b82815260059290921b840181019181810190898411156118be57600080fd5b948201945b838610156118ec5785518060060b81146118dd5760008081fd5b825294820194908201906118c3565b9188015191965090935050508082111561190557600080fd5b50611912858286016117dc565b9150509250929050565b600682810b9082900b03667fffffffffffff198112667fffffffffffff8213171561063b5761063b611644565b6001600160a01b0382811682821603908082111561196957611969611644565b5092915050565b60008160060b8360060b80611987576119876116c9565b667fffffffffffff198214600019821416156119a5576119a5611644565b90059392505050565b60008260060b806119c1576119c16116c9565b808360060b0791505092915050565b60008160020b627fffff1981036119e9576119e9611644565b6000190192915050565b6001600160c01b03828116828216818102831692918115828504821417611a1c57611a1c611644565b50505092915050565b60006001600160c01b0383811680611a3f57611a3f6116c9565b92169190910492915050565b818103600083128015838313168383128216171561196957611969611644565b6000600160ff1b8201611a8057611a80611644565b5060000390565b60008160020b627fffff198103611aa057611aa0611644565b60000392915050565b600082611ab857611ab86116c9565b500490565b600082611acc57611acc6116c9565b500690565b6001600160501b038281168282160390808211156119695761196961164456fea264697066735822122069281eafd7f72f6f51eed6261a51b18911398957decf0c7f3fe8ed8c0c6dcd9964736f6c63430008130033",
    "linkReferences": {}
  },
  "methodIdentifiers": {
    "addFeed(address)": "b04aba31",
    "changeVolatilityIndex(address)": "bc7c4023",
    "getEnergyPrice()": "cab0f335",
    "getPriceFeeds()": "6ca42ae3",
    "getTwapEth()": "93f08634",
    "getVolatilityIndex()": "83cf65d4",
    "removeFeed(address)": "4b90fd69"
  },
  "id": 7
}