{
  "abi": [
    {
      "inputs": [
        {
          "internalType": "contract AggregatorV3Interface",
          "name": "newFeed_",
          "type": "address"
        }
      ],
      "name": "addFeed",
      "outputs": [],
      "stateMutability": "nonpayable",
      "type": "function"
    },
    {
      "inputs": [
        {
          "internalType": "contract AggregatorV3Interface",
          "name": "newFeed_",
          "type": "address"
        }
      ],
      "name": "changeVolatilityIndex",
      "outputs": [],
      "stateMutability": "nonpayable",
      "type": "function"
    },
    {
      "inputs": [],
      "name": "getEnergyPrice",
      "outputs": [
        {
          "internalType": "uint256",
          "name": "",
          "type": "uint256"
        }
      ],
      "stateMutability": "view",
      "type": "function"
    },
    {
      "inputs": [],
      "name": "getVolatilityIndex",
      "outputs": [
        {
          "internalType": "int256",
          "name": "",
          "type": "int256"
        }
      ],
      "stateMutability": "view",
      "type": "function"
    },
    {
      "inputs": [
        {
          "internalType": "contract AggregatorV3Interface",
          "name": "toRemove_",
          "type": "address"
        }
      ],
      "name": "removeFeed",
      "outputs": [],
      "stateMutability": "nonpayable",
      "type": "function"
    }
  ],
  "bytecode": {
    "object": "0x608060405234801561001057600080fd5b50610a6c806100206000396000f3fe608060405234801561001057600080fd5b50600436106100575760003560e01c80634b90fd691461005c57806383cf65d414610071578063b04aba311461008b578063bc7c40231461009e578063cab0f335146100b1575b600080fd5b61006f61006a366004610841565b6100b9565b005b6100796100cf565b60405190815260200160405180910390f35b61006f610099366004610841565b610157565b61006f6100ac366004610841565b6101b1565b6100796101db565b6100c16102ab565b6100cc604482610338565b50565b6000806000603f0160009054906101000a90046001600160a01b03166001600160a01b031663feaf968c6040518163ffffffff1660e01b815260040160a060405180830381865afa158015610128573d6000803e3d6000fd5b505050506040513d601f19601f8201168201806040525081019061014c919061088d565b509195945050505050565b61015f6102ab565b604480546001810182556000919091527f9b22d3d61959b4d3528b1d8ba932c96fbe302b36a1aad1d95cab54f9e0a135ea0180546001600160a01b0319166001600160a01b0392909216919091179055565b6101b96102ab565b603f80546001600160a01b0319166001600160a01b0392909216919091179055565b60008060006101e8610492565b9150915060006101f66100cf565b8351909150600090815b61020a8183610677565b15610273576000868281518110610223576102236108dd565b6020908102919091010151604080549082015191925061025e9183916001600160a01b039182169116146102575786610681565b6000610681565b6102689085610909565b935050600101610200565b506102836305f5e1006064610931565b61028d8584610931565b6102979190610961565b6102a19085610909565b9550505050505090565b7fc8fcad8db84d3cc18b4c41d551ea0ee66dd599cde068d998e57d5e09332c131c600401546001600160a01b031633146103365760405162461bcd60e51b815260206004820152602260248201527f4c69624469616d6f6e643a204d75737420626520636f6e7472616374206f776e60448201526132b960f11b606482015260840160405180910390fd5b565b6000805b835481101561038b57826001600160a01b0316848281548110610361576103616108dd565b6000918252602090912001546001600160a01b0316036103835780915061038b565b60010161033c565b50805b835461039c9060019061099d565b81101561042057836103af8260016109b0565b815481106103bf576103bf6108dd565b9060005260206000200160009054906101000a90046001600160a01b03168482815481106103ef576103ef6108dd565b600091825260209091200180546001600160a01b0319166001600160a01b039290921691909117905560010161038e565b50825483906104319060019061099d565b81548110610441576104416108dd565b600091825260209091200180546001600160a01b0319169055825483908061046b5761046b6109c3565b600082815260209020810160001990810180546001600160a01b0319169055019055505050565b604454606090600090818167ffffffffffffffff8111156104b5576104b56109d9565b60405190808252806020026020018201604052801561050057816020015b60408051606081018252600080825260208083018290529282015282526000199092019101816104d35790505b50905060005b6105108184610677565b1561064157600081905060008060006044018381548110610533576105336108dd565b9060005260206000200160009054906101000a90046001600160a01b03166001600160a01b031663feaf968c6040518163ffffffff1660e01b815260040160a060405180830381865afa15801561058e573d6000803e3d6000fd5b505050506040513d601f19601f820116820180604052508101906105b2919061088d565b5050509150915060006040518060600160405280846001600160501b03168152602001838152602001600060440186815481106105f1576105f16108dd565b6000918252602090912001546001600160a01b0316905286519091508190879086908110610621576106216108dd565b60200260200101819052505050505061063a8160010190565b9050610506565b50600061066b8260018151811061065a5761065a6108dd565b60200260200101516020015161076e565b91959194509092505050565b8082105b92915050565b60408054908301516000916001600160a01b03918216911614610716576020830151604084015184516000916106c0916001600160501b0316906107af565b6106ca90836109ef565b90506106de678ac7230489e8000085610961565b826305f5e1006106ef846064610931565b6106f99190610931565b6107039190610961565b61070d9190610931565b9250505061067b565b60408301518351600091610733916001600160501b0316906107af565b9050600081856020015161074791906109ef565b9050816305f5e10061075a836064610931565b6107649190610931565b61070d9190610961565b6000629896806305f5e100600a84610787836064610931565b6107919190610931565b61079b9190610961565b6107a59190610931565b61067b9190610961565b6000806001600160a01b038316639a6fc8f56107cc600187610a16565b6040516001600160e01b031960e084901b1681526001600160501b03909116600482015260240160a060405180830381865afa158015610810573d6000803e3d6000fd5b505050506040513d601f19601f82011682018060405250810190610834919061088d565b5091979650505050505050565b60006020828403121561085357600080fd5b81356001600160a01b038116811461086a57600080fd5b9392505050565b80516001600160501b038116811461088857600080fd5b919050565b600080600080600060a086880312156108a557600080fd5b6108ae86610871565b94506020860151935060408601519250606086015191506108d160808701610871565b90509295509295909350565b634e487b7160e01b600052603260045260246000fd5b634e487b7160e01b600052601160045260246000fd5b8082018281126000831280158216821582161715610929576109296108f3565b505092915050565b80820260008212600160ff1b8414161561094d5761094d6108f3565b818105831482151761067b5761067b6108f3565b60008261097e57634e487b7160e01b600052601260045260246000fd5b600160ff1b821460001984141615610998576109986108f3565b500590565b8181038181111561067b5761067b6108f3565b8082018082111561067b5761067b6108f3565b634e487b7160e01b600052603160045260246000fd5b634e487b7160e01b600052604160045260246000fd5b8181036000831280158383131683831282161715610a0f57610a0f6108f3565b5092915050565b6001600160501b03828116828216039080821115610a0f57610a0f6108f356fea26469706673582212204e33fa47ec80edfd7e4f6b4e21cae4350218e82f4a7d5898473e903b250f33a864736f6c63430008130033",
    "linkReferences": {}
  },
  "methodIdentifiers": {
    "addFeed(address)": "b04aba31",
    "changeVolatilityIndex(address)": "bc7c4023",
    "getEnergyPrice()": "cab0f335",
    "getVolatilityIndex()": "83cf65d4",
    "removeFeed(address)": "4b90fd69"
  },
  "id": 6
}