{
  "abi": [
    {
      "inputs": [
        {
          "internalType": "address",
          "name": "feed",
          "type": "address"
        }
      ],
      "name": "AlreadyFeed",
      "type": "error"
    },
    {
      "inputs": [
        {
          "internalType": "address",
          "name": "feed",
          "type": "address"
        }
      ],
      "name": "NotFeed",
      "type": "error"
    },
    {
      "inputs": [
        {
          "internalType": "contract AggregatorV3Interface",
          "name": "newFeed_",
          "type": "address"
        }
      ],
      "name": "addFeed",
      "outputs": [],
      "stateMutability": "nonpayable",
      "type": "function"
    },
    {
      "inputs": [
        {
          "internalType": "contract AggregatorV3Interface",
          "name": "newFeed_",
          "type": "address"
        }
      ],
      "name": "changeVolatilityIndex",
      "outputs": [],
      "stateMutability": "nonpayable",
      "type": "function"
    },
    {
      "inputs": [],
      "name": "getEnergyPrice",
      "outputs": [
        {
          "internalType": "uint256",
          "name": "",
          "type": "uint256"
        }
      ],
      "stateMutability": "view",
      "type": "function"
    },
    {
      "inputs": [],
      "name": "getPriceFeeds",
      "outputs": [
        {
          "internalType": "address[]",
          "name": "feeds",
          "type": "address[]"
        }
      ],
      "stateMutability": "view",
      "type": "function"
    },
    {
      "inputs": [],
      "name": "getVolatilityIndex",
      "outputs": [
        {
          "internalType": "int256",
          "name": "",
          "type": "int256"
        }
      ],
      "stateMutability": "view",
      "type": "function"
    },
    {
      "inputs": [
        {
          "internalType": "contract AggregatorV3Interface",
          "name": "toRemove_",
          "type": "address"
        }
      ],
      "name": "removeFeed",
      "outputs": [],
      "stateMutability": "nonpayable",
      "type": "function"
    }
  ],
  "bytecode": {
    "object": "0x608060405234801561001057600080fd5b50610d25806100206000396000f3fe608060405234801561001057600080fd5b50600436106100625760003560e01c80634b90fd69146100675780636ca42ae31461007c57806383cf65d41461009a578063b04aba31146100b0578063bc7c4023146100c3578063cab0f335146100d6575b600080fd5b61007a610075366004610aad565b6100de565b005b610084610192565b6040516100919190610add565b60405180910390f35b6100a2610256565b604051908152602001610091565b61007a6100be366004610aad565b6102de565b61007a6100d1366004610aad565b6103d2565b6100a26103fc565b6100e66104c5565b604480546040805160208084028201810190925282815260009361015293869383018282801561013f57602002820191906000526020600020905b81546001600160a01b03168152600190910190602001808311610121575b505050505061054e90919063ffffffff16565b905080196101835760405163730a683f60e11b81526001600160a01b03831660048201526024015b60405180910390fd5b61018e6044836105b5565b5050565b6044546060908067ffffffffffffffff8111156101b1576101b1610b2a565b6040519080825280602002602001820160405280156101da578160200160208202803683370190505b50915060005b808211156102515760448054829190829081106101ff576101ff610b40565b9060005260206000200160009054906101000a90046001600160a01b031684828151811061022f5761022f610b40565b6001600160a01b039290921660209283029190910190910152506001016101e0565b505090565b6000806000603f0160009054906101000a90046001600160a01b03166001600160a01b031663feaf968c6040518163ffffffff1660e01b815260040160a060405180830381865afa1580156102af573d6000803e3d6000fd5b505050506040513d601f19601f820116820180604052508101906102d39190610b72565b509195945050505050565b6102e66104c5565b604480546040805160208084028201810190925282815260009361035093869383018282801561013f576020028201919060005260206000209081546001600160a01b0316815260019091019060200180831161012157505050505061054e90919063ffffffff16565b9050806000191461037f576040516341497abd60e01b81526001600160a01b038316600482015260240161017a565b50604480546001810182556000919091527f9b22d3d61959b4d3528b1d8ba932c96fbe302b36a1aad1d95cab54f9e0a135ea0180546001600160a01b0319166001600160a01b0392909216919091179055565b6103da6104c5565b603f80546001600160a01b0319166001600160a01b0392909216919091179055565b600080600061040961070f565b915091506000610417610256565b8351909150600090815b8082111561048d57600086828151811061043d5761043d610b40565b602090810291909101015160408054908201519192506104789183916001600160a01b0391821691161461047157866108ed565b60006108ed565b6104829085610bd8565b935050600101610421565b5061049d6305f5e1006064610c00565b6104a78584610c00565b6104b19190610c30565b6104bb9085610bd8565b9550505050505090565b7fc8fcad8db84d3cc18b4c41d551ea0ee66dd599cde068d998e57d5e09332c131c600401546001600160a01b0316331461054c5760405162461bcd60e51b815260206004820152602260248201527f4c69624469616d6f6e643a204d75737420626520636f6e7472616374206f776e60448201526132b960f11b606482015260840161017a565b565b8151600090815b808211156105a7576000819050846001600160a01b031686828151811061057e5761057e610b40565b60200260200101516001600160a01b03160361059e5792506105af915050565b50600101610555565b506000199150505b92915050565b6000805b835481101561060857826001600160a01b03168482815481106105de576105de610b40565b6000918252602090912001546001600160a01b03160361060057809150610608565b6001016105b9565b50805b835461061990600190610c6c565b81101561069d578361062c826001610c7f565b8154811061063c5761063c610b40565b9060005260206000200160009054906101000a90046001600160a01b031684828154811061066c5761066c610b40565b600091825260209091200180546001600160a01b0319166001600160a01b039290921691909117905560010161060b565b50825483906106ae90600190610c6c565b815481106106be576106be610b40565b600091825260209091200180546001600160a01b031916905582548390806106e8576106e8610c92565b600082815260209020810160001990810180546001600160a01b0319169055019055505050565b604454606090600090818167ffffffffffffffff81111561073257610732610b2a565b60405190808252806020026020018201604052801561077d57816020015b60408051606081018252600080825260208083018290529282015282526000199092019101816107505790505b50905060005b808311156108b7576000819050600080600060440183815481106107a9576107a9610b40565b9060005260206000200160009054906101000a90046001600160a01b03166001600160a01b031663feaf968c6040518163ffffffff1660e01b815260040160a060405180830381865afa158015610804573d6000803e3d6000fd5b505050506040513d601f19601f820116820180604052508101906108289190610b72565b5050509150915060006040518060600160405280846001600160501b031681526020018381526020016000604401868154811061086757610867610b40565b6000918252602090912001546001600160a01b031690528651909150819087908690811061089757610897610b40565b6020026020010181905250505050506108b08160010190565b9050610783565b5060006108e1826001815181106108d0576108d0610b40565b6020026020010151602001516109da565b91959194509092505050565b60408054908301516000916001600160a01b039182169116146109825760208301516040840151845160009161092c916001600160501b031690610a1b565b6109369083610ca8565b905061094a678ac7230489e8000085610c30565b826305f5e10061095b846064610c00565b6109659190610c00565b61096f9190610c30565b6109799190610c00565b925050506105af565b6040830151835160009161099f916001600160501b031690610a1b565b905060008185602001516109b39190610ca8565b9050816305f5e1006109c6836064610c00565b6109d09190610c00565b6109799190610c30565b6000629896806305f5e100600a846109f3836064610c00565b6109fd9190610c00565b610a079190610c30565b610a119190610c00565b6105af9190610c30565b6000806001600160a01b038316639a6fc8f5610a38600187610ccf565b6040516001600160e01b031960e084901b1681526001600160501b03909116600482015260240160a060405180830381865afa158015610a7c573d6000803e3d6000fd5b505050506040513d601f19601f82011682018060405250810190610aa09190610b72565b5091979650505050505050565b600060208284031215610abf57600080fd5b81356001600160a01b0381168114610ad657600080fd5b9392505050565b6020808252825182820181905260009190848201906040850190845b81811015610b1e5783516001600160a01b031683529284019291840191600101610af9565b50909695505050505050565b634e487b7160e01b600052604160045260246000fd5b634e487b7160e01b600052603260045260246000fd5b80516001600160501b0381168114610b6d57600080fd5b919050565b600080600080600060a08688031215610b8a57600080fd5b610b9386610b56565b9450602086015193506040860151925060608601519150610bb660808701610b56565b90509295509295909350565b634e487b7160e01b600052601160045260246000fd5b8082018281126000831280158216821582161715610bf857610bf8610bc2565b505092915050565b80820260008212600160ff1b84141615610c1c57610c1c610bc2565b81810583148215176105af576105af610bc2565b600082610c4d57634e487b7160e01b600052601260045260246000fd5b600160ff1b821460001984141615610c6757610c67610bc2565b500590565b818103818111156105af576105af610bc2565b808201808211156105af576105af610bc2565b634e487b7160e01b600052603160045260246000fd5b8181036000831280158383131683831282161715610cc857610cc8610bc2565b5092915050565b6001600160501b03828116828216039080821115610cc857610cc8610bc256fea2646970667358221220a793db52953f8bec980d0c8d5078fe8164a6589ee4af69f9d40b29e84c17132d64736f6c63430008130033",
    "linkReferences": {}
  },
  "methodIdentifiers": {
    "addFeed(address)": "b04aba31",
    "changeVolatilityIndex(address)": "bc7c4023",
    "getEnergyPrice()": "cab0f335",
    "getPriceFeeds()": "6ca42ae3",
    "getVolatilityIndex()": "83cf65d4",
    "removeFeed(address)": "4b90fd69"
  },
  "id": 7
}