{"abi":[{"type":"function","name":"addFeed","inputs":[{"name":"newFeed_","type":"address","internalType":"contract AggregatorV3Interface"}],"outputs":[],"stateMutability":"nonpayable"},{"type":"function","name":"changeUniPool","inputs":[{"name":"newPool_","type":"address","internalType":"address"}],"outputs":[],"stateMutability":"nonpayable"},{"type":"function","name":"changeVolatilityIndex","inputs":[{"name":"newFeed_","type":"address","internalType":"contract AggregatorV3Interface"}],"outputs":[],"stateMutability":"nonpayable"},{"type":"function","name":"getEnergyPrice","inputs":[],"outputs":[{"name":"","type":"uint256","internalType":"uint256"}],"stateMutability":"view"},{"type":"function","name":"getPriceFeeds","inputs":[],"outputs":[{"name":"feeds","type":"address[]","internalType":"address[]"}],"stateMutability":"view"},{"type":"function","name":"getTwapEth","inputs":[],"outputs":[{"name":"","type":"int256","internalType":"int256"}],"stateMutability":"view"},{"type":"function","name":"getUniPool","inputs":[],"outputs":[{"name":"","type":"address","internalType":"address"}],"stateMutability":"view"},{"type":"function","name":"getVolatilityIndex","inputs":[],"outputs":[{"name":"","type":"int256","internalType":"int256"}],"stateMutability":"view"},{"type":"function","name":"getVolatilityIndex2","inputs":[],"outputs":[{"name":"","type":"uint256","internalType":"uint256"}],"stateMutability":"view"},{"type":"function","name":"getVolatilityIndex3","inputs":[],"outputs":[{"name":"","type":"uint256","internalType":"uint256"}],"stateMutability":"view"},{"type":"function","name":"removeFeed","inputs":[{"name":"toRemove_","type":"address","internalType":"contract AggregatorV3Interface"}],"outputs":[],"stateMutability":"nonpayable"},{"type":"error","name":"AlreadyFeed","inputs":[{"name":"feed","type":"address","internalType":"address"}]},{"type":"error","name":"NotFeed","inputs":[{"name":"feed","type":"address","internalType":"address"}]}],"bytecode":{"object":"0x608060405234801561001057600080fd5b506120af806100206000396000f3fe608060405234801561001057600080fd5b50600436106100a95760003560e01c80638b6c5476116100715780638b6c54761461011257806393f086341461011a578063b04aba3114610122578063bc7c402314610135578063cab0f33514610148578063d19e5b491461015057600080fd5b806339b47c25146100ae5780634b90fd69146100c5578063672eea71146100da5780636ca42ae3146100f557806383cf65d41461010a575b600080fd5b6048545b6040519081526020015b60405180910390f35b6100d86100d3366004611a0b565b610163565b005b6045546040516001600160a01b0390911681526020016100bc565b6100fd610217565b6040516100bc9190611a28565b6100b26102db565b604e546100b2565b6100b2610363565b6100d8610130366004611a0b565b6103c6565b6100d8610143366004611a0b565b6104ba565b6100b26104e4565b6100d861015e366004611a0b565b61074f565b61016b610779565b60448054604080516020808402820181019092528281526000936101d79386938301828280156101c457602002820191906000526020600020905b81546001600160a01b031681526001909101906020018083116101a6575b505050505061080290919063ffffffff16565b905080196102085760405163730a683f60e11b81526001600160a01b03831660048201526024015b60405180910390fd5b610213604483610869565b5050565b6044546060908067ffffffffffffffff81111561023657610236611a75565b60405190808252806020026020018201604052801561025f578160200160208202803683370190505b50915060005b808211156102d657604480548291908290811061028457610284611a8b565b9060005260206000200160009054906101000a90046001600160a01b03168482815181106102b4576102b4611a8b565b6001600160a01b03929092166020928302919091019091015250600101610265565b505090565b6000806000603f0160009054906101000a90046001600160a01b03166001600160a01b031663feaf968c6040518163ffffffff1660e01b815260040160a060405180830381865afa158015610334573d6000803e3d6000fd5b505050506040513d601f19601f820116820180604052508101906103589190611abd565b509195945050505050565b604554600090819061037f906001600160a01b0316600a6109c3565b50600b546009549192506000916103ae918491670de0b6b3a7640000916001600160a01b039081169116610c09565b90506103bf8164e8d4a51000611b23565b9250505090565b6103ce610779565b60448054604080516020808402820181019092528281526000936104389386938301828280156101c4576020028201919060005260206000209081546001600160a01b031681526001909101906020018083116101a657505050505061080290919063ffffffff16565b90508060001914610467576040516341497abd60e01b81526001600160a01b03831660048201526024016101ff565b50604480546001810182556000919091527f9b22d3d61959b4d3528b1d8ba932c96fbe302b36a1aad1d95cab54f9e0a135ea0180546001600160a01b0319166001600160a01b0392909216919091179055565b6104c2610779565b603f80546001600160a01b0319166001600160a01b0392909216919091179055565b6000806000806104f2610d17565b9250925092506000808451905060005b8082111561057757600086828151811061051e5761051e611a8b565b602090810291909101015160408054908201519192506105629183916001600160a01b03918216911614610559576105546102db565b61055c565b60005b87610ef8565b61056c9085611b3a565b935050600101610502565b5061059060405180602001604052806000815250611181565b6105ce6040518060400160405280601981526020017f2d2d2d20696e20676574456e657267795072696365202d2d2d00000000000000815250611181565b6105fb6040518060400160405280600b81526020016a03130b9b2a83934b1b29d160ad1b815250856111c7565b61063460405180604001604052806016815260200175034b73337a332b2b239973632b733ba34101690199d160551b81525086516111c7565b6106796040518060400160405280600581526020016402c20aa9d160dd1b8152508660028151811061066857610668611a8b565b6020026020010151602001516111c7565b6106b860405180604001604052806016815260200175037b632103b37b630ba34b634ba3c9034b73232bc1d160551b8152506106b36102db565b6111c7565b6106dc604051806060016040528060228152602001612058602291396048546111c7565b61070060405180606001604052806022815260200161203660229139604e546111c7565b61071860405180602001604052806000815250611181565b6107276305f5e1006064611b62565b6107318584611b62565b61073b9190611ba8565b6107459085611b3a565b9550505050505090565b610757610779565b604580546001600160a01b0319166001600160a01b0392909216919091179055565b7fc8fcad8db84d3cc18b4c41d551ea0ee66dd599cde068d998e57d5e09332c131c600401546001600160a01b031633146108005760405162461bcd60e51b815260206004820152602260248201527f4c69624469616d6f6e643a204d75737420626520636f6e7472616374206f776e60448201526132b960f11b60648201526084016101ff565b565b8151600090815b8082111561085b576000819050846001600160a01b031686828151811061083257610832611a8b565b60200260200101516001600160a01b031603610852579250610863915050565b50600101610809565b506000199150505b92915050565b6000805b83548110156108bc57826001600160a01b031684828154811061089257610892611a8b565b6000918252602090912001546001600160a01b0316036108b4578091506108bc565b60010161086d565b50805b83546108cd90600190611bd6565b81101561095157836108e0826001611be9565b815481106108f0576108f0611a8b565b9060005260206000200160009054906101000a90046001600160a01b031684828154811061092057610920611a8b565b600091825260209091200180546001600160a01b0319166001600160a01b03929092169190911790556001016108bf565b508254839061096290600190611bd6565b8154811061097257610972611a8b565b600091825260209091200180546001600160a01b0319169055825483908061099c5761099c611bfc565b600082815260209020810160001990810180546001600160a01b0319169055019055505050565b6000808263ffffffff16600003610a015760405162461bcd60e51b8152602060048201526002602482015261042560f41b60448201526064016101ff565b6040805160028082526060820183526000926020830190803683370190505090508381600081518110610a3657610a36611a8b565b602002602001019063ffffffff16908163ffffffff1681525050600081600181518110610a6557610a65611a8b565b602002602001019063ffffffff16908163ffffffff1681525050600080866001600160a01b031663883bdbfd846040518263ffffffff1660e01b8152600401610aae9190611c12565b600060405180830381865afa158015610acb573d6000803e3d6000fd5b505050506040513d6000823e601f3d908101601f19168201604052610af39190810190611d19565b91509150600082600081518110610b0c57610b0c611a8b565b602002602001015183600181518110610b2757610b27611a8b565b6020026020010151610b399190611de5565b9050600082600081518110610b5057610b50611a8b565b602002602001015183600181518110610b6b57610b6b611a8b565b6020026020010151610b7d9190611e12565b9050610b8d600389900b83611e39565b965060008260060b128015610bb15750610bab600389900b83611e77565b60060b15155b15610bc45786610bc081611e99565b9750505b6000610bdd6001600160a01b0363ffffffff8b16611ebc565b9050610bfa640100000000600160c01b03602084901b1682611eee565b96505050505050509250929050565b600080610c158661120c565b90506001600160801b036001600160a01b03821611610c9b576000610c436001600160a01b03831680611b23565b9050836001600160a01b0316856001600160a01b031610610c7b57610c76600160c01b876001600160801b03168361162c565b610c93565b610c9381876001600160801b0316600160c01b61162c565b925050610d0e565b6000610cba6001600160a01b038316806801000000000000000061162c565b9050836001600160a01b0316856001600160a01b031610610cf257610ced600160801b876001600160801b03168361162c565b610d0a565b610d0a81876001600160801b0316600160801b61162c565b9250505b50949350505050565b6044546060906000908190818167ffffffffffffffff811115610d3c57610d3c611a75565b604051908082528060200260200182016040528015610d8757816020015b6040805160608101825260008082526020808301829052928201528252600019909201910181610d5a5790505b50905060005b80831115610ec157600081905060008060006044018381548110610db357610db3611a8b565b9060005260206000200160009054906101000a90046001600160a01b03166001600160a01b031663feaf968c6040518163ffffffff1660e01b815260040160a060405180830381865afa158015610e0e573d6000803e3d6000fd5b505050506040513d601f19601f82011682018060405250810190610e329190611abd565b5050509150915060006040518060600160405280846001600160501b0316815260200183815260200160006044018681548110610e7157610e71611a8b565b6000918252602090912001546001600160a01b0316905286519091508190879086908110610ea157610ea1611a8b565b602002602001018190525050505050610eba8160010190565b9050610d8d565b50600080610ee883600181518110610edb57610edb611a8b565b60200260200101516117a2565b9398909750929550919350505050565b60408054908401516000916001600160a01b0391821691161461113d57602084015160408501518551600091610f37916001600160501b031690611826565b610f419083611f14565b9050610f5b60405180602001604052806000815250611181565b610f90604051806040016040528060148152602001732d2d2d20696e205f7365745072696365202d2d2d60601b815250611181565b604080518082018252600b81526a0383932bb283934b1b29d160ad1b6020820152908701518751610fcf92916106b3916001600160501b031690611826565b610ffc6040518060400160405280600b81526020016a031bab939283934b1b29d160ad1b815250836111c7565b611005816118b8565b6110316040518060400160405280600b81526020016a3732ba2234b333102f2f2f60a91b815250611181565b61105e6040518060400160405280600b81526020016a03b37b624b73232bc2f9d160ad1b815250866111c7565b6110a7611073678ac7230489e8000087611ba8565b836305f5e100611084856064611b62565b61108e9190611b62565b6110989190611ba8565b6110a29190611b62565b6118b8565b6110db6040518060400160405280601381526020017239b2ba283934b1b29037baba383aba102f2f2f60691b815250611181565b6110f360405180602001604052806000815250611181565b611105678ac7230489e8000086611ba8565b826305f5e100611116846064611b62565b6111209190611b62565b61112a9190611ba8565b6111349190611b62565b9250505061117a565b600082856020015161114f9190611f14565b9050826305f5e100611162836064611b62565b61116c9190611b62565b6111769190611ba8565b9150505b9392505050565b6111c4816040516024016111959190611f7a565b60408051601f198184030181529190526020810180516001600160e01b031663104c13eb60e21b1790526118f9565b50565b61021382826040516024016111dd929190611f8d565b60408051601f198184030181529190526020810180516001600160e01b03166309710a9d60e41b1790526118f9565b60008060008360020b12611223578260020b611230565b8260020b61123090611faf565b905061123f620d89e719611fcb565b60020b8111156112755760405162461bcd60e51b81526020600482015260016024820152601560fa1b60448201526064016101ff565b60008160011660000361128c57600160801b61129e565b6ffffcb933bd6fad37aa2d162d1a5940015b70ffffffffffffffffffffffffffffffffff16905060028216156112dd5760806112d8826ffff97272373d413259a46990580e213a611b23565b901c90505b6004821615611307576080611302826ffff2e50f5f656932ef12357cf3c7fdcc611b23565b901c90505b600882161561133157608061132c826fffe5caca7e10e4e61c3624eaa0941cd0611b23565b901c90505b601082161561135b576080611356826fffcb9843d60f6159c9db58835c926644611b23565b901c90505b6020821615611385576080611380826fff973b41fa98c081472e6896dfb254c0611b23565b901c90505b60408216156113af5760806113aa826fff2ea16466c96a3843ec78b326b52861611b23565b901c90505b60808216156113d95760806113d4826ffe5dee046a99a2a811c461f1969c3053611b23565b901c90505b6101008216156114045760806113ff826ffcbe86c7900a88aedcffc83b479aa3a4611b23565b901c90505b61020082161561142f57608061142a826ff987a7253ac413176f2b074cf7815e54611b23565b901c90505b61040082161561145a576080611455826ff3392b0822b70005940c7a398e4b70f3611b23565b901c90505b610800821615611485576080611480826fe7159475a2c29b7443b29c7fa6e889d9611b23565b901c90505b6110008216156114b05760806114ab826fd097f3bdfd2022b8845ad8f792aa5825611b23565b901c90505b6120008216156114db5760806114d6826fa9f746462d870fdf8a65dc1f90e061e5611b23565b901c90505b614000821615611506576080611501826f70d869a156d2a1b890bb3df62baf32f7611b23565b901c90505b61800082161561153157608061152c826f31be135f97d08fd981231505542fcfa6611b23565b901c90505b6201000082161561155d576080611558826f09aa508b5b7a84e1c677de54f3e99bc9611b23565b901c90505b62020000821615611588576080611583826e5d6af8dedb81196699c329225ee604611b23565b901c90505b620400008216156115b25760806115ad826d2216e584f5fa1ea926041bedfe98611b23565b901c90505b620800008216156115da5760806115d5826b048a170391f7dc42444e8fa2611b23565b901c90505b60008460020b13156115f5576115f281600019611fed565b90505b61160464010000000082612001565b15611610576001611613565b60005b6116249060ff16602083901c611be9565b949350505050565b6000808060001985870985870292508281108382030391505080600003611665576000841161165a57600080fd5b50829004905061117a565b80841161167157600080fd5b60008486880980840393811190920391905060008561168f81611faf565b169586900495938490049360008190030460010190506116af8184611b23565b9093179260006116c0876003611b23565b60021890506116cf8188611b23565b6116da906002611bd6565b6116e49082611b23565b90506116f08188611b23565b6116fb906002611bd6565b6117059082611b23565b90506117118188611b23565b61171c906002611bd6565b6117269082611b23565b90506117328188611b23565b61173d906002611bd6565b6117479082611b23565b90506117538188611b23565b61175e906002611bd6565b6117689082611b23565b90506117748188611b23565b61177f906002611bd6565b6117899082611b23565b90506117958186611b23565b9998505050505050505050565b60008060006117cb846040015185600001516001600160501b031661182690919063ffffffff16565b905060006117dc856020015161191a565b905060006117e8610363565b9050611805826117fd856402540be400611b62565b83919061195b565b61181757611811610363565b8361181a565b81835b94509450505050915091565b6000806001600160a01b038316639a6fc8f5611843600187612015565b6040516001600160e01b031960e084901b1681526001600160501b03909116600482015260240160a060405180830381865afa158015611887573d6000803e3d6000fd5b505050506040513d601f19601f820116820180604052508101906118ab9190611abd565b5091979650505050505050565b6111c4816040516024016118ce91815260200190565b60408051601f198184030181529190526020810180516001600160e01b0316634e0c1d1d60e01b1790525b80516a636f6e736f6c652e6c6f67602083016000808483855afa5050505050565b6000629896806305f5e100600a84611933836064611b62565b61193d9190611b62565b6119479190611ba8565b6119519190611b62565b6108639190611ba8565b6000806119688386611f14565b905060006119768587611f14565b90506005600087611986856119da565b611991906064611b62565b61199b9190611ba8565b90506000886119a9856119da565b6119b4906064611b62565b6119be9190611ba8565b90508281136119ce576000611795565b50139695505050505050565b6000808212156119f2576119ed82611faf565b610863565b5090565b6001600160a01b03811681146111c457600080fd5b600060208284031215611a1d57600080fd5b813561117a816119f6565b6020808252825182820181905260009190848201906040850190845b81811015611a695783516001600160a01b031683529284019291840191600101611a44565b50909695505050505050565b634e487b7160e01b600052604160045260246000fd5b634e487b7160e01b600052603260045260246000fd5b80516001600160501b0381168114611ab857600080fd5b919050565b600080600080600060a08688031215611ad557600080fd5b611ade86611aa1565b9450602086015193506040860151925060608601519150611b0160808701611aa1565b90509295509295909350565b634e487b7160e01b600052601160045260246000fd5b808202811582820484141761086357610863611b0d565b8082018281126000831280158216821582161715611b5a57611b5a611b0d565b505092915050565b80820260008212600160ff1b84141615611b7e57611b7e611b0d565b818105831482151761086357610863611b0d565b634e487b7160e01b600052601260045260246000fd5b600082611bb757611bb7611b92565b600160ff1b821460001984141615611bd157611bd1611b0d565b500590565b8181038181111561086357610863611b0d565b8082018082111561086357610863611b0d565b634e487b7160e01b600052603160045260246000fd5b6020808252825182820181905260009190848201906040850190845b81811015611a6957835163ffffffff1683529284019291840191600101611c2e565b604051601f8201601f1916810167ffffffffffffffff81118282101715611c7957611c79611a75565b604052919050565b600067ffffffffffffffff821115611c9b57611c9b611a75565b5060051b60200190565b600082601f830112611cb657600080fd5b81516020611ccb611cc683611c81565b611c50565b82815260059290921b84018101918181019086841115611cea57600080fd5b8286015b84811015611d0e578051611d01816119f6565b8352918301918301611cee565b509695505050505050565b60008060408385031215611d2c57600080fd5b825167ffffffffffffffff80821115611d4457600080fd5b818501915085601f830112611d5857600080fd5b81516020611d68611cc683611c81565b82815260059290921b84018101918181019089841115611d8757600080fd5b948201945b83861015611db55785518060060b8114611da65760008081fd5b82529482019490820190611d8c565b91880151919650909350505080821115611dce57600080fd5b50611ddb85828601611ca5565b9150509250929050565b600682810b9082900b03667fffffffffffff198112667fffffffffffff8213171561086357610863611b0d565b6001600160a01b03828116828216039080821115611e3257611e32611b0d565b5092915050565b60008160060b8360060b80611e5057611e50611b92565b667fffffffffffff19821460001982141615611e6e57611e6e611b0d565b90059392505050565b60008260060b80611e8a57611e8a611b92565b808360060b0791505092915050565b60008160020b627fffff198103611eb257611eb2611b0d565b6000190192915050565b6001600160c01b03828116828216818102831692918115828504821417611ee557611ee5611b0d565b50505092915050565b60006001600160c01b0383811680611f0857611f08611b92565b92169190910492915050565b8181036000831280158383131683831282161715611e3257611e32611b0d565b6000815180845260005b81811015611f5a57602081850181015186830182015201611f3e565b506000602082860101526020601f19601f83011685010191505092915050565b60208152600061117a6020830184611f34565b604081526000611fa06040830185611f34565b90508260208301529392505050565b6000600160ff1b8201611fc457611fc4611b0d565b5060000390565b60008160020b627fffff198103611fe457611fe4611b0d565b60000392915050565b600082611ffc57611ffc611b92565b500490565b60008261201057612010611b92565b500690565b6001600160501b03828116828216039080821115611e3257611e32611b0d56fe4741524348206c61737420636f6e646974696f6e616c20766f6c202d205841553a204741524348206c61737420636f6e646974696f6e616c20766f6c202d204554483a20a264697066735822122005f8d9a51880102fe0f137725e42a6fe8e1a65070e867f37dcdd276d0299c78f64736f6c63430008130033","linkReferences":{}},"methodIdentifiers":{"addFeed(address)":"b04aba31","changeUniPool(address)":"d19e5b49","changeVolatilityIndex(address)":"bc7c4023","getEnergyPrice()":"cab0f335","getPriceFeeds()":"6ca42ae3","getTwapEth()":"93f08634","getUniPool()":"672eea71","getVolatilityIndex()":"83cf65d4","getVolatilityIndex2()":"39b47c25","getVolatilityIndex3()":"8b6c5476","removeFeed(address)":"4b90fd69"},"id":7}