{
  "abi": [
    {
      "inputs": [
        {
          "internalType": "contract AggregatorV3Interface",
          "name": "newFeed_",
          "type": "address"
        }
      ],
      "name": "addFeed",
      "outputs": [],
      "stateMutability": "nonpayable",
      "type": "function"
    },
    {
      "inputs": [
        {
          "internalType": "contract AggregatorV3Interface",
          "name": "newFeed_",
          "type": "address"
        }
      ],
      "name": "changeVolatilityIndex",
      "outputs": [],
      "stateMutability": "nonpayable",
      "type": "function"
    },
    {
      "inputs": [],
      "name": "getEnergyPrice",
      "outputs": [
        {
          "internalType": "uint256",
          "name": "",
          "type": "uint256"
        }
      ],
      "stateMutability": "view",
      "type": "function"
    },
    {
      "inputs": [],
      "name": "getPriceFeeds",
      "outputs": [
        {
          "internalType": "address[]",
          "name": "feeds",
          "type": "address[]"
        }
      ],
      "stateMutability": "view",
      "type": "function"
    },
    {
      "inputs": [],
      "name": "getVolatilityIndex",
      "outputs": [
        {
          "internalType": "int256",
          "name": "",
          "type": "int256"
        }
      ],
      "stateMutability": "view",
      "type": "function"
    },
    {
      "inputs": [
        {
          "internalType": "contract AggregatorV3Interface",
          "name": "toRemove_",
          "type": "address"
        }
      ],
      "name": "removeFeed",
      "outputs": [],
      "stateMutability": "nonpayable",
      "type": "function"
    }
  ],
  "bytecode": {
    "object": "0x608060405234801561001057600080fd5b50610ba9806100206000396000f3fe608060405234801561001057600080fd5b50600436106100625760003560e01c80634b90fd69146100675780636ca42ae31461007c57806383cf65d41461009a578063b04aba31146100b0578063bc7c4023146100c3578063cab0f335146100d6575b600080fd5b61007a610075366004610931565b6100de565b005b6100846100f4565b6040516100919190610961565b60405180910390f35b6100a26101bf565b604051908152602001610091565b61007a6100be366004610931565b610247565b61007a6100d1366004610931565b6102a1565b6100a26102cb565b6100e661039b565b6100f1604482610428565b50565b6044546060908067ffffffffffffffff811115610113576101136109ae565b60405190808252806020026020018201604052801561013c578160200160208202803683370190505b50915060005b61014c8183610582565b156101ba576044805482919082908110610168576101686109c4565b9060005260206000200160009054906101000a90046001600160a01b0316848281518110610198576101986109c4565b6001600160a01b03929092166020928302919091019091015250600101610142565b505090565b6000806000603f0160009054906101000a90046001600160a01b03166001600160a01b031663feaf968c6040518163ffffffff1660e01b815260040160a060405180830381865afa158015610218573d6000803e3d6000fd5b505050506040513d601f19601f8201168201806040525081019061023c91906109f6565b509195945050505050565b61024f61039b565b604480546001810182556000919091527f9b22d3d61959b4d3528b1d8ba932c96fbe302b36a1aad1d95cab54f9e0a135ea0180546001600160a01b0319166001600160a01b0392909216919091179055565b6102a961039b565b603f80546001600160a01b0319166001600160a01b0392909216919091179055565b60008060006102d861058c565b9150915060006102e66101bf565b8351909150600090815b6102fa8183610582565b15610363576000868281518110610313576103136109c4565b6020908102919091010151604080549082015191925061034e9183916001600160a01b039182169116146103475786610771565b6000610771565b6103589085610a5c565b9350506001016102f0565b506103736305f5e1006064610a84565b61037d8584610a84565b6103879190610ab4565b6103919085610a5c565b9550505050505090565b7fc8fcad8db84d3cc18b4c41d551ea0ee66dd599cde068d998e57d5e09332c131c600401546001600160a01b031633146104265760405162461bcd60e51b815260206004820152602260248201527f4c69624469616d6f6e643a204d75737420626520636f6e7472616374206f776e60448201526132b960f11b606482015260840160405180910390fd5b565b6000805b835481101561047b57826001600160a01b0316848281548110610451576104516109c4565b6000918252602090912001546001600160a01b0316036104735780915061047b565b60010161042c565b50805b835461048c90600190610af0565b811015610510578361049f826001610b03565b815481106104af576104af6109c4565b9060005260206000200160009054906101000a90046001600160a01b03168482815481106104df576104df6109c4565b600091825260209091200180546001600160a01b0319166001600160a01b039290921691909117905560010161047e565b508254839061052190600190610af0565b81548110610531576105316109c4565b600091825260209091200180546001600160a01b0319169055825483908061055b5761055b610b16565b600082815260209020810160001990810180546001600160a01b0319169055019055505050565b8082105b92915050565b604454606090600090818167ffffffffffffffff8111156105af576105af6109ae565b6040519080825280602002602001820160405280156105fa57816020015b60408051606081018252600080825260208083018290529282015282526000199092019101816105cd5790505b50905060005b61060a8184610582565b1561073b5760008190506000806000604401838154811061062d5761062d6109c4565b9060005260206000200160009054906101000a90046001600160a01b03166001600160a01b031663feaf968c6040518163ffffffff1660e01b815260040160a060405180830381865afa158015610688573d6000803e3d6000fd5b505050506040513d601f19601f820116820180604052508101906106ac91906109f6565b5050509150915060006040518060600160405280846001600160501b03168152602001838152602001600060440186815481106106eb576106eb6109c4565b6000918252602090912001546001600160a01b031690528651909150819087908690811061071b5761071b6109c4565b6020026020010181905250505050506107348160010190565b9050610600565b50600061076582600181518110610754576107546109c4565b60200260200101516020015161085e565b91959194509092505050565b60408054908301516000916001600160a01b03918216911614610806576020830151604084015184516000916107b0916001600160501b03169061089f565b6107ba9083610b2c565b90506107ce678ac7230489e8000085610ab4565b826305f5e1006107df846064610a84565b6107e99190610a84565b6107f39190610ab4565b6107fd9190610a84565b92505050610586565b60408301518351600091610823916001600160501b03169061089f565b905060008185602001516108379190610b2c565b9050816305f5e10061084a836064610a84565b6108549190610a84565b6107fd9190610ab4565b6000629896806305f5e100600a84610877836064610a84565b6108819190610a84565b61088b9190610ab4565b6108959190610a84565b6105869190610ab4565b6000806001600160a01b038316639a6fc8f56108bc600187610b53565b6040516001600160e01b031960e084901b1681526001600160501b03909116600482015260240160a060405180830381865afa158015610900573d6000803e3d6000fd5b505050506040513d601f19601f8201168201806040525081019061092491906109f6565b5091979650505050505050565b60006020828403121561094357600080fd5b81356001600160a01b038116811461095a57600080fd5b9392505050565b6020808252825182820181905260009190848201906040850190845b818110156109a25783516001600160a01b03168352928401929184019160010161097d565b50909695505050505050565b634e487b7160e01b600052604160045260246000fd5b634e487b7160e01b600052603260045260246000fd5b80516001600160501b03811681146109f157600080fd5b919050565b600080600080600060a08688031215610a0e57600080fd5b610a17866109da565b9450602086015193506040860151925060608601519150610a3a608087016109da565b90509295509295909350565b634e487b7160e01b600052601160045260246000fd5b8082018281126000831280158216821582161715610a7c57610a7c610a46565b505092915050565b80820260008212600160ff1b84141615610aa057610aa0610a46565b818105831482151761058657610586610a46565b600082610ad157634e487b7160e01b600052601260045260246000fd5b600160ff1b821460001984141615610aeb57610aeb610a46565b500590565b8181038181111561058657610586610a46565b8082018082111561058657610586610a46565b634e487b7160e01b600052603160045260246000fd5b8181036000831280158383131683831282161715610b4c57610b4c610a46565b5092915050565b6001600160501b03828116828216039080821115610b4c57610b4c610a4656fea2646970667358221220f2636712022be39c366ae32fb484d2393b8e1d34f96524bc3ecf5f6a14b108c664736f6c63430008130033",
    "linkReferences": {}
  },
  "methodIdentifiers": {
    "addFeed(address)": "b04aba31",
    "changeVolatilityIndex(address)": "bc7c4023",
    "getEnergyPrice()": "cab0f335",
    "getPriceFeeds()": "6ca42ae3",
    "getVolatilityIndex()": "83cf65d4",
    "removeFeed(address)": "4b90fd69"
  },
  "id": 6
}