{
  "abi": [
    {
      "inputs": [
        {
          "internalType": "address",
          "name": "feed",
          "type": "address"
        }
      ],
      "name": "AlreadyFeed",
      "type": "error"
    },
    {
      "inputs": [
        {
          "internalType": "address",
          "name": "feed",
          "type": "address"
        }
      ],
      "name": "NotFeed",
      "type": "error"
    },
    {
      "inputs": [
        {
          "internalType": "contract AggregatorV3Interface",
          "name": "newFeed_",
          "type": "address"
        }
      ],
      "name": "addFeed",
      "outputs": [],
      "stateMutability": "nonpayable",
      "type": "function"
    },
    {
      "inputs": [
        {
          "internalType": "contract AggregatorV3Interface",
          "name": "newFeed_",
          "type": "address"
        }
      ],
      "name": "changeVolatilityIndex",
      "outputs": [],
      "stateMutability": "nonpayable",
      "type": "function"
    },
    {
      "inputs": [],
      "name": "getEnergyPrice",
      "outputs": [
        {
          "internalType": "uint256",
          "name": "",
          "type": "uint256"
        }
      ],
      "stateMutability": "view",
      "type": "function"
    },
    {
      "inputs": [],
      "name": "getPriceFeeds",
      "outputs": [
        {
          "internalType": "address[]",
          "name": "feeds",
          "type": "address[]"
        }
      ],
      "stateMutability": "view",
      "type": "function"
    },
    {
      "inputs": [
        {
          "internalType": "uint160",
          "name": "sqrtPriceX96",
          "type": "uint160"
        }
      ],
      "name": "getPriceX96FromSqrtPriceX96",
      "outputs": [
        {
          "internalType": "uint256",
          "name": "priceX96",
          "type": "uint256"
        }
      ],
      "stateMutability": "pure",
      "type": "function"
    },
    {
      "inputs": [],
      "name": "getUni",
      "outputs": [
        {
          "internalType": "uint256",
          "name": "",
          "type": "uint256"
        }
      ],
      "stateMutability": "view",
      "type": "function"
    },
    {
      "inputs": [],
      "name": "getVolatilityIndex",
      "outputs": [
        {
          "internalType": "int256",
          "name": "",
          "type": "int256"
        }
      ],
      "stateMutability": "view",
      "type": "function"
    },
    {
      "inputs": [
        {
          "internalType": "contract AggregatorV3Interface",
          "name": "toRemove_",
          "type": "address"
        }
      ],
      "name": "removeFeed",
      "outputs": [],
      "stateMutability": "nonpayable",
      "type": "function"
    }
  ],
  "bytecode": {
    "object": "0x608060405234801561001057600080fd5b506110ad806100206000396000f3fe608060405234801561001057600080fd5b50600436106100885760003560e01c8063b04aba311161005b578063b04aba31146100e5578063bc7c4023146100f8578063c8e1b0621461010b578063cab0f3351461011357600080fd5b80634b90fd691461008d5780634e09a610146100a25780636ca42ae3146100c857806383cf65d4146100dd575b600080fd5b6100a061009b366004610d5f565b61011b565b005b6100b56100b0366004610d5f565b6101cf565b6040519081526020015b60405180910390f35b6100d06101ef565b6040516100bf9190610d7c565b6100b56102b3565b6100a06100f3366004610d5f565b61033b565b6100a0610106366004610d5f565b61042f565b6100b5610459565b6100b5610520565b6101236105e9565b604480546040805160208084028201810190925282815260009361018f93869383018282801561017c57602002820191906000526020600020905b81546001600160a01b0316815260019091019060200180831161015e575b505050505061067290919063ffffffff16565b905080196101c05760405163730a683f60e11b81526001600160a01b03831660048201526024015b60405180910390fd5b6101cb6044836106d7565b5050565b60006101e96001600160a01b03831680600160601b610831565b92915050565b6044546060908067ffffffffffffffff81111561020e5761020e610dc9565b604051908082528060200260200182016040528015610237578160200160208202803683370190505b50915060005b808211156102ae57604480548291908290811061025c5761025c610ddf565b9060005260206000200160009054906101000a90046001600160a01b031684828151811061028c5761028c610ddf565b6001600160a01b0392909216602092830291909101909101525060010161023d565b505090565b6000806000603f0160009054906101000a90046001600160a01b03166001600160a01b031663feaf968c6040518163ffffffff1660e01b815260040160a060405180830381865afa15801561030c573d6000803e3d6000fd5b505050506040513d601f19601f820116820180604052508101906103309190610e11565b509195945050505050565b6103436105e9565b60448054604080516020808402820181019092528281526000936103ad93869383018282801561017c576020028201919060005260206000209081546001600160a01b0316815260019091019060200180831161015e57505050505061067290919063ffffffff16565b905080600019146103dc576040516341497abd60e01b81526001600160a01b03831660048201526024016101b7565b50604480546001810182556000919091527f9b22d3d61959b4d3528b1d8ba932c96fbe302b36a1aad1d95cab54f9e0a135ea0180546001600160a01b0319166001600160a01b0392909216919091179055565b6104376105e9565b603f80546001600160a01b0319166001600160a01b0392909216919091179055565b60408051633850c7bd60e01b8152905160009173c31e54c7a869b9fcbecc14363cf510d1c41fa443917382af49447d8a07e3bd95bd0d56f35241523fbab19173ff970a61a04b1ca14834a43f5de4533ebddb5cc891849186918391633850c7bd9160048083019260e09291908290030181865afa1580156104de573d6000803e3d6000fd5b505050506040513d601f19601f820116820180604052508101906105029190610e73565b50505050505090506000610515826101cf565b979650505050505050565b600080600061052d6109a9565b91509150600061053b6102b3565b8351909150600090815b808211156105b157600086828151811061056157610561610ddf565b6020908102919091010151604080549082015191925061059c9183916001600160a01b039182169116146105955786610b87565b6000610b87565b6105a69085610f2d565b935050600101610545565b506105c16305f5e1006064610f55565b6105cb8584610f55565b6105d59190610f85565b6105df9085610f2d565b9550505050505090565b7fc8fcad8db84d3cc18b4c41d551ea0ee66dd599cde068d998e57d5e09332c131c600401546001600160a01b031633146106705760405162461bcd60e51b815260206004820152602260248201527f4c69624469616d6f6e643a204d75737420626520636f6e7472616374206f776e60448201526132b960f11b60648201526084016101b7565b565b8151600090815b808211156106cb576000819050846001600160a01b03168682815181106106a2576106a2610ddf565b60200260200101516001600160a01b0316036106c25792506101e9915050565b50600101610679565b50600019949350505050565b6000805b835481101561072a57826001600160a01b031684828154811061070057610700610ddf565b6000918252602090912001546001600160a01b0316036107225780915061072a565b6001016106db565b50805b835461073b90600190610fc1565b8110156107bf578361074e826001610fd4565b8154811061075e5761075e610ddf565b9060005260206000200160009054906101000a90046001600160a01b031684828154811061078e5761078e610ddf565b600091825260209091200180546001600160a01b0319166001600160a01b039290921691909117905560010161072d565b50825483906107d090600190610fc1565b815481106107e0576107e0610ddf565b600091825260209091200180546001600160a01b0319169055825483908061080a5761080a610fe7565b600082815260209020810160001990810180546001600160a01b0319169055019055505050565b600080806000198587098587029250828110838203039150508060000361086a576000841161085f57600080fd5b5082900490506109a2565b80841161087657600080fd5b60008486880980840393811190920391905060008561089481610ffd565b169586900495938490049360008190030460010190506108b48184611019565b9093179260006108c5876003611019565b60021890506108d48188611019565b6108df906002610fc1565b6108e99082611019565b90506108f58188611019565b610900906002610fc1565b61090a9082611019565b90506109168188611019565b610921906002610fc1565b61092b9082611019565b90506109378188611019565b610942906002610fc1565b61094c9082611019565b90506109588188611019565b610963906002610fc1565b61096d9082611019565b90506109798188611019565b610984906002610fc1565b61098e9082611019565b905061099a8186611019565b955050505050505b9392505050565b604454606090600090818167ffffffffffffffff8111156109cc576109cc610dc9565b604051908082528060200260200182016040528015610a1757816020015b60408051606081018252600080825260208083018290529282015282526000199092019101816109ea5790505b50905060005b80831115610b5157600081905060008060006044018381548110610a4357610a43610ddf565b9060005260206000200160009054906101000a90046001600160a01b03166001600160a01b031663feaf968c6040518163ffffffff1660e01b815260040160a060405180830381865afa158015610a9e573d6000803e3d6000fd5b505050506040513d601f19601f82011682018060405250810190610ac29190610e11565b5050509150915060006040518060600160405280846001600160501b0316815260200183815260200160006044018681548110610b0157610b01610ddf565b6000918252602090912001546001600160a01b0316905286519091508190879086908110610b3157610b31610ddf565b602002602001018190525050505050610b4a8160010190565b9050610a1d565b506000610b7b82600181518110610b6a57610b6a610ddf565b602002602001015160200151610c74565b91959194509092505050565b60408054908301516000916001600160a01b03918216911614610c1c57602083015160408401518451600091610bc6916001600160501b031690610cb5565b610bd09083611030565b9050610be4678ac7230489e8000085610f85565b826305f5e100610bf5846064610f55565b610bff9190610f55565b610c099190610f85565b610c139190610f55565b925050506101e9565b60408301518351600091610c39916001600160501b031690610cb5565b90506000818560200151610c4d9190611030565b9050816305f5e100610c60836064610f55565b610c6a9190610f55565b610c139190610f85565b6000629896806305f5e100600a84610c8d836064610f55565b610c979190610f55565b610ca19190610f85565b610cab9190610f55565b6101e99190610f85565b6000806001600160a01b038316639a6fc8f5610cd2600187611057565b6040516001600160e01b031960e084901b1681526001600160501b03909116600482015260240160a060405180830381865afa158015610d16573d6000803e3d6000fd5b505050506040513d601f19601f82011682018060405250810190610d3a9190610e11565b5091979650505050505050565b6001600160a01b0381168114610d5c57600080fd5b50565b600060208284031215610d7157600080fd5b81356109a281610d47565b6020808252825182820181905260009190848201906040850190845b81811015610dbd5783516001600160a01b031683529284019291840191600101610d98565b50909695505050505050565b634e487b7160e01b600052604160045260246000fd5b634e487b7160e01b600052603260045260246000fd5b80516001600160501b0381168114610e0c57600080fd5b919050565b600080600080600060a08688031215610e2957600080fd5b610e3286610df5565b9450602086015193506040860151925060608601519150610e5560808701610df5565b90509295509295909350565b805161ffff81168114610e0c57600080fd5b600080600080600080600060e0888a031215610e8e57600080fd5b8751610e9981610d47565b8097505060208801518060020b8114610eb157600080fd5b9550610ebf60408901610e61565b9450610ecd60608901610e61565b9350610edb60808901610e61565b925060a088015160ff81168114610ef157600080fd5b60c08901519092508015158114610f0757600080fd5b8091505092959891949750929550565b634e487b7160e01b600052601160045260246000fd5b8082018281126000831280158216821582161715610f4d57610f4d610f17565b505092915050565b80820260008212600160ff1b84141615610f7157610f71610f17565b81810583148215176101e9576101e9610f17565b600082610fa257634e487b7160e01b600052601260045260246000fd5b600160ff1b821460001984141615610fbc57610fbc610f17565b500590565b818103818111156101e9576101e9610f17565b808201808211156101e9576101e9610f17565b634e487b7160e01b600052603160045260246000fd5b6000600160ff1b820161101257611012610f17565b5060000390565b80820281158282048414176101e9576101e9610f17565b818103600083128015838313168383128216171561105057611050610f17565b5092915050565b6001600160501b0382811682821603908082111561105057611050610f1756fea26469706673582212205460c3860987ec22efda29ce966ec0460972631f03474222fafd290f9507827c64736f6c63430008130033",
    "linkReferences": {}
  },
  "methodIdentifiers": {
    "addFeed(address)": "b04aba31",
    "changeVolatilityIndex(address)": "bc7c4023",
    "getEnergyPrice()": "cab0f335",
    "getPriceFeeds()": "6ca42ae3",
    "getPriceX96FromSqrtPriceX96(uint160)": "4e09a610",
    "getUni()": "c8e1b062",
    "getVolatilityIndex()": "83cf65d4",
    "removeFeed(address)": "4b90fd69"
  },
  "id": 7
}