{
  "abi": [
    {
      "inputs": [],
      "name": "getLastPrice",
      "outputs": [
        {
          "internalType": "uint256",
          "name": "",
          "type": "uint256"
        }
      ],
      "stateMutability": "view",
      "type": "function"
    }
  ],
  "bytecode": {
    "object": "0x608060405234801561001057600080fd5b506107d1806100206000396000f3fe608060405234801561001057600080fd5b506004361061002b5760003560e01c8063d8cf24fd14610030575b600080fd5b61003861004a565b60405190815260200160405180910390f35b60006100566003610128565b600080610061610170565b81516020908101519083015160008054949650929450909261008e919084906001600160a01b0316610467565b60608501516003549192506000916100b1919085906001600160a01b0316610467565b60408601516002549192506000916100d4919083906001600160a01b0316610467565b90506000826100e3838661064e565b6100ed919061064e565b90506100fe6305f5e1006064610676565b6101088783610676565b61011291906106a6565b61011c908761064e565b97505050505050505090565b61016d8160405160240161013e91815260200190565b60408051601f198184030181529190526020810180516001600160e01b031663f5b1bba960e01b17905261053b565b50565b6101d36040805160c08101825260006080820181815260a083018290528252825180840184528181526020808201839052808401919091528351808501855282815280820183905283850152835180850190945281845283015290606082015290565b600080600060010160009054906101000a90046001600160a01b03166001600160a01b031663feaf968c6040518163ffffffff1660e01b815260040160a060405180830381865afa15801561022c573d6000803e3d6000fd5b505050506040513d601f19601f820116820180604052508101906102509190610701565b5050509150506000806000800160009054906101000a90046001600160a01b03166001600160a01b031663feaf968c6040518163ffffffff1660e01b815260040160a060405180830381865afa1580156102ae573d6000803e3d6000fd5b505050506040513d601f19601f820116820180604052508101906102d29190610701565b50505091509150600080600060020160009054906101000a90046001600160a01b03166001600160a01b031663feaf968c6040518163ffffffff1660e01b815260040160a060405180830381865afa158015610332573d6000803e3d6000fd5b505050506040513d601f19601f820116820180604052508101906103569190610701565b50505091509150600080600060030160009054906101000a90046001600160a01b03166001600160a01b031663feaf968c6040518163ffffffff1660e01b815260040160a060405180830381865afa1580156103b6573d6000803e3d6000fd5b505050506040513d601f19601f820116820180604052508101906103da9190610701565b505050915091506103ea8361055c565b6040805160c08101825260006080820190815260a082019a909a529889528051808201825269ffffffffffffffffffff9889168152602081810198909852878a0152805180820182529588168652858701949094528784019490945282518084019093529416815291820192909252606083015290939092509050565b6002546000906001600160a01b038381169116146104e9576020840151845160009061049390856105a3565b61049d9083610751565b90506104b1678ac7230489e80000866106a6565b826305f5e1006104c2846064610676565b6104cc9190610676565b6104d691906106a6565b6104e09190610676565b92505050610534565b60006104f98560000151846105a3565b9050600081866020015161050d9190610751565b9050816305f5e100610520836064610676565b61052a9190610676565b6104e091906106a6565b9392505050565b80516a636f6e736f6c652e6c6f67602083016000808483855afa5050505050565b6000629896806305f5e100600a84610575836064610676565b61057f9190610676565b61058991906106a6565b6105939190610676565b61059d91906106a6565b92915050565b6000806001600160a01b038316639a6fc8f56105c0600187610778565b6040516001600160e01b031960e084901b16815269ffffffffffffffffffff909116600482015260240160a060405180830381865afa158015610607573d6000803e3d6000fd5b505050506040513d601f19601f8201168201806040525081019061062b9190610701565b5091979650505050505050565b634e487b7160e01b600052601160045260246000fd5b808201828112600083128015821682158216171561066e5761066e610638565b505092915050565b80820260008212600160ff1b8414161561069257610692610638565b818105831482151761059d5761059d610638565b6000826106c357634e487b7160e01b600052601260045260246000fd5b600160ff1b8214600019841416156106dd576106dd610638565b500590565b805169ffffffffffffffffffff811681146106fc57600080fd5b919050565b600080600080600060a0868803121561071957600080fd5b610722866106e2565b9450602086015193506040860151925060608601519150610745608087016106e2565b90509295509295909350565b818103600083128015838313168383128216171561077157610771610638565b5092915050565b69ffffffffffffffffffff8281168282160390808211156107715761077161063856fea264697066735822122078b0250ff1b30244dfcae2c01fb42e715d29e555608e30fd7876a02912b4b8e364736f6c63430008130033",
    "linkReferences": {}
  },
  "methodIdentifiers": {
    "getLastPrice()": "d8cf24fd"
  },
  "id": 3
}