{
  "abi": [
    {
      "inputs": [
        {
          "internalType": "address",
          "name": "feed",
          "type": "address"
        }
      ],
      "name": "AlreadyFeed",
      "type": "error"
    },
    {
      "inputs": [
        {
          "internalType": "address",
          "name": "feed",
          "type": "address"
        }
      ],
      "name": "NotFeed",
      "type": "error"
    },
    {
      "inputs": [],
      "name": "_getTwapEth",
      "outputs": [
        {
          "internalType": "int256",
          "name": "",
          "type": "int256"
        }
      ],
      "stateMutability": "view",
      "type": "function"
    },
    {
      "inputs": [
        {
          "internalType": "int256",
          "name": "num_",
          "type": "int256"
        }
      ],
      "name": "abs",
      "outputs": [
        {
          "internalType": "int256",
          "name": "",
          "type": "int256"
        }
      ],
      "stateMutability": "pure",
      "type": "function"
    },
    {
      "inputs": [
        {
          "internalType": "contract AggregatorV3Interface",
          "name": "newFeed_",
          "type": "address"
        }
      ],
      "name": "addFeed",
      "outputs": [],
      "stateMutability": "nonpayable",
      "type": "function"
    },
    {
      "inputs": [
        {
          "internalType": "contract AggregatorV3Interface",
          "name": "newFeed_",
          "type": "address"
        }
      ],
      "name": "changeVolatilityIndex",
      "outputs": [],
      "stateMutability": "nonpayable",
      "type": "function"
    },
    {
      "inputs": [
        {
          "internalType": "int256",
          "name": "twap_",
          "type": "int256"
        },
        {
          "internalType": "int256",
          "name": "link_",
          "type": "int256"
        },
        {
          "internalType": "int256",
          "name": "prevLink_",
          "type": "int256"
        }
      ],
      "name": "checkEthDiff",
      "outputs": [
        {
          "internalType": "bool",
          "name": "",
          "type": "bool"
        }
      ],
      "stateMutability": "view",
      "type": "function"
    },
    {
      "inputs": [
        {
          "components": [
            {
              "internalType": "uint80",
              "name": "roundId",
              "type": "uint80"
            },
            {
              "internalType": "int256",
              "name": "value",
              "type": "int256"
            },
            {
              "internalType": "contract AggregatorV3Interface",
              "name": "feed",
              "type": "address"
            }
          ],
          "internalType": "struct DataInfo",
          "name": "ethFeedInfo_",
          "type": "tuple"
        }
      ],
      "name": "getBasePrice",
      "outputs": [
        {
          "internalType": "int256",
          "name": "",
          "type": "int256"
        }
      ],
      "stateMutability": "view",
      "type": "function"
    },
    {
      "inputs": [],
      "name": "getEnergyPrice",
      "outputs": [
        {
          "internalType": "uint256",
          "name": "",
          "type": "uint256"
        }
      ],
      "stateMutability": "view",
      "type": "function"
    },
    {
      "inputs": [],
      "name": "getPriceFeeds",
      "outputs": [
        {
          "internalType": "address[]",
          "name": "feeds",
          "type": "address[]"
        }
      ],
      "stateMutability": "view",
      "type": "function"
    },
    {
      "inputs": [],
      "name": "getVolatilityIndex",
      "outputs": [
        {
          "internalType": "int256",
          "name": "",
          "type": "int256"
        }
      ],
      "stateMutability": "view",
      "type": "function"
    },
    {
      "inputs": [
        {
          "internalType": "contract AggregatorV3Interface",
          "name": "toRemove_",
          "type": "address"
        }
      ],
      "name": "removeFeed",
      "outputs": [],
      "stateMutability": "nonpayable",
      "type": "function"
    }
  ],
  "bytecode": {
    "object": "0x608060405234801561001057600080fd5b50611f28806100206000396000f3fe608060405234801561001057600080fd5b506004361061009e5760003560e01c806383cf65d41161006657806383cf65d414610129578063b04aba3114610131578063bc7c402314610144578063cab0f33514610157578063dcfeab931461015f57600080fd5b80631b5ac4b5146100a357806324b6a04f146100c95780634b90fd69146100ec57806357f06425146101015780636ca42ae314610114575b600080fd5b6100b66100b1366004611804565b610167565b6040519081526020015b60405180910390f35b6100dc6100d736600461181d565b610187565b60405190151581526020016100c0565b6100ff6100fa36600461185e565b6102bb565b005b6100b661010f3660046118d7565b61036f565b61011c61048b565b6040516100c09190611940565b6100b661054f565b6100ff61013f36600461185e565b6105d7565b6100ff61015236600461185e565b6106cb565b6100b66106f5565b6100b66107be565b60008082121561017f5761017a826119a3565b610181565b815b92915050565b60008061019483866119bf565b90506101c26040518060400160405280600a8152602001690383932bb2234b3331d160b51b81525082610835565b60006101ce85876119bf565b90506101f86040518060400160405280600681526020016503234b3331d160d51b81525082610835565b600560008761020685610167565b6102119060646119e6565b61021b9190611a2c565b905060008861022985610167565b6102349060646119e6565b61023e9190611a2c565b905061026f6040518060400160405280600d81526020016c0383932bb2832b92234b3331d1609d1b81525083610835565b61029a6040518060400160405280600981526020016803832b92234b3331d160bd1b81525082610835565b8281136102a85760006102ac565b8282135b955050505050505b9392505050565b6102c361087a565b604480546040805160208084028201810190925282815260009361032f93869383018282801561031c57602002820191906000526020600020905b81546001600160a01b031681526001909101906020018083116102fe575b505050505061090390919063ffffffff16565b905080196103605760405163730a683f60e11b81526001600160a01b03831660048201526024015b60405180910390fd5b61036b604483610968565b5050565b600080610396836040015184600001516001600160501b0316610ac290919063ffffffff16565b905060006103a26107be565b905060006103b38560200151610b54565b90506103f46040518060400160405280600d81526020016c0383932bb2634b735a2ba341d1609d1b815250846402540be4006103ef9190611a5a565b610835565b61041f6040518060400160405280600981526020016803a3bb0b822ba341d160bd1b81525083610835565b61044a6040518060400160405280600981526020016803634b735a2ba341d160bd1b81525082610835565b61046260405180602001604052806000815250610b95565b61047682826100d7866402540be4006119e6565b6104805781610482565b805b95945050505050565b6044546060908067ffffffffffffffff8111156104aa576104aa61187b565b6040519080825280602002602001820160405280156104d3578160200160208202803683370190505b50915060005b8082111561054a5760448054829190829081106104f8576104f8611a71565b9060005260206000200160009054906101000a90046001600160a01b031684828151811061052857610528611a71565b6001600160a01b039290921660209283029190910190910152506001016104d9565b505090565b6000806000603f0160009054906101000a90046001600160a01b03166001600160a01b031663feaf968c6040518163ffffffff1660e01b815260040160a060405180830381865afa1580156105a8573d6000803e3d6000fd5b505050506040513d601f19601f820116820180604052508101906105cc9190611a87565b509195945050505050565b6105df61087a565b604480546040805160208084028201810190925282815260009361064993869383018282801561031c576020028201919060005260206000209081546001600160a01b031681526001909101906020018083116102fe57505050505061090390919063ffffffff16565b90508060001914610678576040516341497abd60e01b81526001600160a01b0383166004820152602401610357565b50604480546001810182556000919091527f9b22d3d61959b4d3528b1d8ba932c96fbe302b36a1aad1d95cab54f9e0a135ea0180546001600160a01b0319166001600160a01b0392909216919091179055565b6106d361087a565b603f80546001600160a01b0319166001600160a01b0392909216919091179055565b6000806000610702610bdb565b91509150600061071061054f565b8351909150600090815b8082111561078657600086828151811061073657610736611a71565b602090810291909101015160408054908201519192506107719183916001600160a01b0391821691161461076a5786610e19565b6000610e19565b61077b9085611adf565b93505060010161071a565b506107966305f5e10060646119e6565b6107a085846119e6565b6107aa9190611a2c565b6107b49085611adf565b9550505050505090565b600073c31e54c7a869b9fcbecc14363cf510d1c41fa4437382af49447d8a07e3bd95bd0d56f35241523fbab173ff970a61a04b1ca14834a43f5de4533ebddb5cc88361080b84600a610f06565b509050600061082482670de0b6b3a7640000868661114c565b90506107b48164e8d4a51000611a5a565b61036b828260405160240161084b929190611b4d565b60408051601f198184030181529190526020810180516001600160e01b03166309710a9d60e41b17905261125a565b7fc8fcad8db84d3cc18b4c41d551ea0ee66dd599cde068d998e57d5e09332c131c600401546001600160a01b031633146109015760405162461bcd60e51b815260206004820152602260248201527f4c69624469616d6f6e643a204d75737420626520636f6e7472616374206f776e60448201526132b960f11b6064820152608401610357565b565b8151600090815b8082111561095c576000819050846001600160a01b031686828151811061093357610933611a71565b60200260200101516001600160a01b031603610953579250610181915050565b5060010161090a565b50600019949350505050565b6000805b83548110156109bb57826001600160a01b031684828154811061099157610991611a71565b6000918252602090912001546001600160a01b0316036109b3578091506109bb565b60010161096c565b50805b83546109cc90600190611b6f565b811015610a5057836109df826001611b82565b815481106109ef576109ef611a71565b9060005260206000200160009054906101000a90046001600160a01b0316848281548110610a1f57610a1f611a71565b600091825260209091200180546001600160a01b0319166001600160a01b03929092169190911790556001016109be565b5082548390610a6190600190611b6f565b81548110610a7157610a71611a71565b600091825260209091200180546001600160a01b03191690558254839080610a9b57610a9b611b95565b600082815260209020810160001990810180546001600160a01b0319169055019055505050565b6000806001600160a01b038316639a6fc8f5610adf600187611bab565b6040516001600160e01b031960e084901b1681526001600160501b03909116600482015260240160a060405180830381865afa158015610b23573d6000803e3d6000fd5b505050506040513d601f19601f82011682018060405250810190610b479190611a87565b5091979650505050505050565b6000629896806305f5e100600a84610b6d8360646119e6565b610b7791906119e6565b610b819190611a2c565b610b8b91906119e6565b6101819190611a2c565b610bd881604051602401610ba99190611bcb565b60408051601f198184030181529190526020810180516001600160e01b031663104c13eb60e21b17905261125a565b50565b604454606090600090818167ffffffffffffffff811115610bfe57610bfe61187b565b604051908082528060200260200182016040528015610c4957816020015b6040805160608101825260008082526020808301829052928201528252600019909201910181610c1c5790505b50905060005b80831115610d8357600081905060008060006044018381548110610c7557610c75611a71565b9060005260206000200160009054906101000a90046001600160a01b03166001600160a01b031663feaf968c6040518163ffffffff1660e01b815260040160a060405180830381865afa158015610cd0573d6000803e3d6000fd5b505050506040513d601f19601f82011682018060405250810190610cf49190611a87565b5050509150915060006040518060600160405280846001600160501b0316815260200183815260200160006044018681548110610d3357610d33611a71565b6000918252602090912001546001600160a01b0316905286519091508190879086908110610d6357610d63611a71565b602002602001018190525050505050610d7c8160010190565b9050610c4f565b506000610dad82600181518110610d9c57610d9c611a71565b602002602001015160200151610b54565b90506000610dd483600181518110610dc757610dc7611a71565b602002602001015161036f565b9050610e0e6040518060400160405280601681526020017503130b9b29910169039b0b6b29030b9903a3bb0b81d160551b81525082610835565b509094909350915050565b60408054908301516000916001600160a01b03918216911614610eae57602083015160408401518451600091610e58916001600160501b031690610ac2565b610e6290836119bf565b9050610e76678ac7230489e8000085611a2c565b826305f5e100610e878460646119e6565b610e9191906119e6565b610e9b9190611a2c565b610ea591906119e6565b92505050610181565b60408301518351600091610ecb916001600160501b031690610ac2565b90506000818560200151610edf91906119bf565b9050816305f5e100610ef28360646119e6565b610efc91906119e6565b610ea59190611a2c565b6000808263ffffffff16600003610f445760405162461bcd60e51b8152602060048201526002602482015261042560f41b6044820152606401610357565b6040805160028082526060820183526000926020830190803683370190505090508381600081518110610f7957610f79611a71565b602002602001019063ffffffff16908163ffffffff1681525050600081600181518110610fa857610fa8611a71565b602002602001019063ffffffff16908163ffffffff1681525050600080866001600160a01b031663883bdbfd846040518263ffffffff1660e01b8152600401610ff19190611bde565b600060405180830381865afa15801561100e573d6000803e3d6000fd5b505050506040513d6000823e601f3d908101601f191682016040526110369190810190611cb4565b9150915060008260008151811061104f5761104f611a71565b60200260200101518360018151811061106a5761106a611a71565b602002602001015161107c9190611d80565b905060008260008151811061109357611093611a71565b6020026020010151836001815181106110ae576110ae611a71565b60200260200101516110c09190611dad565b90506110d0600389900b83611dcd565b965060008260060b1280156110f457506110ee600389900b83611e0b565b60060b15155b15611107578661110381611e2d565b9750505b60006111206001600160a01b0363ffffffff8b16611e50565b905061113d640100000000600160c01b03602084901b1682611e82565b96505050505050509250929050565b6000806111588661127b565b90506001600160801b036001600160a01b038216116111de5760006111866001600160a01b03831680611a5a565b9050836001600160a01b0316856001600160a01b0316106111be576111b9600160c01b876001600160801b03168361169b565b6111d6565b6111d681876001600160801b0316600160c01b61169b565b925050611251565b60006111fd6001600160a01b038316806801000000000000000061169b565b9050836001600160a01b0316856001600160a01b03161061123557611230600160801b876001600160801b03168361169b565b61124d565b61124d81876001600160801b0316600160801b61169b565b9250505b50949350505050565b80516a636f6e736f6c652e6c6f67602083016000808483855afa5050505050565b60008060008360020b12611292578260020b61129f565b8260020b61129f906119a3565b90506112ae620d89e719611ea8565b60020b8111156112e45760405162461bcd60e51b81526020600482015260016024820152601560fa1b6044820152606401610357565b6000816001166000036112fb57600160801b61130d565b6ffffcb933bd6fad37aa2d162d1a5940015b70ffffffffffffffffffffffffffffffffff169050600282161561134c576080611347826ffff97272373d413259a46990580e213a611a5a565b901c90505b6004821615611376576080611371826ffff2e50f5f656932ef12357cf3c7fdcc611a5a565b901c90505b60088216156113a057608061139b826fffe5caca7e10e4e61c3624eaa0941cd0611a5a565b901c90505b60108216156113ca5760806113c5826fffcb9843d60f6159c9db58835c926644611a5a565b901c90505b60208216156113f45760806113ef826fff973b41fa98c081472e6896dfb254c0611a5a565b901c90505b604082161561141e576080611419826fff2ea16466c96a3843ec78b326b52861611a5a565b901c90505b6080821615611448576080611443826ffe5dee046a99a2a811c461f1969c3053611a5a565b901c90505b61010082161561147357608061146e826ffcbe86c7900a88aedcffc83b479aa3a4611a5a565b901c90505b61020082161561149e576080611499826ff987a7253ac413176f2b074cf7815e54611a5a565b901c90505b6104008216156114c95760806114c4826ff3392b0822b70005940c7a398e4b70f3611a5a565b901c90505b6108008216156114f45760806114ef826fe7159475a2c29b7443b29c7fa6e889d9611a5a565b901c90505b61100082161561151f57608061151a826fd097f3bdfd2022b8845ad8f792aa5825611a5a565b901c90505b61200082161561154a576080611545826fa9f746462d870fdf8a65dc1f90e061e5611a5a565b901c90505b614000821615611575576080611570826f70d869a156d2a1b890bb3df62baf32f7611a5a565b901c90505b6180008216156115a057608061159b826f31be135f97d08fd981231505542fcfa6611a5a565b901c90505b620100008216156115cc5760806115c7826f09aa508b5b7a84e1c677de54f3e99bc9611a5a565b901c90505b620200008216156115f75760806115f2826e5d6af8dedb81196699c329225ee604611a5a565b901c90505b6204000082161561162157608061161c826d2216e584f5fa1ea926041bedfe98611a5a565b901c90505b62080000821615611649576080611644826b048a170391f7dc42444e8fa2611a5a565b901c90505b60008460020b13156116645761166181600019611eca565b90505b61167364010000000082611ede565b1561167f576001611682565b60005b6116939060ff16602083901c611b82565b949350505050565b60008080600019858709858702925082811083820303915050806000036116d457600084116116c957600080fd5b5082900490506102b4565b8084116116e057600080fd5b6000848688098084039381119092039190506000856116fe816119a3565b1695869004959384900493600081900304600101905061171e8184611a5a565b90931792600061172f876003611a5a565b600218905061173e8188611a5a565b611749906002611b6f565b6117539082611a5a565b905061175f8188611a5a565b61176a906002611b6f565b6117749082611a5a565b90506117808188611a5a565b61178b906002611b6f565b6117959082611a5a565b90506117a18188611a5a565b6117ac906002611b6f565b6117b69082611a5a565b90506117c28188611a5a565b6117cd906002611b6f565b6117d79082611a5a565b90506117e38188611a5a565b6117ee906002611b6f565b6117f89082611a5a565b90506102ac8186611a5a565b60006020828403121561181657600080fd5b5035919050565b60008060006060848603121561183257600080fd5b505081359360208301359350604090920135919050565b6001600160a01b0381168114610bd857600080fd5b60006020828403121561187057600080fd5b81356102b481611849565b634e487b7160e01b600052604160045260246000fd5b604051601f8201601f1916810167ffffffffffffffff811182821017156118ba576118ba61187b565b604052919050565b6001600160501b0381168114610bd857600080fd5b6000606082840312156118e957600080fd5b6040516060810181811067ffffffffffffffff8211171561190c5761190c61187b565b604052823561191a816118c2565b815260208381013590820152604083013561193481611849565b60408201529392505050565b6020808252825182820181905260009190848201906040850190845b818110156119815783516001600160a01b03168352928401929184019160010161195c565b50909695505050505050565b634e487b7160e01b600052601160045260246000fd5b6000600160ff1b82016119b8576119b861198d565b5060000390565b81810360008312801583831316838312821617156119df576119df61198d565b5092915050565b80820260008212600160ff1b84141615611a0257611a0261198d565b81810583148215176101815761018161198d565b634e487b7160e01b600052601260045260246000fd5b600082611a3b57611a3b611a16565b600160ff1b821460001984141615611a5557611a5561198d565b500590565b80820281158282048414176101815761018161198d565b634e487b7160e01b600052603260045260246000fd5b600080600080600060a08688031215611a9f57600080fd5b8551611aaa816118c2565b809550506020860151935060408601519250606086015191506080860151611ad1816118c2565b809150509295509295909350565b8082018281126000831280158216821582161715611aff57611aff61198d565b505092915050565b6000815180845260005b81811015611b2d57602081850181015186830182015201611b11565b506000602082860101526020601f19601f83011685010191505092915050565b604081526000611b606040830185611b07565b90508260208301529392505050565b818103818111156101815761018161198d565b808201808211156101815761018161198d565b634e487b7160e01b600052603160045260246000fd5b6001600160501b038281168282160390808211156119df576119df61198d565b6020815260006102b46020830184611b07565b6020808252825182820181905260009190848201906040850190845b8181101561198157835163ffffffff1683529284019291840191600101611bfa565b600067ffffffffffffffff821115611c3657611c3661187b565b5060051b60200190565b600082601f830112611c5157600080fd5b81516020611c66611c6183611c1c565b611891565b82815260059290921b84018101918181019086841115611c8557600080fd5b8286015b84811015611ca9578051611c9c81611849565b8352918301918301611c89565b509695505050505050565b60008060408385031215611cc757600080fd5b825167ffffffffffffffff80821115611cdf57600080fd5b818501915085601f830112611cf357600080fd5b81516020611d03611c6183611c1c565b82815260059290921b84018101918181019089841115611d2257600080fd5b948201945b83861015611d505785518060060b8114611d415760008081fd5b82529482019490820190611d27565b91880151919650909350505080821115611d6957600080fd5b50611d7685828601611c40565b9150509250929050565b600682810b9082900b03667fffffffffffff198112667fffffffffffff821317156101815761018161198d565b6001600160a01b038281168282160390808211156119df576119df61198d565b60008160060b8360060b80611de457611de4611a16565b667fffffffffffff19821460001982141615611e0257611e0261198d565b90059392505050565b60008260060b80611e1e57611e1e611a16565b808360060b0791505092915050565b60008160020b627fffff198103611e4657611e4661198d565b6000190192915050565b6001600160c01b03828116828216818102831692918115828504821417611e7957611e7961198d565b50505092915050565b60006001600160c01b0383811680611e9c57611e9c611a16565b92169190910492915050565b60008160020b627fffff198103611ec157611ec161198d565b60000392915050565b600082611ed957611ed9611a16565b500490565b600082611eed57611eed611a16565b50069056fea26469706673582212200c7152f5d4d782f77fc07bb3294b493725c133bc6d8e33595414035ac66ea26664736f6c63430008130033",
    "linkReferences": {}
  },
  "methodIdentifiers": {
    "_getTwapEth()": "dcfeab93",
    "abs(int256)": "1b5ac4b5",
    "addFeed(address)": "b04aba31",
    "changeVolatilityIndex(address)": "bc7c4023",
    "checkEthDiff(int256,int256,int256)": "24b6a04f",
    "getBasePrice((uint80,int256,address))": "57f06425",
    "getEnergyPrice()": "cab0f335",
    "getPriceFeeds()": "6ca42ae3",
    "getVolatilityIndex()": "83cf65d4",
    "removeFeed(address)": "4b90fd69"
  },
  "id": 7
}