{"abi":[{"type":"function","name":"addFeed","inputs":[{"name":"newFeed_","type":"address","internalType":"contract AggregatorV3Interface"}],"outputs":[],"stateMutability":"nonpayable"},{"type":"function","name":"changeUniPool","inputs":[{"name":"newPool_","type":"address","internalType":"address"}],"outputs":[],"stateMutability":"nonpayable"},{"type":"function","name":"changeVolatilityIndex","inputs":[{"name":"newFeed_","type":"address","internalType":"contract AggregatorV3Interface"}],"outputs":[],"stateMutability":"nonpayable"},{"type":"function","name":"getEnergyPrice","inputs":[],"outputs":[{"name":"","type":"uint256","internalType":"uint256"}],"stateMutability":"view"},{"type":"function","name":"getPriceFeeds","inputs":[],"outputs":[{"name":"feeds","type":"address[]","internalType":"address[]"}],"stateMutability":"view"},{"type":"function","name":"getTwapEth","inputs":[],"outputs":[{"name":"","type":"int256","internalType":"int256"}],"stateMutability":"view"},{"type":"function","name":"getUniPool","inputs":[],"outputs":[{"name":"","type":"address","internalType":"address"}],"stateMutability":"view"},{"type":"function","name":"getVolatilityIndex","inputs":[],"outputs":[{"name":"","type":"int256","internalType":"int256"}],"stateMutability":"view"},{"type":"function","name":"removeFeed","inputs":[{"name":"toRemove_","type":"address","internalType":"contract AggregatorV3Interface"}],"outputs":[],"stateMutability":"nonpayable"},{"type":"error","name":"AlreadyFeed","inputs":[{"name":"feed","type":"address","internalType":"address"}]},{"type":"error","name":"NotFeed","inputs":[{"name":"feed","type":"address","internalType":"address"}]}],"bytecode":{"object":"0x608060405234801561001057600080fd5b50611b94806100206000396000f3fe608060405234801561001057600080fd5b50600436106100935760003560e01c806393f086341161006657806393f08634146100f8578063b04aba3114610100578063bc7c402314610113578063cab0f33514610126578063d19e5b491461012e57600080fd5b80634b90fd6914610098578063672eea71146100ad5780636ca42ae3146100cd57806383cf65d4146100e2575b600080fd5b6100ab6100a63660046115af565b610141565b005b6045546040516001600160a01b0390911681526020015b60405180910390f35b6100d56101f5565b6040516100c491906115cc565b6100ea6102b9565b6040519081526020016100c4565b6100ea610341565b6100ab61010e3660046115af565b6103a4565b6100ab6101213660046115af565b610498565b6100ea6104c2565b6100ab61013c3660046115af565b61058d565b6101496105b7565b60448054604080516020808402820181019092528281526000936101b59386938301828280156101a257602002820191906000526020600020905b81546001600160a01b03168152600190910190602001808311610184575b505050505061064090919063ffffffff16565b905080196101e65760405163730a683f60e11b81526001600160a01b03831660048201526024015b60405180910390fd5b6101f16044836106a7565b5050565b6044546060908067ffffffffffffffff81111561021457610214611619565b60405190808252806020026020018201604052801561023d578160200160208202803683370190505b50915060005b808211156102b45760448054829190829081106102625761026261162f565b9060005260206000200160009054906101000a90046001600160a01b03168482815181106102925761029261162f565b6001600160a01b03929092166020928302919091019091015250600101610243565b505090565b6000806000603f0160009054906101000a90046001600160a01b03166001600160a01b031663feaf968c6040518163ffffffff1660e01b815260040160a060405180830381865afa158015610312573d6000803e3d6000fd5b505050506040513d601f19601f820116820180604052508101906103369190611661565b509195945050505050565b604554600090819061035d906001600160a01b0316600a610801565b50600b5460095491925060009161038c918491670de0b6b3a7640000916001600160a01b039081169116610a47565b905061039d8164e8d4a510006116c7565b9250505090565b6103ac6105b7565b60448054604080516020808402820181019092528281526000936104169386938301828280156101a2576020028201919060005260206000209081546001600160a01b0316815260019091019060200180831161018457505050505061064090919063ffffffff16565b90508060001914610445576040516341497abd60e01b81526001600160a01b03831660048201526024016101dd565b50604480546001810182556000919091527f9b22d3d61959b4d3528b1d8ba932c96fbe302b36a1aad1d95cab54f9e0a135ea0180546001600160a01b0319166001600160a01b0392909216919091179055565b6104a06105b7565b603f80546001600160a01b0319166001600160a01b0392909216919091179055565b6000806000806104d0610b55565b9250925092506000808451905060005b808211156105555760008682815181106104fc576104fc61162f565b602090810291909101015160408054908201519192506105409183916001600160a01b03918216911614610537576105326102b9565b61053a565b60005b87610d36565b61054a90856116de565b9350506001016104e0565b506105656305f5e1006064611706565b61056f8584611706565b610579919061174c565b61058390856116de565b9550505050505090565b6105956105b7565b604580546001600160a01b0319166001600160a01b0392909216919091179055565b7fc8fcad8db84d3cc18b4c41d551ea0ee66dd599cde068d998e57d5e09332c131c600401546001600160a01b0316331461063e5760405162461bcd60e51b815260206004820152602260248201527f4c69624469616d6f6e643a204d75737420626520636f6e7472616374206f776e60448201526132b960f11b60648201526084016101dd565b565b8151600090815b80821115610699576000819050846001600160a01b03168682815181106106705761067061162f565b60200260200101516001600160a01b0316036106905792506106a1915050565b50600101610647565b506000199150505b92915050565b6000805b83548110156106fa57826001600160a01b03168482815481106106d0576106d061162f565b6000918252602090912001546001600160a01b0316036106f2578091506106fa565b6001016106ab565b50805b835461070b9060019061177a565b81101561078f578361071e82600161178d565b8154811061072e5761072e61162f565b9060005260206000200160009054906101000a90046001600160a01b031684828154811061075e5761075e61162f565b600091825260209091200180546001600160a01b0319166001600160a01b03929092169190911790556001016106fd565b50825483906107a09060019061177a565b815481106107b0576107b061162f565b600091825260209091200180546001600160a01b031916905582548390806107da576107da6117a0565b600082815260209020810160001990810180546001600160a01b0319169055019055505050565b6000808263ffffffff1660000361083f5760405162461bcd60e51b8152602060048201526002602482015261042560f41b60448201526064016101dd565b60408051600280825260608201835260009260208301908036833701905050905083816000815181106108745761087461162f565b602002602001019063ffffffff16908163ffffffff16815250506000816001815181106108a3576108a361162f565b602002602001019063ffffffff16908163ffffffff1681525050600080866001600160a01b031663883bdbfd846040518263ffffffff1660e01b81526004016108ec91906117b6565b600060405180830381865afa158015610909573d6000803e3d6000fd5b505050506040513d6000823e601f3d908101601f1916820160405261093191908101906118bd565b9150915060008260008151811061094a5761094a61162f565b6020026020010151836001815181106109655761096561162f565b60200260200101516109779190611989565b905060008260008151811061098e5761098e61162f565b6020026020010151836001815181106109a9576109a961162f565b60200260200101516109bb91906119b6565b90506109cb600389900b836119dd565b965060008260060b1280156109ef57506109e9600389900b83611a1b565b60060b15155b15610a0257866109fe81611a3d565b9750505b6000610a1b6001600160a01b0363ffffffff8b16611a60565b9050610a38640100000000600160c01b03602084901b1682611a92565b96505050505050509250929050565b600080610a5386610e0f565b90506001600160801b036001600160a01b03821611610ad9576000610a816001600160a01b038316806116c7565b9050836001600160a01b0316856001600160a01b031610610ab957610ab4600160c01b876001600160801b03168361122f565b610ad1565b610ad181876001600160801b0316600160c01b61122f565b925050610b4c565b6000610af86001600160a01b038316806801000000000000000061122f565b9050836001600160a01b0316856001600160a01b031610610b3057610b2b600160801b876001600160801b03168361122f565b610b48565b610b4881876001600160801b0316600160801b61122f565b9250505b50949350505050565b6044546060906000908190818167ffffffffffffffff811115610b7a57610b7a611619565b604051908082528060200260200182016040528015610bc557816020015b6040805160608101825260008082526020808301829052928201528252600019909201910181610b985790505b50905060005b80831115610cff57600081905060008060006044018381548110610bf157610bf161162f565b9060005260206000200160009054906101000a90046001600160a01b03166001600160a01b031663feaf968c6040518163ffffffff1660e01b815260040160a060405180830381865afa158015610c4c573d6000803e3d6000fd5b505050506040513d601f19601f82011682018060405250810190610c709190611661565b5050509150915060006040518060600160405280846001600160501b0316815260200183815260200160006044018681548110610caf57610caf61162f565b6000918252602090912001546001600160a01b0316905286519091508190879086908110610cdf57610cdf61162f565b602002602001018190525050505050610cf88160010190565b9050610bcb565b50600080610d2683600181518110610d1957610d1961162f565b60200260200101516113a5565b9398909750929550919350505050565b60408054908401516000916001600160a01b03918216911614610dcb57602084015160408501518551600091610d75916001600160501b031690611429565b610d7f9083611ab8565b9050610d93678ac7230489e800008661174c565b826305f5e100610da4846064611706565b610dae9190611706565b610db8919061174c565b610dc29190611706565b92505050610e08565b6000828560200151610ddd9190611ab8565b9050826305f5e100610df0836064611706565b610dfa9190611706565b610e04919061174c565b9150505b9392505050565b60008060008360020b12610e26578260020b610e33565b8260020b610e3390611ad8565b9050610e42620d89e719611af4565b60020b811115610e785760405162461bcd60e51b81526020600482015260016024820152601560fa1b60448201526064016101dd565b600081600116600003610e8f57600160801b610ea1565b6ffffcb933bd6fad37aa2d162d1a5940015b70ffffffffffffffffffffffffffffffffff1690506002821615610ee0576080610edb826ffff97272373d413259a46990580e213a6116c7565b901c90505b6004821615610f0a576080610f05826ffff2e50f5f656932ef12357cf3c7fdcc6116c7565b901c90505b6008821615610f34576080610f2f826fffe5caca7e10e4e61c3624eaa0941cd06116c7565b901c90505b6010821615610f5e576080610f59826fffcb9843d60f6159c9db58835c9266446116c7565b901c90505b6020821615610f88576080610f83826fff973b41fa98c081472e6896dfb254c06116c7565b901c90505b6040821615610fb2576080610fad826fff2ea16466c96a3843ec78b326b528616116c7565b901c90505b6080821615610fdc576080610fd7826ffe5dee046a99a2a811c461f1969c30536116c7565b901c90505b610100821615611007576080611002826ffcbe86c7900a88aedcffc83b479aa3a46116c7565b901c90505b61020082161561103257608061102d826ff987a7253ac413176f2b074cf7815e546116c7565b901c90505b61040082161561105d576080611058826ff3392b0822b70005940c7a398e4b70f36116c7565b901c90505b610800821615611088576080611083826fe7159475a2c29b7443b29c7fa6e889d96116c7565b901c90505b6110008216156110b35760806110ae826fd097f3bdfd2022b8845ad8f792aa58256116c7565b901c90505b6120008216156110de5760806110d9826fa9f746462d870fdf8a65dc1f90e061e56116c7565b901c90505b614000821615611109576080611104826f70d869a156d2a1b890bb3df62baf32f76116c7565b901c90505b61800082161561113457608061112f826f31be135f97d08fd981231505542fcfa66116c7565b901c90505b6201000082161561116057608061115b826f09aa508b5b7a84e1c677de54f3e99bc96116c7565b901c90505b6202000082161561118b576080611186826e5d6af8dedb81196699c329225ee6046116c7565b901c90505b620400008216156111b55760806111b0826d2216e584f5fa1ea926041bedfe986116c7565b901c90505b620800008216156111dd5760806111d8826b048a170391f7dc42444e8fa26116c7565b901c90505b60008460020b13156111f8576111f581600019611b16565b90505b61120764010000000082611b2a565b15611213576001611216565b60005b6112279060ff16602083901c61178d565b949350505050565b6000808060001985870985870292508281108382030391505080600003611268576000841161125d57600080fd5b508290049050610e08565b80841161127457600080fd5b60008486880980840393811190920391905060008561129281611ad8565b169586900495938490049360008190030460010190506112b281846116c7565b9093179260006112c38760036116c7565b60021890506112d281886116c7565b6112dd90600261177a565b6112e790826116c7565b90506112f381886116c7565b6112fe90600261177a565b61130890826116c7565b905061131481886116c7565b61131f90600261177a565b61132990826116c7565b905061133581886116c7565b61134090600261177a565b61134a90826116c7565b905061135681886116c7565b61136190600261177a565b61136b90826116c7565b905061137781886116c7565b61138290600261177a565b61138c90826116c7565b905061139881866116c7565b9998505050505050505050565b60008060006113ce846040015185600001516001600160501b031661142990919063ffffffff16565b905060006113df85602001516114bb565b905060006113eb610341565b905061140882611400856402540be400611706565b8391906114fc565b61141a57611414610341565b8361141d565b81835b94509450505050915091565b6000806001600160a01b038316639a6fc8f5611446600187611b3e565b6040516001600160e01b031960e084901b1681526001600160501b03909116600482015260240160a060405180830381865afa15801561148a573d6000803e3d6000fd5b505050506040513d601f19601f820116820180604052508101906114ae9190611661565b5091979650505050505050565b6000629896806305f5e100600a846114d4836064611706565b6114de9190611706565b6114e8919061174c565b6114f29190611706565b6106a1919061174c565b6000806115098386611ab8565b905060006115178587611ab8565b905060056000876115278561157b565b611532906064611706565b61153c919061174c565b905060008861154a8561157b565b611555906064611706565b61155f919061174c565b905082811361156f576000611398565b50139695505050505050565b6000808212156115935761158e82611ad8565b6106a1565b5090565b6001600160a01b03811681146115ac57600080fd5b50565b6000602082840312156115c157600080fd5b8135610e0881611597565b6020808252825182820181905260009190848201906040850190845b8181101561160d5783516001600160a01b0316835292840192918401916001016115e8565b50909695505050505050565b634e487b7160e01b600052604160045260246000fd5b634e487b7160e01b600052603260045260246000fd5b80516001600160501b038116811461165c57600080fd5b919050565b600080600080600060a0868803121561167957600080fd5b61168286611645565b94506020860151935060408601519250606086015191506116a560808701611645565b90509295509295909350565b634e487b7160e01b600052601160045260246000fd5b80820281158282048414176106a1576106a16116b1565b80820182811260008312801582168215821617156116fe576116fe6116b1565b505092915050565b80820260008212600160ff1b84141615611722576117226116b1565b81810583148215176106a1576106a16116b1565b634e487b7160e01b600052601260045260246000fd5b60008261175b5761175b611736565b600160ff1b821460001984141615611775576117756116b1565b500590565b818103818111156106a1576106a16116b1565b808201808211156106a1576106a16116b1565b634e487b7160e01b600052603160045260246000fd5b6020808252825182820181905260009190848201906040850190845b8181101561160d57835163ffffffff16835292840192918401916001016117d2565b604051601f8201601f1916810167ffffffffffffffff8111828210171561181d5761181d611619565b604052919050565b600067ffffffffffffffff82111561183f5761183f611619565b5060051b60200190565b600082601f83011261185a57600080fd5b8151602061186f61186a83611825565b6117f4565b82815260059290921b8401810191818101908684111561188e57600080fd5b8286015b848110156118b25780516118a581611597565b8352918301918301611892565b509695505050505050565b600080604083850312156118d057600080fd5b825167ffffffffffffffff808211156118e857600080fd5b818501915085601f8301126118fc57600080fd5b8151602061190c61186a83611825565b82815260059290921b8401810191818101908984111561192b57600080fd5b948201945b838610156119595785518060060b811461194a5760008081fd5b82529482019490820190611930565b9188015191965090935050508082111561197257600080fd5b5061197f85828601611849565b9150509250929050565b600682810b9082900b03667fffffffffffff198112667fffffffffffff821317156106a1576106a16116b1565b6001600160a01b038281168282160390808211156119d6576119d66116b1565b5092915050565b60008160060b8360060b806119f4576119f4611736565b667fffffffffffff19821460001982141615611a1257611a126116b1565b90059392505050565b60008260060b80611a2e57611a2e611736565b808360060b0791505092915050565b60008160020b627fffff198103611a5657611a566116b1565b6000190192915050565b6001600160c01b03828116828216818102831692918115828504821417611a8957611a896116b1565b50505092915050565b60006001600160c01b0383811680611aac57611aac611736565b92169190910492915050565b81810360008312801583831316838312821617156119d6576119d66116b1565b6000600160ff1b8201611aed57611aed6116b1565b5060000390565b60008160020b627fffff198103611b0d57611b0d6116b1565b60000392915050565b600082611b2557611b25611736565b500490565b600082611b3957611b39611736565b500690565b6001600160501b038281168282160390808211156119d6576119d66116b156fea26469706673582212202b76ee3e3f67cf4cb22f4c23ebd26ad95535597ac6a140cab05dcf8c3f227a5864736f6c63430008130033","linkReferences":{}},"methodIdentifiers":{"addFeed(address)":"b04aba31","changeUniPool(address)":"d19e5b49","changeVolatilityIndex(address)":"bc7c4023","getEnergyPrice()":"cab0f335","getPriceFeeds()":"6ca42ae3","getTwapEth()":"93f08634","getUniPool()":"672eea71","getVolatilityIndex()":"83cf65d4","removeFeed(address)":"4b90fd69"},"id":7}