{
  "abi": [
    {
      "inputs": [],
      "name": "getLastPrice",
      "outputs": [
        {
          "internalType": "uint256",
          "name": "",
          "type": "uint256"
        }
      ],
      "stateMutability": "view",
      "type": "function"
    }
  ],
  "bytecode": {
    "object": "0x608060405234801561001057600080fd5b5061075e806100206000396000f3fe608060405234801561001057600080fd5b506004361061002b5760003560e01c8063d8cf24fd14610030575b600080fd5b61003861004a565b60405190815260200160405180910390f35b600080600061005761011e565b815160209081015190830151600080549496509294509092610084919084906001600160a01b0316610415565b60608501516003549192506000916100a7919085906001600160a01b0316610415565b60408601516002549192506000916100ca919083906001600160a01b0316610415565b90506000826100d983866105db565b6100e391906105db565b90506100f46305f5e1006064610603565b6100fe8783610603565b6101089190610633565b61011290876105db565b97505050505050505090565b6101816040805160c08101825260006080820181815260a083018290528252825180840184528181526020808201839052808401919091528351808501855282815280820183905283850152835180850190945281845283015290606082015290565b600080600060010160009054906101000a90046001600160a01b03166001600160a01b031663feaf968c6040518163ffffffff1660e01b815260040160a060405180830381865afa1580156101da573d6000803e3d6000fd5b505050506040513d601f19601f820116820180604052508101906101fe919061068e565b5050509150506000806000800160009054906101000a90046001600160a01b03166001600160a01b031663feaf968c6040518163ffffffff1660e01b815260040160a060405180830381865afa15801561025c573d6000803e3d6000fd5b505050506040513d601f19601f82011682018060405250810190610280919061068e565b50505091509150600080600060020160009054906101000a90046001600160a01b03166001600160a01b031663feaf968c6040518163ffffffff1660e01b815260040160a060405180830381865afa1580156102e0573d6000803e3d6000fd5b505050506040513d601f19601f82011682018060405250810190610304919061068e565b50505091509150600080600060030160009054906101000a90046001600160a01b03166001600160a01b031663feaf968c6040518163ffffffff1660e01b815260040160a060405180830381865afa158015610364573d6000803e3d6000fd5b505050506040513d601f19601f82011682018060405250810190610388919061068e565b50505091509150610398836104e9565b6040805160c08101825260006080820190815260a082019a909a529889528051808201825269ffffffffffffffffffff9889168152602081810198909852878a0152805180820182529588168652858701949094528784019490945282518084019093529416815291820192909252606083015290939092509050565b6002546000906001600160a01b0383811691161461049757602084015184516000906104419085610530565b61044b90836106de565b905061045f678ac7230489e8000086610633565b826305f5e100610470846064610603565b61047a9190610603565b6104849190610633565b61048e9190610603565b925050506104e2565b60006104a7856000015184610530565b905060008186602001516104bb91906106de565b9050816305f5e1006104ce836064610603565b6104d89190610603565b61048e9190610633565b9392505050565b6000629896806305f5e100600a84610502836064610603565b61050c9190610603565b6105169190610633565b6105209190610603565b61052a9190610633565b92915050565b6000806001600160a01b038316639a6fc8f561054d600187610705565b6040516001600160e01b031960e084901b16815269ffffffffffffffffffff909116600482015260240160a060405180830381865afa158015610594573d6000803e3d6000fd5b505050506040513d601f19601f820116820180604052508101906105b8919061068e565b5091979650505050505050565b634e487b7160e01b600052601160045260246000fd5b80820182811260008312801582168215821617156105fb576105fb6105c5565b505092915050565b80820260008212600160ff1b8414161561061f5761061f6105c5565b818105831482151761052a5761052a6105c5565b60008261065057634e487b7160e01b600052601260045260246000fd5b600160ff1b82146000198414161561066a5761066a6105c5565b500590565b805169ffffffffffffffffffff8116811461068957600080fd5b919050565b600080600080600060a086880312156106a657600080fd5b6106af8661066f565b94506020860151935060408601519250606086015191506106d26080870161066f565b90509295509295909350565b81810360008312801583831316838312821617156106fe576106fe6105c5565b5092915050565b69ffffffffffffffffffff8281168282160390808211156106fe576106fe6105c556fea26469706673582212208f7f896901df7b0b608dcf702ab39127ea55fe692f75aaa739b8aab94f201f2864736f6c63430008130033",
    "linkReferences": {}
  },
  "methodIdentifiers": {
    "getLastPrice()": "d8cf24fd"
  },
  "id": 3
}