{
  "abi": [
    {
      "inputs": [],
      "name": "getEnergyPrice",
      "outputs": [
        {
          "internalType": "uint256",
          "name": "",
          "type": "uint256"
        }
      ],
      "stateMutability": "view",
      "type": "function"
    },
    {
      "inputs": [],
      "name": "getVolatilityIndex",
      "outputs": [
        {
          "internalType": "int256",
          "name": "",
          "type": "int256"
        }
      ],
      "stateMutability": "view",
      "type": "function"
    }
  ],
  "bytecode": {
    "object": "0x608060405234801561001057600080fd5b50610738806100206000396000f3fe608060405234801561001057600080fd5b50600436106100365760003560e01c806383cf65d41461003b578063cab0f33514610055575b600080fd5b61004361005d565b60405190815260200160405180910390f35b6100436100e5565b6000806000603f0160009054906101000a90046001600160a01b03166001600160a01b031663feaf968c6040518163ffffffff1660e01b815260040160a060405180830381865afa1580156100b6573d6000803e3d6000fd5b505050506040513d601f19601f820116820180604052508101906100da919061057c565b509195945050505050565b60008060006100f26101b5565b91509150600061010061005d565b90506000805b845181101561017e576000858281518110610123576101236105cc565b6020908102919091010151604080549082015191925061015e9183916001600160a01b0391821691161461015757856101f0565b60006101f0565b61016890846105f8565b925050808061017690610620565b915050610106565b5061018e6305f5e1006064610639565b6101988483610639565b6101a29190610669565b6101ac90846105f8565b94505050505090565b606060006101c16102e3565b91506101ea826001815181106101d9576101d96105cc565b60200260200101516020015161048d565b90509091565b60408054908301516000916001600160a01b039182169116146102855760208301516040840151845160009161022f916001600160501b0316906104ce565b61023990836106a5565b905061024d678ac7230489e8000085610669565b826305f5e10061025e846064610639565b6102689190610639565b6102729190610669565b61027c9190610639565b925050506102dd565b604083015183516000916102a2916001600160501b0316906104ce565b905060008185602001516102b691906106a5565b9050816305f5e1006102c9836064610639565b6102d39190610639565b61027c9190610669565b92915050565b60445460609060009067ffffffffffffffff811115610304576103046106cc565b60405190808252806020026020018201604052801561034f57816020015b60408051606081018252600080825260208083018290529282015282526000199092019101816103225790505b50905060005b6044548110156104875760008060006044018381548110610378576103786105cc565b9060005260206000200160009054906101000a90046001600160a01b03166001600160a01b031663feaf968c6040518163ffffffff1660e01b815260040160a060405180830381865afa1580156103d3573d6000803e3d6000fd5b505050506040513d601f19601f820116820180604052508101906103f7919061057c565b5050509150915060006040518060600160405280846001600160501b0316815260200183815260200160006044018681548110610436576104366105cc565b6000918252602090912001546001600160a01b0316905285519091508190869086908110610466576104666105cc565b6020026020010181905250505050808061047f90610620565b915050610355565b50919050565b6000629896806305f5e100600a846104a6836064610639565b6104b09190610639565b6104ba9190610669565b6104c49190610639565b6102dd9190610669565b6000806001600160a01b038316639a6fc8f56104eb6001876106e2565b6040516001600160e01b031960e084901b1681526001600160501b03909116600482015260240160a060405180830381865afa15801561052f573d6000803e3d6000fd5b505050506040513d601f19601f82011682018060405250810190610553919061057c565b5091979650505050505050565b80516001600160501b038116811461057757600080fd5b919050565b600080600080600060a0868803121561059457600080fd5b61059d86610560565b94506020860151935060408601519250606086015191506105c060808701610560565b90509295509295909350565b634e487b7160e01b600052603260045260246000fd5b634e487b7160e01b600052601160045260246000fd5b8082018281126000831280158216821582161715610618576106186105e2565b505092915050565b600060018201610632576106326105e2565b5060010190565b80820260008212600160ff1b84141615610655576106556105e2565b81810583148215176102dd576102dd6105e2565b60008261068657634e487b7160e01b600052601260045260246000fd5b600160ff1b8214600019841416156106a0576106a06105e2565b500590565b81810360008312801583831316838312821617156106c5576106c56105e2565b5092915050565b634e487b7160e01b600052604160045260246000fd5b6001600160501b038281168282160390808211156106c5576106c56105e256fea26469706673582212208b16b49fe32da976c434320662d8d73f156297da51d7fbe211a00b795763871e64736f6c63430008130033",
    "linkReferences": {}
  },
  "methodIdentifiers": {
    "getEnergyPrice()": "cab0f335",
    "getVolatilityIndex()": "83cf65d4"
  },
  "id": 6
}