{
  "abi": [
    {
      "inputs": [
        {
          "internalType": "address",
          "name": "feed",
          "type": "address"
        }
      ],
      "name": "AlreadyFeed",
      "type": "error"
    },
    {
      "inputs": [
        {
          "internalType": "address",
          "name": "feed",
          "type": "address"
        }
      ],
      "name": "NotFeed",
      "type": "error"
    },
    {
      "inputs": [],
      "name": "_getTwapEth",
      "outputs": [
        {
          "internalType": "int256",
          "name": "",
          "type": "int256"
        }
      ],
      "stateMutability": "view",
      "type": "function"
    },
    {
      "inputs": [
        {
          "internalType": "int256",
          "name": "num_",
          "type": "int256"
        }
      ],
      "name": "abs",
      "outputs": [
        {
          "internalType": "int256",
          "name": "",
          "type": "int256"
        }
      ],
      "stateMutability": "pure",
      "type": "function"
    },
    {
      "inputs": [
        {
          "internalType": "contract AggregatorV3Interface",
          "name": "newFeed_",
          "type": "address"
        }
      ],
      "name": "addFeed",
      "outputs": [],
      "stateMutability": "nonpayable",
      "type": "function"
    },
    {
      "inputs": [
        {
          "internalType": "contract AggregatorV3Interface",
          "name": "newFeed_",
          "type": "address"
        }
      ],
      "name": "changeVolatilityIndex",
      "outputs": [],
      "stateMutability": "nonpayable",
      "type": "function"
    },
    {
      "inputs": [
        {
          "internalType": "int256",
          "name": "twap_",
          "type": "int256"
        },
        {
          "internalType": "int256",
          "name": "link_",
          "type": "int256"
        },
        {
          "internalType": "int256",
          "name": "prevLink_",
          "type": "int256"
        }
      ],
      "name": "checkEthDiff",
      "outputs": [
        {
          "internalType": "bool",
          "name": "",
          "type": "bool"
        }
      ],
      "stateMutability": "view",
      "type": "function"
    },
    {
      "inputs": [
        {
          "components": [
            {
              "internalType": "uint80",
              "name": "roundId",
              "type": "uint80"
            },
            {
              "internalType": "int256",
              "name": "value",
              "type": "int256"
            },
            {
              "internalType": "contract AggregatorV3Interface",
              "name": "feed",
              "type": "address"
            }
          ],
          "internalType": "struct DataInfo",
          "name": "ethFeedInfo_",
          "type": "tuple"
        }
      ],
      "name": "getBasePrice",
      "outputs": [
        {
          "internalType": "int256",
          "name": "",
          "type": "int256"
        },
        {
          "internalType": "int256",
          "name": "",
          "type": "int256"
        }
      ],
      "stateMutability": "view",
      "type": "function"
    },
    {
      "inputs": [],
      "name": "getEnergyPrice",
      "outputs": [
        {
          "internalType": "uint256",
          "name": "",
          "type": "uint256"
        }
      ],
      "stateMutability": "view",
      "type": "function"
    },
    {
      "inputs": [],
      "name": "getPriceFeeds",
      "outputs": [
        {
          "internalType": "address[]",
          "name": "feeds",
          "type": "address[]"
        }
      ],
      "stateMutability": "view",
      "type": "function"
    },
    {
      "inputs": [],
      "name": "getVolatilityIndex",
      "outputs": [
        {
          "internalType": "int256",
          "name": "",
          "type": "int256"
        }
      ],
      "stateMutability": "view",
      "type": "function"
    },
    {
      "inputs": [
        {
          "internalType": "contract AggregatorV3Interface",
          "name": "toRemove_",
          "type": "address"
        }
      ],
      "name": "removeFeed",
      "outputs": [],
      "stateMutability": "nonpayable",
      "type": "function"
    }
  ],
  "bytecode": {
    "object": "0x608060405234801561001057600080fd5b50611c61806100206000396000f3fe608060405234801561001057600080fd5b506004361061009e5760003560e01c806383cf65d41161006657806383cf65d41461013e578063b04aba3114610146578063bc7c402314610159578063cab0f3351461016c578063dcfeab931461017457600080fd5b80631b5ac4b5146100a357806324b6a04f146100c95780634b90fd69146100ec57806357f06425146101015780636ca42ae314610129575b600080fd5b6100b66100b13660046115b5565b61017c565b6040519081526020015b60405180910390f35b6100dc6100d73660046115ce565b61019c565b60405190151581526020016100c0565b6100ff6100fa366004611612565b610222565b005b61011461010f36600461168b565b6102d6565b604080519283526020830191909152016100c0565b61013161034c565b6040516100c091906116f4565b6100b6610410565b6100ff610154366004611612565b610498565b6100ff610167366004611612565b61058c565b6100b66105b6565b6100b6610685565b6000808212156101945761018f82611757565b610196565b815b92915050565b6000806101a98386611773565b905060006101b78587611773565b905060056000876101c78561017c565b6101d290606461179a565b6101dc91906117e0565b90506000886101ea8561017c565b6101f590606461179a565b6101ff91906117e0565b905082811361020f576000610213565b8282135b955050505050505b9392505050565b61022a610706565b604480546040805160208084028201810190925282815260009361029693869383018282801561028357602002820191906000526020600020905b81546001600160a01b03168152600190910190602001808311610265575b505050505061078f90919063ffffffff16565b905080196102c75760405163730a683f60e11b81526001600160a01b03831660048201526024015b60405180910390fd5b6102d26044836107f4565b5050565b60008060006102ff846040015185600001516001600160501b031661094e90919063ffffffff16565b9050600061030b610685565b9050600061031c86602001516109e0565b905061033282826100d7866402540be40061179a565b61033d578183610340565b80835b94509450505050915091565b6044546060908067ffffffffffffffff81111561036b5761036b61162f565b604051908082528060200260200182016040528015610394578160200160208202803683370190505b50915060005b8082111561040b5760448054829190829081106103b9576103b961180e565b9060005260206000200160009054906101000a90046001600160a01b03168482815181106103e9576103e961180e565b6001600160a01b0392909216602092830291909101909101525060010161039a565b505090565b6000806000603f0160009054906101000a90046001600160a01b03166001600160a01b031663feaf968c6040518163ffffffff1660e01b815260040160a060405180830381865afa158015610469573d6000803e3d6000fd5b505050506040513d601f19601f8201168201806040525081019061048d9190611824565b509195945050505050565b6104a0610706565b604480546040805160208084028201810190925282815260009361050a938693830182828015610283576020028201919060005260206000209081546001600160a01b0316815260019091019060200180831161026557505050505061078f90919063ffffffff16565b90508060001914610539576040516341497abd60e01b81526001600160a01b03831660048201526024016102be565b50604480546001810182556000919091527f9b22d3d61959b4d3528b1d8ba932c96fbe302b36a1aad1d95cab54f9e0a135ea0180546001600160a01b0319166001600160a01b0392909216919091179055565b610594610706565b603f80546001600160a01b0319166001600160a01b0392909216919091179055565b6000806000806105c4610a21565b92509250925060006105d4610410565b8451909150600090815b8082111561064c5760008782815181106105fa576105fa61180e565b602090810291909101015160408054908201519192506106379183916001600160a01b0391821691161461062e5786610631565b60005b88610c02565b610641908561187c565b9350506001016105de565b5061065c6305f5e100606461179a565b610666868461179a565b61067091906117e0565b61067a908661187c565b965050505050505090565b600073c31e54c7a869b9fcbecc14363cf510d1c41fa4437382af49447d8a07e3bd95bd0d56f35241523fbab173ff970a61a04b1ca14834a43f5de4533ebddb5cc8836106d284600a610cd8565b50905060006106eb82670de0b6b3a76400008686610f1e565b90506106fc8164e8d4a510006118a4565b9550505050505090565b7fc8fcad8db84d3cc18b4c41d551ea0ee66dd599cde068d998e57d5e09332c131c600401546001600160a01b0316331461078d5760405162461bcd60e51b815260206004820152602260248201527f4c69624469616d6f6e643a204d75737420626520636f6e7472616374206f776e60448201526132b960f11b60648201526084016102be565b565b8151600090815b808211156107e8576000819050846001600160a01b03168682815181106107bf576107bf61180e565b60200260200101516001600160a01b0316036107df579250610196915050565b50600101610796565b50600019949350505050565b6000805b835481101561084757826001600160a01b031684828154811061081d5761081d61180e565b6000918252602090912001546001600160a01b03160361083f57809150610847565b6001016107f8565b50805b8354610858906001906118bb565b8110156108dc578361086b8260016118ce565b8154811061087b5761087b61180e565b9060005260206000200160009054906101000a90046001600160a01b03168482815481106108ab576108ab61180e565b600091825260209091200180546001600160a01b0319166001600160a01b039290921691909117905560010161084a565b50825483906108ed906001906118bb565b815481106108fd576108fd61180e565b600091825260209091200180546001600160a01b03191690558254839080610927576109276118e1565b600082815260209020810160001990810180546001600160a01b0319169055019055505050565b6000806001600160a01b038316639a6fc8f561096b6001876118f7565b6040516001600160e01b031960e084901b1681526001600160501b03909116600482015260240160a060405180830381865afa1580156109af573d6000803e3d6000fd5b505050506040513d601f19601f820116820180604052508101906109d39190611824565b5091979650505050505050565b6000629896806305f5e100600a846109f983606461179a565b610a03919061179a565b610a0d91906117e0565b610a17919061179a565b61019691906117e0565b6044546060906000908190818167ffffffffffffffff811115610a4657610a4661162f565b604051908082528060200260200182016040528015610a9157816020015b6040805160608101825260008082526020808301829052928201528252600019909201910181610a645790505b50905060005b80831115610bcb57600081905060008060006044018381548110610abd57610abd61180e565b9060005260206000200160009054906101000a90046001600160a01b03166001600160a01b031663feaf968c6040518163ffffffff1660e01b815260040160a060405180830381865afa158015610b18573d6000803e3d6000fd5b505050506040513d601f19601f82011682018060405250810190610b3c9190611824565b5050509150915060006040518060600160405280846001600160501b0316815260200183815260200160006044018681548110610b7b57610b7b61180e565b6000918252602090912001546001600160a01b0316905286519091508190879086908110610bab57610bab61180e565b602002602001018190525050505050610bc48160010190565b9050610a97565b50600080610bf283600181518110610be557610be561180e565b60200260200101516102d6565b9398909750929550919350505050565b60408054908401516000916001600160a01b03918216911614610c9757602084015160408501518551600091610c41916001600160501b03169061094e565b610c4b9083611773565b9050610c5f678ac7230489e80000866117e0565b826305f5e100610c7084606461179a565b610c7a919061179a565b610c8491906117e0565b610c8e919061179a565b9250505061021b565b6000828560200151610ca99190611773565b9050826305f5e100610cbc83606461179a565b610cc6919061179a565b610cd091906117e0565b91505061021b565b6000808263ffffffff16600003610d165760405162461bcd60e51b8152602060048201526002602482015261042560f41b60448201526064016102be565b6040805160028082526060820183526000926020830190803683370190505090508381600081518110610d4b57610d4b61180e565b602002602001019063ffffffff16908163ffffffff1681525050600081600181518110610d7a57610d7a61180e565b602002602001019063ffffffff16908163ffffffff1681525050600080866001600160a01b031663883bdbfd846040518263ffffffff1660e01b8152600401610dc39190611917565b600060405180830381865afa158015610de0573d6000803e3d6000fd5b505050506040513d6000823e601f3d908101601f19168201604052610e0891908101906119ed565b91509150600082600081518110610e2157610e2161180e565b602002602001015183600181518110610e3c57610e3c61180e565b6020026020010151610e4e9190611ab9565b9050600082600081518110610e6557610e6561180e565b602002602001015183600181518110610e8057610e8061180e565b6020026020010151610e929190611ae6565b9050610ea2600389900b83611b06565b965060008260060b128015610ec65750610ec0600389900b83611b44565b60060b15155b15610ed95786610ed581611b66565b9750505b6000610ef26001600160a01b0363ffffffff8b16611b89565b9050610f0f640100000000600160c01b03602084901b1682611bbb565b96505050505050509250929050565b600080610f2a8661102c565b90506001600160801b036001600160a01b03821611610fb0576000610f586001600160a01b038316806118a4565b9050836001600160a01b0316856001600160a01b031610610f9057610f8b600160c01b876001600160801b03168361144c565b610fa8565b610fa881876001600160801b0316600160c01b61144c565b925050611023565b6000610fcf6001600160a01b038316806801000000000000000061144c565b9050836001600160a01b0316856001600160a01b03161061100757611002600160801b876001600160801b03168361144c565b61101f565b61101f81876001600160801b0316600160801b61144c565b9250505b50949350505050565b60008060008360020b12611043578260020b611050565b8260020b61105090611757565b905061105f620d89e719611be1565b60020b8111156110955760405162461bcd60e51b81526020600482015260016024820152601560fa1b60448201526064016102be565b6000816001166000036110ac57600160801b6110be565b6ffffcb933bd6fad37aa2d162d1a5940015b70ffffffffffffffffffffffffffffffffff16905060028216156110fd5760806110f8826ffff97272373d413259a46990580e213a6118a4565b901c90505b6004821615611127576080611122826ffff2e50f5f656932ef12357cf3c7fdcc6118a4565b901c90505b600882161561115157608061114c826fffe5caca7e10e4e61c3624eaa0941cd06118a4565b901c90505b601082161561117b576080611176826fffcb9843d60f6159c9db58835c9266446118a4565b901c90505b60208216156111a55760806111a0826fff973b41fa98c081472e6896dfb254c06118a4565b901c90505b60408216156111cf5760806111ca826fff2ea16466c96a3843ec78b326b528616118a4565b901c90505b60808216156111f95760806111f4826ffe5dee046a99a2a811c461f1969c30536118a4565b901c90505b61010082161561122457608061121f826ffcbe86c7900a88aedcffc83b479aa3a46118a4565b901c90505b61020082161561124f57608061124a826ff987a7253ac413176f2b074cf7815e546118a4565b901c90505b61040082161561127a576080611275826ff3392b0822b70005940c7a398e4b70f36118a4565b901c90505b6108008216156112a55760806112a0826fe7159475a2c29b7443b29c7fa6e889d96118a4565b901c90505b6110008216156112d05760806112cb826fd097f3bdfd2022b8845ad8f792aa58256118a4565b901c90505b6120008216156112fb5760806112f6826fa9f746462d870fdf8a65dc1f90e061e56118a4565b901c90505b614000821615611326576080611321826f70d869a156d2a1b890bb3df62baf32f76118a4565b901c90505b61800082161561135157608061134c826f31be135f97d08fd981231505542fcfa66118a4565b901c90505b6201000082161561137d576080611378826f09aa508b5b7a84e1c677de54f3e99bc96118a4565b901c90505b620200008216156113a85760806113a3826e5d6af8dedb81196699c329225ee6046118a4565b901c90505b620400008216156113d25760806113cd826d2216e584f5fa1ea926041bedfe986118a4565b901c90505b620800008216156113fa5760806113f5826b048a170391f7dc42444e8fa26118a4565b901c90505b60008460020b13156114155761141281600019611c03565b90505b61142464010000000082611c17565b15611430576001611433565b60005b6114449060ff16602083901c6118ce565b949350505050565b6000808060001985870985870292508281108382030391505080600003611485576000841161147a57600080fd5b50829004905061021b565b80841161149157600080fd5b6000848688098084039381119092039190506000856114af81611757565b169586900495938490049360008190030460010190506114cf81846118a4565b9093179260006114e08760036118a4565b60021890506114ef81886118a4565b6114fa9060026118bb565b61150490826118a4565b905061151081886118a4565b61151b9060026118bb565b61152590826118a4565b905061153181886118a4565b61153c9060026118bb565b61154690826118a4565b905061155281886118a4565b61155d9060026118bb565b61156790826118a4565b905061157381886118a4565b61157e9060026118bb565b61158890826118a4565b905061159481886118a4565b61159f9060026118bb565b6115a990826118a4565b905061021381866118a4565b6000602082840312156115c757600080fd5b5035919050565b6000806000606084860312156115e357600080fd5b505081359360208301359350604090920135919050565b6001600160a01b038116811461160f57600080fd5b50565b60006020828403121561162457600080fd5b813561021b816115fa565b634e487b7160e01b600052604160045260246000fd5b604051601f8201601f1916810167ffffffffffffffff8111828210171561166e5761166e61162f565b604052919050565b6001600160501b038116811461160f57600080fd5b60006060828403121561169d57600080fd5b6040516060810181811067ffffffffffffffff821117156116c0576116c061162f565b60405282356116ce81611676565b81526020838101359082015260408301356116e8816115fa565b60408201529392505050565b6020808252825182820181905260009190848201906040850190845b818110156117355783516001600160a01b031683529284019291840191600101611710565b50909695505050505050565b634e487b7160e01b600052601160045260246000fd5b6000600160ff1b820161176c5761176c611741565b5060000390565b818103600083128015838313168383128216171561179357611793611741565b5092915050565b80820260008212600160ff1b841416156117b6576117b6611741565b818105831482151761019657610196611741565b634e487b7160e01b600052601260045260246000fd5b6000826117ef576117ef6117ca565b600160ff1b82146000198414161561180957611809611741565b500590565b634e487b7160e01b600052603260045260246000fd5b600080600080600060a0868803121561183c57600080fd5b855161184781611676565b80955050602086015193506040860151925060608601519150608086015161186e81611676565b809150509295509295909350565b808201828112600083128015821682158216171561189c5761189c611741565b505092915050565b808202811582820484141761019657610196611741565b8181038181111561019657610196611741565b8082018082111561019657610196611741565b634e487b7160e01b600052603160045260246000fd5b6001600160501b0382811682821603908082111561179357611793611741565b6020808252825182820181905260009190848201906040850190845b8181101561173557835163ffffffff1683529284019291840191600101611933565b600067ffffffffffffffff82111561196f5761196f61162f565b5060051b60200190565b600082601f83011261198a57600080fd5b8151602061199f61199a83611955565b611645565b82815260059290921b840181019181810190868411156119be57600080fd5b8286015b848110156119e25780516119d5816115fa565b83529183019183016119c2565b509695505050505050565b60008060408385031215611a0057600080fd5b825167ffffffffffffffff80821115611a1857600080fd5b818501915085601f830112611a2c57600080fd5b81516020611a3c61199a83611955565b82815260059290921b84018101918181019089841115611a5b57600080fd5b948201945b83861015611a895785518060060b8114611a7a5760008081fd5b82529482019490820190611a60565b91880151919650909350505080821115611aa257600080fd5b50611aaf85828601611979565b9150509250929050565b600682810b9082900b03667fffffffffffff198112667fffffffffffff8213171561019657610196611741565b6001600160a01b0382811682821603908082111561179357611793611741565b60008160060b8360060b80611b1d57611b1d6117ca565b667fffffffffffff19821460001982141615611b3b57611b3b611741565b90059392505050565b60008260060b80611b5757611b576117ca565b808360060b0791505092915050565b60008160020b627fffff198103611b7f57611b7f611741565b6000190192915050565b6001600160c01b03828116828216818102831692918115828504821417611bb257611bb2611741565b50505092915050565b60006001600160c01b0383811680611bd557611bd56117ca565b92169190910492915050565b60008160020b627fffff198103611bfa57611bfa611741565b60000392915050565b600082611c1257611c126117ca565b500490565b600082611c2657611c266117ca565b50069056fea26469706673582212205e2fd9dd082e8f0edd1a8ee60645c9f685586f6f4ace412739687f80d99fb17364736f6c63430008130033",
    "linkReferences": {}
  },
  "methodIdentifiers": {
    "_getTwapEth()": "dcfeab93",
    "abs(int256)": "1b5ac4b5",
    "addFeed(address)": "b04aba31",
    "changeVolatilityIndex(address)": "bc7c4023",
    "checkEthDiff(int256,int256,int256)": "24b6a04f",
    "getBasePrice((uint80,int256,address))": "57f06425",
    "getEnergyPrice()": "cab0f335",
    "getPriceFeeds()": "6ca42ae3",
    "getVolatilityIndex()": "83cf65d4",
    "removeFeed(address)": "4b90fd69"
  },
  "id": 7
}