{
  "abi": [
    {
      "inputs": [
        {
          "internalType": "uint256",
          "name": "fee_",
          "type": "uint256"
        },
        {
          "internalType": "bool",
          "name": "isRetry_",
          "type": "bool"
        }
      ],
      "name": "depositFeesInDeFi",
      "outputs": [],
      "stateMutability": "nonpayable",
      "type": "function"
    }
  ],
  "bytecode": {
    "object": "0x608060405234801561001057600080fd5b50610631806100206000396000f3fe608060405234801561001057600080fd5b506004361061002b5760003560e01c8063120da16d14610030575b600080fd5b61004361003e3660046104ce565b610045565b005b600080610051846103fc565b6005546004805460405163095ea7b360e01b81526001600160a01b039182169281019290925260248201859052939550919350919091169063095ea7b3906044016020604051808303816000875af11580156100b1573d6000803e3d6000fd5b505050506040513d601f19601f820116820180604052508101906100d591906104fe565b5060015b600281116103f5576006546009546000916001600160a01b031690634a92c260908690610107908690610538565b6040516001600160e01b031960e085901b16815260048101929092526024820152604401602060405180830381865afa158015610148573d6000803e3d6000fd5b505050506040513d601f19601f8201168201806040525081019061016c9190610555565b60048054604051634515cef360e01b81529293506001600160a01b031691634515cef39161019e918791869101610597565b600060405180830381600087803b1580156101b857600080fd5b505af19250505080156101c9575060015b61020057816001036101db57506103e3565b846101fb57856000600a0160008282546101f591906105b2565b90915550505b6103e1565b6008546007546040516370a0823160e01b81523060048201526001600160a01b039283169263095ea7b392169083906370a0823190602401602060405180830381865afa158015610255573d6000803e3d6000fd5b505050506040513d601f19601f820116820180604052508101906102799190610555565b6040516001600160e01b031960e085901b1681526001600160a01b03909216600483015260248201526044016020604051808303816000875af11580156102c4573d6000803e3d6000fd5b505050506040513d601f19601f820116820180604052508101906102e891906104fe565b506007546008546040516370a0823160e01b81523060048201526001600160a01b039283169263b6b55f259216906370a0823190602401602060405180830381865afa15801561033c573d6000803e3d6000fd5b505050506040513d601f19601f820116820180604052508101906103609190610555565b6040518263ffffffff1660e01b815260040161037e91815260200190565b600060405180830381600087803b15801561039857600080fd5b505af11580156103ac573d6000803e3d6000fd5b5050600a541591506103c09050576000600a555b856000600b0160008282546103d591906105b2565b909155506103f5915050565b505b806103ed816105c5565b9150506100d9565b5050505050565b600061040661049f565b61040e61049f565b8381526000602082018190526040808301829052600480549151633883e11960e01b81526001600160a01b0390921691633883e11991610453918691600191016105de565b602060405180830381865afa158015610470573d6000803e3d6000fd5b505050506040513d601f19601f820116820180604052508101906104949190610555565b959194509092505050565b60405180606001604052806003906020820280368337509192915050565b80151581146104cb57600080fd5b50565b600080604083850312156104e157600080fd5b8235915060208301356104f3816104bd565b809150509250929050565b60006020828403121561051057600080fd5b815161051b816104bd565b9392505050565b634e487b7160e01b600052601160045260246000fd5b808202811582820484141761054f5761054f610522565b92915050565b60006020828403121561056757600080fd5b5051919050565b8060005b6003811015610591578151845260209384019390910190600101610572565b50505050565b608081016105a5828561056e565b8260608301529392505050565b8082018082111561054f5761054f610522565b6000600182016105d7576105d7610522565b5060010190565b608081016105ec828561056e565b8215156060830152939250505056fea26469706673582212204b2d5634f6cd069b30ba4692a95a62805b5909f5bd7164227ce6fb8588965a1d64736f6c63430008130033",
    "linkReferences": {}
  },
  "methodIdentifiers": {
    "depositFeesInDeFi(uint256,bool)": "120da16d"
  },
  "id": 3
}