{
  "abi": [
    {
      "inputs": [
        {
          "internalType": "uint256",
          "name": "fee_",
          "type": "uint256"
        },
        {
          "internalType": "bool",
          "name": "isRetry_",
          "type": "bool"
        }
      ],
      "name": "depositFeesInDeFi",
      "outputs": [],
      "stateMutability": "nonpayable",
      "type": "function"
    }
  ],
  "bytecode": {
    "object": "0x608060405234801561001057600080fd5b50610635806100206000396000f3fe608060405234801561001057600080fd5b506004361061002b5760003560e01c8063120da16d14610030575b600080fd5b61004361003e3660046104d2565b610045565b005b60008061005184610400565b60075460005460405163095ea7b360e01b81526001600160a01b03918216600482015260248101859052939550919350169063095ea7b3906044016020604051808303816000875af11580156100ab573d6000803e3d6000fd5b505050506040513d601f19601f820116820180604052508101906100cf9190610502565b5060015b600281116103f9576006546013546000916001600160a01b031690634a92c26090869061010190869061053c565b6040516001600160e01b031960e085901b16815260048101929092526024820152604401602060405180830381865afa158015610142573d6000803e3d6000fd5b505050506040513d601f19601f820116820180604052508101906101669190610559565b600054604051634515cef360e01b81529192506001600160a01b031690634515cef390610199908690859060040161059b565b600060405180830381600087803b1580156101b357600080fd5b505af19250505080156101c4575060015b6101fb57816001036101d657506103e7565b846101f65785600060190160008282546101f091906105b6565b90915550505b6103e5565b600154600480546040516370a0823160e01b815230928101929092526001600160a01b039283169263095ea7b39291169083906370a0823190602401602060405180830381865afa158015610254573d6000803e3d6000fd5b505050506040513d601f19601f820116820180604052508101906102789190610559565b6040516001600160e01b031960e085901b1681526001600160a01b03909216600483015260248201526044016020604051808303816000875af11580156102c3573d6000803e3d6000fd5b505050506040513d601f19601f820116820180604052508101906102e79190610502565b50600480546001546040516370a0823160e01b815230938101939093526001600160a01b039182169263b6b55f2592909116906370a0823190602401602060405180830381865afa158015610340573d6000803e3d6000fd5b505050506040513d601f19601f820116820180604052508101906103649190610559565b6040518263ffffffff1660e01b815260040161038291815260200190565b600060405180830381600087803b15801561039c57600080fd5b505af11580156103b0573d6000803e3d6000fd5b50506019541591506103c490505760006019555b85600060180160008282546103d991906105b6565b909155506103f9915050565b505b806103f1816105c9565b9150506100d3565b5050505050565b600061040a6104a3565b6104126104a3565b838152600060208201819052604080830182905281549051633883e11960e01b81526001600160a01b0390911690633883e119906104579085906001906004016105e2565b602060405180830381865afa158015610474573d6000803e3d6000fd5b505050506040513d601f19601f820116820180604052508101906104989190610559565b959194509092505050565b60405180606001604052806003906020820280368337509192915050565b80151581146104cf57600080fd5b50565b600080604083850312156104e557600080fd5b8235915060208301356104f7816104c1565b809150509250929050565b60006020828403121561051457600080fd5b815161051f816104c1565b9392505050565b634e487b7160e01b600052601160045260246000fd5b808202811582820484141761055357610553610526565b92915050565b60006020828403121561056b57600080fd5b5051919050565b8060005b6003811015610595578151845260209384019390910190600101610576565b50505050565b608081016105a98285610572565b8260608301529392505050565b8082018082111561055357610553610526565b6000600182016105db576105db610526565b5060010190565b608081016105f08285610572565b8215156060830152939250505056fea2646970667358221220365df09583a9b61bb9ae2cd9e7f5b296acab2887b22b92f99cefff6161adbf0b64736f6c63430008130033",
    "linkReferences": {}
  },
  "methodIdentifiers": {
    "depositFeesInDeFi(uint256,bool)": "120da16d"
  },
  "id": 5
}