{
  "abi": [
    {
      "inputs": [
        {
          "internalType": "address[]",
          "name": "feeds_",
          "type": "address[]"
        },
        {
          "internalType": "address[]",
          "name": "nonRevFacets_",
          "type": "address[]"
        }
      ],
      "name": "init",
      "outputs": [],
      "stateMutability": "nonpayable",
      "type": "function"
    }
  ],
  "bytecode": {
    "object": "0x608060405234801561001057600080fd5b506105f0806100206000396000f3fe608060405234801561001057600080fd5b506004361061002b5760003560e01c806317b0100114610030575b600080fd5b61004361003e36600461031c565b610045565b005b828260008181106100585761005861043d565b905060200201602081019061006d9190610453565b603e80546001600160a01b0319166001600160a01b0392909216919091179055828260018181106100a0576100a061043d565b90506020020160208101906100b59190610453565b603f80546001600160a01b0319166001600160a01b0392909216919091179055828260028181106100e8576100e861043d565b90506020020160208101906100fd9190610453565b604080546001600160a01b0319166001600160a01b0392909216919091179055828260038181106101305761013061043d565b90506020020160208101906101459190610453565b604180546001600160a01b0319166001600160a01b039290921691909117905580516000908290829061017a5761017a61043d565b602002602001015190506000816040516020016101af919060609190911b6bffffffffffffffffffffffff1916815260140190565b60408051808303601f19018152828252805160209182012060008181526042835283812080546001600160a01b0319166001600160a01b0389169081179091559285019290925283830181905282518085038401815260609094019092526043805460018101825591529092507f9690ad99d6ce244efa8a0f6c2d04036d3b33a9474db32a71b71135c6951027930161024882826104fa565b506102528461025a565b505050505050565b80517fc8fcad8db84d3cc18b4c41d551ea0ee66dd599cde068d998e57d5e09332c131c9060005b818110156102e4578260050184828151811061029f5761029f61043d565b60209081029190910181015182546001808201855560009485529290932090920180546001600160a01b0319166001600160a01b039093169290921790915501610281565b50505050565b634e487b7160e01b600052604160045260246000fd5b80356001600160a01b038116811461031757600080fd5b919050565b60008060006040848603121561033157600080fd5b833567ffffffffffffffff8082111561034957600080fd5b818601915086601f83011261035d57600080fd5b81358181111561036c57600080fd5b602088818360051b860101111561038257600080fd5b80840196508195508088013593508284111561039d57600080fd5b838801935088601f8501126103b157600080fd5b83359150828211156103c5576103c56102ea565b8160051b604051601f19603f830116810181811086821117156103ea576103ea6102ea565b60405292835281830193508481018201928a84111561040857600080fd5b948201945b8386101561042d5761041e86610300565b8552948201949382019361040d565b8096505050505050509250925092565b634e487b7160e01b600052603260045260246000fd5b60006020828403121561046557600080fd5b61046e82610300565b9392505050565b600181811c9082168061048957607f821691505b6020821081036104a957634e487b7160e01b600052602260045260246000fd5b50919050565b601f8211156104f557600081815260208120601f850160051c810160208610156104d65750805b601f850160051c820191505b81811015610252578281556001016104e2565b505050565b815167ffffffffffffffff811115610514576105146102ea565b610528816105228454610475565b846104af565b602080601f83116001811461055d57600084156105455750858301515b600019600386901b1c1916600185901b178555610252565b600085815260208120601f198616915b8281101561058c5788860151825594840194600190910190840161056d565b50858210156105aa5787850151600019600388901b60f8161c191681555b5050505050600190811b0190555056fea2646970667358221220eff0219e0f581ef1586baf462b9a7617c29692938abfe4997bcab567ac63f8b464736f6c63430008130033",
    "linkReferences": {}
  },
  "methodIdentifiers": {
    "init(address[],address[])": "17b01001"
  },
  "id": 2
}