{
  "abi": [
    {
      "inputs": [
        {
          "internalType": "address[]",
          "name": "feeds_",
          "type": "address[]"
        },
        {
          "internalType": "address",
          "name": "ozOracle_",
          "type": "address"
        }
      ],
      "name": "init",
      "outputs": [],
      "stateMutability": "nonpayable",
      "type": "function"
    }
  ],
  "bytecode": {
    "object": "0x608060405234801561001057600080fd5b50610362806100206000396000f3fe608060405234801561001057600080fd5b506004361061002b5760003560e01c80637e1ddf6414610030575b600080fd5b61004361003e366004610270565b610045565b005b82826000818110610058576100586102f4565b905060200201602081019061006d919061030a565b600080546001600160a01b0319166001600160a01b0392909216919091179055828260018181106100a0576100a06102f4565b90506020020160208101906100b5919061030a565b600180546001600160a01b0319166001600160a01b0392909216919091179055828260028181106100e8576100e86102f4565b90506020020160208101906100fd919061030a565b600280546001600160a01b0319166001600160a01b039290921691909117905582826003818110610130576101306102f4565b9050602002016020810190610145919061030a565b600380546001600160a01b0319166001600160a01b039290921691909117905560408051600180825281830190925260009160208083019080368337019050509050818160008151811061019b5761019b6102f4565b60200260200101906001600160a01b031690816001600160a01b0316815250506101c4816101ca565b50505050565b80517fc8fcad8db84d3cc18b4c41d551ea0ee66dd599cde068d998e57d5e09332c131c9060005b818110156101c4578260050184828151811061020f5761020f6102f4565b60209081029190910181015182546001808201855560009485529290932090920180546001600160a01b0319166001600160a01b0390931692909217909155016101f1565b80356001600160a01b038116811461026b57600080fd5b919050565b60008060006040848603121561028557600080fd5b833567ffffffffffffffff8082111561029d57600080fd5b818601915086601f8301126102b157600080fd5b8135818111156102c057600080fd5b8760208260051b85010111156102d557600080fd5b6020928301955093506102eb9186019050610254565b90509250925092565b634e487b7160e01b600052603260045260246000fd5b60006020828403121561031c57600080fd5b61032582610254565b939250505056fea26469706673582212202fdac2e1e51f859ac9e9f672c88b46a76752d2cda171102e415af0e919cd3d4264736f6c63430008130033",
    "linkReferences": {}
  },
  "methodIdentifiers": {
    "init(address[],address)": "7e1ddf64"
  },
  "id": 1
}