{"abi":[{"type":"function","name":"init","inputs":[{"name":"feeds_","type":"address[]","internalType":"address[]"},{"name":"nonRevFacets_","type":"address[]","internalType":"address[]"},{"name":"otherVars_","type":"address[]","internalType":"address[]"},{"name":"garch_","type":"tuple[2]","internalType":"struct Garch[2]","components":[{"name":"alpha","type":"uint256","internalType":"uint256"},{"name":"beta","type":"uint256","internalType":"uint256"},{"name":"lastConditional","type":"uint256","internalType":"uint256"},{"name":"lastResidual","type":"uint256","internalType":"uint256"},{"name":"mu","type":"uint256","internalType":"uint256"},{"name":"omega","type":"uint256","internalType":"uint256"}]}],"outputs":[],"stateMutability":"nonpayable"}],"bytecode":{"object":"0x608060405234801561001057600080fd5b506108db806100206000396000f3fe608060405234801561001057600080fd5b506004361061002b5760003560e01c80630d6e10d014610030575b600080fd5b61004361003e366004610655565b610045565b005b8484600081811061005857610058610724565b905060200201602081019061006d919061073a565b603e80546001600160a01b0319166001600160a01b0392909216919091179055848460018181106100a0576100a0610724565b90506020020160208101906100b5919061073a565b603f80546001600160a01b0319166001600160a01b0392909216919091179055848460028181106100e8576100e8610724565b90506020020160208101906100fd919061073a565b604080546001600160a01b0319166001600160a01b03929092169190911790558484600381811061013057610130610724565b9050602002016020810190610145919061073a565b604180546001600160a01b0319166001600160a01b03929092169190911790556044858560008161017857610178610724565b905060200201602081019061018d919061073a565b81546001810183556000928352602090922090910180546001600160a01b0319166001600160a01b039092169190911790556044858560028181106101d4576101d4610724565b90506020020160208101906101e9919061073a565b81546001810183556000928352602090922090910180546001600160a01b0319166001600160a01b0390921691909117905560448585600381811061023057610230610724565b9050602002016020810190610245919061073a565b81546001810183556000928352602083200180546001600160a01b0319166001600160a01b039290921691909117905583518490829061028757610287610724565b602002602001015190506000816040516020016102bc919060609190911b6bffffffffffffffffffffffff1916815260140190565b60408051808303601f19018152828252805160209182012060008181526042835283812080546001600160a01b0319166001600160a01b0389169081179091559285019290925283830181905282518085038401815260609094019092526043805460018101825591529092507f9690ad99d6ce244efa8a0f6c2d04036d3b33a9474db32a71b71135c6951027930161035582826107e5565b508460008151811061036957610369610724565b6020908102919091010151604580546001600160a01b0319166001600160a01b0390921691909117905561039c86610405565b505081518051604655602081810151604755604080830151604855606080840151604955608080850151604a5560a094850151604b55958301518051604c5592830151604d5590820151604e55810151604f559283015160505591909101516051555050505050565b80517fc8fcad8db84d3cc18b4c41d551ea0ee66dd599cde068d998e57d5e09332c131c9060005b8181101561048f578260050184828151811061044a5761044a610724565b60209081029190910181015182546001808201855560009485529290932090920180546001600160a01b0319166001600160a01b03909316929092179091550161042c565b50505050565b634e487b7160e01b600052604160045260246000fd5b6040805190810167ffffffffffffffff811182821017156104ce576104ce610495565b60405290565b60405160c0810167ffffffffffffffff811182821017156104ce576104ce610495565b80356001600160a01b038116811461050e57600080fd5b919050565b600082601f83011261052457600080fd5b8135602067ffffffffffffffff8083111561054157610541610495565b8260051b604051601f19603f8301168101818110848211171561056657610566610495565b60405293845285810183019383810192508785111561058457600080fd5b83870191505b848210156105aa5761059b826104f7565b8352918301919083019061058a565b979650505050505050565b600082601f8301126105c657600080fd5b6105ce6104ab565b806101808401858111156105e157600080fd5b845b8181101561064a5760c081880312156105fc5760008081fd5b6106046104d4565b813581526020808301358183015260408084013590830152606080840135908301526080808401359083015260a08084013590830152908552939093019260c0016105e3565b509095945050505050565b60008060008060006101e0868803121561066e57600080fd5b853567ffffffffffffffff8082111561068657600080fd5b818801915088601f83011261069a57600080fd5b8135818111156106a957600080fd5b8960208260051b85010111156106be57600080fd5b6020928301975095509087013590808211156106d957600080fd5b6106e589838a01610513565b945060408801359150808211156106fb57600080fd5b5061070888828901610513565b92505061071887606088016105b5565b90509295509295909350565b634e487b7160e01b600052603260045260246000fd5b60006020828403121561074c57600080fd5b610755826104f7565b9392505050565b600181811c9082168061077057607f821691505b60208210810361079057634e487b7160e01b600052602260045260246000fd5b50919050565b601f8211156107e057600081815260208120601f850160051c810160208610156107bd5750805b601f850160051c820191505b818110156107dc578281556001016107c9565b5050505b505050565b815167ffffffffffffffff8111156107ff576107ff610495565b6108138161080d845461075c565b84610796565b602080601f83116001811461084857600084156108305750858301515b600019600386901b1c1916600185901b1785556107dc565b600085815260208120601f198616915b8281101561087757888601518255948401946001909101908401610858565b50858210156108955787850151600019600388901b60f8161c191681555b5050505050600190811b0190555056fea26469706673582212202c4a48abe433917d232d2f16a2fabf747702bb7d811fc342f0083bcc1df263d564736f6c63430008130033","linkReferences":{}},"methodIdentifiers":{"init(address[],address[],address[],(uint256,uint256,uint256,uint256,uint256,uint256)[2])":"0d6e10d0"},"id":3}