{
  "abi": [
    {
      "inputs": [
        {
          "internalType": "address[]",
          "name": "feeds_",
          "type": "address[]"
        },
        {
          "internalType": "address[]",
          "name": "facets_",
          "type": "address[]"
        }
      ],
      "name": "init",
      "outputs": [],
      "stateMutability": "nonpayable",
      "type": "function"
    }
  ],
  "bytecode": {
    "object": "0x608060405234801561001057600080fd5b506103c4806100206000396000f3fe608060405234801561001057600080fd5b506004361061002b5760003560e01c806317b0100114610030575b600080fd5b61004361003e366004610235565b610045565b005b8282600081811061005857610058610356565b905060200201602081019061006d919061036c565b600080546001600160a01b0319166001600160a01b0392909216919091179055828260018181106100a0576100a0610356565b90506020020160208101906100b5919061036c565b600180546001600160a01b0319166001600160a01b0392909216919091179055828260028181106100e8576100e8610356565b90506020020160208101906100fd919061036c565b600280546001600160a01b0319166001600160a01b03929092169190911790558282600381811061013057610130610356565b9050602002016020810190610145919061036c565b600380546001600160a01b0319166001600160a01b039290921691909117905561016e81610173565b505050565b80517fc8fcad8db84d3cc18b4c41d551ea0ee66dd599cde068d998e57d5e09332c131c9060005b818110156101fd57826005018482815181106101b8576101b8610356565b60209081029190910181015182546001808201855560009485529290932090920180546001600160a01b0319166001600160a01b03909316929092179091550161019a565b50505050565b634e487b7160e01b600052604160045260246000fd5b80356001600160a01b038116811461023057600080fd5b919050565b60008060006040848603121561024a57600080fd5b833567ffffffffffffffff8082111561026257600080fd5b818601915086601f83011261027657600080fd5b81358181111561028557600080fd5b602088818360051b860101111561029b57600080fd5b8084019650819550808801359350828411156102b657600080fd5b838801935088601f8501126102ca57600080fd5b83359150828211156102de576102de610203565b8160051b604051601f19603f8301168101818110868211171561030357610303610203565b60405292835281830193508481018201928a84111561032157600080fd5b948201945b838610156103465761033786610219565b85529482019493820193610326565b8096505050505050509250925092565b634e487b7160e01b600052603260045260246000fd5b60006020828403121561037e57600080fd5b61038782610219565b939250505056fea26469706673582212203a9b7109a0481cb436fe7682159beef86d144651d2a3e2aa82ba8495ddf427d664736f6c63430008130033",
    "linkReferences": {}
  },
  "methodIdentifiers": {
    "init(address[],address[])": "17b01001"
  },
  "id": 1
}