{"abi":[{"type":"function","name":"init","inputs":[{"name":"feeds_","type":"address[]","internalType":"address[]"},{"name":"nonRevFacets_","type":"address[]","internalType":"address[]"},{"name":"otherVars_","type":"address[]","internalType":"address[]"}],"outputs":[],"stateMutability":"nonpayable"}],"bytecode":{"object":"0x608060405234801561001057600080fd5b5061077c806100206000396000f3fe608060405234801561001057600080fd5b506004361061002b5760003560e01c8063c019c3bc14610030575b600080fd5b61004361003e366004610509565b610045565b005b83836000818110610058576100586105c5565b905060200201602081019061006d91906105db565b603e80546001600160a01b0319166001600160a01b0392909216919091179055838360018181106100a0576100a06105c5565b90506020020160208101906100b591906105db565b603f80546001600160a01b0319166001600160a01b0392909216919091179055838360028181106100e8576100e86105c5565b90506020020160208101906100fd91906105db565b604080546001600160a01b0319166001600160a01b039290921691909117905583836003818110610130576101306105c5565b905060200201602081019061014591906105db565b604180546001600160a01b0319166001600160a01b039290921691909117905560448484600081610178576101786105c5565b905060200201602081019061018d91906105db565b81546001810183556000928352602090922090910180546001600160a01b0319166001600160a01b039092169190911790556044848460028181106101d4576101d46105c5565b90506020020160208101906101e991906105db565b81546001810183556000928352602090922090910180546001600160a01b0319166001600160a01b03909216919091179055604484846003818110610230576102306105c5565b905060200201602081019061024591906105db565b81546001810183556000928352602083200180546001600160a01b0319166001600160a01b0392909216919091179055825183908290610287576102876105c5565b602002602001015190506000816040516020016102bc919060609190911b6bffffffffffffffffffffffff1916815260140190565b60408051808303601f19018152828252805160209182012060008181526042835283812080546001600160a01b0319166001600160a01b0389169081179091559285019290925283830181905282518085038401815260609094019092526043805460018101825591529092507f9690ad99d6ce244efa8a0f6c2d04036d3b33a9474db32a71b71135c695102793016103558282610686565b5083600081518110610369576103696105c5565b6020908102919091010151604580546001600160a01b0319166001600160a01b0390921691909117905561039c856103a5565b50505050505050565b80517fc8fcad8db84d3cc18b4c41d551ea0ee66dd599cde068d998e57d5e09332c131c9060005b8181101561042f57826005018482815181106103ea576103ea6105c5565b60209081029190910181015182546001808201855560009485529290932090920180546001600160a01b0319166001600160a01b0390931692909217909155016103cc565b50505050565b634e487b7160e01b600052604160045260246000fd5b80356001600160a01b038116811461046257600080fd5b919050565b600082601f83011261047857600080fd5b8135602067ffffffffffffffff8083111561049557610495610435565b8260051b604051601f19603f830116810181811084821117156104ba576104ba610435565b6040529384528581018301938381019250878511156104d857600080fd5b83870191505b848210156104fe576104ef8261044b565b835291830191908301906104de565b979650505050505050565b6000806000806060858703121561051f57600080fd5b843567ffffffffffffffff8082111561053757600080fd5b818701915087601f83011261054b57600080fd5b81358181111561055a57600080fd5b8860208260051b850101111561056f57600080fd5b60209283019650945090860135908082111561058a57600080fd5b61059688838901610467565b935060408701359150808211156105ac57600080fd5b506105b987828801610467565b91505092959194509250565b634e487b7160e01b600052603260045260246000fd5b6000602082840312156105ed57600080fd5b6105f68261044b565b9392505050565b600181811c9082168061061157607f821691505b60208210810361063157634e487b7160e01b600052602260045260246000fd5b50919050565b601f82111561068157600081815260208120601f850160051c8101602086101561065e5750805b601f850160051c820191505b8181101561067d5782815560010161066a565b5050505b505050565b815167ffffffffffffffff8111156106a0576106a0610435565b6106b4816106ae84546105fd565b84610637565b602080601f8311600181146106e957600084156106d15750858301515b600019600386901b1c1916600185901b17855561067d565b600085815260208120601f198616915b82811015610718578886015182559484019460019091019084016106f9565b50858210156107365787850151600019600388901b60f8161c191681555b5050505050600190811b0190555056fea26469706673582212203a3ac03610dc5ab38f3b09dd792e8153535384f39442824e6936d047380c1f5f64736f6c63430008130033","linkReferences":{}},"methodIdentifiers":{"init(address[],address[],address[])":"c019c3bc"},"id":3}