{
  "abi": [
    {
      "inputs": [
        {
          "internalType": "address[]",
          "name": "feeds_",
          "type": "address[]"
        }
      ],
      "name": "init",
      "outputs": [],
      "stateMutability": "nonpayable",
      "type": "function"
    }
  ],
  "bytecode": {
    "object": "0x608060405234801561001057600080fd5b5061025a806100206000396000f3fe608060405234801561001057600080fd5b506004361061002b5760003560e01c8063c6044c4614610030575b600080fd5b61004361003e366004610169565b610045565b005b81816000818110610058576100586101de565b905060200201602081019061006d91906101f4565b600080546001600160a01b0319166001600160a01b0392909216919091179055818160018181106100a0576100a06101de565b90506020020160208101906100b591906101f4565b600180546001600160a01b0319166001600160a01b0392909216919091179055818160028181106100e8576100e86101de565b90506020020160208101906100fd91906101f4565b600280546001600160a01b0319166001600160a01b039290921691909117905581816003818110610130576101306101de565b905060200201602081019061014591906101f4565b600380546001600160a01b0319166001600160a01b03929092169190911790555050565b6000806020838503121561017c57600080fd5b823567ffffffffffffffff8082111561019457600080fd5b818501915085601f8301126101a857600080fd5b8135818111156101b757600080fd5b8660208260051b85010111156101cc57600080fd5b60209290920196919550909350505050565b634e487b7160e01b600052603260045260246000fd5b60006020828403121561020657600080fd5b81356001600160a01b038116811461021d57600080fd5b939250505056fea2646970667358221220dc9f6dce86e9d458b27acbfb2cf2c116dbfac9bae11242a4219191a9a0c54f2264736f6c63430008130033",
    "linkReferences": {}
  },
  "methodIdentifiers": {
    "init(address[])": "c6044c46"
  },
  "id": 2
}