{"abi":[{"type":"function","name":"init","inputs":[{"name":"feeds_","type":"address[]","internalType":"address[]"},{"name":"nonRevFacets_","type":"address[]","internalType":"address[]"},{"name":"otherVars_","type":"address[]","internalType":"address[]"},{"name":"garch_","type":"tuple","internalType":"struct Garch","components":[{"name":"alpha","type":"uint256","internalType":"uint256"},{"name":"beta","type":"uint256","internalType":"uint256"},{"name":"lastConditional","type":"uint256","internalType":"uint256"},{"name":"lastResidual","type":"uint256","internalType":"uint256"},{"name":"mu","type":"uint256","internalType":"uint256"},{"name":"omega","type":"uint256","internalType":"uint256"}]}],"outputs":[],"stateMutability":"nonpayable"}],"bytecode":{"object":"0x608060405234801561001057600080fd5b50610835806100206000396000f3fe608060405234801561001057600080fd5b506004361061002b5760003560e01c80634f17e2e014610030575b600080fd5b61004361003e3660046105af565b610045565b005b848460008181106100585761005861067e565b905060200201602081019061006d9190610694565b603e80546001600160a01b0319166001600160a01b0392909216919091179055848460018181106100a0576100a061067e565b90506020020160208101906100b59190610694565b603f80546001600160a01b0319166001600160a01b0392909216919091179055848460028181106100e8576100e861067e565b90506020020160208101906100fd9190610694565b604080546001600160a01b0319166001600160a01b0392909216919091179055848460038181106101305761013061067e565b90506020020160208101906101459190610694565b604180546001600160a01b0319166001600160a01b0392909216919091179055604485856000816101785761017861067e565b905060200201602081019061018d9190610694565b81546001810183556000928352602090922090910180546001600160a01b0319166001600160a01b039092169190911790556044858560028181106101d4576101d461067e565b90506020020160208101906101e99190610694565b81546001810183556000928352602090922090910180546001600160a01b0319166001600160a01b039092169190911790556044858560038181106102305761023061067e565b90506020020160208101906102459190610694565b81546001810183556000928352602083200180546001600160a01b0319166001600160a01b03929092169190911790558351849082906102875761028761067e565b602002602001015190506000816040516020016102bc919060609190911b6bffffffffffffffffffffffff1916815260140190565b60408051808303601f19018152828252805160209182012060008181526042835283812080546001600160a01b0319166001600160a01b0389169081179091559285019290925283830181905282518085038401815260609094019092526043805460018101825591529092507f9690ad99d6ce244efa8a0f6c2d04036d3b33a9474db32a71b71135c69510279301610355828261073f565b50846000815181106103695761036961067e565b6020908102919091010151604580546001600160a01b0319166001600160a01b0390921691909117905561039c866103d1565b50508151604655506020810151604755604081015160485560608101516049556080810151604a5560a00151604b5550505050565b80517fc8fcad8db84d3cc18b4c41d551ea0ee66dd599cde068d998e57d5e09332c131c9060005b8181101561045b57826005018482815181106104165761041661067e565b60209081029190910181015182546001808201855560009485529290932090920180546001600160a01b0319166001600160a01b0390931692909217909155016103f8565b50505050565b634e487b7160e01b600052604160045260246000fd5b80356001600160a01b038116811461048e57600080fd5b919050565b600082601f8301126104a457600080fd5b8135602067ffffffffffffffff808311156104c1576104c1610461565b8260051b604051601f19603f830116810181811084821117156104e6576104e6610461565b60405293845285810183019383810192508785111561050457600080fd5b83870191505b8482101561052a5761051b82610477565b8352918301919083019061050a565b979650505050505050565b600060c0828403121561054757600080fd5b60405160c0810181811067ffffffffffffffff8211171561056a5761056a610461565b8060405250809150823581526020830135602082015260408301356040820152606083013560608201526080830135608082015260a083013560a08201525092915050565b600080600080600061012086880312156105c857600080fd5b853567ffffffffffffffff808211156105e057600080fd5b818801915088601f8301126105f457600080fd5b81358181111561060357600080fd5b8960208260051b850101111561061857600080fd5b60209283019750955090870135908082111561063357600080fd5b61063f89838a01610493565b9450604088013591508082111561065557600080fd5b5061066288828901610493565b9250506106728760608801610535565b90509295509295909350565b634e487b7160e01b600052603260045260246000fd5b6000602082840312156106a657600080fd5b6106af82610477565b9392505050565b600181811c908216806106ca57607f821691505b6020821081036106ea57634e487b7160e01b600052602260045260246000fd5b50919050565b601f82111561073a57600081815260208120601f850160051c810160208610156107175750805b601f850160051c820191505b8181101561073657828155600101610723565b5050505b505050565b815167ffffffffffffffff81111561075957610759610461565b61076d8161076784546106b6565b846106f0565b602080601f8311600181146107a2576000841561078a5750858301515b600019600386901b1c1916600185901b178555610736565b600085815260208120601f198616915b828110156107d1578886015182559484019460019091019084016107b2565b50858210156107ef5787850151600019600388901b60f8161c191681555b5050505050600190811b0190555056fea2646970667358221220f3529460cddbefcdbd4193cb1c1e5d2fd79b5fdb7956c458676817f393dda7d664736f6c63430008130033","linkReferences":{}},"methodIdentifiers":{"init(address[],address[],address[],(uint256,uint256,uint256,uint256,uint256,uint256))":"4f17e2e0"},"id":3}