{
  "abi": [
    {
      "inputs": [],
      "stateMutability": "nonpayable",
      "type": "constructor"
    },
    {
      "inputs": [],
      "name": "Cant_be_zero",
      "type": "error"
    },
    {
      "inputs": [
        {
          "internalType": "uint256",
          "name": "buyerBalance",
          "type": "uint256"
        }
      ],
      "name": "Not_enough_funds",
      "type": "error"
    },
    {
      "anonymous": false,
      "inputs": [
        {
          "indexed": true,
          "internalType": "address",
          "name": "owner",
          "type": "address"
        },
        {
          "indexed": true,
          "internalType": "address",
          "name": "spender",
          "type": "address"
        },
        {
          "indexed": false,
          "internalType": "uint256",
          "name": "value",
          "type": "uint256"
        }
      ],
      "name": "Approval",
      "type": "event"
    },
    {
      "anonymous": false,
      "inputs": [
        {
          "indexed": true,
          "internalType": "address",
          "name": "from",
          "type": "address"
        },
        {
          "indexed": true,
          "internalType": "address",
          "name": "to",
          "type": "address"
        },
        {
          "indexed": false,
          "internalType": "uint256",
          "name": "value",
          "type": "uint256"
        }
      ],
      "name": "Transfer",
      "type": "event"
    },
    {
      "inputs": [
        {
          "internalType": "address",
          "name": "owner",
          "type": "address"
        },
        {
          "internalType": "address",
          "name": "spender",
          "type": "address"
        }
      ],
      "name": "allowance",
      "outputs": [
        {
          "internalType": "uint256",
          "name": "",
          "type": "uint256"
        }
      ],
      "stateMutability": "view",
      "type": "function"
    },
    {
      "inputs": [
        {
          "internalType": "address",
          "name": "spender",
          "type": "address"
        },
        {
          "internalType": "uint256",
          "name": "amount",
          "type": "uint256"
        }
      ],
      "name": "approve",
      "outputs": [
        {
          "internalType": "bool",
          "name": "",
          "type": "bool"
        }
      ],
      "stateMutability": "nonpayable",
      "type": "function"
    },
    {
      "inputs": [
        {
          "internalType": "address",
          "name": "account",
          "type": "address"
        }
      ],
      "name": "balanceOf",
      "outputs": [
        {
          "internalType": "uint256",
          "name": "",
          "type": "uint256"
        }
      ],
      "stateMutability": "view",
      "type": "function"
    },
    {
      "inputs": [],
      "name": "decimals",
      "outputs": [
        {
          "internalType": "uint8",
          "name": "",
          "type": "uint8"
        }
      ],
      "stateMutability": "view",
      "type": "function"
    },
    {
      "inputs": [
        {
          "internalType": "address",
          "name": "spender",
          "type": "address"
        },
        {
          "internalType": "uint256",
          "name": "subtractedValue",
          "type": "uint256"
        }
      ],
      "name": "decreaseAllowance",
      "outputs": [
        {
          "internalType": "bool",
          "name": "",
          "type": "bool"
        }
      ],
      "stateMutability": "nonpayable",
      "type": "function"
    },
    {
      "inputs": [],
      "name": "getPrice",
      "outputs": [
        {
          "internalType": "uint256",
          "name": "",
          "type": "uint256"
        }
      ],
      "stateMutability": "view",
      "type": "function"
    },
    {
      "inputs": [
        {
          "internalType": "address",
          "name": "spender",
          "type": "address"
        },
        {
          "internalType": "uint256",
          "name": "addedValue",
          "type": "uint256"
        }
      ],
      "name": "increaseAllowance",
      "outputs": [
        {
          "internalType": "bool",
          "name": "",
          "type": "bool"
        }
      ],
      "stateMutability": "nonpayable",
      "type": "function"
    },
    {
      "inputs": [
        {
          "components": [
            {
              "internalType": "contract IERC20",
              "name": "token",
              "type": "address"
            },
            {
              "internalType": "uint256",
              "name": "amount",
              "type": "uint256"
            },
            {
              "internalType": "uint256",
              "name": "nonce",
              "type": "uint256"
            },
            {
              "internalType": "uint256",
              "name": "deadline",
              "type": "uint256"
            },
            {
              "internalType": "bytes",
              "name": "signature",
              "type": "bytes"
            }
          ],
          "internalType": "struct IPermit2.Permit2Buy",
          "name": "buyOp_",
          "type": "tuple"
        }
      ],
      "name": "issue",
      "outputs": [],
      "stateMutability": "payable",
      "type": "function"
    },
    {
      "inputs": [],
      "name": "name",
      "outputs": [
        {
          "internalType": "string",
          "name": "",
          "type": "string"
        }
      ],
      "stateMutability": "view",
      "type": "function"
    },
    {
      "inputs": [],
      "name": "symbol",
      "outputs": [
        {
          "internalType": "string",
          "name": "",
          "type": "string"
        }
      ],
      "stateMutability": "view",
      "type": "function"
    },
    {
      "inputs": [],
      "name": "totalSupply",
      "outputs": [
        {
          "internalType": "uint256",
          "name": "",
          "type": "uint256"
        }
      ],
      "stateMutability": "view",
      "type": "function"
    },
    {
      "inputs": [
        {
          "internalType": "address",
          "name": "to",
          "type": "address"
        },
        {
          "internalType": "uint256",
          "name": "amount",
          "type": "uint256"
        }
      ],
      "name": "transfer",
      "outputs": [
        {
          "internalType": "bool",
          "name": "",
          "type": "bool"
        }
      ],
      "stateMutability": "nonpayable",
      "type": "function"
    },
    {
      "inputs": [
        {
          "internalType": "address",
          "name": "from",
          "type": "address"
        },
        {
          "internalType": "address",
          "name": "to",
          "type": "address"
        },
        {
          "internalType": "uint256",
          "name": "amount",
          "type": "uint256"
        }
      ],
      "name": "transferFrom",
      "outputs": [
        {
          "internalType": "bool",
          "name": "",
          "type": "bool"
        }
      ],
      "stateMutability": "nonpayable",
      "type": "function"
    }
  ],
  "bytecode": {
    "object": "0x60c0604052600580546001600160a01b031990811673ff970a61a04b1ca14834a43f5de4533ebddb5cc81790915560068054821673fd086bc7cd5c481dcc9c85ebe478a1c0b69fcbb9179055600780548216738e0b8c8bb9db49a46697f3a5bb8a308e744821d21790557382af49447d8a07e3bd95bd0d56f35241523fbab160805260088054821673239e14a19dff93a17339dcc444f74406c17f8e6717905560098054821673960ea3e3c7fb317332d990873d354e18d7645590179055600a8054909116737d1f13dd05e6b0673dc3d0bfa14d40a74cfa3ef21790556e22d473030f116ddee9f6b43ac78ba360a052348015620000fc57600080fd5b506040518060400160405280600a81526020016908adccae4cef2408aa8960b31b815250604051806040016040528060048152602001630ca8aa8960e31b81525081600390816200014e91906200020b565b5060046200015d82826200020b565b505050620002d7565b634e487b7160e01b600052604160045260246000fd5b600181811c908216806200019157607f821691505b602082108103620001b257634e487b7160e01b600052602260045260246000fd5b50919050565b601f8211156200020657600081815260208120601f850160051c81016020861015620001e15750805b601f850160051c820191505b818110156200020257828155600101620001ed565b5050505b505050565b81516001600160401b0381111562000227576200022762000166565b6200023f816200023884546200017c565b84620001b8565b602080601f8311600181146200027757600084156200025e5750858301515b600019600386901b1c1916600185901b17855562000202565b600085815260208120601f198616915b82811015620002a85788860151825594840194600190910190840162000287565b5085821015620002c75787850151600019600388901b60f8161c191681555b5050505050600190811b01905550565b60805160a0516110d5620002fa6000396000610a060152600050506110d56000f3fe6080604052600436106100c25760003560e01c8063395093511161007f57806398d5fdca1161005957806398d5fdca146101fd578063a457c2d714610212578063a9059cbb14610232578063dd62ed3e1461025257600080fd5b8063395093511461019257806370a08231146101b257806395d89b41146101e857600080fd5b806306fdde03146100c7578063095ea7b3146100f257806318160ddd1461012257806323b872dd14610141578063313ce5671461016157806331e8cb041461017d575b600080fd5b3480156100d357600080fd5b506100dc610272565b6040516100e99190610c68565b60405180910390f35b3480156100fe57600080fd5b5061011261010d366004610c93565b610304565b60405190151581526020016100e9565b34801561012e57600080fd5b506002545b6040519081526020016100e9565b34801561014d57600080fd5b5061011261015c366004610cbf565b61031e565b34801561016d57600080fd5b50604051601281526020016100e9565b61019061018b366004610d70565b610342565b005b34801561019e57600080fd5b506101126101ad366004610c93565b6104d0565b3480156101be57600080fd5b506101336101cd366004610e64565b6001600160a01b031660009081526020819052604090205490565b3480156101f457600080fd5b506100dc6104f2565b34801561020957600080fd5b50610133610501565b34801561021e57600080fd5b5061011261022d366004610c93565b610574565b34801561023e57600080fd5b5061011261024d366004610c93565b6105ef565b34801561025e57600080fd5b5061013361026d366004610e81565b6105fd565b60606003805461028190610eba565b80601f01602080910402602001604051908101604052809291908181526020018280546102ad90610eba565b80156102fa5780601f106102cf576101008083540402835291602001916102fa565b820191906000526020600020905b8154815290600101906020018083116102dd57829003601f168201915b5050505050905090565b600033610312818585610628565b60019150505b92915050565b60003361032c85828561074c565b6103378585856107c6565b506001949350505050565b6020810151600081900361036957604051634bf29fe960e01b815260040160405180910390fd5b600064e8d4a51000610379610501565b6103839084610f0a565b61038d9190610f21565b83516040516370a0823160e01b81523360048201529192506000916001600160a01b03909116906370a0823190602401602060405180830381865afa1580156103da573d6000803e3d6000fd5b505050506040513d601f19601f820116820180604052508101906103fe9190610f43565b90508181101561042957604051633dcd925d60e11b8152600481018290526024015b60405180910390fd5b60006104ab83600a60009054906101000a90046001600160a01b03166001600160a01b031663a5a410316040518163ffffffff1660e01b8152600401602060405180830381865afa158015610482573d6000803e3d6000fd5b505050506040513d601f19601f820116820180604052508101906104a69190610f43565b61096a565b91506104b990508184610f5c565b60208601526104c985848361099d565b5050505050565b6000336103128185856104e383836105fd565b6104ed9190610f5c565b610628565b60606004805461028190610eba565b600a546040805163cab0f33560e01b815290516000926001600160a01b03169163cab0f3359160048083019260209291908290030181865afa15801561054b573d6000803e3d6000fd5b505050506040513d601f19601f8201168201806040525081019061056f9190610f43565b905090565b6000338161058282866105fd565b9050838110156105e25760405162461bcd60e51b815260206004820152602560248201527f45524332303a2064656372656173656420616c6c6f77616e63652062656c6f77604482015264207a65726f60d81b6064820152608401610420565b6103378286868403610628565b6000336103128185856107c6565b6001600160a01b03918216600090815260016020908152604080832093909416825291909152205490565b6001600160a01b03831661068a5760405162461bcd60e51b8152602060048201526024808201527f45524332303a20617070726f76652066726f6d20746865207a65726f206164646044820152637265737360e01b6064820152608401610420565b6001600160a01b0382166106eb5760405162461bcd60e51b815260206004820152602260248201527f45524332303a20617070726f766520746f20746865207a65726f206164647265604482015261737360f01b6064820152608401610420565b6001600160a01b0383811660008181526001602090815260408083209487168084529482529182902085905590518481527f8c5be1e5ebec7d5bd14f71427d1e84f3dd0314c0f7b2291e5b200ac8c7c3b925910160405180910390a3505050565b600061075884846105fd565b905060001981146107c057818110156107b35760405162461bcd60e51b815260206004820152601d60248201527f45524332303a20696e73756666696369656e7420616c6c6f77616e63650000006044820152606401610420565b6107c08484848403610628565b50505050565b6001600160a01b03831661082a5760405162461bcd60e51b815260206004820152602560248201527f45524332303a207472616e736665722066726f6d20746865207a65726f206164604482015264647265737360d81b6064820152608401610420565b6001600160a01b03821661088c5760405162461bcd60e51b815260206004820152602360248201527f45524332303a207472616e7366657220746f20746865207a65726f206164647260448201526265737360e81b6064820152608401610420565b6001600160a01b038316600090815260208190526040902054818110156109045760405162461bcd60e51b815260206004820152602660248201527f45524332303a207472616e7366657220616d6f756e7420657863656564732062604482015265616c616e636560d01b6064820152608401610420565b6001600160a01b03848116600081815260208181526040808320878703905593871680835291849020805487019055925185815290927fddf252ad1be2c89b69c2b068fc378daa952ba7f163c4a11628f55a4df523b3ef910160405180910390a36107c0565b60008060006109798585610a7b565b6109839086610f6f565b905060006109918287610f6f565b96919550909350505050565b602083015183516000906109b2908486610a9b565b905060006040518060600160405280838152602001876040015181526020018760600151815250905060006109e78587610b31565b608088015160405163edd9444b60e01b81529192506001600160a01b037f0000000000000000000000000000000000000000000000000000000000000000169163edd9444b91610a409186918691339190600401610fd1565b600060405180830381600087803b158015610a5a57600080fd5b505af1158015610a6e573d6000803e3d6000fd5b5050505050505050505050565b6000610a8a8383612710610bd2565b610a949084610f6f565b9392505050565b6040805160028082526060828101909352816020015b6040805180820190915260008082526020820152815260200190600190039081610ab1579050509050610ae48484610bf1565b81600081518110610af757610af7611089565b6020026020010181905250610b0c8483610bf1565b81600181518110610b1f57610b1f611089565b60200260200101819052509392505050565b6040805160028082526060828101909352816020015b6040805180820190915260008082526020820152815260200190600190039081610b47575050600a54909150610b86906001600160a01b031684610bf1565b81600081518110610b9957610b99611089565b6020026020010181905250610bae3083610bf1565b81600181518110610bc157610bc1611089565b602002602001018190525092915050565b828202811515841585830485141716610bea57600080fd5b0492915050565b604080518082018252600080825260209182015281518083019092526001600160a01b039390931681529182015290565b6000815180845260005b81811015610c4857602081850181015186830182015201610c2c565b506000602082860101526020601f19601f83011685010191505092915050565b602081526000610a946020830184610c22565b6001600160a01b0381168114610c9057600080fd5b50565b60008060408385031215610ca657600080fd5b8235610cb181610c7b565b946020939093013593505050565b600080600060608486031215610cd457600080fd5b8335610cdf81610c7b565b92506020840135610cef81610c7b565b929592945050506040919091013590565b634e487b7160e01b600052604160045260246000fd5b60405160a0810167ffffffffffffffff81118282101715610d3957610d39610d00565b60405290565b604051601f8201601f1916810167ffffffffffffffff81118282101715610d6857610d68610d00565b604052919050565b60006020808385031215610d8357600080fd5b823567ffffffffffffffff80821115610d9b57600080fd5b9084019060a08287031215610daf57600080fd5b610db7610d16565b8235610dc281610c7b565b8082525083830135848201526040830135604082015260608301356060820152608083013582811115610df457600080fd5b80840193505086601f840112610e0957600080fd5b823582811115610e1b57610e1b610d00565b610e2d601f8201601f19168601610d3f565b92508083528785828601011115610e4357600080fd5b80858501868501376000908301909401939093526080830152509392505050565b600060208284031215610e7657600080fd5b8135610a9481610c7b565b60008060408385031215610e9457600080fd5b8235610e9f81610c7b565b91506020830135610eaf81610c7b565b809150509250929050565b600181811c90821680610ece57607f821691505b602082108103610eee57634e487b7160e01b600052602260045260246000fd5b50919050565b634e487b7160e01b600052601160045260246000fd5b808202811582820484141761031857610318610ef4565b600082610f3e57634e487b7160e01b600052601260045260246000fd5b500490565b600060208284031215610f5557600080fd5b5051919050565b8082018082111561031857610318610ef4565b8181038181111561031857610318610ef4565b600081518084526020808501945080840160005b83811015610fc657815180516001600160a01b031688528301518388015260409096019590820190600101610f96565b509495945050505050565b60808152600060e082018651606060808501528181518084526101008601915060209350838301925060005b8181101561102d57835180516001600160a01b031684528501518584015292840192604090920191600101610ffd565b50508289015160a0860152604089015160c0860152848103838601526110538189610f82565b9250505061106c60408401866001600160a01b03169052565b828103606084015261107e8185610c22565b979650505050505050565b634e487b7160e01b600052603260045260246000fdfea264697066735822122080f5562be0d26e28a11495278025e08cafc829d36ee0b7d80c5558a1b8444ee164736f6c63430008130033",
    "linkReferences": {}
  },
  "methodIdentifiers": {
    "allowance(address,address)": "dd62ed3e",
    "approve(address,uint256)": "095ea7b3",
    "balanceOf(address)": "70a08231",
    "decimals()": "313ce567",
    "decreaseAllowance(address,uint256)": "a457c2d7",
    "getPrice()": "98d5fdca",
    "increaseAllowance(address,uint256)": "39509351",
    "issue((address,uint256,uint256,uint256,bytes))": "31e8cb04",
    "name()": "06fdde03",
    "symbol()": "95d89b41",
    "totalSupply()": "18160ddd",
    "transfer(address,uint256)": "a9059cbb",
    "transferFrom(address,address,uint256)": "23b872dd"
  },
  "id": 1
}