{
  "abi": [
    {
      "inputs": [],
      "stateMutability": "nonpayable",
      "type": "constructor"
    },
    {
      "inputs": [],
      "name": "Cant_be_zero",
      "type": "error"
    },
    {
      "inputs": [
        {
          "internalType": "uint256",
          "name": "buyerBalance",
          "type": "uint256"
        }
      ],
      "name": "Not_enough_funds",
      "type": "error"
    },
    {
      "anonymous": false,
      "inputs": [
        {
          "indexed": true,
          "internalType": "address",
          "name": "owner",
          "type": "address"
        },
        {
          "indexed": true,
          "internalType": "address",
          "name": "spender",
          "type": "address"
        },
        {
          "indexed": false,
          "internalType": "uint256",
          "name": "value",
          "type": "uint256"
        }
      ],
      "name": "Approval",
      "type": "event"
    },
    {
      "anonymous": false,
      "inputs": [
        {
          "indexed": true,
          "internalType": "address",
          "name": "from",
          "type": "address"
        },
        {
          "indexed": true,
          "internalType": "address",
          "name": "to",
          "type": "address"
        },
        {
          "indexed": false,
          "internalType": "uint256",
          "name": "value",
          "type": "uint256"
        }
      ],
      "name": "Transfer",
      "type": "event"
    },
    {
      "inputs": [
        {
          "internalType": "address",
          "name": "owner",
          "type": "address"
        },
        {
          "internalType": "address",
          "name": "spender",
          "type": "address"
        }
      ],
      "name": "allowance",
      "outputs": [
        {
          "internalType": "uint256",
          "name": "",
          "type": "uint256"
        }
      ],
      "stateMutability": "view",
      "type": "function"
    },
    {
      "inputs": [
        {
          "internalType": "address",
          "name": "spender",
          "type": "address"
        },
        {
          "internalType": "uint256",
          "name": "amount",
          "type": "uint256"
        }
      ],
      "name": "approve",
      "outputs": [
        {
          "internalType": "bool",
          "name": "",
          "type": "bool"
        }
      ],
      "stateMutability": "nonpayable",
      "type": "function"
    },
    {
      "inputs": [
        {
          "internalType": "address",
          "name": "account",
          "type": "address"
        }
      ],
      "name": "balanceOf",
      "outputs": [
        {
          "internalType": "uint256",
          "name": "",
          "type": "uint256"
        }
      ],
      "stateMutability": "view",
      "type": "function"
    },
    {
      "inputs": [],
      "name": "decimals",
      "outputs": [
        {
          "internalType": "uint8",
          "name": "",
          "type": "uint8"
        }
      ],
      "stateMutability": "view",
      "type": "function"
    },
    {
      "inputs": [
        {
          "internalType": "address",
          "name": "spender",
          "type": "address"
        },
        {
          "internalType": "uint256",
          "name": "subtractedValue",
          "type": "uint256"
        }
      ],
      "name": "decreaseAllowance",
      "outputs": [
        {
          "internalType": "bool",
          "name": "",
          "type": "bool"
        }
      ],
      "stateMutability": "nonpayable",
      "type": "function"
    },
    {
      "inputs": [],
      "name": "getPrice",
      "outputs": [
        {
          "internalType": "uint256",
          "name": "",
          "type": "uint256"
        }
      ],
      "stateMutability": "view",
      "type": "function"
    },
    {
      "inputs": [
        {
          "internalType": "address",
          "name": "spender",
          "type": "address"
        },
        {
          "internalType": "uint256",
          "name": "addedValue",
          "type": "uint256"
        }
      ],
      "name": "increaseAllowance",
      "outputs": [
        {
          "internalType": "bool",
          "name": "",
          "type": "bool"
        }
      ],
      "stateMutability": "nonpayable",
      "type": "function"
    },
    {
      "inputs": [
        {
          "components": [
            {
              "internalType": "contract IERC20",
              "name": "token",
              "type": "address"
            },
            {
              "internalType": "uint256",
              "name": "amount",
              "type": "uint256"
            },
            {
              "internalType": "uint256",
              "name": "nonce",
              "type": "uint256"
            },
            {
              "internalType": "uint256",
              "name": "deadline",
              "type": "uint256"
            },
            {
              "internalType": "bytes",
              "name": "signature",
              "type": "bytes"
            }
          ],
          "internalType": "struct IPermit2.Permit2Buy",
          "name": "buyOp_",
          "type": "tuple"
        }
      ],
      "name": "issue",
      "outputs": [],
      "stateMutability": "payable",
      "type": "function"
    },
    {
      "inputs": [],
      "name": "name",
      "outputs": [
        {
          "internalType": "string",
          "name": "",
          "type": "string"
        }
      ],
      "stateMutability": "view",
      "type": "function"
    },
    {
      "inputs": [],
      "name": "symbol",
      "outputs": [
        {
          "internalType": "string",
          "name": "",
          "type": "string"
        }
      ],
      "stateMutability": "view",
      "type": "function"
    },
    {
      "inputs": [],
      "name": "totalSupply",
      "outputs": [
        {
          "internalType": "uint256",
          "name": "",
          "type": "uint256"
        }
      ],
      "stateMutability": "view",
      "type": "function"
    },
    {
      "inputs": [
        {
          "internalType": "address",
          "name": "to",
          "type": "address"
        },
        {
          "internalType": "uint256",
          "name": "amount",
          "type": "uint256"
        }
      ],
      "name": "transfer",
      "outputs": [
        {
          "internalType": "bool",
          "name": "",
          "type": "bool"
        }
      ],
      "stateMutability": "nonpayable",
      "type": "function"
    },
    {
      "inputs": [
        {
          "internalType": "address",
          "name": "from",
          "type": "address"
        },
        {
          "internalType": "address",
          "name": "to",
          "type": "address"
        },
        {
          "internalType": "uint256",
          "name": "amount",
          "type": "uint256"
        }
      ],
      "name": "transferFrom",
      "outputs": [
        {
          "internalType": "bool",
          "name": "",
          "type": "bool"
        }
      ],
      "stateMutability": "nonpayable",
      "type": "function"
    }
  ],
  "bytecode": {
    "object": "0x60a0604052600580546001600160a01b031990811673ff970a61a04b1ca14834a43f5de4533ebddb5cc81790915560068054821673fd086bc7cd5c481dcc9c85ebe478a1c0b69fcbb917905560078054909116737d1f13dd05e6b0673dc3d0bfa14d40a74cfa3ef21790556e22d473030f116ddee9f6b43ac78ba36080523480156200008a57600080fd5b506040518060400160405280600a81526020016908adccae4cef2408aa8960b31b815250604051806040016040528060048152602001630ca8aa8960e31b8152508160039081620000dc919062000199565b506004620000eb828262000199565b50505062000265565b634e487b7160e01b600052604160045260246000fd5b600181811c908216806200011f57607f821691505b6020821081036200014057634e487b7160e01b600052602260045260246000fd5b50919050565b601f8211156200019457600081815260208120601f850160051c810160208610156200016f5750805b601f850160051c820191505b8181101562000190578281556001016200017b565b5050505b505050565b81516001600160401b03811115620001b557620001b5620000f4565b620001cd81620001c684546200010a565b8462000146565b602080601f831160018114620002055760008415620001ec5750858301515b600019600386901b1c1916600185901b17855562000190565b600085815260208120601f198616915b82811015620002365788860151825594840194600190910190840162000215565b5085821015620002555787850151600019600388901b60f8161c191681555b5050505050600190811b01905550565b608051611207620002816000396000610a8401526112076000f3fe6080604052600436106100c25760003560e01c8063395093511161007f57806398d5fdca1161005957806398d5fdca146101fd578063a457c2d714610212578063a9059cbb14610232578063dd62ed3e1461025257600080fd5b8063395093511461019257806370a08231146101b257806395d89b41146101e857600080fd5b806306fdde03146100c7578063095ea7b3146100f257806318160ddd1461012257806323b872dd14610141578063313ce5671461016157806331e8cb041461017d575b600080fd5b3480156100d357600080fd5b506100dc610272565b6040516100e99190610d9a565b60405180910390f35b3480156100fe57600080fd5b5061011261010d366004610dc5565b610304565b60405190151581526020016100e9565b34801561012e57600080fd5b506002545b6040519081526020016100e9565b34801561014d57600080fd5b5061011261015c366004610df1565b61031e565b34801561016d57600080fd5b50604051601281526020016100e9565b61019061018b366004610ea2565b610342565b005b34801561019e57600080fd5b506101126101ad366004610dc5565b61053f565b3480156101be57600080fd5b506101336101cd366004610f96565b6001600160a01b031660009081526020819052604090205490565b3480156101f457600080fd5b506100dc610561565b34801561020957600080fd5b50610133610570565b34801561021e57600080fd5b5061011261022d366004610dc5565b6105e3565b34801561023e57600080fd5b5061011261024d366004610dc5565b61065e565b34801561025e57600080fd5b5061013361026d366004610fb3565b61066c565b60606003805461028190610fec565b80601f01602080910402602001604051908101604052809291908181526020018280546102ad90610fec565b80156102fa5780601f106102cf576101008083540402835291602001916102fa565b820191906000526020600020905b8154815290600101906020018083116102dd57829003601f168201915b5050505050905090565b600033610312818585610697565b60019150505b92915050565b60003361032c8582856107bb565b610337858585610835565b506001949350505050565b6020810151600081900361036957604051634bf29fe960e01b815260040160405180910390fd5b600064e8d4a51000610379610570565b610383908461103c565b61038d9190611053565b83516040516370a0823160e01b81523360048201529192506000916001600160a01b03909116906370a0823190602401602060405180830381865afa1580156103da573d6000803e3d6000fd5b505050506040513d601f19601f820116820180604052508101906103fe9190611075565b90508181101561042957604051633dcd925d60e11b8152600481018290526024015b60405180910390fd5b60006104ab83600760009054906101000a90046001600160a01b03166001600160a01b031663a5a410316040518163ffffffff1660e01b8152600401602060405180830381865afa158015610482573d6000803e3d6000fd5b505050506040513d601f19601f820116820180604052508101906104a69190611075565b6109d9565b91506104b99050818461108e565b60208601526104c9858483610a0c565b6104d33385610af8565b60075460405163120da16d60e01b815260048101839052600060248201526001600160a01b039091169063120da16d90604401600060405180830381600087803b15801561052057600080fd5b505af1158015610534573d6000803e3d6000fd5b505050505050505050565b600033610312818585610552838361066c565b61055c919061108e565b610697565b60606004805461028190610fec565b6007546040805163cab0f33560e01b815290516000926001600160a01b03169163cab0f3359160048083019260209291908290030181865afa1580156105ba573d6000803e3d6000fd5b505050506040513d601f19601f820116820180604052508101906105de9190611075565b905090565b600033816105f1828661066c565b9050838110156106515760405162461bcd60e51b815260206004820152602560248201527f45524332303a2064656372656173656420616c6c6f77616e63652062656c6f77604482015264207a65726f60d81b6064820152608401610420565b6103378286868403610697565b600033610312818585610835565b6001600160a01b03918216600090815260016020908152604080832093909416825291909152205490565b6001600160a01b0383166106f95760405162461bcd60e51b8152602060048201526024808201527f45524332303a20617070726f76652066726f6d20746865207a65726f206164646044820152637265737360e01b6064820152608401610420565b6001600160a01b03821661075a5760405162461bcd60e51b815260206004820152602260248201527f45524332303a20617070726f766520746f20746865207a65726f206164647265604482015261737360f01b6064820152608401610420565b6001600160a01b0383811660008181526001602090815260408083209487168084529482529182902085905590518481527f8c5be1e5ebec7d5bd14f71427d1e84f3dd0314c0f7b2291e5b200ac8c7c3b925910160405180910390a3505050565b60006107c7848461066c565b9050600019811461082f57818110156108225760405162461bcd60e51b815260206004820152601d60248201527f45524332303a20696e73756666696369656e7420616c6c6f77616e63650000006044820152606401610420565b61082f8484848403610697565b50505050565b6001600160a01b0383166108995760405162461bcd60e51b815260206004820152602560248201527f45524332303a207472616e736665722066726f6d20746865207a65726f206164604482015264647265737360d81b6064820152608401610420565b6001600160a01b0382166108fb5760405162461bcd60e51b815260206004820152602360248201527f45524332303a207472616e7366657220746f20746865207a65726f206164647260448201526265737360e81b6064820152608401610420565b6001600160a01b038316600090815260208190526040902054818110156109735760405162461bcd60e51b815260206004820152602660248201527f45524332303a207472616e7366657220616d6f756e7420657863656564732062604482015265616c616e636560d01b6064820152608401610420565b6001600160a01b03848116600081815260208181526040808320878703905593871680835291849020805487019055925185815290927fddf252ad1be2c89b69c2b068fc378daa952ba7f163c4a11628f55a4df523b3ef910160405180910390a361082f565b60008060006109e88585610bb7565b6109f290866110a1565b90506000610a0082876110a1565b96919550909350505050565b8251600090610a25906001600160a01b03168385610bd7565b60408051606080820183528382528783015160208301528701519181019190915260075491925090600090610a65906001600160a01b0316308688610c6d565b608087015160405163edd9444b60e01b81529192506001600160a01b037f0000000000000000000000000000000000000000000000000000000000000000169163edd9444b91610abe9186918691339190600401611103565b600060405180830381600087803b158015610ad857600080fd5b505af1158015610aec573d6000803e3d6000fd5b50505050505050505050565b6001600160a01b038216610b4e5760405162461bcd60e51b815260206004820152601f60248201527f45524332303a206d696e7420746f20746865207a65726f2061646472657373006044820152606401610420565b8060026000828254610b60919061108e565b90915550506001600160a01b038216600081815260208181526040808320805486019055518481527fddf252ad1be2c89b69c2b068fc378daa952ba7f163c4a11628f55a4df523b3ef910160405180910390a35050565b6000610bc68383612710610d04565b610bd090846110a1565b9392505050565b6040805160028082526060828101909352816020015b6040805180820190915260008082526020820152815260200190600190039081610bed579050509050610c208484610d23565b81600081518110610c3357610c336111bb565b6020026020010181905250610c488483610d23565b81600181518110610c5b57610c5b6111bb565b60200260200101819052509392505050565b6040805160028082526060828101909352816020015b6040805180820190915260008082526020820152815260200190600190039081610c83579050509050610cb68584610d23565b81600081518110610cc957610cc96111bb565b6020026020010181905250610cde8483610d23565b81600181518110610cf157610cf16111bb565b6020026020010181905250949350505050565b828202811515841585830485141716610d1c57600080fd5b0492915050565b604080518082018252600080825260209182015281518083019092526001600160a01b039390931681529182015290565b6000815180845260005b81811015610d7a57602081850181015186830182015201610d5e565b506000602082860101526020601f19601f83011685010191505092915050565b602081526000610bd06020830184610d54565b6001600160a01b0381168114610dc257600080fd5b50565b60008060408385031215610dd857600080fd5b8235610de381610dad565b946020939093013593505050565b600080600060608486031215610e0657600080fd5b8335610e1181610dad565b92506020840135610e2181610dad565b929592945050506040919091013590565b634e487b7160e01b600052604160045260246000fd5b60405160a0810167ffffffffffffffff81118282101715610e6b57610e6b610e32565b60405290565b604051601f8201601f1916810167ffffffffffffffff81118282101715610e9a57610e9a610e32565b604052919050565b60006020808385031215610eb557600080fd5b823567ffffffffffffffff80821115610ecd57600080fd5b9084019060a08287031215610ee157600080fd5b610ee9610e48565b8235610ef481610dad565b8082525083830135848201526040830135604082015260608301356060820152608083013582811115610f2657600080fd5b80840193505086601f840112610f3b57600080fd5b823582811115610f4d57610f4d610e32565b610f5f601f8201601f19168601610e71565b92508083528785828601011115610f7557600080fd5b80858501868501376000908301909401939093526080830152509392505050565b600060208284031215610fa857600080fd5b8135610bd081610dad565b60008060408385031215610fc657600080fd5b8235610fd181610dad565b91506020830135610fe181610dad565b809150509250929050565b600181811c9082168061100057607f821691505b60208210810361102057634e487b7160e01b600052602260045260246000fd5b50919050565b634e487b7160e01b600052601160045260246000fd5b808202811582820484141761031857610318611026565b60008261107057634e487b7160e01b600052601260045260246000fd5b500490565b60006020828403121561108757600080fd5b5051919050565b8082018082111561031857610318611026565b8181038181111561031857610318611026565b600081518084526020808501945080840160005b838110156110f857815180516001600160a01b0316885283015183880152604090960195908201906001016110c8565b509495945050505050565b60808152600060e082018651606060808501528181518084526101008601915060209350838301925060005b8181101561115f57835180516001600160a01b03168452850151858401529284019260409092019160010161112f565b50508289015160a0860152604089015160c08601528481038386015261118581896110b4565b9250505061119e60408401866001600160a01b03169052565b82810360608401526111b08185610d54565b979650505050505050565b634e487b7160e01b600052603260045260246000fdfea2646970667358221220f8509f63107d22ad04bf711c5b8a248e5a615e3eb143dcefcb9ff9f609121be764736f6c63430008130033",
    "linkReferences": {}
  },
  "methodIdentifiers": {
    "allowance(address,address)": "dd62ed3e",
    "approve(address,uint256)": "095ea7b3",
    "balanceOf(address)": "70a08231",
    "decimals()": "313ce567",
    "decreaseAllowance(address,uint256)": "a457c2d7",
    "getPrice()": "98d5fdca",
    "increaseAllowance(address,uint256)": "39509351",
    "issue((address,uint256,uint256,uint256,bytes))": "31e8cb04",
    "name()": "06fdde03",
    "symbol()": "95d89b41",
    "totalSupply()": "18160ddd",
    "transfer(address,uint256)": "a9059cbb",
    "transferFrom(address,address,uint256)": "23b872dd"
  },
  "id": 1
}