{
  "abi": [
    {
      "anonymous": false,
      "inputs": [
        {
          "indexed": false,
          "internalType": "address",
          "name": "newOracle",
          "type": "address"
        },
        {
          "indexed": false,
          "internalType": "bytes32",
          "name": "id",
          "type": "bytes32"
        }
      ],
      "name": "OracleAdded",
      "type": "event"
    },
    {
      "anonymous": false,
      "inputs": [
        {
          "indexed": false,
          "internalType": "address",
          "name": "removedEl",
          "type": "address"
        }
      ],
      "name": "OracleRemoved",
      "type": "event"
    },
    {
      "inputs": [
        {
          "internalType": "address",
          "name": "newOracle_",
          "type": "address"
        },
        {
          "internalType": "bytes32",
          "name": "id_",
          "type": "bytes32"
        }
      ],
      "name": "addOracle",
      "outputs": [],
      "stateMutability": "nonpayable",
      "type": "function"
    },
    {
      "inputs": [
        {
          "internalType": "address",
          "name": "toRemove_",
          "type": "address"
        }
      ],
      "name": "removeOracle",
      "outputs": [],
      "stateMutability": "nonpayable",
      "type": "function"
    }
  ],
  "bytecode": {
    "object": "0x608060405234801561001057600080fd5b50610b71806100206000396000f3fe608060405234801561001057600080fd5b50600436106100365760003560e01c80637e790d311461003b578063fdc85fc414610050575b600080fd5b61004e610049366004610739565b610063565b005b61004e61005e366004610763565b61014b565b61006b6102ff565b60408051606084811b6bffffffffffffffffffffffff191660208301529181018390526000910160408051808303601f190181529181526000848152604260205290812080546001600160a01b0319166001600160a01b0387161790556043805460018101825591529091507f9690ad99d6ce244efa8a0f6c2d04036d3b33a9474db32a71b71135c69510279301610103828261081d565b50604080516001600160a01b0385168152602081018490527f97b3208d0b8c03f8a98ead6ec962db6c8a6e10532a6491b96502ad1afbcd5a61910160405180910390a1505050565b6101536102ff565b6040516001600160a01b038216602482015260009060440160408051601f198184030181529190526020810180516001600160e01b03166301f2301560e71b17905290506101a1308261038d565b90506000818060200190518101906101b991906108dd565b600081815260426020526040812080546001600160a01b03191690559091505b6043548110156102f95760008060430182815481106101fa576101fa6108f6565b90600052602060002001805461020f90610794565b80601f016020809104026020016040519081016040528092919081815260200182805461023b90610794565b80156102885780601f1061025d57610100808354040283529160200191610288565b820191906000526020600020905b81548152906001019060200180831161026b57829003601f168201915b505050604083015192935050508381036102e4576102a76043836103da565b6040516001600160a01b03871681527f9c8e7d83025bef8a04c664b2f753f64b8814bdb7e27291d7e50935f18cc3c7129060200160405180910390a15b505080806102f190610922565b9150506101d9565b50505050565b7fc8fcad8db84d3cc18b4c41d551ea0ee66dd599cde068d998e57d5e09332c131c600401546001600160a01b0316331461038b5760405162461bcd60e51b815260206004820152602260248201527f4c69624469616d6f6e643a204d75737420626520636f6e7472616374206f776e60448201526132b960f11b60648201526084015b60405180910390fd5b565b60606103d1838360006040518060400160405280601e81526020017f416464726573733a206c6f772d6c6576656c2063616c6c206661696c6564000081525061054c565b90505b92915050565b6000805b83548110156104735760008482815481106103fb576103fb6108f6565b90600052602060002001604051602001610415919061093b565b60405160208183030381529060405280519060200120905060008460405160200161044091906109d5565b604051602081830303815290604052805190602001209050808203610469578293505050610473565b50506001016103de565b50805b8354610484906001906109f1565b8110156104e25783610497826001610a04565b815481106104a7576104a76108f6565b906000526020600020018482815481106104c3576104c36108f6565b9060005260206000200190816104d99190610a17565b50600101610476565b50825483906104f3906001906109f1565b81548110610503576105036108f6565b90600052602060002001600061051991906106c7565b8280548061052957610529610af2565b60019003818190600052602060002001600061054591906106c7565b9055505050565b6060824710156105ad5760405162461bcd60e51b815260206004820152602660248201527f416464726573733a20696e73756666696369656e742062616c616e636520666f6044820152651c8818d85b1b60d21b6064820152608401610382565b600080866001600160a01b031685876040516105c991906109d5565b60006040518083038185875af1925050503d8060008114610606576040519150601f19603f3d011682016040523d82523d6000602084013e61060b565b606091505b509150915061061c87838387610629565b925050505b949350505050565b60608315610698578251600003610691576001600160a01b0385163b6106915760405162461bcd60e51b815260206004820152601d60248201527f416464726573733a2063616c6c20746f206e6f6e2d636f6e74726163740000006044820152606401610382565b5081610621565b61062183838151156106ad5781518083602001fd5b8060405162461bcd60e51b81526004016103829190610b08565b5080546106d390610794565b6000825580601f106106e3575050565b601f0160209004906000526020600020908101906107019190610704565b50565b5b808211156107195760008155600101610705565b5090565b80356001600160a01b038116811461073457600080fd5b919050565b6000806040838503121561074c57600080fd5b6107558361071d565b946020939093013593505050565b60006020828403121561077557600080fd5b6103d18261071d565b634e487b7160e01b600052604160045260246000fd5b600181811c908216806107a857607f821691505b6020821081036107c857634e487b7160e01b600052602260045260246000fd5b50919050565b601f82111561081857600081815260208120601f850160051c810160208610156107f55750805b601f850160051c820191505b8181101561081457828155600101610801565b5050505b505050565b815167ffffffffffffffff8111156108375761083761077e565b61084b816108458454610794565b846107ce565b602080601f83116001811461088057600084156108685750858301515b600019600386901b1c1916600185901b178555610814565b600085815260208120601f198616915b828110156108af57888601518255948401946001909101908401610890565b50858210156108cd5787850151600019600388901b60f8161c191681555b5050505050600190811b01905550565b6000602082840312156108ef57600080fd5b5051919050565b634e487b7160e01b600052603260045260246000fd5b634e487b7160e01b600052601160045260246000fd5b6000600182016109345761093461090c565b5060010190565b600080835461094981610794565b600182811680156109615760018114610976576109a5565b60ff19841687528215158302870194506109a5565b8760005260208060002060005b8581101561099c5781548a820152908401908201610983565b50505082870194505b50929695505050505050565b60005b838110156109cc5781810151838201526020016109b4565b50506000910152565b600082516109e78184602087016109b1565b9190910192915050565b818103818111156103d4576103d461090c565b808201808211156103d4576103d461090c565b818103610a22575050565b610a2c8254610794565b67ffffffffffffffff811115610a4457610a4461077e565b610a52816108458454610794565b6000601f821160018114610a865760008315610a6e5750848201545b600019600385901b1c1916600184901b178455610aeb565b600085815260209020601f19841690600086815260209020845b83811015610ac05782860154825560019586019590910190602001610aa0565b5085831015610ade5781850154600019600388901b60f8161c191681555b50505060018360011b0184555b5050505050565b634e487b7160e01b600052603160045260246000fd5b6020815260008251806020840152610b278160408501602087016109b1565b601f01601f1916919091016040019291505056fea264697066735822122056efc6c57fbe2216587b1bbc409527fa9088589c7aad05b6c39e55330302455b64736f6c63430008130033",
    "linkReferences": {}
  },
  "methodIdentifiers": {
    "addOracle(address,bytes32)": "7e790d31",
    "removeOracle(address)": "fdc85fc4"
  },
  "id": 3
}