{
  "abi": [
    {
      "anonymous": false,
      "inputs": [
        {
          "indexed": false,
          "internalType": "address",
          "name": "newOracle",
          "type": "address"
        },
        {
          "indexed": false,
          "internalType": "bytes32",
          "name": "id",
          "type": "bytes32"
        }
      ],
      "name": "OracleAdded",
      "type": "event"
    },
    {
      "anonymous": false,
      "inputs": [
        {
          "indexed": false,
          "internalType": "address",
          "name": "removedEl",
          "type": "address"
        }
      ],
      "name": "OracleRemoved",
      "type": "event"
    },
    {
      "inputs": [
        {
          "internalType": "address",
          "name": "newOracle_",
          "type": "address"
        },
        {
          "internalType": "bytes32",
          "name": "id_",
          "type": "bytes32"
        }
      ],
      "name": "addOracle",
      "outputs": [],
      "stateMutability": "nonpayable",
      "type": "function"
    },
    {
      "inputs": [
        {
          "internalType": "address",
          "name": "toRemove_",
          "type": "address"
        }
      ],
      "name": "removeOracle",
      "outputs": [],
      "stateMutability": "nonpayable",
      "type": "function"
    }
  ],
  "bytecode": {
    "object": "0x608060405234801561001057600080fd5b50610b81806100206000396000f3fe608060405234801561001057600080fd5b50600436106100365760003560e01c80637e790d311461003b578063fdc85fc414610050575b600080fd5b61004e61004936600461074a565b610063565b005b61004e61005e366004610774565b61014b565b61006b6102a3565b60408051606084811b6bffffffffffffffffffffffff191660208301529181018390526000910160408051808303601f190181529181526000848152604260205290812080546001600160a01b0319166001600160a01b0387161790556043805460018101825591529091507f9690ad99d6ce244efa8a0f6c2d04036d3b33a9474db32a71b71135c69510279301610103828261082d565b50604080516001600160a01b0385168152602081018490527f97b3208d0b8c03f8a98ead6ec962db6c8a6e10532a6491b96502ad1afbcd5a61910160405180910390a1505050565b6101536102a3565b600061015e82610331565b600081815260426020526040812080546001600160a01b03191690559091505b60435481101561029e57600080604301828154811061019f5761019f6108ed565b9060005260206000200180546101b4906107a5565b80601f01602080910402602001604051908101604052809291908181526020018280546101e0906107a5565b801561022d5780601f106102025761010080835404028352916020019161022d565b820191906000526020600020905b81548152906001019060200180831161021057829003601f168201915b505050604083015192935050508381036102895761024c60438361039e565b6040516001600160a01b03861681527f9c8e7d83025bef8a04c664b2f753f64b8814bdb7e27291d7e50935f18cc3c7129060200160405180910390a15b5050808061029690610919565b91505061017e565b505050565b7fc8fcad8db84d3cc18b4c41d551ea0ee66dd599cde068d998e57d5e09332c131c600401546001600160a01b0316331461032f5760405162461bcd60e51b815260206004820152602260248201527f4c69624469616d6f6e643a204d75737420626520636f6e7472616374206f776e60448201526132b960f11b60648201526084015b60405180910390fd5b565b6040516001600160a01b0382166024820152600090819060440160408051601f198184030181529190526020810180516001600160e01b03166301f2301560e71b17905290506103813082610510565b9050808060200190518101906103979190610932565b9392505050565b6000805b83548110156104375760008482815481106103bf576103bf6108ed565b906000526020600020016040516020016103d9919061094b565b60405160208183030381529060405280519060200120905060008460405160200161040491906109e5565b60405160208183030381529060405280519060200120905080820361042d578293505050610437565b50506001016103a2565b50805b835461044890600190610a01565b8110156104a6578361045b826001610a14565b8154811061046b5761046b6108ed565b90600052602060002001848281548110610487576104876108ed565b90600052602060002001908161049d9190610a27565b5060010161043a565b50825483906104b790600190610a01565b815481106104c7576104c76108ed565b9060005260206000200160006104dd91906106d8565b828054806104ed576104ed610b02565b60019003818190600052602060002001600061050991906106d8565b9055505050565b6060610554838360006040518060400160405280601e81526020017f416464726573733a206c6f772d6c6576656c2063616c6c206661696c6564000081525061055d565b90505b92915050565b6060824710156105be5760405162461bcd60e51b815260206004820152602660248201527f416464726573733a20696e73756666696369656e742062616c616e636520666f6044820152651c8818d85b1b60d21b6064820152608401610326565b600080866001600160a01b031685876040516105da91906109e5565b60006040518083038185875af1925050503d8060008114610617576040519150601f19603f3d011682016040523d82523d6000602084013e61061c565b606091505b509150915061062d8783838761063a565b925050505b949350505050565b606083156106a95782516000036106a2576001600160a01b0385163b6106a25760405162461bcd60e51b815260206004820152601d60248201527f416464726573733a2063616c6c20746f206e6f6e2d636f6e74726163740000006044820152606401610326565b5081610632565b61063283838151156106be5781518083602001fd5b8060405162461bcd60e51b81526004016103269190610b18565b5080546106e4906107a5565b6000825580601f106106f4575050565b601f0160209004906000526020600020908101906107129190610715565b50565b5b8082111561072a5760008155600101610716565b5090565b80356001600160a01b038116811461074557600080fd5b919050565b6000806040838503121561075d57600080fd5b6107668361072e565b946020939093013593505050565b60006020828403121561078657600080fd5b6105548261072e565b634e487b7160e01b600052604160045260246000fd5b600181811c908216806107b957607f821691505b6020821081036107d957634e487b7160e01b600052602260045260246000fd5b50919050565b601f82111561029e57600081815260208120601f850160051c810160208610156108065750805b601f850160051c820191505b8181101561082557828155600101610812565b505050505050565b815167ffffffffffffffff8111156108475761084761078f565b61085b8161085584546107a5565b846107df565b602080601f83116001811461089057600084156108785750858301515b600019600386901b1c1916600185901b178555610825565b600085815260208120601f198616915b828110156108bf578886015182559484019460019091019084016108a0565b50858210156108dd5787850151600019600388901b60f8161c191681555b5050505050600190811b01905550565b634e487b7160e01b600052603260045260246000fd5b634e487b7160e01b600052601160045260246000fd5b60006001820161092b5761092b610903565b5060010190565b60006020828403121561094457600080fd5b5051919050565b6000808354610959816107a5565b600182811680156109715760018114610986576109b5565b60ff19841687528215158302870194506109b5565b8760005260208060002060005b858110156109ac5781548a820152908401908201610993565b50505082870194505b50929695505050505050565b60005b838110156109dc5781810151838201526020016109c4565b50506000910152565b600082516109f78184602087016109c1565b9190910192915050565b8181038181111561055757610557610903565b8082018082111561055757610557610903565b818103610a32575050565b610a3c82546107a5565b67ffffffffffffffff811115610a5457610a5461078f565b610a628161085584546107a5565b6000601f821160018114610a965760008315610a7e5750848201545b600019600385901b1c1916600184901b178455610afb565b600085815260209020601f19841690600086815260209020845b83811015610ad05782860154825560019586019590910190602001610ab0565b5085831015610aee5781850154600019600388901b60f8161c191681555b50505060018360011b0184555b5050505050565b634e487b7160e01b600052603160045260246000fd5b6020815260008251806020840152610b378160408501602087016109c1565b601f01601f1916919091016040019291505056fea26469706673582212205baac02ea04fbf033bac62ff06ddd237a0d0c0db5b560f400cab0ce07f32485c64736f6c63430008130033",
    "linkReferences": {}
  },
  "methodIdentifiers": {
    "addOracle(address,bytes32)": "7e790d31",
    "removeOracle(address)": "fdc85fc4"
  },
  "id": 4
}