{
  "abi": [
    {
      "anonymous": false,
      "inputs": [
        {
          "indexed": false,
          "internalType": "address",
          "name": "newOracle",
          "type": "address"
        },
        {
          "indexed": false,
          "internalType": "bytes32",
          "name": "id",
          "type": "bytes32"
        }
      ],
      "name": "OracleAdded",
      "type": "event"
    },
    {
      "anonymous": false,
      "inputs": [
        {
          "indexed": false,
          "internalType": "address",
          "name": "removedEl",
          "type": "address"
        }
      ],
      "name": "OracleRemoved",
      "type": "event"
    },
    {
      "inputs": [
        {
          "internalType": "address",
          "name": "newOracle_",
          "type": "address"
        },
        {
          "internalType": "bytes32",
          "name": "id_",
          "type": "bytes32"
        }
      ],
      "name": "addOracle",
      "outputs": [],
      "stateMutability": "nonpayable",
      "type": "function"
    },
    {
      "inputs": [
        {
          "internalType": "bytes32",
          "name": "id_",
          "type": "bytes32"
        }
      ],
      "name": "getOracleAddressById",
      "outputs": [
        {
          "internalType": "address",
          "name": "",
          "type": "address"
        }
      ],
      "stateMutability": "view",
      "type": "function"
    },
    {
      "inputs": [
        {
          "internalType": "address",
          "name": "oracle_",
          "type": "address"
        }
      ],
      "name": "getOracleIdByAddress",
      "outputs": [
        {
          "internalType": "bytes32",
          "name": "",
          "type": "bytes32"
        }
      ],
      "stateMutability": "view",
      "type": "function"
    },
    {
      "inputs": [],
      "name": "getOracles",
      "outputs": [
        {
          "internalType": "address[]",
          "name": "",
          "type": "address[]"
        }
      ],
      "stateMutability": "view",
      "type": "function"
    },
    {
      "inputs": [
        {
          "internalType": "address",
          "name": "toRemove_",
          "type": "address"
        }
      ],
      "name": "removeOracle",
      "outputs": [],
      "stateMutability": "nonpayable",
      "type": "function"
    }
  ],
  "bytecode": {
    "object": "0x608060405234801561001057600080fd5b50610c6f806100206000396000f3fe608060405234801561001057600080fd5b50600436106100575760003560e01c80633bf84b011461005c57806340884c52146100a25780637e790d31146100b7578063f9180a80146100cc578063fdc85fc4146100ed575b600080fd5b61008561006a36600461080c565b6000908152604260205260409020546001600160a01b031690565b6040516001600160a01b0390911681526020015b60405180910390f35b6100aa610100565b6040516100999190610825565b6100ca6100c536600461088e565b610267565b005b6100df6100da3660046108b8565b61034f565b604051908152602001610099565b6100ca6100fb3660046108b8565b610455565b60435460609060008167ffffffffffffffff811115610121576101216108da565b60405190808252806020026020018201604052801561014a578160200160208202803683370190505b50905060005b61015a81846105ad565b156102605760438054829160009183908110610178576101786108f0565b90600052602060002001805461018d90610906565b80601f01602080910402602001604051908101604052809291908181526020018280546101b990610906565b80156102065780601f106101db57610100808354040283529160200191610206565b820191906000526020600020905b8154815290600101906020018083116101e957829003601f168201915b505050505090506000602082015190508060601c85848151811061022c5761022c6108f0565b60200260200101906001600160a01b031690816001600160a01b0316815250505050506102598160010190565b9050610150565b5092915050565b61026f6105b7565b60408051606084811b6bffffffffffffffffffffffff191660208301529181018390526000910160408051808303601f190181529181526000848152604260205290812080546001600160a01b0319166001600160a01b0387161790556043805460018101825591529091507f9690ad99d6ce244efa8a0f6c2d04036d3b33a9474db32a71b71135c69510279301610307828261098e565b50604080516001600160a01b0385168152602081018490527f97b3208d0b8c03f8a98ead6ec962db6c8a6e10532a6491b96502ad1afbcd5a61910160405180910390a1505050565b6043546000906bffffffffffffffffffffffff19606084901b1690825b61037681836105ad565b1561044a57600060438281548110610390576103906108f0565b9060005260206000200180546103a590610906565b80601f01602080910402602001604051908101604052809291908181526020018280546103d190610906565b801561041e5780601f106103f35761010080835404028352916020019161041e565b820191906000526020600020905b81548152906001019060200180831161040157829003601f168201915b5050506020830151929350505080850361044057506040015195945050505050565b505060010161036c565b506000949350505050565b61045d6105b7565b60006104688261034f565b600081815260426020526040812080546001600160a01b03191690559091505b6043548110156105a85760008060430182815481106104a9576104a96108f0565b9060005260206000200180546104be90610906565b80601f01602080910402602001604051908101604052809291908181526020018280546104ea90610906565b80156105375780601f1061050c57610100808354040283529160200191610537565b820191906000526020600020905b81548152906001019060200180831161051a57829003601f168201915b5050506040830151929350505083810361059357610556604383610644565b6040516001600160a01b03861681527f9c8e7d83025bef8a04c664b2f753f64b8814bdb7e27291d7e50935f18cc3c7129060200160405180910390a15b505080806105a090610a64565b915050610488565b505050565b8082105b92915050565b7fc8fcad8db84d3cc18b4c41d551ea0ee66dd599cde068d998e57d5e09332c131c600401546001600160a01b031633146106425760405162461bcd60e51b815260206004820152602260248201527f4c69624469616d6f6e643a204d75737420626520636f6e7472616374206f776e60448201526132b960f11b606482015260840160405180910390fd5b565b6000805b83548110156106dd576000848281548110610665576106656108f0565b9060005260206000200160405160200161067f9190610a7d565b6040516020818303038152906040528051906020012090506000846040516020016106aa9190610af3565b6040516020818303038152906040528051906020012090508082036106d35782935050506106dd565b5050600101610648565b50805b83546106ee90600190610b22565b81101561074c5783610701826001610b35565b81548110610711576107116108f0565b9060005260206000200184828154811061072d5761072d6108f0565b9060005260206000200190816107439190610b48565b506001016106e0565b508254839061075d90600190610b22565b8154811061076d5761076d6108f0565b90600052602060002001600061078391906107b6565b8280548061079357610793610c23565b6001900381819060005260206000200160006107af91906107b6565b9055505050565b5080546107c290610906565b6000825580601f106107d2575050565b601f0160209004906000526020600020908101906107f091906107f3565b50565b5b8082111561080857600081556001016107f4565b5090565b60006020828403121561081e57600080fd5b5035919050565b6020808252825182820181905260009190848201906040850190845b818110156108665783516001600160a01b031683529284019291840191600101610841565b50909695505050505050565b80356001600160a01b038116811461088957600080fd5b919050565b600080604083850312156108a157600080fd5b6108aa83610872565b946020939093013593505050565b6000602082840312156108ca57600080fd5b6108d382610872565b9392505050565b634e487b7160e01b600052604160045260246000fd5b634e487b7160e01b600052603260045260246000fd5b600181811c9082168061091a57607f821691505b60208210810361093a57634e487b7160e01b600052602260045260246000fd5b50919050565b601f8211156105a857600081815260208120601f850160051c810160208610156109675750805b601f850160051c820191505b8181101561098657828155600101610973565b505050505050565b815167ffffffffffffffff8111156109a8576109a86108da565b6109bc816109b68454610906565b84610940565b602080601f8311600181146109f157600084156109d95750858301515b600019600386901b1c1916600185901b178555610986565b600085815260208120601f198616915b82811015610a2057888601518255948401946001909101908401610a01565b5085821015610a3e5787850151600019600388901b60f8161c191681555b5050505050600190811b01905550565b634e487b7160e01b600052601160045260246000fd5b600060018201610a7657610a76610a4e565b5060010190565b6000808354610a8b81610906565b60018281168015610aa35760018114610ab857610ae7565b60ff1984168752821515830287019450610ae7565b8760005260208060002060005b85811015610ade5781548a820152908401908201610ac5565b50505082870194505b50929695505050505050565b6000825160005b81811015610b145760208186018101518583015201610afa565b506000920191825250919050565b818103818111156105b1576105b1610a4e565b808201808211156105b1576105b1610a4e565b818103610b53575050565b610b5d8254610906565b67ffffffffffffffff811115610b7557610b756108da565b610b83816109b68454610906565b6000601f821160018114610bb75760008315610b9f5750848201545b600019600385901b1c1916600184901b178455610c1c565b600085815260209020601f19841690600086815260209020845b83811015610bf15782860154825560019586019590910190602001610bd1565b5085831015610c0f5781850154600019600388901b60f8161c191681555b50505060018360011b0184555b5050505050565b634e487b7160e01b600052603160045260246000fdfea2646970667358221220e11b874f28671d32ffab64aaf14a2062c887ce8367dfbb638365c78b561e77e164736f6c63430008130033",
    "linkReferences": {}
  },
  "methodIdentifiers": {
    "addOracle(address,bytes32)": "7e790d31",
    "getOracleAddressById(bytes32)": "3bf84b01",
    "getOracleIdByAddress(address)": "f9180a80",
    "getOracles()": "40884c52",
    "removeOracle(address)": "fdc85fc4"
  },
  "id": 1
}