{"abi":[{"type":"function","name":"getFeesVault","inputs":[],"outputs":[{"name":"","type":"uint256","internalType":"uint256"}],"stateMutability":"view"},{"type":"function","name":"getOracleAddressById","inputs":[{"name":"id_","type":"bytes32","internalType":"bytes32"}],"outputs":[{"name":"","type":"address","internalType":"address"}],"stateMutability":"view"},{"type":"function","name":"getOracleIdByAddress","inputs":[{"name":"oracle_","type":"address","internalType":"address"}],"outputs":[{"name":"","type":"bytes32","internalType":"bytes32"}],"stateMutability":"view"},{"type":"function","name":"getOracles","inputs":[],"outputs":[{"name":"","type":"address[]","internalType":"address[]"}],"stateMutability":"view"}],"bytecode":{"object":"0x608060405234801561001057600080fd5b506104a6806100206000396000f3fe608060405234801561001057600080fd5b506004361061004c5760003560e01c80633bf84b011461005157806340884c5214610097578063d99c5c57146100ac578063f9180a80146100be575b600080fd5b61007a61005f366004610350565b6000908152604260205260409020546001600160a01b031690565b6040516001600160a01b0390911681526020015b60405180910390f35b61009f6100d1565b60405161008e9190610369565b6018545b60405190815260200161008e565b6100b06100cc3660046103b6565b610239565b60435460609060008167ffffffffffffffff8111156100f2576100f26103e6565b60405190808252806020026020018201604052801561011b578160200160208202803683370190505b50905060005b808311156102325760438054829160009183908110610142576101426103fc565b90600052602060002001805461015790610412565b80601f016020809104026020016040519081016040528092919081815260200182805461018390610412565b80156101d05780601f106101a5576101008083540402835291602001916101d0565b820191906000526020600020905b8154815290600101906020018083116101b357829003601f168201915b50505050509050600080602083015191508160601b90508060601c8685815181106101fd576101fd6103fc565b60200260200101906001600160a01b031690816001600160a01b0316815250505050505061022b8160010190565b9050610121565b5092915050565b604080516001600160a01b038316602082015260009182910160405160208183030381529060405261026a9061044c565b604354909150600090815b8082111561034657600060438281548110610292576102926103fc565b9060005260206000200180546102a790610412565b80601f01602080910402602001604051908101604052809291908181526020018280546102d390610412565b80156103205780601f106102f557610100808354040283529160200191610320565b820191906000526020600020905b81548152906001019060200180831161030357829003601f168201915b5050506020830151929350505080860361033c57604082015194505b5050600101610275565b5090949350505050565b60006020828403121561036257600080fd5b5035919050565b6020808252825182820181905260009190848201906040850190845b818110156103aa5783516001600160a01b031683529284019291840191600101610385565b50909695505050505050565b6000602082840312156103c857600080fd5b81356001600160a01b03811681146103df57600080fd5b9392505050565b634e487b7160e01b600052604160045260246000fd5b634e487b7160e01b600052603260045260246000fd5b600181811c9082168061042657607f821691505b60208210810361044657634e487b7160e01b600052602260045260246000fd5b50919050565b805160208083015191908110156104465760001960209190910360031b1b1691905056fea2646970667358221220413c8ce0be9b6bd9796b8add71126fef3c080304764f2250dbe7ca9eb635481764736f6c63430008130033","linkReferences":{}},"methodIdentifiers":{"getFeesVault()":"d99c5c57","getOracleAddressById(bytes32)":"3bf84b01","getOracleIdByAddress(address)":"f9180a80","getOracles()":"40884c52"},"id":6}