{
  "abi": [
    {
      "inputs": [],
      "name": "getFeesVault",
      "outputs": [
        {
          "internalType": "uint256",
          "name": "",
          "type": "uint256"
        }
      ],
      "stateMutability": "view",
      "type": "function"
    }
  ],
  "bytecode": {
    "object": "0x6080604052348015600f57600080fd5b50607880601d6000396000f3fe6080604052348015600f57600080fd5b506004361060285760003560e01c8063d99c5c5714602d575b600080fd5b60185460405190815260200160405180910390f3fea26469706673582212203f0c45833a65ad8e66d39a618e960a47add2979c263aa5509ccb61aa14b5278b64736f6c63430008130033",
    "linkReferences": {}
  },
  "methodIdentifiers": {
    "getFeesVault()": "d99c5c57"
  },
  "id": 4
}