{
  "abi": [
    {
      "inputs": [],
      "name": "getFeesVault",
      "outputs": [
        {
          "internalType": "uint256",
          "name": "",
          "type": "uint256"
        }
      ],
      "stateMutability": "view",
      "type": "function"
    },
    {
      "inputs": [
        {
          "internalType": "bytes32",
          "name": "id_",
          "type": "bytes32"
        }
      ],
      "name": "getOracleAddressById",
      "outputs": [
        {
          "internalType": "address",
          "name": "",
          "type": "address"
        }
      ],
      "stateMutability": "view",
      "type": "function"
    },
    {
      "inputs": [
        {
          "internalType": "address",
          "name": "oracle_",
          "type": "address"
        }
      ],
      "name": "getOracleIdByAddress",
      "outputs": [
        {
          "internalType": "bytes32",
          "name": "",
          "type": "bytes32"
        }
      ],
      "stateMutability": "view",
      "type": "function"
    },
    {
      "inputs": [],
      "name": "getOracles",
      "outputs": [
        {
          "internalType": "address[]",
          "name": "",
          "type": "address[]"
        }
      ],
      "stateMutability": "view",
      "type": "function"
    }
  ],
  "bytecode": {
    "object": "0x608060405234801561001057600080fd5b5061046a806100206000396000f3fe608060405234801561001057600080fd5b506004361061004c5760003560e01c80633bf84b011461005157806340884c5214610097578063d99c5c57146100ac578063f9180a80146100be575b600080fd5b61007a61005f366004610338565b6000908152604260205260409020546001600160a01b031690565b6040516001600160a01b0390911681526020015b60405180910390f35b61009f6100d1565b60405161008e9190610351565b6018545b60405190815260200161008e565b6100b06100cc36600461039e565b610239565b60435460609060008167ffffffffffffffff8111156100f2576100f26103ce565b60405190808252806020026020018201604052801561011b578160200160208202803683370190505b50905060005b808311156102325760438054829160009183908110610142576101426103e4565b906000526020600020018054610157906103fa565b80601f0160208091040260200160405190810160405280929190818152602001828054610183906103fa565b80156101d05780601f106101a5576101008083540402835291602001916101d0565b820191906000526020600020905b8154815290600101906020018083116101b357829003601f168201915b50505050509050600080602083015191508160601b90508060601c8685815181106101fd576101fd6103e4565b60200260200101906001600160a01b031690816001600160a01b0316815250505050505061022b8160010190565b9050610121565b5092915050565b6043546000906bffffffffffffffffffffffff19606084901b1690825b8082111561032d57600060438281548110610273576102736103e4565b906000526020600020018054610288906103fa565b80601f01602080910402602001604051908101604052809291908181526020018280546102b4906103fa565b80156103015780601f106102d657610100808354040283529160200191610301565b820191906000526020600020905b8154815290600101906020018083116102e457829003601f168201915b5050506020830151929350505080850361032357506040015195945050505050565b5050600101610256565b506000949350505050565b60006020828403121561034a57600080fd5b5035919050565b6020808252825182820181905260009190848201906040850190845b818110156103925783516001600160a01b03168352928401929184019160010161036d565b50909695505050505050565b6000602082840312156103b057600080fd5b81356001600160a01b03811681146103c757600080fd5b9392505050565b634e487b7160e01b600052604160045260246000fd5b634e487b7160e01b600052603260045260246000fd5b600181811c9082168061040e57607f821691505b60208210810361042e57634e487b7160e01b600052602260045260246000fd5b5091905056fea26469706673582212208bdf6cac1cac7074588ef1d2c7658a9f522a3ab481610e00fe8e5183f0b90aa564736f6c63430008130033",
    "linkReferences": {}
  },
  "methodIdentifiers": {
    "getFeesVault()": "d99c5c57",
    "getOracleAddressById(bytes32)": "3bf84b01",
    "getOracleIdByAddress(address)": "f9180a80",
    "getOracles()": "40884c52"
  },
  "id": 5
}