{
  "abi": [
    {
      "inputs": [],
      "name": "getFeesVault",
      "outputs": [
        {
          "internalType": "uint256",
          "name": "",
          "type": "uint256"
        }
      ],
      "stateMutability": "view",
      "type": "function"
    }
  ],
  "bytecode": {
    "object": "0x6080604052348015600f57600080fd5b50607880601d6000396000f3fe6080604052348015600f57600080fd5b506004361060285760003560e01c8063d99c5c5714602d575b600080fd5b60185460405190815260200160405180910390f3fea2646970667358221220cd10b312c05fd29f01ee081e772054e2dff39cbc889a2f5edfb27dd89464e88464736f6c63430008130033",
    "linkReferences": {}
  },
  "methodIdentifiers": {
    "getFeesVault()": "d99c5c57"
  },
  "id": 5
}