{
  "abi": [
    {
      "inputs": [],
      "name": "getVolatilityIndex",
      "outputs": [
        {
          "internalType": "int256",
          "name": "",
          "type": "int256"
        }
      ],
      "stateMutability": "pure",
      "type": "function"
    }
  ],
  "bytecode": {
    "object": "0x6080604052348015600f57600080fd5b50607780601d6000396000f3fe6080604052348015600f57600080fd5b506004361060285760003560e01c806383cf65d414602d575b600080fd5b603260405190815260200160405180910390f3fea2646970667358221220fc911f1aaba5b860de76b18be095a7368d931bf9a9736bd0a05df423527d11c164736f6c63430008130033",
    "linkReferences": {}
  },
  "methodIdentifiers": {
    "getVolatilityIndex()": "83cf65d4"
  },
  "id": 52
}