{"abi":[{"type":"function","name":"getVolatilityIndex","inputs":[],"outputs":[{"name":"","type":"int256","internalType":"int256"}],"stateMutability":"pure"}],"bytecode":{"object":"0x6080604052348015600f57600080fd5b50607780601d6000396000f3fe6080604052348015600f57600080fd5b506004361060285760003560e01c806383cf65d414602d575b600080fd5b603260405190815260200160405180910390f3fea26469706673582212201dd7df4b95c1801c8d0d44962244a757c22742dc6297d5a0fde4338dd5e7fba064736f6c63430008130033","linkReferences":{}},"methodIdentifiers":{"getVolatilityIndex()":"83cf65d4"},"id":65}