{
  "abi": [
    {
      "inputs": [
        {
          "internalType": "uint32[]",
          "name": "secsAgo_",
          "type": "uint32[]"
        }
      ],
      "name": "observe",
      "outputs": [
        {
          "internalType": "int56[]",
          "name": "",
          "type": "int56[]"
        },
        {
          "internalType": "uint160[]",
          "name": "",
          "type": "uint160[]"
        }
      ],
      "stateMutability": "pure",
      "type": "function"
    }
  ],
  "bytecode": {
    "object": "0x608060405234801561001057600080fd5b5061048e806100206000396000f3fe608060405234801561001057600080fd5b506004361061002b5760003560e01c8063883bdbfd14610030575b600080fd5b61004361003e366004610250565b61005a565b6040516100519291906102c5565b60405180910390f35b604080516002808252606082810190935282916000918160200160208202803683375050604080516002808252606082018352939450600093909250906020830190803683370190505090506103e860006100bc8266fff674785b0e64610362565b90506000888860008181106100d3576100d3610396565b90506020020160208101906100e891906103ac565b6100f39060006103d9565b61010a9063ffffffff1666fff674785b0e64610401565b905061012066ffffffffffffff8316600a610428565b6101339066ffffffffffffff8316610445565b8560008151811061014657610146610396565b60069290920b6020928302919091019091015261016a8366fff674783c26ca610362565b915066fff674783c26ca905061018a66ffffffffffffff8316600a610428565b61019d9066ffffffffffffff8316610445565b856001815181106101b0576101b0610396565b602002602001019060060b908160060b815250506d14163fbe5943be8a5dc8afbe7cde846000815181106101e6576101e6610396565b60200260200101906001600160a01b031690816001600160a01b0316815250506d14163fbe597c9ace812edff277e48460018151811061022857610228610396565b6001600160a01b03909216602092830291909101909101525092945090925050509250929050565b6000806020838503121561026357600080fd5b823567ffffffffffffffff8082111561027b57600080fd5b818501915085601f83011261028f57600080fd5b81358181111561029e57600080fd5b8660208260051b85010111156102b357600080fd5b60209290920196919550909350505050565b604080825283519082018190526000906020906060840190828701845b8281101561030157815160060b845292840192908401906001016102e2565b5050508381038285015284518082528583019183019060005b8181101561033f5783516001600160a01b03168352928401929184019160010161031a565b5090979650505050505050565b634e487b7160e01b600052601160045260246000fd5b600066ffffffffffffff8084168061038a57634e487b7160e01b600052601260045260246000fd5b92169190910492915050565b634e487b7160e01b600052603260045260246000fd5b6000602082840312156103be57600080fd5b813563ffffffff811681146103d257600080fd5b9392505050565b63ffffffff8181168382160280821691908281146103f9576103f961034c565b505092915050565b66ffffffffffffff8181168382160190808211156104215761042161034c565b5092915050565b808202811582820484141761043f5761043f61034c565b92915050565b8082018082111561043f5761043f61034c56fea2646970667358221220cd16224a1c85410adb5fc6ae0d04f4b660b8d597f0afdc383b572892262b646964736f6c63430008130033",
    "linkReferences": {}
  },
  "methodIdentifiers": {
    "observe(uint32[])": "883bdbfd"
  },
  "id": 8
}