{
  "abi": [
    {
      "inputs": [
        {
          "internalType": "uint32[]",
          "name": "secsAgo_",
          "type": "uint32[]"
        }
      ],
      "name": "observe",
      "outputs": [
        {
          "internalType": "int56[]",
          "name": "",
          "type": "int56[]"
        },
        {
          "internalType": "uint160[]",
          "name": "",
          "type": "uint160[]"
        }
      ],
      "stateMutability": "view",
      "type": "function"
    }
  ],
  "bytecode": {
    "object": "0x608060405234801561001057600080fd5b50610704806100206000396000f3fe608060405234801561001057600080fd5b506004361061002b5760003560e01c8063883bdbfd14610030575b600080fd5b61004361003e366004610423565b61005a565b604051610051929190610498565b60405180910390f35b604080516002808252606082810190935282916000918160200160208202803683375050604080516002808252606082018352939450600093909250906020830190803683370190505090506103e860006100bc8266fff674785b0e64610535565b90506000888860008181106100d3576100d3610569565b90506020020160208101906100e8919061057f565b6100f39060006105ac565b61010a9063ffffffff1666fff674785b0e646105d4565b905061012066ffffffffffffff8316600a6105fb565b6101339066ffffffffffffff8316610618565b8560008151811061014657610146610569565b60069290920b6020928302919091019091015261016a8366fff674783c26ca610535565b915066fff674783c26ca905061018a66ffffffffffffff8316600a6105fb565b61019d9066ffffffffffffff8316610618565b856001815181106101b0576101b0610569565b602002602001019060060b908160060b815250506101ce6007610371565b6d14163fbe5943be8a5dc8afbe7cde846000815181106101f0576101f0610569565b60200260200101906001600160a01b031690816001600160a01b0316815250506d14163fbe597c9ace812edff277e48460018151811061023257610232610569565b60200260200101906001600160a01b031690816001600160a01b0316815250506102976040518060600160405280602781526020016106a8602791398560008151811061028157610281610569565b60200260200101516001600160a01b03166103b9565b6102c6604051806060016040528060278152602001610681602791398560018151811061028157610281610569565b61031f6040518060400160405280601481526020017303a34b1b5a1bab6bab630ba34bb32b9ad982e9d160651b8152508660008151811061030957610309610569565b602002602001015166ffffffffffffff166103b9565b6103626040518060400160405280601481526020017303a34b1b5a1bab6bab630ba34bb32b9ad98ae9d160651b8152508660018151811061030957610309610569565b50929791965090945050505050565b6103b68160405160240161038791815260200190565b60408051601f198184030181529190526020810180516001600160e01b031663f5b1bba960e01b179052610402565b50565b6103fe82826040516024016103cf92919061062b565b60408051601f198184030181529190526020810180516001600160e01b03166309710a9d60e41b179052610402565b5050565b80516a636f6e736f6c652e6c6f67602083016000808483855afa5050505050565b6000806020838503121561043657600080fd5b823567ffffffffffffffff8082111561044e57600080fd5b818501915085601f83011261046257600080fd5b81358181111561047157600080fd5b8660208260051b850101111561048657600080fd5b60209290920196919550909350505050565b604080825283519082018190526000906020906060840190828701845b828110156104d457815160060b845292840192908401906001016104b5565b5050508381038285015284518082528583019183019060005b818110156105125783516001600160a01b0316835292840192918401916001016104ed565b5090979650505050505050565b634e487b7160e01b600052601160045260246000fd5b600066ffffffffffffff8084168061055d57634e487b7160e01b600052601260045260246000fd5b92169190910492915050565b634e487b7160e01b600052603260045260246000fd5b60006020828403121561059157600080fd5b813563ffffffff811681146105a557600080fd5b9392505050565b63ffffffff8181168382160280821691908281146105cc576105cc61051f565b505092915050565b66ffffffffffffff8181168382160190808211156105f4576105f461051f565b5092915050565b80820281158282048414176106125761061261051f565b92915050565b808201808211156106125761061261051f565b604081526000835180604084015260005b81811015610659576020818701810151606086840101520161063c565b506000606082850101526060601f19601f830116840101915050826020830152939250505056fe7365636f6e64735065724c697175696469747943756d756c617469766558313238735b315d3a207365636f6e64735065724c697175696469747943756d756c617469766558313238735b305d3a20a2646970667358221220e99507fd21e7cb6a2de7c958df30102116d284cea09abf1e45f6dc45616929ed64736f6c63430008130033",
    "linkReferences": {}
  },
  "methodIdentifiers": {
    "observe(uint32[])": "883bdbfd"
  },
  "id": 8
}