{
  "abi": [
    {
      "inputs": [
        {
          "internalType": "uint256",
          "name": "secsAgo_",
          "type": "uint256"
        }
      ],
      "name": "observe",
      "outputs": [
        {
          "internalType": "int56[]",
          "name": "tickCumulatives",
          "type": "int56[]"
        },
        {
          "internalType": "uint160[]",
          "name": "secondsPerLiquidityCumulativeX128s",
          "type": "uint160[]"
        }
      ],
      "stateMutability": "pure",
      "type": "function"
    }
  ],
  "bytecode": {
    "object": "0x608060405234801561001057600080fd5b506102d2806100206000396000f3fe608060405234801561001057600080fd5b506004361061002b5760003560e01c80638002051314610030575b600080fd5b61004361003e36600461017d565b61005a565b604051610051929190610196565b60405180910390f35b606080826103e86100728166fff674785b0e6461021d565b6100839066fff674785b0e64610251565b8460008151811061009657610096610286565b60069290920b602092830291909101909101526100ba8166fff674783c26ca61021d565b6100cb9066fff674783c26ca610251565b846001815181106100de576100de610286565b602002602001019060060b908160060b815250506d14163fbe5943be8a5dc8afbe7cde8360008151811061011457610114610286565b60200260200101906001600160a01b031690816001600160a01b0316815250506d14163fbe597c9ace812edff277e48360018151811061015657610156610286565b60200260200101906001600160a01b031690816001600160a01b0316815250505050915091565b60006020828403121561018f57600080fd5b5035919050565b604080825283519082018190526000906020906060840190828701845b828110156101d257815160060b845292840192908401906001016101b3565b5050508381038285015284518082528583019183019060005b818110156102105783516001600160a01b0316835292840192918401916001016101eb565b5090979650505050505050565b600066ffffffffffffff8084168061024557634e487b7160e01b600052601260045260246000fd5b92169190910492915050565b66ffffffffffffff81811683821601908082111561027f57634e487b7160e01b600052601160045260246000fd5b5092915050565b634e487b7160e01b600052603260045260246000fdfea26469706673582212209197a7664e94a54ec69cbc075c41a02aa1ef27e055f0788b3288232a8a649adb64736f6c63430008130033",
    "linkReferences": {}
  },
  "methodIdentifiers": {
    "observe(uint256)": "80020513"
  },
  "id": 8
}