{
  "abi": [
    {
      "inputs": [
        {
          "internalType": "uint256",
          "name": "secsAgo_",
          "type": "uint256"
        }
      ],
      "name": "observe",
      "outputs": [
        {
          "internalType": "int56[]",
          "name": "tickCumulatives",
          "type": "int56[]"
        },
        {
          "internalType": "uint160[]",
          "name": "secondsPerLiquidityCumulativeX128s",
          "type": "uint160[]"
        }
      ],
      "stateMutability": "pure",
      "type": "function"
    }
  ],
  "bytecode": {
    "object": "0x608060405234801561001057600080fd5b506102d0806100206000396000f3fe608060405234801561001057600080fd5b506004361061002b5760003560e01c80638002051314610030575b600080fd5b61004361003e36600461017b565b61005a565b604051610051929190610194565b60405180910390f35b6060806103e86100718166fff674785b0e6461021b565b6100829066fff674785b0e6461024f565b8360008151811061009557610095610284565b60069290920b602092830291909101909101526100b98166fff674783c26ca61021b565b6100ca9066fff674783c26ca61024f565b836001815181106100dd576100dd610284565b602002602001019060060b908160060b815250506d14163fbe5943be8a5dc8afbe7cde8260008151811061011357610113610284565b60200260200101906001600160a01b031690816001600160a01b0316815250506d14163fbe597c9ace812edff277e48260018151811061015557610155610284565b60200260200101906001600160a01b031690816001600160a01b03168152505050915091565b60006020828403121561018d57600080fd5b5035919050565b604080825283519082018190526000906020906060840190828701845b828110156101d057815160060b845292840192908401906001016101b1565b5050508381038285015284518082528583019183019060005b8181101561020e5783516001600160a01b0316835292840192918401916001016101e9565b5090979650505050505050565b600066ffffffffffffff8084168061024357634e487b7160e01b600052601260045260246000fd5b92169190910492915050565b66ffffffffffffff81811683821601908082111561027d57634e487b7160e01b600052601160045260246000fd5b5092915050565b634e487b7160e01b600052603260045260246000fdfea2646970667358221220c170af2e42a69a5089ebeef6ab7459f7e4694673f9d16de2fc85b51c67a6ad0764736f6c63430008130033",
    "linkReferences": {}
  },
  "methodIdentifiers": {
    "observe(uint256)": "80020513"
  },
  "id": 8
}